{
  "contractName": "BridgeImplementation",
  "abi": [
    {
      "anonymous": false,
      "inputs": [
        {
          "indexed": false,
          "internalType": "address",
          "name": "previousAdmin",
          "type": "address"
        },
        {
          "indexed": false,
          "internalType": "address",
          "name": "newAdmin",
          "type": "address"
        }
      ],
      "name": "AdminChanged",
      "type": "event"
    },
    {
      "anonymous": false,
      "inputs": [
        {
          "indexed": true,
          "internalType": "address",
          "name": "beacon",
          "type": "address"
        }
      ],
      "name": "BeaconUpgraded",
      "type": "event"
    },
    {
      "anonymous": false,
      "inputs": [
        {
          "indexed": true,
          "internalType": "address",
          "name": "oldContract",
          "type": "address"
        },
        {
          "indexed": true,
          "internalType": "address",
          "name": "newContract",
          "type": "address"
        }
      ],
      "name": "ContractUpgraded",
      "type": "event"
    },
    {
      "anonymous": false,
      "inputs": [
        {
          "indexed": true,
          "internalType": "address",
          "name": "implementation",
          "type": "address"
        }
      ],
      "name": "Upgraded",
      "type": "event"
    },
    {
      "inputs": [],
      "name": "WETH",
      "outputs": [
        {
          "internalType": "contract IWETH",
          "name": "",
          "type": "address"
        }
      ],
      "stateMutability": "view",
      "type": "function"
    },
    {
      "inputs": [
        {
          "internalType": "address",
          "name": "tokenAddress",
          "type": "address"
        },
        {
          "internalType": "uint32",
          "name": "nonce",
          "type": "uint32"
        }
      ],
      "name": "attestToken",
      "outputs": [
        {
          "internalType": "uint64",
          "name": "sequence",
          "type": "uint64"
        }
      ],
      "stateMutability": "payable",
      "type": "function"
    },
    {
      "inputs": [
        {
          "internalType": "uint16",
          "name": "chainId_",
          "type": "uint16"
        }
      ],
      "name": "bridgeContracts",
      "outputs": [
        {
          "internalType": "bytes32",
          "name": "",
          "type": "bytes32"
        }
      ],
      "stateMutability": "view",
      "type": "function"
    },
    {
      "inputs": [],
      "name": "chainId",
      "outputs": [
        {
          "internalType": "uint16",
          "name": "",
          "type": "uint16"
        }
      ],
      "stateMutability": "view",
      "type": "function"
    },
    {
      "inputs": [
        {
          "internalType": "bytes",
          "name": "encodedVm",
          "type": "bytes"
        }
      ],
      "name": "completeTransfer",
      "outputs": [],
      "stateMutability": "nonpayable",
      "type": "function"
    },
    {
      "inputs": [
        {
          "internalType": "bytes",
          "name": "encodedVm",
          "type": "bytes"
        }
      ],
      "name": "completeTransferAndUnwrapETH",
      "outputs": [],
      "stateMutability": "nonpayable",
      "type": "function"
    },
    {
      "inputs": [
        {
          "internalType": "bytes",
          "name": "encodedVm",
          "type": "bytes"
        }
      ],
      "name": "createWrapped",
      "outputs": [
        {
          "internalType": "address",
          "name": "token",
          "type": "address"
        }
      ],
      "stateMutability": "nonpayable",
      "type": "function"
    },
    {
      "inputs": [
        {
          "components": [
            {
              "internalType": "uint8",
              "name": "payloadID",
              "type": "uint8"
            },
            {
              "internalType": "bytes32",
              "name": "tokenAddress",
              "type": "bytes32"
            },
            {
              "internalType": "uint16",
              "name": "tokenChain",
              "type": "uint16"
            },
            {
              "internalType": "uint8",
              "name": "decimals",
              "type": "uint8"
            },
            {
              "internalType": "bytes32",
              "name": "symbol",
              "type": "bytes32"
            },
            {
              "internalType": "bytes32",
              "name": "name",
              "type": "bytes32"
            }
          ],
          "internalType": "struct BridgeStructs.AssetMeta",
          "name": "meta",
          "type": "tuple"
        }
      ],
      "name": "encodeAssetMeta",
      "outputs": [
        {
          "internalType": "bytes",
          "name": "encoded",
          "type": "bytes"
        }
      ],
      "stateMutability": "pure",
      "type": "function"
    },
    {
      "inputs": [
        {
          "components": [
            {
              "internalType": "uint8",
              "name": "payloadID",
              "type": "uint8"
            },
            {
              "internalType": "uint256",
              "name": "amount",
              "type": "uint256"
            },
            {
              "internalType": "bytes32",
              "name": "tokenAddress",
              "type": "bytes32"
            },
            {
              "internalType": "uint16",
              "name": "tokenChain",
              "type": "uint16"
            },
            {
              "internalType": "bytes32",
              "name": "to",
              "type": "bytes32"
            },
            {
              "internalType": "uint16",
              "name": "toChain",
              "type": "uint16"
            },
            {
              "internalType": "uint256",
              "name": "fee",
              "type": "uint256"
            }
          ],
          "internalType": "struct BridgeStructs.Transfer",
          "name": "transfer",
          "type": "tuple"
        }
      ],
      "name": "encodeTransfer",
      "outputs": [
        {
          "internalType": "bytes",
          "name": "encoded",
          "type": "bytes"
        }
      ],
      "stateMutability": "pure",
      "type": "function"
    },
    {
      "inputs": [
        {
          "internalType": "bytes32",
          "name": "hash",
          "type": "bytes32"
        }
      ],
      "name": "governanceActionIsConsumed",
      "outputs": [
        {
          "internalType": "bool",
          "name": "",
          "type": "bool"
        }
      ],
      "stateMutability": "view",
      "type": "function"
    },
    {
      "inputs": [],
      "name": "governanceChainId",
      "outputs": [
        {
          "internalType": "uint16",
          "name": "",
          "type": "uint16"
        }
      ],
      "stateMutability": "view",
      "type": "function"
    },
    {
      "inputs": [],
      "name": "governanceContract",
      "outputs": [
        {
          "internalType": "bytes32",
          "name": "",
          "type": "bytes32"
        }
      ],
      "stateMutability": "view",
      "type": "function"
    },
    {
      "inputs": [
        {
          "internalType": "address",
          "name": "impl",
          "type": "address"
        }
      ],
      "name": "isInitialized",
      "outputs": [
        {
          "internalType": "bool",
          "name": "",
          "type": "bool"
        }
      ],
      "stateMutability": "view",
      "type": "function"
    },
    {
      "inputs": [
        {
          "internalType": "bytes32",
          "name": "hash",
          "type": "bytes32"
        }
      ],
      "name": "isTransferCompleted",
      "outputs": [
        {
          "internalType": "bool",
          "name": "",
          "type": "bool"
        }
      ],
      "stateMutability": "view",
      "type": "function"
    },
    {
      "inputs": [
        {
          "internalType": "address",
          "name": "token",
          "type": "address"
        }
      ],
      "name": "isWrappedAsset",
      "outputs": [
        {
          "internalType": "bool",
          "name": "",
          "type": "bool"
        }
      ],
      "stateMutability": "view",
      "type": "function"
    },
    {
      "inputs": [
        {
          "internalType": "address",
          "name": "token",
          "type": "address"
        }
      ],
      "name": "outstandingBridged",
      "outputs": [
        {
          "internalType": "uint256",
          "name": "",
          "type": "uint256"
        }
      ],
      "stateMutability": "view",
      "type": "function"
    },
    {
      "inputs": [
        {
          "internalType": "bytes",
          "name": "encoded",
          "type": "bytes"
        }
      ],
      "name": "parseAssetMeta",
      "outputs": [
        {
          "components": [
            {
              "internalType": "uint8",
              "name": "payloadID",
              "type": "uint8"
            },
            {
              "internalType": "bytes32",
              "name": "tokenAddress",
              "type": "bytes32"
            },
            {
              "internalType": "uint16",
              "name": "tokenChain",
              "type": "uint16"
            },
            {
              "internalType": "uint8",
              "name": "decimals",
              "type": "uint8"
            },
            {
              "internalType": "bytes32",
              "name": "symbol",
              "type": "bytes32"
            },
            {
              "internalType": "bytes32",
              "name": "name",
              "type": "bytes32"
            }
          ],
          "internalType": "struct BridgeStructs.AssetMeta",
          "name": "meta",
          "type": "tuple"
        }
      ],
      "stateMutability": "pure",
      "type": "function"
    },
    {
      "inputs": [
        {
          "internalType": "bytes",
          "name": "encoded",
          "type": "bytes"
        }
      ],
      "name": "parseRegisterChain",
      "outputs": [
        {
          "components": [
            {
              "internalType": "bytes32",
              "name": "module",
              "type": "bytes32"
            },
            {
              "internalType": "uint8",
              "name": "action",
              "type": "uint8"
            },
            {
              "internalType": "uint16",
              "name": "chainId",
              "type": "uint16"
            },
            {
              "internalType": "uint16",
              "name": "emitterChainID",
              "type": "uint16"
            },
            {
              "internalType": "bytes32",
              "name": "emitterAddress",
              "type": "bytes32"
            }
          ],
          "internalType": "struct BridgeStructs.RegisterChain",
          "name": "chain",
          "type": "tuple"
        }
      ],
      "stateMutability": "pure",
      "type": "function"
    },
    {
      "inputs": [
        {
          "internalType": "bytes",
          "name": "encoded",
          "type": "bytes"
        }
      ],
      "name": "parseTransfer",
      "outputs": [
        {
          "components": [
            {
              "internalType": "uint8",
              "name": "payloadID",
              "type": "uint8"
            },
            {
              "internalType": "uint256",
              "name": "amount",
              "type": "uint256"
            },
            {
              "internalType": "bytes32",
              "name": "tokenAddress",
              "type": "bytes32"
            },
            {
              "internalType": "uint16",
              "name": "tokenChain",
              "type": "uint16"
            },
            {
              "internalType": "bytes32",
              "name": "to",
              "type": "bytes32"
            },
            {
              "internalType": "uint16",
              "name": "toChain",
              "type": "uint16"
            },
            {
              "internalType": "uint256",
              "name": "fee",
              "type": "uint256"
            }
          ],
          "internalType": "struct BridgeStructs.Transfer",
          "name": "transfer",
          "type": "tuple"
        }
      ],
      "stateMutability": "pure",
      "type": "function"
    },
    {
      "inputs": [
        {
          "internalType": "bytes",
          "name": "encoded",
          "type": "bytes"
        }
      ],
      "name": "parseUpgrade",
      "outputs": [
        {
          "components": [
            {
              "internalType": "bytes32",
              "name": "module",
              "type": "bytes32"
            },
            {
              "internalType": "uint8",
              "name": "action",
              "type": "uint8"
            },
            {
              "internalType": "uint16",
              "name": "chainId",
              "type": "uint16"
            },
            {
              "internalType": "bytes32",
              "name": "newContract",
              "type": "bytes32"
            }
          ],
          "internalType": "struct BridgeStructs.UpgradeContract",
          "name": "chain",
          "type": "tuple"
        }
      ],
      "stateMutability": "pure",
      "type": "function"
    },
    {
      "inputs": [
        {
          "internalType": "bytes",
          "name": "encodedVM",
          "type": "bytes"
        }
      ],
      "name": "registerChain",
      "outputs": [],
      "stateMutability": "nonpayable",
      "type": "function"
    },
    {
      "inputs": [],
      "name": "tokenImplementation",
      "outputs": [
        {
          "internalType": "address",
          "name": "",
          "type": "address"
        }
      ],
      "stateMutability": "view",
      "type": "function"
    },
    {
      "inputs": [
        {
          "internalType": "address",
          "name": "token",
          "type": "address"
        },
        {
          "internalType": "uint256",
          "name": "amount",
          "type": "uint256"
        },
        {
          "internalType": "uint16",
          "name": "recipientChain",
          "type": "uint16"
        },
        {
          "internalType": "bytes32",
          "name": "recipient",
          "type": "bytes32"
        },
        {
          "internalType": "uint256",
          "name": "arbiterFee",
          "type": "uint256"
        },
        {
          "internalType": "uint32",
          "name": "nonce",
          "type": "uint32"
        }
      ],
      "name": "transferTokens",
      "outputs": [
        {
          "internalType": "uint64",
          "name": "sequence",
          "type": "uint64"
        }
      ],
      "stateMutability": "payable",
      "type": "function"
    },
    {
      "inputs": [
        {
          "internalType": "bytes",
          "name": "encodedVM",
          "type": "bytes"
        }
      ],
      "name": "upgrade",
      "outputs": [],
      "stateMutability": "nonpayable",
      "type": "function"
    },
    {
      "inputs": [],
      "name": "wormhole",
      "outputs": [
        {
          "internalType": "contract IWormhole",
          "name": "",
          "type": "address"
        }
      ],
      "stateMutability": "view",
      "type": "function"
    },
    {
      "inputs": [
        {
          "internalType": "uint16",
          "name": "recipientChain",
          "type": "uint16"
        },
        {
          "internalType": "bytes32",
          "name": "recipient",
          "type": "bytes32"
        },
        {
          "internalType": "uint256",
          "name": "arbiterFee",
          "type": "uint256"
        },
        {
          "internalType": "uint32",
          "name": "nonce",
          "type": "uint32"
        }
      ],
      "name": "wrapAndTransferETH",
      "outputs": [
        {
          "internalType": "uint64",
          "name": "sequence",
          "type": "uint64"
        }
      ],
      "stateMutability": "payable",
      "type": "function"
    },
    {
      "inputs": [
        {
          "internalType": "uint16",
          "name": "tokenChainId",
          "type": "uint16"
        },
        {
          "internalType": "bytes32",
          "name": "tokenAddress",
          "type": "bytes32"
        }
      ],
      "name": "wrappedAsset",
      "outputs": [
        {
          "internalType": "address",
          "name": "",
          "type": "address"
        }
      ],
      "stateMutability": "view",
      "type": "function"
    },
    {
      "stateMutability": "payable",
      "type": "receive"
    },
    {
      "inputs": [
        {
          "internalType": "uint16",
          "name": "chainId",
          "type": "uint16"
        },
        {
          "internalType": "address",
          "name": "wormhole",
          "type": "address"
        },
        {
          "internalType": "uint16",
          "name": "governanceChainId",
          "type": "uint16"
        },
        {
          "internalType": "bytes32",
          "name": "governanceContract",
          "type": "bytes32"
        },
        {
          "internalType": "address",
          "name": "tokenImplementation",
          "type": "address"
        },
        {
          "internalType": "address",
          "name": "WETH",
          "type": "address"
        }
      ],
      "name": "initialize",
      "outputs": [],
      "stateMutability": "nonpayable",
      "type": "function"
    },
    {
      "inputs": [],
      "name": "implementation",
      "outputs": [
        {
          "internalType": "address",
          "name": "",
          "type": "address"
        }
      ],
      "stateMutability": "view",
      "type": "function"
    }
  ],
  "bytecode": "0x608060405234801561001057600080fd5b50614948806100206000396000f3fe608060405260043610620001eb5760003560e01c80639a8a0592116200010b578063b96c7e4d11620000a1578063e8059810116200006c578063e80598101462000730578063fbe3c2cd1462000755578063fbeeacd91462000776578063ff200cde14620007d657600080fd5b8063b96c7e4d146200067d578063c48fa11514620006b7578063c687851914620006ce578063d60b347f14620006f357600080fd5b8063ad5c464811620000e2578063ad5c464814620005dd578063ad66a5f114620005fd578063b046223b1462000641578063b172b222146200066657600080fd5b80639a8a0592146200055a578063a5799f931462000584578063aa4efa5b14620005a957600080fd5b80632b51137511620001815780635c60da1b11620001585780635c60da1b14620004d75780635f85426614620004ef57806384acd1bb14620005235780639981509f146200054357600080fd5b80632b51137514620003fa5780632c3c02a414620004835780632f3a3d5d14620004b757600080fd5b80630f5287b011620001c25780630f5287b014620003195780631a2be4da14620003495780631ff1e28614620003975780632539464514620003d557600080fd5b806301f5325514620001f857806306dee278146200027657806307dfd8fb146200029d57600080fd5b36620001f357005b600080fd5b3480156200020557600080fd5b506200021d6200021736600462003640565b620007fb565b6040516200026d9190600060a0820190508251825260ff6020840151166020830152604083015161ffff808216604085015280606086015116606085015250506080830151608083015292915050565b60405180910390f35b3480156200028357600080fd5b506200029b62000295366004620039dc565b62000a05565b005b348015620002aa57600080fd5b50620002c2620002bc36600462003640565b62000b4c565b6040516200026d9190600060c08201905060ff83511682526020830151602083015261ffff604084015116604083015260ff60608401511660608301526080830151608083015260a083015160a083015292915050565b620003306200032a3660046200354b565b62000cdb565b6040516001600160401b0390911681526020016200026d565b3480156200035657600080fd5b5062000386620003683660046200352e565b6001600160a01b031660009081526009602052604090205460ff1690565b60405190151581526020016200026d565b348015620003a457600080fd5b50620003bc620003b636600462003a57565b62000fd4565b6040516001600160a01b0390911681526020016200026d565b348015620003e257600080fd5b506200029b620003f436600462003640565b62001003565b3480156200040757600080fd5b506200041f6200041936600462003640565b620010e7565b6040516200026d9190600060e08201905060ff83511682526020830151602083015260408301516040830152606083015161ffff8082166060850152608085015160808501528060a08601511660a0850152505060c083015160c083015292915050565b3480156200049057600080fd5b5062000386620004a23660046200360e565b60009081526005602052604090205460ff1690565b348015620004c457600080fd5b506001546001600160a01b0316620003bc565b348015620004e457600080fd5b50620003bc6200129c565b348015620004fc57600080fd5b50620005146200050e3660046200378a565b620012b6565b6040516200026d919062003bb4565b3480156200053057600080fd5b506000546001600160a01b0316620003bc565b620003306200055436600462003a85565b6200134b565b3480156200056757600080fd5b5060025461ffff165b60405161ffff90911681526020016200026d565b3480156200059157600080fd5b506200029b620005a336600462003640565b620015e5565b348015620005b657600080fd5b5062000386620005c83660046200360e565b60009081526006602052604090205460ff1690565b348015620005ea57600080fd5b506004546001600160a01b0316620003bc565b3480156200060a57600080fd5b50620006326200061c3660046200399e565b61ffff166000908152600b602052604090205490565b6040519081526020016200026d565b3480156200064e57600080fd5b506200051462000660366004620036f0565b620016eb565b3480156200067357600080fd5b5060035462000632565b3480156200068a57600080fd5b50620006326200069c3660046200352e565b6001600160a01b03166000908152600a602052604090205490565b62000330620006c8366004620035b6565b62001764565b348015620006db57600080fd5b506200029b620006ed36600462003640565b62001a64565b3480156200070057600080fd5b5062000386620007123660046200352e565b6001600160a01b031660009081526007602052604090205460ff1690565b3480156200073d57600080fd5b50620003bc6200074f36600462003640565b62001a74565b3480156200076257600080fd5b5060025462010000900461ffff1662000570565b3480156200078357600080fd5b506200079b6200079536600462003640565b62001baf565b6040516200026d91908151815260208083015160ff169082015260408083015161ffff16908201526060918201519181019190915260800190565b348015620007e357600080fd5b506200029b620007f536600462003640565b62001d8a565b6040805160a08101825260008082526020820181905291810182905260608101829052608081018290529062000832838262001d97565b82526200084160208262003d0a565b82519091506a546f6b656e42726964676514620008b15760405162461bcd60e51b815260206004820152602360248201527f696e76616c6964205265676973746572436861696e3a2077726f6e67206d6f64604482015262756c6560e81b60648201526084015b60405180910390fd5b620008bd838262001df9565b60ff166020830152620008d260018262003d0a565b9050816020015160ff16600114620009395760405162461bcd60e51b815260206004820152602360248201527f696e76616c6964205265676973746572436861696e3a2077726f6e672061637460448201526234b7b760e91b6064820152608401620008a8565b62000945838262001e59565b61ffff1660408301526200095b60028262003d0a565b905062000969838262001e59565b61ffff1660608301526200097f60028262003d0a565b90506200098d838262001d97565b60808301526200099f60208262003d0a565b905080835114620009ff5760405162461bcd60e51b815260206004820152602360248201527f696e76616c6964205265676973746572436861696e3a2077726f6e67206c656e6044820152620cee8d60eb1b6064820152608401620008a8565b50919050565b600062000a397f360894a13ba1a3210667c828492db98dca3e2076cc3735a920a3ca505d382bbc546001600160a01b031690565b905062000a5e816001600160a01b031660009081526007602052604090205460ff1690565b1562000aa35760405162461bcd60e51b8152602060048201526013602482015272185b1c9958591e481a5b9a5d1a585b1a5e9959606a1b6044820152606401620008a8565b62000acc816001600160a01b03166000908152600760205260409020805460ff19166001179055565b60028054600080546001600160a01b038a166001600160a01b031990911617905561ffff878116620100000263ffffffff19909216908a16171790556003849055600180546001600160a01b0319166001600160a01b038516179055600480546001600160a01b0319166001600160a01b03841617905550505050505050565b6040805160c081018252600080825260208201819052918101829052606081018290526080810182905260a081018290529062000b8a838262001df9565b60ff16825262000b9c60018262003d0a565b9050816000015160ff1660021462000beb5760405162461bcd60e51b8152602060048201526011602482015270696e76616c69642041737365744d65746160781b6044820152606401620008a8565b62000bf7838262001d97565b60208084019190915262000c0c908262003d0a565b905062000c1a838262001e59565b61ffff16604083015262000c3060028262003d0a565b905062000c3e838262001df9565b60ff16606083015262000c5360018262003d0a565b905062000c61838262001d97565b608083015262000c7360208262003d0a565b905062000c81838262001d97565b60a083015262000c9360208262003d0a565b905080835114620009ff5760405162461bcd60e51b8152602060048201526011602482015270696e76616c69642041737365744d65746160781b6044820152606401620008a8565b600080600062000d03896001600160a01b031660009081526009602052604090205460ff1690565b1562000dfd57886001600160a01b0316639a8a05926040518163ffffffff1660e01b815260040160206040518083038186803b15801562000d4357600080fd5b505afa15801562000d58573d6000803e3d6000fd5b505050506040513d601f19601f8201168201806040525081019062000d7e9190620039bd565b9150886001600160a01b0316633d6c043b6040518163ffffffff1660e01b815260040160206040518083038186803b15801562000dba57600080fd5b505afa15801562000dcf573d6000803e3d6000fd5b505050506040513d601f19601f8201168201806040525081019062000df5919062003627565b905062000e11565b505060025461ffff166001600160a01b0388165b60408051600481526024810182526020810180516001600160e01b031663313ce56760e01b17905290516000916001600160a01b038c169162000e55919062003b3d565b600060405180830381855afa9150503d806000811462000e92576040519150601f19603f3d011682016040523d82523d6000602084013e62000e97565b606091505b5091505060008180602001905181019062000eb3919062003af0565b90508987600860ff8416111562000f0e57600062000ed360088562003e8a565b62000ee090600a62003d8f565b905062000eee818462003d25565b925062000efc818362003d25565b915062000f0a818462003e4e565b9c50505b60025461ffff8781169116141562000f405762000f2e8d33308f62001eba565b62000f3a8d8362001f2d565b62000fb1565b62000f4e8d33308f62001eba565b604051632770a7eb60e21b8152306004820152602481018d90526001600160a01b038e1690639dc29fac90604401600060405180830381600087803b15801562000f9757600080fd5b505af115801562000fac573d6000803e3d6000fd5b505050505b62000fc38686848e8e86348f62001ffa565b9d9c50505050505050505050505050565b61ffff821660009081526008602090815260408083208484529091529020546001600160a01b03165b92915050565b6000806000620010138462002138565b9250925092508181906200103c5760405162461bcd60e51b8152600401620008a8919062003bb4565b50620010628361014001516000908152600560205260409020805460ff19166001179055565b6000620010738460e0015162001baf565b90506200108360025461ffff1690565b61ffff16816040015161ffff1614620010d05760405162461bcd60e51b815260206004820152600e60248201526d1ddc9bdb99c818da185a5b881a5960921b6044820152606401620008a8565b6060810151620010e09062002367565b5050505050565b6040805160e081018252600080825260208201819052918101829052606081018290526080810182905260a0810182905260c08101829052906200112c838262001df9565b60ff1682526200113e60018262003d0a565b9050816000015160ff166001146200118c5760405162461bcd60e51b815260206004820152601060248201526f34b73b30b634b2102a3930b739b332b960811b6044820152606401620008a8565b6200119883826200249e565b602080840191909152620011ad908262003d0a565b9050620011bb838262001d97565b6040830152620011cd60208262003d0a565b9050620011db838262001e59565b61ffff166060830152620011f160028262003d0a565b9050620011ff838262001d97565b60808301526200121160208262003d0a565b90506200121f838262001e59565b61ffff1660a08301526200123560028262003d0a565b90506200124383826200249e565b60c08301526200125560208262003d0a565b905080835114620009ff5760405162461bcd60e51b815260206004820152601060248201526f34b73b30b634b2102a3930b739b332b960811b6044820152606401620008a8565b6000620012b16001546001600160a01b031690565b905090565b8051602080830151604080850151606080870151608088015160a089015160c08a0151955160f89990991b6001600160f81b031916978901979097526021880195909552604187019290925260f091821b6001600160f01b03199081166061880152606387019490945293901b909116608384015260858301529060a5015b6040516020818303038152906040529050919050565b600080620013616000546001600160a01b031690565b6001600160a01b0316631a90a2196040518163ffffffff1660e01b815260040160206040518083038186803b1580156200139a57600080fd5b505afa158015620013af573d6000803e3d6000fd5b505050506040513d601f19601f82011682018060405250810190620013d5919062003627565b9050348110620014335760405162461bcd60e51b815260206004820152602260248201527f76616c756520697320736d616c6c6572207468616e20776f726d686f6c652066604482015261656560f01b6064820152608401620008a8565b600062001441823462003e70565b905080851115620014aa5760405162461bcd60e51b815260206004820152602c60248201527f66656520697320626967676572207468616e20616d6f756e74206d696e75732060448201526b776f726d686f6c652066656560a01b6064820152608401620008a8565b6000620014bd6402540be4008362003d25565b90506000620014d26402540be4008862003d25565b90506000620014e7836402540be40062003e4e565b620014f3908562003e70565b905080156200152c57604051339082156108fc029083906000818181858888f193505050501580156200152a573d6000803e3d6000fd5b505b6004546001600160a01b031663d0e30db062001549838762003e70565b6040518263ffffffff1660e01b81526004016000604051808303818588803b1580156200157557600080fd5b505af11580156200158a573d6000803e3d6000fd5b5050505050620015ad620015a66004546001600160a01b031690565b8462001f2d565b620015d7620015bf60025461ffff1690565b6004546001600160a01b0316858d8d878b8e62001ffa565b9a9950505050505050505050565b6000806000620015f58462002138565b9250925092508181906200161e5760405162461bcd60e51b8152600401620008a8919062003bb4565b50620016448361014001516000908152600560205260409020805460ff19166001179055565b6000620016558460e00151620007fb565b90506200166560025461ffff1690565b61ffff16816040015161ffff161480620016855750604081015161ffff16155b620016c65760405162461bcd60e51b815260206004820152601060248201526f1a5b9d985b1a590818da185a5b881a5960821b6044820152606401620008a8565b620010e08160600151826080015161ffff9091166000908152600b6020526040902055565b8051602080830151604080850151606080870151608088015160a0890151945160f898891b6001600160f81b031990811698820198909852602181019690965260f09390931b6001600160f01b031916604186015290951b90931660438301526044820192909252606481019190915260840162001335565b60408051600481526024810182526020810180516001600160e01b031663313ce56760e01b179052905160009182916001600160a01b03861691620017a99162003b3d565b600060405180830381855afa9150503d8060008114620017e6576040519150601f19603f3d011682016040523d82523d6000602084013e620017eb565b606091505b5060408051600481526024810182526020810180516001600160e01b03166395d89b4160e01b1790529051919350600092506001600160a01b0387169162001834919062003b3d565b600060405180830381855afa9150503d806000811462001871576040519150601f19603f3d011682016040523d82523d6000602084013e62001876565b606091505b5060408051600481526024810182526020810180516001600160e01b03166306fdde0360e01b1790529051919350600092506001600160a01b03881691620018bf919062003b3d565b600060405180830381855afa9150503d8060008114620018fc576040519150601f19603f3d011682016040523d82523d6000602084013e62001901565b606091505b509150506000838060200190518101906200191d919062003af0565b9050600083806020019051810190620019379190620036ba565b9050600083806020019051810190620019519190620036ba565b9050600080602084015191506020830151905060006040518060c00160405280600260ff1681526020018d6001600160a01b031660001b81526020016200199b60025461ffff1690565b61ffff1681526020018760ff1681526020018481526020018381525090506000620019c682620016eb565b9050620019db6000546001600160a01b031690565b6001600160a01b031663b19a437e348e84600f6040518563ffffffff1660e01b815260040162001a0e9392919062003c28565b6020604051808303818588803b15801562001a2857600080fd5b505af115801562001a3d573d6000803e3d6000fd5b50505050506040513d601f19601f8201168201806040525081019062000fc3919062003ad3565b62001a71816000620024f7565b50565b60008060008062001a8d6000546001600160a01b031690565b6001600160a01b031663c0fd8bde866040518263ffffffff1660e01b815260040162001aba919062003bb4565b60006040518083038186803b15801562001ad357600080fd5b505afa15801562001ae8573d6000803e3d6000fd5b505050506040513d6000823e601f3d908101601f1916820160405262001b1291908101906200382f565b92509250925081819062001b3b5760405162461bcd60e51b8152600401620008a8919062003bb4565b5062001b478362002b97565b62001b875760405162461bcd60e51b815260206004820152600f60248201526e34b73b30b634b21032b6b4ba3a32b960891b6044820152606401620008a8565b600062001b988460e0015162000b4c565b905062001ba58162002bd4565b9695505050505050565b60408051608081018252600080825260208201819052918101829052606081018290529062001bdf838262001d97565b825262001bee60208262003d0a565b82519091506a546f6b656e4272696467651462001c5c5760405162461bcd60e51b815260206004820152602560248201527f696e76616c69642055706772616465436f6e74726163743a2077726f6e67206d6044820152646f64756c6560d81b6064820152608401620008a8565b62001c68838262001df9565b60ff16602083015262001c7d60018262003d0a565b9050816020015160ff1660021462001ce65760405162461bcd60e51b815260206004820152602560248201527f696e76616c69642055706772616465436f6e74726163743a2077726f6e67206160448201526431ba34b7b760d91b6064820152608401620008a8565b62001cf2838262001e59565b61ffff16604083015262001d0860028262003d0a565b905062001d16838262001d97565b606083015262001d2860208262003d0a565b905080835114620009ff5760405162461bcd60e51b815260206004820152602560248201527f696e76616c69642055706772616465436f6e74726163743a2077726f6e67206c6044820152640cadccee8d60db1b6064820152608401620008a8565b62001a71816001620024f7565b600062001da682602062003d0a565b8351101562001df05760405162461bcd60e51b8152602060048201526015602482015274746f427974657333325f6f75744f66426f756e647360581b6044820152606401620008a8565b50016020015190565b600062001e0882600162003d0a565b8351101562001e505760405162461bcd60e51b8152602060048201526013602482015272746f55696e74385f6f75744f66426f756e647360681b6044820152606401620008a8565b50016001015190565b600062001e6882600262003d0a565b8351101562001eb15760405162461bcd60e51b8152602060048201526014602482015273746f55696e7431365f6f75744f66426f756e647360601b6044820152606401620008a8565b50016002015190565b6040516001600160a01b038085166024830152831660448201526064810182905262001f279085906323b872dd60e01b906084015b60408051601f198184030181529190526020810180516001600160e01b03166001600160e01b03199093169290921790915262002e82565b50505050565b6001600160a01b0382166000908152600a60205260409020546001600160401b0362001f5a838362003d0a565b111562001fc85760405162461bcd60e51b815260206004820152603560248201527f7472616e736665722065786365656473206d6178206f75747374616e64696e6760448201527408189c9a5919d959081d1bdad95b88185b5bdd5b9d605a1b6064820152608401620008a8565b62001ff58362001fd9848462003d0a565b6001600160a01b039091166000908152600a6020526040902055565b505050565b600086841115620020435760405162461bcd60e51b815260206004820152601260248201527119995948195e18d959591cc8185b5bdd5b9d60721b6044820152606401620008a8565b6040805160e081018252600181526020810189905290810189905261ffff808b16606083015260808201879052871660a082015260c0810185905260006200208b82620012b6565b9050620020a06000546001600160a01b031690565b6001600160a01b031663b19a437e868684600f6040518563ffffffff1660e01b8152600401620020d39392919062003c28565b6020604051808303818588803b158015620020ed57600080fd5b505af115801562002102573d6000803e3d6000fd5b50505050506040513d601f19601f8201168201806040525081019062002129919062003ad3565b9b9a5050505050505050505050565b604080516101608101825260008082526020820181905291810182905260608082018390526080820183905260a0820183905260c0820183905260e082018190526101008201839052610120820152610140810191909152600060606000806000620021ac6000546001600160a01b031690565b6001600160a01b031663c0fd8bde886040518263ffffffff1660e01b8152600401620021d9919062003bb4565b60006040518083038186803b158015620021f257600080fd5b505afa15801562002207573d6000803e3d6000fd5b505050506040513d6000823e601f3d908101601f191682016040526200223191908101906200382f565b925092509250816200224a579194509250905062002360565b60025462010000900461ffff1661ffff16836060015161ffff1614620022a85750506040805180820190915260168152753bb937b7339033b7bb32b93730b731b29031b430b4b760511b602082015290935060009250905062002360565b600354836080015114620022fb57505060408051808201909152601981527f77726f6e6720676f7665726e616e636520636f6e747261637400000000000000602082015290935060009250905062002360565b61014083015160009081526005602052604090205460ff16156200234557826000604051806060016040528060228152602001620048f16022913995509550955050505062002360565b50506040805160208101909152600081529093506001925090505b9193909250565b60006200239b7f360894a13ba1a3210667c828492db98dca3e2076cc3735a920a3ca505d382bbc546001600160a01b031690565b9050620023a88262002f5b565b60408051600481526024810182526020810180516001600160e01b031663204a7f0760e21b179052905160009182916001600160a01b03861691620023ed9162003b3d565b600060405180830381855af49150503d80600081146200242a576040519150601f19603f3d011682016040523d82523d6000602084013e6200242f565b606091505b5091509150818190620024575760405162461bcd60e51b8152600401620008a8919062003bb4565b50836001600160a01b0316836001600160a01b03167f2e4cc16c100f0b55e2df82ab0b1a7e294aa9cbd01b48fbaf622683fbc0507a4960405160405180910390a350505050565b6000620024ad82602062003d0a565b8351101562001df05760405162461bcd60e51b8152602060048201526015602482015274746f55696e743235365f6f75744f66426f756e647360581b6044820152606401620008a8565b60008060006200250f6000546001600160a01b031690565b6001600160a01b031663c0fd8bde866040518263ffffffff1660e01b81526004016200253c919062003bb4565b60006040518083038186803b1580156200255557600080fd5b505afa1580156200256a573d6000803e3d6000fd5b505050506040513d6000823e601f3d908101601f191682016040526200259491908101906200382f565b925092509250818190620025bd5760405162461bcd60e51b8152600401620008a8919062003bb4565b50620025c98362002b97565b620026095760405162461bcd60e51b815260206004820152600f60248201526e34b73b30b634b21032b6b4ba3a32b960891b6044820152606401620008a8565b60006200261a8460e00151620010e7565b90506200263b84610140015160009081526006602052604090205460ff1690565b156200268a5760405162461bcd60e51b815260206004820152601a60248201527f7472616e7366657220616c726561647920636f6d706c657465640000000000006044820152606401620008a8565b620026af8461014001516000908152600660205260409020805460ff19166001179055565b60025461ffff1661ffff168160a0015161ffff1614620027095760405162461bcd60e51b815260206004820152601460248201527334b73b30b634b2103a30b933b2ba1031b430b4b760611b6044820152606401620008a8565b60006200271960025461ffff1690565b61ffff16826060015161ffff1614156200274b5750604081015160208201516200274590829062002f9d565b620027cc565b6000620027618360600151846040015162000fd4565b90506001600160a01b038116620027c95760405162461bcd60e51b815260206004820152602560248201527f6e6f207772617070657220666f72207468697320746f6b656e2063726561746560448201526419081e595d60da1b6064820152608401620008a8565b90505b851580620027e757506004546001600160a01b038281169116145b620028415760405162461bcd60e51b815260206004820152602360248201527f696e76616c696420746f6b656e2c2063616e206f6e6c7920756e77726170205760448201526208aa8960eb1b6064820152608401620008a8565b60408051600481526024810182526020810180516001600160e01b031663313ce56760e01b17905290516000916001600160a01b0384169162002885919062003b3d565b600060405180830381855afa9150503d8060008114620028c2576040519150601f19603f3d011682016040523d82523d6000602084013e620028c7565b606091505b50915050600081806020019051810190620028e3919062003af0565b602085015160c086015191925090600860ff841611156200293a5760006200290d60088562003e8a565b6200291a90600a62003d8f565b905062002928818462003e4e565b925062002936818362003e4e565b9150505b60025461ffff1661ffff16866060015161ffff1614620029b7576040516340c10f1960e01b8152306004820152602481018390526001600160a01b038616906340c10f1990604401600060405180830381600087803b1580156200299d57600080fd5b505af1158015620029b2573d6000803e3d6000fd5b505050505b801562002ac2578181111562002a1b5760405162461bcd60e51b815260206004820152602260248201527f66656520686967686572207468616e207472616e7366657272656420616d6f756044820152611b9d60f21b6064820152608401620008a8565b891562002ab55760048054604051632e1a7d4d60e01b81529182018390526001600160a01b031690632e1a7d4d90602401600060405180830381600087803b15801562002a6757600080fd5b505af115801562002a7c573d6000803e3d6000fd5b505060405133925083156108fc02915083906000818181858888f1935050505015801562002aae573d6000803e3d6000fd5b5062002ac2565b62002ac285338362002fd3565b600062002ad0828462003e70565b60808801519091508b1562002b7b5760048054604051632e1a7d4d60e01b81529182018490526001600160a01b031690632e1a7d4d90602401600060405180830381600087803b15801562002b2457600080fd5b505af115801562002b39573d6000803e3d6000fd5b50506040516001600160a01b038416925084156108fc02915084906000818181858888f1935050505015801562002b74573d6000803e3d6000fd5b5062002b88565b62002b8887828462002fd3565b50505050505050505050505050565b6000816080015162002bbd836060015161ffff166000908152600b602052604090205490565b141562002bcc57506001919050565b506000919050565b600062002be460025461ffff1690565b61ffff16826040015161ffff16141562002c525760405162461bcd60e51b815260206004820152602860248201527f63616e206f6e6c79207772617020746f6b656e732066726f6d20666f726569676044820152676e20636861696e7360c01b6064820152608401620008a8565b60006001600160a01b031662002c718360400151846020015162000fd4565b6001600160a01b03161462002cc95760405162461bcd60e51b815260206004820152601c60248201527f7772617070656420617373657420616c726561647920657869737473000000006044820152606401620008a8565b600063776c176c60e01b62002ce28460a0015162003005565b62002cf1856080015162003005565b8560600151308760400151886020015160405160240162002d189695949392919062003bc9565b60408051601f19818403018152918152602080830180516001600160e01b03166001600160e01b0319909516949094179093525190925060009162002d6291309185910162003b8e565b604051602081830303815290604052905060006040518060200162002d879062003372565b601f1982820381018352601f90910116604081905262002dad9190849060200162003b5b565b604051602081830303815290604052905060008560400151866020015160405160200162002df492919060f09290921b6001600160f01b0319168252600282015260220190565b604051602081830303815290604052805190602001209050808251602084016000f59450843b62002e2457600080fd5b60408087015160208089015161ffff90921660009081526008825283812092815291815282822080546001600160a01b0319166001600160a01b038a1690811790915582526009905220805460ff1916600117905550505050919050565b600062002ed9826040518060400160405280602081526020017f5361666545524332303a206c6f772d6c6576656c2063616c6c206661696c6564815250856001600160a01b0316620031409092919063ffffffff16565b80519091501562001ff5578080602001905181019062002efa9190620035f1565b62001ff55760405162461bcd60e51b815260206004820152602a60248201527f5361666545524332303a204552433230206f7065726174696f6e20646964206e6044820152691bdd081cdd58d8d9595960b21b6064820152608401620008a8565b62002f66816200315b565b6040516001600160a01b038216907fbc7cd75a20ee27fd9adebab32041f755214dbc6bffa90cc0225b39da2e5c2d3b90600090a250565b62002fcf828262002fc3856001600160a01b03166000908152600a602052604090205490565b62001fd9919062003e70565b5050565b6040516001600160a01b03831660248201526044810182905262001ff590849063a9059cbb60e01b9060640162001eef565b606060005b6020811080156200304857508281602081106200303757634e487b7160e01b600052603260045260246000fd5b1a60f81b6001600160f81b03191615155b156200306357806200305a8162003edf565b9150506200300a565b6000816001600160401b038111156200308c57634e487b7160e01b600052604160045260246000fd5b6040519080825280601f01601f191660200182016040528015620030b7576020820181803683370190505b50905060005b828110156200313857848160208110620030e757634e487b7160e01b600052603260045260246000fd5b1a60f81b8282815181106200310c57634e487b7160e01b600052603260045260246000fd5b60200101906001600160f81b031916908160001a905350806200312f8162003edf565b915050620030bd565b509392505050565b606062003151848460008562003202565b90505b9392505050565b803b620031c15760405162461bcd60e51b815260206004820152602d60248201527f455243313936373a206e657720696d706c656d656e746174696f6e206973206e60448201526c1bdd08184818dbdb9d1c9858dd609a1b6064820152608401620008a8565b7f360894a13ba1a3210667c828492db98dca3e2076cc3735a920a3ca505d382bbc80546001600160a01b0319166001600160a01b0392909216919091179055565b606082471015620032655760405162461bcd60e51b815260206004820152602660248201527f416464726573733a20696e73756666696369656e742062616c616e636520666f6044820152651c8818d85b1b60d21b6064820152608401620008a8565b843b620032b55760405162461bcd60e51b815260206004820152601d60248201527f416464726573733a2063616c6c20746f206e6f6e2d636f6e74726163740000006044820152606401620008a8565b600080866001600160a01b03168587604051620032d3919062003b3d565b60006040518083038185875af1925050503d806000811462003312576040519150601f19603f3d011682016040523d82523d6000602084013e62003317565b606091505b50915091506200332982828662003334565b979650505050505050565b606083156200334557508162003154565b825115620033565782518084602001fd5b8160405162461bcd60e51b8152600401620008a8919062003bb4565b6109938062003f5e83390190565b80356001600160a01b03811681146200339857600080fd5b919050565b600082601f830112620033ae578081fd5b815160206001600160401b03821115620033cc57620033cc62003f13565b620033dc818360051b0162003cad565b80838252828201915082860187848660071b8901011115620033fc578586fd5b855b858110156200346c57608080838b03121562003418578788fd5b6200342262003c5c565b8351815286840151878201526040808501516200343f8162003f4d565b90820152606084810151620034548162003f4d565b908201528552938501939190910190600101620033fe565b5090979650505050505050565b805180151581146200339857600080fd5b600082601f8301126200349b578081fd5b8151620034b2620034ac8262003ce0565b62003cad565b818152846020838601011115620034c7578283fd5b620034da82602083016020870162003eb0565b949350505050565b8035620033988162003f29565b8051620033988162003f29565b8051620033988162003f3a565b80516001600160401b03811681146200339857600080fd5b8051620033988162003f4d565b60006020828403121562003540578081fd5b620031548262003380565b60008060008060008060c0878903121562003564578182fd5b6200356f8762003380565b9550602087013594506040870135620035888162003f29565b9350606087013592506080870135915060a0870135620035a88162003f3a565b809150509295509295509295565b60008060408385031215620035c9578182fd5b620035d48362003380565b91506020830135620035e68162003f3a565b809150509250929050565b60006020828403121562003603578081fd5b620031548262003479565b60006020828403121562003620578081fd5b5035919050565b60006020828403121562003639578081fd5b5051919050565b60006020828403121562003652578081fd5b81356001600160401b0381111562003668578182fd5b8201601f8101841362003679578182fd5b80356200368a620034ac8262003ce0565b8181528560208385010111156200369f578384fd5b81602084016020830137908101602001929092525092915050565b600060208284031215620036cc578081fd5b81516001600160401b03811115620036e2578182fd5b620034da848285016200348a565b600060c0828403121562003702578081fd5b60405160c081018181106001600160401b038211171562003727576200372762003f13565b6040528235620037378162003f4d565b8152602083810135908201526040830135620037538162003f29565b60408201526060830135620037688162003f4d565b60608201526080838101359082015260a0928301359281019290925250919050565b600060e082840312156200379c578081fd5b60405160e081018181106001600160401b0382111715620037c157620037c162003f13565b6040528235620037d18162003f4d565b8082525060208301356020820152604083013560408201526060830135620037f98162003f29565b6060820152608083810135908201526200381660a08401620034e2565b60a082015260c083013560c08201528091505092915050565b60008060006060848603121562003844578081fd5b83516001600160401b03808211156200385b578283fd5b90850190610160828803121562003870578283fd5b6200387a62003c87565b620038858362003521565b81526200389560208401620034fc565b6020820152620038a860408401620034fc565b6040820152620038bb60608401620034ef565b606082015260808301516080820152620038d860a0840162003509565b60a0820152620038eb60c0840162003521565b60c082015260e08301518281111562003902578485fd5b62003910898286016200348a565b60e08301525061010062003926818501620034fc565b9082015261012083810151838111156200393e578586fd5b6200394c8a8287016200339d565b9183019190915250610140838101519082015294506200396f6020870162003479565b9350604086015191508082111562003985578283fd5b5062003994868287016200348a565b9150509250925092565b600060208284031215620039b0578081fd5b8135620031548162003f29565b600060208284031215620039cf578081fd5b8151620031548162003f29565b60008060008060008060c08789031215620039f5578384fd5b863562003a028162003f29565b955062003a126020880162003380565b9450604087013562003a248162003f29565b93506060870135925062003a3b6080880162003380565b915062003a4b60a0880162003380565b90509295509295509295565b6000806040838503121562003a6a578182fd5b823562003a778162003f29565b946020939093013593505050565b6000806000806080858703121562003a9b578182fd5b843562003aa88162003f29565b93506020850135925060408501359150606085013562003ac88162003f3a565b939692955090935050565b60006020828403121562003ae5578081fd5b620031548262003509565b60006020828403121562003b02578081fd5b8151620031548162003f4d565b6000815180845262003b2981602086016020860162003eb0565b601f01601f19169290920160200192915050565b6000825162003b5181846020870162003eb0565b9190910192915050565b6000835162003b6f81846020880162003eb0565b83519083019062003b8581836020880162003eb0565b01949350505050565b6001600160a01b0383168152604060208201819052600090620031519083018462003b0f565b60208152600062003154602083018462003b0f565b60c08152600062003bde60c083018962003b0f565b828103602084015262003bf2818962003b0f565b60ff97909716604084015250506001600160a01b0393909316606084015261ffff91909116608083015260a09091015292915050565b63ffffffff8416815260606020820152600062003c49606083018562003b0f565b905060ff83166040830152949350505050565b604051608081016001600160401b038111828210171562003c815762003c8162003f13565b60405290565b60405161016081016001600160401b038111828210171562003c815762003c8162003f13565b604051601f8201601f191681016001600160401b038111828210171562003cd85762003cd862003f13565b604052919050565b60006001600160401b0382111562003cfc5762003cfc62003f13565b50601f01601f191660200190565b6000821982111562003d205762003d2062003efd565b500190565b60008262003d4157634e487b7160e01b81526012600452602481fd5b500490565b600181815b8085111562003d8757816000190482111562003d6b5762003d6b62003efd565b8085161562003d7957918102915b93841c939080029062003d4b565b509250929050565b60006200315460ff84168360008262003dab5750600162000ffd565b8162003dba5750600062000ffd565b816001811462003dd3576002811462003dde5762003dfe565b600191505062000ffd565b60ff84111562003df25762003df262003efd565b50506001821b62000ffd565b5060208310610133831016604e8410600b841016171562003e23575081810a62000ffd565b62003e2f838362003d46565b806000190482111562003e465762003e4662003efd565b029392505050565b600081600019048311821515161562003e6b5762003e6b62003efd565b500290565b60008282101562003e855762003e8562003efd565b500390565b600060ff821660ff84168082101562003ea75762003ea762003efd565b90039392505050565b60005b8381101562003ecd57818101518382015260200162003eb3565b8381111562001f275750506000910152565b600060001982141562003ef65762003ef662003efd565b5060010190565b634e487b7160e01b600052601160045260246000fd5b634e487b7160e01b600052604160045260246000fd5b61ffff8116811462001a7157600080fd5b63ffffffff8116811462001a7157600080fd5b60ff8116811462001a7157600080fdfe608060405234801561001057600080fd5b5060405161099338038061099383398101604081905261002f9161048e565b818161005c60017fa3f0ad74e5423aebfd80d3ef4346578335a9a72aeaee59ff6cb3582b35133d51610599565b60008051602061094c8339815191521461008657634e487b7160e01b600052600160045260246000fd5b6100928282600061009b565b505050506105fe565b6100a483610175565b6040516001600160a01b038416907f1cf3b03a6cf19fa2baba4df148e9dcabedea7f8a5c07840e207e5c089be95d3e90600090a26000825111806100e55750805b156101705761016e836001600160a01b0316635c60da1b6040518163ffffffff1660e01b815260040160206040518083038186803b15801561012657600080fd5b505afa15801561013a573d6000803e3d6000fd5b505050506040513d601f19601f8201168201806040525081019061015e9190610474565b8361031560201b6100291760201c565b505b505050565b6101888161034160201b6100551760201c565b6101e75760405162461bcd60e51b815260206004820152602560248201527f455243313936373a206e657720626561636f6e206973206e6f74206120636f6e6044820152641d1c9858dd60da1b60648201526084015b60405180910390fd5b61026a816001600160a01b0316635c60da1b6040518163ffffffff1660e01b815260040160206040518083038186803b15801561022357600080fd5b505afa158015610237573d6000803e3d6000fd5b505050506040513d601f19601f8201168201806040525081019061025b9190610474565b61034160201b6100551760201c565b6102cf5760405162461bcd60e51b815260206004820152603060248201527f455243313936373a20626561636f6e20696d706c656d656e746174696f6e206960448201526f1cc81b9bdd08184818dbdb9d1c9858dd60821b60648201526084016101de565b806102f460008051602061094c83398151915260001b61034760201b61005b1760201c565b80546001600160a01b0319166001600160a01b039290921691909117905550565b606061033a838360405180606001604052806027815260200161096c6027913961034a565b9392505050565b3b151590565b90565b6060833b6103a95760405162461bcd60e51b815260206004820152602660248201527f416464726573733a2064656c65676174652063616c6c20746f206e6f6e2d636f6044820152651b9d1c9858dd60d21b60648201526084016101de565b600080856001600160a01b0316856040516103c4919061054a565b600060405180830381855af49150503d80600081146103ff576040519150601f19603f3d011682016040523d82523d6000602084013e610404565b606091505b50909250905061041582828661041f565b9695505050505050565b6060831561042e57508161033a565b82511561043e5782518084602001fd5b8160405162461bcd60e51b81526004016101de9190610566565b80516001600160a01b038116811461046f57600080fd5b919050565b600060208284031215610485578081fd5b61033a82610458565b600080604083850312156104a0578081fd5b6104a983610458565b60208401519092506001600160401b03808211156104c5578283fd5b818501915085601f8301126104d8578283fd5b8151818111156104ea576104ea6105e8565b604051601f8201601f19908116603f01168101908382118183101715610512576105126105e8565b8160405282815288602084870101111561052a578586fd5b61053b8360208301602088016105bc565b80955050505050509250929050565b6000825161055c8184602087016105bc565b9190910192915050565b60208152600082518060208401526105858160408501602087016105bc565b601f01601f19169190910160400192915050565b6000828210156105b757634e487b7160e01b81526011600452602481fd5b500390565b60005b838110156105d75781810151838201526020016105bf565b8381111561016e5750506000910152565b634e487b7160e01b600052604160045260246000fd5b61033f8061060d6000396000f3fe60806040523661001357610011610017565b005b6100115b61002761002261005e565b610106565b565b606061004e83836040518060600160405280602781526020016102e36027913961012a565b9392505050565b3b151590565b90565b60006100917fa3f0ad74e5423aebfd80d3ef4346578335a9a72aeaee59ff6cb3582b35133d50546001600160a01b031690565b6001600160a01b0316635c60da1b6040518163ffffffff1660e01b815260040160206040518083038186803b1580156100c957600080fd5b505afa1580156100dd573d6000803e3d6000fd5b505050506040513d601f19601f82011682018060405250810190610101919061023c565b905090565b3660008037600080366000845af43d6000803e808015610125573d6000f35b3d6000fd5b6060833b61018e5760405162461bcd60e51b815260206004820152602660248201527f416464726573733a2064656c65676174652063616c6c20746f206e6f6e2d636f6044820152651b9d1c9858dd60d21b60648201526084015b60405180910390fd5b600080856001600160a01b0316856040516101a99190610263565b600060405180830381855af49150503d80600081146101e4576040519150601f19603f3d011682016040523d82523d6000602084013e6101e9565b606091505b50915091506101f9828286610203565b9695505050505050565b6060831561021257508161004e565b8251156102225782518084602001fd5b8160405162461bcd60e51b8152600401610185919061027f565b60006020828403121561024d578081fd5b81516001600160a01b038116811461004e578182fd5b600082516102758184602087016102b2565b9190910192915050565b602081526000825180602084015261029e8160408501602087016102b2565b601f01601f19169190910160400192915050565b60005b838110156102cd5781810151838201526020016102b5565b838111156102dc576000848401525b5050505056fe416464726573733a206c6f772d6c6576656c2064656c65676174652063616c6c206661696c6564a264697066735822122006dd93ea832d98d1acbe1bbeeeb2a7a0ed3a078b9c7891209b9690e633f0290e64736f6c63430008040033a3f0ad74e5423aebfd80d3ef4346578335a9a72aeaee59ff6cb3582b35133d50416464726573733a206c6f772d6c6576656c2064656c65676174652063616c6c206661696c6564676f7665726e616e636520616374696f6e20616c726561647920636f6e73756d6564a26469706673582212207c4102038dab54eba010819822c03099e4a9f2b8cd4bfd1956081240fa93ea7e64736f6c63430008040033",
  "immutableReferences": {},
  "source": "// contracts/Implementation.sol\n// SPDX-License-Identifier: Apache 2\n\npragma solidity ^0.8.0;\npragma experimental ABIEncoderV2;\n\nimport \"@openzeppelin/contracts/proxy/ERC1967/ERC1967Upgrade.sol\";\n\nimport \"./Bridge.sol\";\n\n\ncontract BridgeImplementation is Bridge {\n\n    function initialize(\n        uint16 chainId,\n        address wormhole,\n        uint16 governanceChainId,\n        bytes32 governanceContract,\n        address tokenImplementation,\n        address WETH\n    ) initializer public {\n        setChainId(chainId);\n\n        setWormhole(wormhole);\n\n        setGovernanceChainId(governanceChainId);\n        setGovernanceContract(governanceContract);\n\n        setTokenImplementation(tokenImplementation);\n\n        setWETH(WETH);\n    }\n\n    // Beacon getter for the token contracts\n    function implementation() public view returns (address) {\n        return tokenImplementation();\n    }\n\n    modifier initializer() {\n        address impl = ERC1967Upgrade._getImplementation();\n\n        require(\n            !isInitialized(impl),\n            \"already initialized\"\n        );\n\n        setInitialized(impl);\n\n        _;\n    }\n}\n",
  "sourcePath": "/home/ubuntu/wormhole/ethereum/contracts/bridge/BridgeImplementation.sol",
  "compiler": {
    "name": "solc",
    "version": "0.8.4+commit.c7e474f2.Emscripten.clang"
  },
  "schemaVersion": "3.4.1",
  "updatedAt": "2021-08-06T01:22:19.538Z",
  "devdoc": {
    "kind": "dev",
    "methods": {},
    "version": 1
  },
  "userdoc": {
    "kind": "user",
    "methods": {},
    "version": 1
  }
}