{
  "contractName": "UserReplicaSetManager",
  "abi": [
    {
      "constant": false,
      "inputs": [],
      "name": "kill",
      "outputs": [],
      "payable": false,
      "stateMutability": "nonpayable",
      "type": "function"
    },
    {
      "constant": false,
      "inputs": [],
      "name": "renounceOwnership",
      "outputs": [],
      "payable": false,
      "stateMutability": "nonpayable",
      "type": "function"
    },
    {
      "constant": true,
      "inputs": [],
      "name": "owner",
      "outputs": [
        {
          "name": "",
          "type": "address"
        }
      ],
      "payable": false,
      "stateMutability": "view",
      "type": "function"
    },
    {
      "constant": true,
      "inputs": [],
      "name": "isOwner",
      "outputs": [
        {
          "name": "",
          "type": "bool"
        }
      ],
      "payable": false,
      "stateMutability": "view",
      "type": "function"
    },
    {
      "constant": false,
      "inputs": [
        {
          "name": "_registryAddress",
          "type": "address"
        }
      ],
      "name": "setRegistry",
      "outputs": [],
      "payable": false,
      "stateMutability": "nonpayable",
      "type": "function"
    },
    {
      "constant": false,
      "inputs": [
        {
          "name": "newOwner",
          "type": "address"
        }
      ],
      "name": "transferOwnership",
      "outputs": [],
      "payable": false,
      "stateMutability": "nonpayable",
      "type": "function"
    },
    {
      "constant": true,
      "inputs": [
        {
          "name": "",
          "type": "bytes32"
        }
      ],
      "name": "usedSignatures",
      "outputs": [
        {
          "name": "",
          "type": "bool"
        }
      ],
      "payable": false,
      "stateMutability": "view",
      "type": "function"
    },
    {
      "inputs": [
        {
          "name": "_registryAddress",
          "type": "address"
        },
        {
          "name": "_userFactoryRegistryKey",
          "type": "bytes32"
        },
        {
          "name": "_networkId",
          "type": "uint256"
        }
      ],
      "payable": false,
      "stateMutability": "nonpayable",
      "type": "constructor"
    },
    {
      "anonymous": false,
      "inputs": [
        {
          "indexed": true,
          "name": "previousOwner",
          "type": "address"
        },
        {
          "indexed": true,
          "name": "newOwner",
          "type": "address"
        }
      ],
      "name": "OwnershipTransferred",
      "type": "event"
    },
    {
      "constant": false,
      "inputs": [
        {
          "name": "_newCnodeId",
          "type": "uint256"
        },
        {
          "name": "_newCnodeDelegateOwnerWallet",
          "type": "address"
        },
        {
          "name": "_proposerSpId",
          "type": "uint256"
        },
        {
          "name": "_requestNonce",
          "type": "bytes32"
        },
        {
          "name": "_subjectSig",
          "type": "bytes"
        }
      ],
      "name": "addOrUpdateCreatorNode",
      "outputs": [],
      "payable": false,
      "stateMutability": "nonpayable",
      "type": "function"
    },
    {
      "constant": false,
      "inputs": [
        {
          "name": "_userId",
          "type": "uint256"
        },
        {
          "name": "_primary",
          "type": "uint256"
        },
        {
          "name": "_secondaries",
          "type": "uint256[]"
        },
        {
          "name": "_oldPrimary",
          "type": "uint256"
        },
        {
          "name": "_oldSecondaries",
          "type": "uint256[]"
        },
        {
          "name": "_requestNonce",
          "type": "bytes32"
        },
        {
          "name": "_subjectSig",
          "type": "bytes"
        }
      ],
      "name": "updateReplicaSet",
      "outputs": [],
      "payable": false,
      "stateMutability": "nonpayable",
      "type": "function"
    },
    {
      "constant": true,
      "inputs": [
        {
          "name": "_userId",
          "type": "uint256"
        }
      ],
      "name": "getArtistReplicaSet",
      "outputs": [
        {
          "name": "primary",
          "type": "uint256"
        },
        {
          "name": "secondaries",
          "type": "uint256[]"
        }
      ],
      "payable": false,
      "stateMutability": "view",
      "type": "function"
    },
    {
      "constant": true,
      "inputs": [
        {
          "name": "_spID",
          "type": "uint256"
        }
      ],
      "name": "getCreatorNodeWallet",
      "outputs": [
        {
          "name": "wallet",
          "type": "address"
        }
      ],
      "payable": false,
      "stateMutability": "view",
      "type": "function"
    }
  ],
  "bytecode": "0x60806040526000600460006101000a81548173ffffffffffffffffffffffffffffffffffffffff021916908373ffffffffffffffffffffffffffffffffffffffff1602179055503480156200005357600080fd5b5060405160608062002343833981018060405260608110156200007557600080fd5b810190808051906020019092919080519060200190929190805190602001909291905050506040518060400160405280601881526020017f55736572205265706c69636120536574204d616e6167657200000000000000008152506040518060400160405280600181526020017f310000000000000000000000000000000000000000000000000000000000000081525082336000806101000a81548173ffffffffffffffffffffffffffffffffffffffff021916908373ffffffffffffffffffffffffffffffffffffffff1602179055506000809054906101000a900473ffffffffffffffffffffffffffffffffffffffff1673ffffffffffffffffffffffffffffffffffffffff16600073ffffffffffffffffffffffffffffffffffffffff167f8be0079c531659141344cd1fd0a4f28419497f9722a3daafe3b4186f6b6457e060405160405180910390a36200020a60405180608001604052808581526020018481526020018381526020013073ffffffffffffffffffffffffffffffffffffffff168152506200033f60201b60201c565b600281905550505050600073ffffffffffffffffffffffffffffffffffffffff168373ffffffffffffffffffffffffffffffffffffffff16141580156200025657506000602060ff1614155b620002ad576040517f08c379a0000000000000000000000000000000000000000000000000000000008152600401808060200182810382526032815260200180620023116032913960400191505060405180910390fd5b82600460006101000a81548173ffffffffffffffffffffffffffffffffffffffff021916908373ffffffffffffffffffffffffffffffffffffffff1602179055508160058190555033600660006101000a81548173ffffffffffffffffffffffffffffffffffffffff021916908373ffffffffffffffffffffffffffffffffffffffff160217905550505050620003f2565b60006040518080620022bf605291396052019050604051809103902082600001518051906020012083602001518051906020012084604001518560600151604051602001808681526020018581526020018481526020018381526020018273ffffffffffffffffffffffffffffffffffffffff1673ffffffffffffffffffffffffffffffffffffffff16815260200195505050505050604051602081830303815290604052805190602001209050919050565b611ebd80620004026000396000f3fe608060405234801561001057600080fd5b50600436106100a95760003560e01c8063a91ee0dc11610071578063a91ee0dc146101b8578063ef2156c2146101fc578063f2fde38b14610347578063f4520e381461038b578063f978fd61146103f9578063fb8105131461043f576100a9565b806341c0e1b5146100ae578063715018a6146100b85780638da5cb5b146100c25780638f32d59b1461010c5780639795d6511461012e575b600080fd5b6100b66104f6565b005b6100c0610588565b005b6100ca6106c1565b604051808273ffffffffffffffffffffffffffffffffffffffff1673ffffffffffffffffffffffffffffffffffffffff16815260200191505060405180910390f35b6101146106ea565b604051808215151515815260200191505060405180910390f35b61015a6004803603602081101561014457600080fd5b8101908080359060200190929190505050610741565b6040518083815260200180602001828103825283818151815260200191508051906020019060200280838360005b838110156101a3578082015181840152602081019050610188565b50505050905001935050505060405180910390f35b6101fa600480360360208110156101ce57600080fd5b81019080803573ffffffffffffffffffffffffffffffffffffffff1690602001909291905050506107cd565b005b610345600480360360e081101561021257600080fd5b8101908080359060200190929190803590602001909291908035906020019064010000000081111561024357600080fd5b82018360208201111561025557600080fd5b8035906020019184602083028401116401000000008311171561027757600080fd5b909192939192939080359060200190929190803590602001906401000000008111156102a257600080fd5b8201836020820111156102b457600080fd5b803590602001918460208302840111640100000000831117156102d657600080fd5b9091929391929390803590602001909291908035906020019064010000000081111561030157600080fd5b82018360208201111561031357600080fd5b8035906020019184600183028401116401000000008311171561033557600080fd5b90919293919293905050506109c6565b005b6103896004803603602081101561035d57600080fd5b81019080803573ffffffffffffffffffffffffffffffffffffffff169060200190929190505050611140565b005b6103b7600480360360208110156103a157600080fd5b81019080803590602001909291905050506111c6565b604051808273ffffffffffffffffffffffffffffffffffffffff1673ffffffffffffffffffffffffffffffffffffffff16815260200191505060405180910390f35b6104256004803603602081101561040f57600080fd5b8101908080359060200190929190505050611203565b604051808215151515815260200191505060405180910390f35b6104f4600480360360a081101561045557600080fd5b8101908080359060200190929190803573ffffffffffffffffffffffffffffffffffffffff1690602001909291908035906020019092919080359060200190929190803590602001906401000000008111156104b057600080fd5b8201836020820111156104c257600080fd5b803590602001918460018302840111640100000000831117156104e457600080fd5b9091929391929390505050611223565b005b600160009054906101000a900473ffffffffffffffffffffffffffffffffffffffff1673ffffffffffffffffffffffffffffffffffffffff163373ffffffffffffffffffffffffffffffffffffffff161461054d57fe5b600160009054906101000a900473ffffffffffffffffffffffffffffffffffffffff1673ffffffffffffffffffffffffffffffffffffffff16ff5b6105906106ea565b610602576040517f08c379a00000000000000000000000000000000000000000000000000000000081526004018080602001828103825260208152602001807f4f776e61626c653a2063616c6c6572206973206e6f7420746865206f776e657281525060200191505060405180910390fd5b600073ffffffffffffffffffffffffffffffffffffffff166000809054906101000a900473ffffffffffffffffffffffffffffffffffffffff1673ffffffffffffffffffffffffffffffffffffffff167f8be0079c531659141344cd1fd0a4f28419497f9722a3daafe3b4186f6b6457e060405160405180910390a360008060006101000a81548173ffffffffffffffffffffffffffffffffffffffff021916908373ffffffffffffffffffffffffffffffffffffffff160217905550565b60008060009054906101000a900473ffffffffffffffffffffffffffffffffffffffff16905090565b60008060009054906101000a900473ffffffffffffffffffffffffffffffffffffffff1673ffffffffffffffffffffffffffffffffffffffff163373ffffffffffffffffffffffffffffffffffffffff1614905090565b60006060600860008481526020019081526020016000206000015460086000858152602001908152602001600020600101808054806020026020016040519081016040528092919081815260200182805480156107bd57602002820191906000526020600020905b8154815260200190600101908083116107a9575b5050505050905091509150915091565b600073ffffffffffffffffffffffffffffffffffffffff16600160009054906101000a900473ffffffffffffffffffffffffffffffffffffffff1673ffffffffffffffffffffffffffffffffffffffff16148061087757503373ffffffffffffffffffffffffffffffffffffffff16600160009054906101000a900473ffffffffffffffffffffffffffffffffffffffff1673ffffffffffffffffffffffffffffffffffffffff16145b8061092d57503373ffffffffffffffffffffffffffffffffffffffff163073ffffffffffffffffffffffffffffffffffffffff16638da5cb5b6040518163ffffffff1660e01b815260040160206040518083038186803b1580156108da57600080fd5b505afa1580156108ee573d6000803e3d6000fd5b505050506040513d602081101561090457600080fd5b810190808051906020019092919050505073ffffffffffffffffffffffffffffffffffffffff16145b610982576040517f08c379a0000000000000000000000000000000000000000000000000000000008152600401808060200182810382526043815260200180611ccd6043913960600191505060405180910390fd5b80600160006101000a81548173ffffffffffffffffffffffffffffffffffffffff021916908373ffffffffffffffffffffffffffffffffffffffff16021790555050565b6000610a9d8b8b8b8b80806020026020016040519081016040528093929190818152602001838360200280828437600081840152601f19601f820116905080830192505050505050508a8a8a80806020026020016040519081016040528093929190818152602001838360200280828437600081840152601f19601f820116905080830192505050505050508989898080601f016020809104026020016040519081016040528093929190818152602001838380828437600081840152601f19601f820116905080830192505050505050506113e0565b905060008090506000600460009054906101000a900473ffffffffffffffffffffffffffffffffffffffff1673ffffffffffffffffffffffffffffffffffffffff1663e16c7d986005546040518263ffffffff1660e01b81526004018082815260200191505060206040518083038186803b158015610b1b57600080fd5b505afa158015610b2f573d6000803e3d6000fd5b505050506040513d6020811015610b4557600080fd5b810190808051906020019092919050505073ffffffffffffffffffffffffffffffffffffffff1663b0467deb8e6040518263ffffffff1660e01b815260040180828152602001915050604080518083038186803b158015610ba557600080fd5b505afa158015610bb9573d6000803e3d6000fd5b505050506040513d6040811015610bcf57600080fd5b810190808051906020019092919080519060200190929190505050509050600073ffffffffffffffffffffffffffffffffffffffff168173ffffffffffffffffffffffffffffffffffffffff161415610c90576040517f08c379a00000000000000000000000000000000000000000000000000000000081526004018080602001828103825260138152602001807f56616c696420757365722072657175697265640000000000000000000000000081525060200191505060405180910390fd5b8073ffffffffffffffffffffffffffffffffffffffff168373ffffffffffffffffffffffffffffffffffffffff161480610d285750600760008a815260200190815260200160002060009054906101000a900473ffffffffffffffffffffffffffffffffffffffff1673ffffffffffffffffffffffffffffffffffffffff168373ffffffffffffffffffffffffffffffffffffffff16145b80610d805750600660009054906101000a900473ffffffffffffffffffffffffffffffffffffffff1673ffffffffffffffffffffffffffffffffffffffff168373ffffffffffffffffffffffffffffffffffffffff16145b15610d8a57600191505b88600860008f81526020019081526020016000206000015414610df8576040517f08c379a0000000000000000000000000000000000000000000000000000000008152600401808060200182810382526023815260200180611e6f6023913960400191505060405180910390fd5b610e458d898980806020026020016040519081016040528093929190818152602001838360200280828437600081840152601f19601f820116905080830192505050505050508585611552565b91506001151582151514610ec1576040517f08c379a00000000000000000000000000000000000000000000000000000000081526004018080602001828103825260188152602001807f496e76616c696420757064617465206f7065726174696f6e000000000000000081525060200191505060405180910390fd5b600073ffffffffffffffffffffffffffffffffffffffff16600760008e815260200190815260200160002060009054906101000a900473ffffffffffffffffffffffffffffffffffffffff1673ffffffffffffffffffffffffffffffffffffffff161415610f97576040517f08c379a00000000000000000000000000000000000000000000000000000000081526004018080602001828103825260128152602001807f5072696d617279206d757374206578697374000000000000000000000000000081525060200191505060405180910390fd5b60008090505b8b8b905081101561109d57600073ffffffffffffffffffffffffffffffffffffffff16600760008e8e85818110610fd057fe5b90506020020135815260200190815260200160002060009054906101000a900473ffffffffffffffffffffffffffffffffffffffff1673ffffffffffffffffffffffffffffffffffffffff161415611090576040517f08c379a00000000000000000000000000000000000000000000000000000000081526004018080602001828103825260148152602001807f5365636f6e64617279206d75737420657869737400000000000000000000000081525060200191505060405180910390fd5b8080600101915050610f9d565b5060405180604001604052808d81526020018c8c80806020026020016040519081016040528093929190818152602001838360200280828437600081840152601f19601f82011690508083019250505050505050815250600860008f815260200190815260200160002060008201518160000155602082015181600101908051906020019061112d929190611c34565b5090505050505050505050505050505050565b6111486106ea565b6111ba576040517f08c379a00000000000000000000000000000000000000000000000000000000081526004018080602001828103825260208152602001807f4f776e61626c653a2063616c6c6572206973206e6f7420746865206f776e657281525060200191505060405180910390fd5b6111c381611709565b50565b60006007600083815260200190815260200160002060009054906101000a900473ffffffffffffffffffffffffffffffffffffffff169050919050565b60036020528060005260406000206000915054906101000a900460ff1681565b60006112768787878787878080601f016020809104026020016040519081016040528093929190818152602001838380828437600081840152601f19601f8201169050808301925050505050505061184d565b9050600660009054906101000a900473ffffffffffffffffffffffffffffffffffffffff1673ffffffffffffffffffffffffffffffffffffffff168173ffffffffffffffffffffffffffffffffffffffff1614611385578073ffffffffffffffffffffffffffffffffffffffff166007600087815260200190815260200160002060009054906101000a900473ffffffffffffffffffffffffffffffffffffffff1673ffffffffffffffffffffffffffffffffffffffff1614611384576040517f08c379a000000000000000000000000000000000000000000000000000000000815260040180806020018281038252602a815260200180611da0602a913960400191505060405180910390fd5b5b856007600089815260200190815260200160002060006101000a81548173ffffffffffffffffffffffffffffffffffffffff021916908373ffffffffffffffffffffffffffffffffffffffff16021790555050505050505050565b6000806115286040518080611df4607b9139607b01905060405180910390208a8a8a6040516020018080602001828103825283818151815260200191508051906020019060200280838360005b8381101561144857808201518184015260208101905061142d565b5050505090500192505050604051602081830303815290604052805190602001208a8a6040516020018080602001828103825283818151815260200191508051906020019060200280838360005b838110156114b1578082015181840152602081019050611496565b5050505090500192505050604051602081830303815290604052805190602001208a604051602001808881526020018781526020018681526020018581526020018481526020018381526020018281526020019750505050505050506040516020818303038152906040528051906020012061190b565b90506000611536828561196d565b90506115428282611a0c565b8092505050979650505050505050565b600060086000868152602001908152602001600020600101805490508451146115c6576040517f08c379a0000000000000000000000000000000000000000000000000000000008152600401808060200182810382526025815260200180611d7b6025913960400191505060405180910390fd5b600082905060008090505b85518110156116fc578581815181106115e657fe5b602002602001015160086000898152602001908152602001600020600101828154811061160f57fe5b906000526020600020015414611670576040517f08c379a0000000000000000000000000000000000000000000000000000000008152600401808060200182810382526025815260200180611d7b6025913960400191505060405180910390fd5b6007600087838151811061168057fe5b6020026020010151815260200190815260200160002060009054906101000a900473ffffffffffffffffffffffffffffffffffffffff1673ffffffffffffffffffffffffffffffffffffffff168573ffffffffffffffffffffffffffffffffffffffff1614156116ef57600191505b80806001019150506115d1565b5080915050949350505050565b600073ffffffffffffffffffffffffffffffffffffffff168173ffffffffffffffffffffffffffffffffffffffff16141561178f576040517f08c379a0000000000000000000000000000000000000000000000000000000008152600401808060200182810382526026815260200180611ca76026913960400191505060405180910390fd5b8073ffffffffffffffffffffffffffffffffffffffff166000809054906101000a900473ffffffffffffffffffffffffffffffffffffffff1673ffffffffffffffffffffffffffffffffffffffff167f8be0079c531659141344cd1fd0a4f28419497f9722a3daafe3b4186f6b6457e060405160405180910390a3806000806101000a81548173ffffffffffffffffffffffffffffffffffffffff021916908373ffffffffffffffffffffffffffffffffffffffff16021790555050565b6000806118e36040518080611d10606b9139606b019050604051809103902088888888604051602001808681526020018581526020018473ffffffffffffffffffffffffffffffffffffffff1673ffffffffffffffffffffffffffffffffffffffff168152602001838152602001828152602001955050505050506040516020818303038152906040528051906020012061190b565b905060006118f1828561196d565b90506118fd8282611a0c565b809250505095945050505050565b60006002548260405160200180807f190100000000000000000000000000000000000000000000000000000000000081525060020183815260200182815260200192505050604051602081830303815290604052805190602001209050919050565b60008061197a8484611b30565b9050600073ffffffffffffffffffffffffffffffffffffffff168173ffffffffffffffffffffffffffffffffffffffff161415611a02576040517f08c379a000000000000000000000000000000000000000000000000000000000815260040180806020018281038252602a815260200180611dca602a913960400191505060405180910390fd5b8091505092915050565b60008282604051602001808381526020018273ffffffffffffffffffffffffffffffffffffffff1673ffffffffffffffffffffffffffffffffffffffff168152602001925050506040516020818303038152906040528051906020012090506003600082815260200190815260200160002060009054906101000a900460ff1615611aff576040517f08c379a00000000000000000000000000000000000000000000000000000000081526004018080602001828103825260148152602001807f5369676e6174757265206e6f7420756e6971756500000000000000000000000081525060200191505060405180910390fd5b60016003600083815260200190815260200160002060006101000a81548160ff021916908315150217905550505050565b60006041825114611b445760009050611c2e565b60008060006020850151925060408501519150606085015160001a90507f7fffffffffffffffffffffffffffffff5d576e7357a4501ddfe92f46681b20a08260001c1115611b985760009350505050611c2e565b601b8160ff1614158015611bb05750601c8160ff1614155b15611bc15760009350505050611c2e565b60018682858560405160008152602001604052604051808581526020018460ff1660ff1681526020018381526020018281526020019450505050506020604051602081039080840390855afa158015611c1e573d6000803e3d6000fd5b5050506020604051035193505050505b92915050565b828054828255906000526020600020908101928215611c70579160200282015b82811115611c6f578251825591602001919060010190611c54565b5b509050611c7d9190611c81565b5090565b611ca391905b80821115611c9f576000816000905550600101611c87565b5090565b9056fe4f776e61626c653a206e6577206f776e657220697320746865207a65726f206164647265737343616e206f6e6c792062652063616c6c65642069662072656769737472794164647265737320697320656d7074792c206d73672e73656e646572206f72206f776e65724164644f7255706461746543726561746f724e6f64652875696e74206e6577436e6f646549642c61646472657373206e6577436e6f646544656c65676174654f776e657257616c6c65742c75696e742070726f706f736572537049642c62797465733332206e6f6e636529496e76616c6964207072696f72207365636f6e6461727920636f6e66696775726174696f6e4d69736d617463682070726f706f7365722077616c6c657420666f72206578697374696e6720737049445369676e65722063616e6e6f7420626520636f6e7472616374206372656174696f6e20616464726573735570646174655265706c6963615365742875696e74207573657249642c75696e74207072696d6172792c62797465733332207365636f6e646172696573486173682c75696e74206f6c645072696d6172792c62797465733332206f6c645365636f6e646172696573486173682c62797465733332206e6f6e636529496e76616c6964207072696f72207072696d61727920636f6e66696775726174696f6ea165627a7a723058207670ba6975cfcf6374f9679fc5e7ca2396ea98f2170eb9d7e6c768c2aca2c47c0029454950373132446f6d61696e28737472696e67206e616d652c737472696e672076657273696f6e2c75696e7432353620636861696e49642c6164647265737320766572696679696e67436f6e7472616374295265717569726573206e6f6e2d7a65726f205f72656769737472794164647265737320616e642072656769737472794b6579",
  "source": "pragma solidity ^0.5.0;\n\nimport \"./interface/RegistryInterface.sol\";\nimport \"./registry/RegistryContract.sol\";\nimport \"./UserFactory.sol\";\nimport \"./SigningLogic.sol\";\n\n\n/** @title Contract for Audius user replica sets */\ncontract UserReplicaSetManager is RegistryContract, SigningLogic {\n\n    RegistryInterface private registry = RegistryInterface(0);\n    bytes32 private userFactoryRegistryKey;\n\n    // TODO: Permission to special address if necessary\n    address deployer;\n\n    // spID to ServiceProvider delegateOwnerWallet\n    mapping (uint => address) spIdToCreatorNodeDelegateWallet;\n\n    // Struct used to represent replica sets\n    // Each uint reprsets the spID registered on eth-contracts\n    struct ReplicaSet {\n        uint primary;\n        uint[] secondaries;\n    }\n\n    // Current uint userId to Replica Set\n    mapping (uint => ReplicaSet) artistReplicaSets;\n\n    /* EIP-712 */\n    bytes32 constant ADD_UPDATE_CNODE_REQUEST_TYPEHASH = keccak256(\n        \"AddOrUpdateCreatorNode(uint newCnodeId,address newCnodeDelegateOwnerWallet,uint proposerSpId,bytes32 nonce)\"\n    );\n\n    bytes32 constant UPDATE_REPLICA_SET_REQUEST_TYPEHASH = keccak256(\n        \"UpdateReplicaSet(uint userId,uint primary,bytes32 secondariesHash,uint oldPrimary,bytes32 oldSecondariesHash,bytes32 nonce)\"\n    );\n\n    constructor(\n        address _registryAddress,\n        bytes32 _userFactoryRegistryKey,\n        uint _networkId\n    ) SigningLogic(\"User Replica Set Manager\", \"1\", _networkId) public\n    {\n        require(\n            _registryAddress != address(0x00) &&\n            _userFactoryRegistryKey.length != 0,\n            \"Requires non-zero _registryAddress and registryKey\"\n        );\n\n        registry = RegistryInterface(_registryAddress);\n        userFactoryRegistryKey = _userFactoryRegistryKey;\n        deployer = msg.sender;\n    }\n\n    // WIP - Update model allowing existing nodes to register others\n    // From chain of trust based authentication scheme\n    function addOrUpdateCreatorNode(\n        uint _newCnodeId,\n        address _newCnodeDelegateOwnerWallet,\n        uint _proposerSpId,\n        bytes32 _requestNonce,\n        bytes calldata _subjectSig\n    ) external {\n      address signer = _recoverAddOrUpdateCreatorNodeRequestSignerAddress(\n        _newCnodeId,\n        _newCnodeDelegateOwnerWallet,\n        _proposerSpId,\n        _requestNonce,\n        _subjectSig\n      );\n\n      // Requirements for non deployer address\n      if (signer != deployer) {\n          require(spIdToCreatorNodeDelegateWallet[_proposerSpId] == signer, \"Mismatch proposer wallet for existing spID\");\n      }\n\n      // TODO: Event\n      spIdToCreatorNodeDelegateWallet[_newCnodeId] = _newCnodeDelegateOwnerWallet;\n    }\n\n    // TODO: Revisit delete logic - how to remove an spID <-> wallet combo entirely\n\n    // Function used to permission updates to a given user's replica set \n    function updateReplicaSet(\n        uint _userId,\n        uint _primary,\n        uint[] calldata _secondaries,\n        uint _oldPrimary,\n        uint[] calldata _oldSecondaries,\n        bytes32 _requestNonce,\n        bytes calldata _subjectSig\n    ) external {\n\n          address signer = _recoverUserReplicaSetRequestSignerAddress(\n              _userId,\n              _primary,\n              _secondaries,\n              _oldPrimary,\n              _oldSecondaries,\n              _requestNonce,\n              _subjectSig);\n\n          // A valid updater can be one of the dataOwnerWallet, existing creator node, or contract deployer\n          bool validUpdater = false;\n\n          // Get user object from UserFactory\n          (address userWallet, ) = UserFactory(registry.getContract(userFactoryRegistryKey)).getUser(_userId);\n          require(userWallet != address(0x00), \"Valid user required\");\n\n          // Valid updaters include userWallet (artist account), existing primary, existing secondary, or contract deployer\n          if (signer == userWallet ||\n              signer == spIdToCreatorNodeDelegateWallet[_oldPrimary] ||\n              signer == deployer\n             )\n          {\n              validUpdater = true;\n          }\n\n          // Caller's notion of existing primary must match regisered value on chain\n          require(artistReplicaSets[_userId].primary == _oldPrimary,  \"Invalid prior primary configuration\"); \n\n          validUpdater = _compareUserSecondariesAndCheckSender(_userId, _oldSecondaries, signer, validUpdater);\n          require(validUpdater == true, \"Invalid update operation\");\n\n          // Confirm primary and every incoming secondary is valid\n          require(spIdToCreatorNodeDelegateWallet[_primary] != address(0x00), \"Primary must exist\"); \n          for (uint i = 0; i < _secondaries.length; i++) {\n              require(spIdToCreatorNodeDelegateWallet[_secondaries[i]] != address(0x00), \"Secondary must exist\");\n          }\n\n          // Perform replica set update\n          artistReplicaSets[_userId] = ReplicaSet({\n              primary: _primary,\n              secondaries: _secondaries\n          });\n      }\n\n      // Return an artist's current replica set\n      function getArtistReplicaSet(uint _userId) external view\n      returns (uint primary, uint[] memory secondaries)\n      {\n          return (\n              artistReplicaSets[_userId].primary,\n              artistReplicaSets[_userId].secondaries\n          );\n      }\n\n      // Get wallet corresponding to creator node\n      function getCreatorNodeWallet(uint _spID) external view\n      returns (address wallet) \n      {\n          return spIdToCreatorNodeDelegateWallet[_spID];\n      }\n\n      /* EIP712 - Signer recovery */\n      function _recoverAddOrUpdateCreatorNodeRequestSignerAddress(\n          uint _cnodeId,\n          address _cnodeWallet,\n          uint _proposerId,\n          bytes32 _nonce,\n          bytes memory _subjectSig\n      ) internal returns (address)\n      {\n          bytes32 signatureDigest = generateSchemaHash(\n              keccak256(\n                  abi.encode(\n                      ADD_UPDATE_CNODE_REQUEST_TYPEHASH,\n                      _cnodeId,\n                      _cnodeWallet,\n                      _proposerId,\n                      _nonce\n                  )\n              )\n          );\n        address signer = recoverSigner(signatureDigest, _subjectSig);\n        burnSignatureDigest(signatureDigest, signer);\n        return signer;\n      }\n\n      function _recoverUserReplicaSetRequestSignerAddress(\n          uint _userId,\n          uint _primary,\n          uint[] memory _secondaries,\n          uint _oldPrimary,\n          uint[] memory _oldSecondaries,\n          bytes32 _nonce,\n          bytes memory _subjectSig\n      ) internal returns (address)\n      {\n        bytes32 signatureDigest = generateSchemaHash(\n            keccak256(\n              abi.encode(\n                  UPDATE_REPLICA_SET_REQUEST_TYPEHASH,\n                  _userId,\n                  _primary,\n                  keccak256(abi.encode(_secondaries)),\n                  _oldPrimary,\n                  keccak256(abi.encode(_oldSecondaries)),\n                  _nonce\n              )\n            )\n        );\n        address signer = recoverSigner(signatureDigest, _subjectSig);\n        burnSignatureDigest(signatureDigest, signer);\n        return signer;\n      }\n\n      function _compareUserSecondariesAndCheckSender(\n        uint _userId,\n        uint[] memory _oldSecondaries,\n        address signer,\n        bool senderFound\n      ) internal view returns (bool)\n      {\n          // Caller's notion of secondary values must match registered value on chain\n          // A secondary node can also be considered a valid updater\n          require(_oldSecondaries.length == artistReplicaSets[_userId].secondaries.length, \"Invalid prior secondary configuration\");\n          bool secondarySenderFound = senderFound;\n          for (uint i = 0; i < _oldSecondaries.length; i++) {\n              require(\n                  artistReplicaSets[_userId].secondaries[i] == _oldSecondaries[i],\n                  \"Invalid prior secondary configuration\"\n              );\n              if (signer == spIdToCreatorNodeDelegateWallet[_oldSecondaries[i]]) {\n                secondarySenderFound = true;\n              }\n          }\n          return secondarySenderFound;\n      }\n}\n",
  "sourcePath": "/Users/hareeshnagaraj/Development/audius-protocol/contracts/contracts/UserReplicaSetManager.sol",
  "compiler": {
    "name": "solc",
    "version": "0.5.8+commit.23d335f2.Emscripten.clang"
  },
  "schemaVersion": "3.0.16",
  "updatedAt": "2020-06-15T17:51:59.325Z",
  "devdoc": {
    "methods": {
      "isOwner()": {
        "details": "Returns true if the caller is the current owner."
      },
      "owner()": {
        "details": "Returns the address of the current owner."
      },
      "renounceOwnership()": {
        "details": "Leaves the contract without owner. It will not be possible to call `onlyOwner` functions anymore. Can only be called by the current owner.     * > Note: Renouncing ownership will leave the contract without an owner, thereby removing any functionality that is only available to the owner."
      },
      "transferOwnership(address)": {
        "details": "Transfers ownership of the contract to a new account (`newOwner`). Can only be called by the current owner."
      }
    },
    "title": "Contract for Audius user replica sets "
  },
  "userdoc": {
    "methods": {}
  }
}