{
  "contractName": "UserReplicaSetManager",
  "abi": [
    {
      "constant": false,
      "inputs": [],
      "name": "kill",
      "outputs": [],
      "payable": false,
      "stateMutability": "nonpayable",
      "type": "function"
    },
    {
      "constant": false,
      "inputs": [],
      "name": "renounceOwnership",
      "outputs": [],
      "payable": false,
      "stateMutability": "nonpayable",
      "type": "function"
    },
    {
      "constant": true,
      "inputs": [],
      "name": "owner",
      "outputs": [
        {
          "name": "",
          "type": "address"
        }
      ],
      "payable": false,
      "stateMutability": "view",
      "type": "function"
    },
    {
      "constant": true,
      "inputs": [],
      "name": "isOwner",
      "outputs": [
        {
          "name": "",
          "type": "bool"
        }
      ],
      "payable": false,
      "stateMutability": "view",
      "type": "function"
    },
    {
      "constant": false,
      "inputs": [
        {
          "name": "_registryAddress",
          "type": "address"
        }
      ],
      "name": "setRegistry",
      "outputs": [],
      "payable": false,
      "stateMutability": "nonpayable",
      "type": "function"
    },
    {
      "constant": false,
      "inputs": [
        {
          "name": "newOwner",
          "type": "address"
        }
      ],
      "name": "transferOwnership",
      "outputs": [],
      "payable": false,
      "stateMutability": "nonpayable",
      "type": "function"
    },
    {
      "constant": true,
      "inputs": [
        {
          "name": "",
          "type": "bytes32"
        }
      ],
      "name": "usedSignatures",
      "outputs": [
        {
          "name": "",
          "type": "bool"
        }
      ],
      "payable": false,
      "stateMutability": "view",
      "type": "function"
    },
    {
      "anonymous": false,
      "inputs": [
        {
          "indexed": false,
          "name": "_userId",
          "type": "uint256"
        },
        {
          "indexed": false,
          "name": "_primary",
          "type": "uint256"
        },
        {
          "indexed": false,
          "name": "_secondaries",
          "type": "uint256[]"
        }
      ],
      "name": "UpdateReplicaSet",
      "type": "event"
    },
    {
      "anonymous": false,
      "inputs": [
        {
          "indexed": false,
          "name": "_newCnodeId",
          "type": "uint256"
        },
        {
          "indexed": false,
          "name": "_newCnodeDelegateOwnerWallet",
          "type": "address"
        },
        {
          "indexed": false,
          "name": "_proposerSpIds",
          "type": "uint256[3]"
        },
        {
          "indexed": false,
          "name": "_proposer1Address",
          "type": "address"
        },
        {
          "indexed": false,
          "name": "_proposer2Address",
          "type": "address"
        },
        {
          "indexed": false,
          "name": "_proposer3Address",
          "type": "address"
        }
      ],
      "name": "AddOrUpdateContentNode",
      "type": "event"
    },
    {
      "anonymous": false,
      "inputs": [
        {
          "indexed": true,
          "name": "previousOwner",
          "type": "address"
        },
        {
          "indexed": true,
          "name": "newOwner",
          "type": "address"
        }
      ],
      "name": "OwnershipTransferred",
      "type": "event"
    },
    {
      "constant": false,
      "inputs": [
        {
          "name": "name",
          "type": "string"
        },
        {
          "name": "version",
          "type": "string"
        },
        {
          "name": "chainId",
          "type": "uint256"
        }
      ],
      "name": "initialize",
      "outputs": [],
      "payable": false,
      "stateMutability": "nonpayable",
      "type": "function"
    },
    {
      "constant": false,
      "inputs": [
        {
          "name": "_registryAddress",
          "type": "address"
        },
        {
          "name": "_userFactoryRegistryKey",
          "type": "bytes32"
        },
        {
          "name": "_userReplicaSetBootstrapAddress",
          "type": "address"
        },
        {
          "name": "_networkId",
          "type": "uint256"
        }
      ],
      "name": "initialize",
      "outputs": [],
      "payable": false,
      "stateMutability": "nonpayable",
      "type": "function"
    },
    {
      "constant": false,
      "inputs": [
        {
          "name": "_bootstrapSPIds",
          "type": "uint256[]"
        },
        {
          "name": "_bootstrapNodeDelegateWallets",
          "type": "address[]"
        }
      ],
      "name": "seedBootstrapNodes",
      "outputs": [],
      "payable": false,
      "stateMutability": "nonpayable",
      "type": "function"
    },
    {
      "constant": false,
      "inputs": [
        {
          "name": "_newCnodeId",
          "type": "uint256"
        },
        {
          "name": "_newCnodeDelegateOwnerWallet",
          "type": "address"
        },
        {
          "name": "_proposerSpIds",
          "type": "uint256[3]"
        },
        {
          "name": "_proposerNonces",
          "type": "bytes32[3]"
        },
        {
          "name": "_proposer1Sig",
          "type": "bytes"
        },
        {
          "name": "_proposer2Sig",
          "type": "bytes"
        },
        {
          "name": "_proposer3Sig",
          "type": "bytes"
        }
      ],
      "name": "addOrUpdateContentNode",
      "outputs": [],
      "payable": false,
      "stateMutability": "nonpayable",
      "type": "function"
    },
    {
      "constant": false,
      "inputs": [
        {
          "name": "_userId",
          "type": "uint256"
        },
        {
          "name": "_primary",
          "type": "uint256"
        },
        {
          "name": "_secondaries",
          "type": "uint256[]"
        },
        {
          "name": "_oldPrimary",
          "type": "uint256"
        },
        {
          "name": "_oldSecondaries",
          "type": "uint256[]"
        },
        {
          "name": "_requestNonce",
          "type": "bytes32"
        },
        {
          "name": "_subjectSig",
          "type": "bytes"
        }
      ],
      "name": "updateReplicaSet",
      "outputs": [],
      "payable": false,
      "stateMutability": "nonpayable",
      "type": "function"
    },
    {
      "constant": false,
      "inputs": [
        {
          "name": "_newBootstrapAddress",
          "type": "address"
        }
      ],
      "name": "updateUserReplicaBootstrapAddress",
      "outputs": [],
      "payable": false,
      "stateMutability": "nonpayable",
      "type": "function"
    },
    {
      "constant": true,
      "inputs": [
        {
          "name": "_userId",
          "type": "uint256"
        }
      ],
      "name": "getUserReplicaSet",
      "outputs": [
        {
          "name": "primary",
          "type": "uint256"
        },
        {
          "name": "secondaries",
          "type": "uint256[]"
        }
      ],
      "payable": false,
      "stateMutability": "view",
      "type": "function"
    },
    {
      "constant": true,
      "inputs": [
        {
          "name": "_spID",
          "type": "uint256"
        }
      ],
      "name": "getContentNodeWallet",
      "outputs": [
        {
          "name": "wallet",
          "type": "address"
        }
      ],
      "payable": false,
      "stateMutability": "view",
      "type": "function"
    },
    {
      "constant": true,
      "inputs": [],
      "name": "getUserReplicaSetBootstrapAddress",
      "outputs": [
        {
          "name": "",
          "type": "address"
        }
      ],
      "payable": false,
      "stateMutability": "view",
      "type": "function"
    },
    {
      "constant": true,
      "inputs": [],
      "name": "getSeedComplete",
      "outputs": [
        {
          "name": "",
          "type": "bool"
        }
      ],
      "payable": false,
      "stateMutability": "view",
      "type": "function"
    }
  ],
  "bytecode": "0x60806040526000603760006101000a81548173ffffffffffffffffffffffffffffffffffffffff021916908373ffffffffffffffffffffffffffffffffffffffff16021790555033603560006101000a81548173ffffffffffffffffffffffffffffffffffffffff021916908373ffffffffffffffffffffffffffffffffffffffff160217905550603560009054906101000a900473ffffffffffffffffffffffffffffffffffffffff1673ffffffffffffffffffffffffffffffffffffffff16600073ffffffffffffffffffffffffffffffffffffffff167f8be0079c531659141344cd1fd0a4f28419497f9722a3daafe3b4186f6b6457e060405160405180910390a36134bb806101136000396000f3fe608060405234801561001057600080fd5b506004361061010b5760003560e01c80638f32d59b116100a2578063e0ecd5b511610071578063e0ecd5b5146105a6578063e2b4b2f714610708578063ef2156c214610780578063f2fde38b146108cb578063f978fd611461090f5761010b565b80638f32d59b14610376578063a91ee0dc14610398578063b119490e146103dc578063c0618a5a146105385761010b565b806348222138116100de57806348222138146102bc578063715018a6146102de5780638c85f696146102e85780638da5cb5b1461032c5761010b565b80630745fe8c14610110578063382f5fae146101de57806338ce4acb1461022857806341c0e1b5146102b2575b600080fd5b6101dc6004803603604081101561012657600080fd5b810190808035906020019064010000000081111561014357600080fd5b82018360208201111561015557600080fd5b8035906020019184602083028401116401000000008311171561017757600080fd5b90919293919293908035906020019064010000000081111561019857600080fd5b8201836020820111156101aa57600080fd5b803590602001918460208302840111640100000000831117156101cc57600080fd5b9091929391929390505050610955565b005b6101e6610d4a565b604051808273ffffffffffffffffffffffffffffffffffffffff1673ffffffffffffffffffffffffffffffffffffffff16815260200191505060405180910390f35b6102546004803603602081101561023e57600080fd5b8101908080359060200190929190505050610d74565b6040518083815260200180602001828103825283818151815260200191508051906020019060200280838360005b8381101561029d578082015181840152602081019050610282565b50505050905001935050505060405180910390f35b6102ba610e00565b005b6102c4610e92565b604051808215151515815260200191505060405180910390f35b6102e6610ea9565b005b61032a600480360360208110156102fe57600080fd5b81019080803573ffffffffffffffffffffffffffffffffffffffff169060200190929190505050610fe4565b005b6103346110d6565b604051808273ffffffffffffffffffffffffffffffffffffffff1673ffffffffffffffffffffffffffffffffffffffff16815260200191505060405180910390f35b61037e611100565b604051808215151515815260200191505060405180910390f35b6103da600480360360208110156103ae57600080fd5b81019080803573ffffffffffffffffffffffffffffffffffffffff169060200190929190505050611158565b005b610536600480360360608110156103f257600080fd5b810190808035906020019064010000000081111561040f57600080fd5b82018360208201111561042157600080fd5b8035906020019184600183028401116401000000008311171561044357600080fd5b91908080601f016020809104026020016040519081016040528093929190818152602001838380828437600081840152601f19601f820116905080830192505050505050509192919290803590602001906401000000008111156104a657600080fd5b8201836020820111156104b857600080fd5b803590602001918460018302840111640100000000831117156104da57600080fd5b91908080601f016020809104026020016040519081016040528093929190818152602001838380828437600081840152601f19601f82011690508083019250505050505050919291929080359060200190929190505050611351565b005b6105646004803603602081101561054e57600080fd5b8101908080359060200190929190505050611498565b604051808273ffffffffffffffffffffffffffffffffffffffff1673ffffffffffffffffffffffffffffffffffffffff16815260200191505060405180910390f35b61070660048036036101608110156105bd57600080fd5b8101908080359060200190929190803573ffffffffffffffffffffffffffffffffffffffff16906020019092919080606001909192919290806060019091929192908035906020019064010000000081111561061857600080fd5b82018360208201111561062a57600080fd5b8035906020019184600183028401116401000000008311171561064c57600080fd5b90919293919293908035906020019064010000000081111561066d57600080fd5b82018360208201111561067f57600080fd5b803590602001918460018302840111640100000000831117156106a157600080fd5b9091929391929390803590602001906401000000008111156106c257600080fd5b8201836020820111156106d457600080fd5b803590602001918460018302840111640100000000831117156106f657600080fd5b90919293919293905050506114d5565b005b61077e6004803603608081101561071e57600080fd5b81019080803573ffffffffffffffffffffffffffffffffffffffff16906020019092919080359060200190929190803573ffffffffffffffffffffffffffffffffffffffff16906020019092919080359060200190929190505050611810565b005b6108c9600480360360e081101561079657600080fd5b810190808035906020019092919080359060200190929190803590602001906401000000008111156107c757600080fd5b8201836020820111156107d957600080fd5b803590602001918460208302840111640100000000831117156107fb57600080fd5b9091929391929390803590602001909291908035906020019064010000000081111561082657600080fd5b82018360208201111561083857600080fd5b8035906020019184602083028401116401000000008311171561085a57600080fd5b9091929391929390803590602001909291908035906020019064010000000081111561088557600080fd5b82018360208201111561089757600080fd5b803590602001918460018302840111640100000000831117156108b957600080fd5b9091929391929390505050611ac3565b005b61090d600480360360208110156108e157600080fd5b81019080803573ffffffffffffffffffffffffffffffffffffffff1690602001909291905050506122bb565b005b61093b6004803603602081101561092557600080fd5b8101908080359060200190929190505050612341565b604051808215151515815260200191505060405180910390f35b603960009054906101000a900473ffffffffffffffffffffffffffffffffffffffff1673ffffffffffffffffffffffffffffffffffffffff163373ffffffffffffffffffffffffffffffffffffffff16146109fb576040517f08c379a000000000000000000000000000000000000000000000000000000000815260040180806020018281038252602f81526020018061331f602f913960400191505060405180910390fd5b60001515603c60009054906101000a900460ff16151514610a84576040517f08c379a00000000000000000000000000000000000000000000000000000000081526004018080602001828103825260208152602001807f53656564206f7065726174696f6e20616c726561647920636f6d706c6574656481525060200191505060405180910390fd5b610a8c61307b565b6040518060600160405280600081526020016000815260200160008152509050828290508585905014610b0a576040517f08c379a000000000000000000000000000000000000000000000000000000000815260040180806020018281038252602281526020018061322b6022913960400191505060405180910390fd5b60008090505b85859050811015610d2757838382818110610b2757fe5b9050602002013573ffffffffffffffffffffffffffffffffffffffff16603a6000888885818110610b5457fe5b90506020020135815260200190815260200160002060006101000a81548173ffffffffffffffffffffffffffffffffffffffff021916908373ffffffffffffffffffffffffffffffffffffffff1602179055507fe3bb0ac731cc954324aaed6ad32916fd7f573ad6ce5814cba27f06914d92c11d868683818110610bd457fe5b90506020020135858584818110610be757fe5b9050602002013573ffffffffffffffffffffffffffffffffffffffff16846000806000604051808781526020018673ffffffffffffffffffffffffffffffffffffffff1673ffffffffffffffffffffffffffffffffffffffff16815260200185600360200280838360005b83811015610c6d578082015181840152602081019050610c52565b505050509050018473ffffffffffffffffffffffffffffffffffffffff1673ffffffffffffffffffffffffffffffffffffffff1681526020018373ffffffffffffffffffffffffffffffffffffffff1673ffffffffffffffffffffffffffffffffffffffff1681526020018273ffffffffffffffffffffffffffffffffffffffff1673ffffffffffffffffffffffffffffffffffffffff168152602001965050505050505060405180910390a18080600101915050610b10565b506001603c60006101000a81548160ff0219169083151502179055505050505050565b6000603960009054906101000a900473ffffffffffffffffffffffffffffffffffffffff16905090565b60006060603b600084815260200190815260200160002060000154603b600085815260200190815260200160002060010180805480602002602001604051908101604052809291908181526020018280548015610df057602002820191906000526020600020905b815481526020019060010190808311610ddc575b5050505050905091509150915091565b603660009054906101000a900473ffffffffffffffffffffffffffffffffffffffff1673ffffffffffffffffffffffffffffffffffffffff163373ffffffffffffffffffffffffffffffffffffffff1614610e5757fe5b603660009054906101000a900473ffffffffffffffffffffffffffffffffffffffff1673ffffffffffffffffffffffffffffffffffffffff16ff5b6000603c60009054906101000a900460ff16905090565b610eb1611100565b610f23576040517f08c379a00000000000000000000000000000000000000000000000000000000081526004018080602001828103825260208152602001807f4f776e61626c653a2063616c6c6572206973206e6f7420746865206f776e657281525060200191505060405180910390fd5b600073ffffffffffffffffffffffffffffffffffffffff16603560009054906101000a900473ffffffffffffffffffffffffffffffffffffffff1673ffffffffffffffffffffffffffffffffffffffff167f8be0079c531659141344cd1fd0a4f28419497f9722a3daafe3b4186f6b6457e060405160405180910390a36000603560006101000a81548173ffffffffffffffffffffffffffffffffffffffff021916908373ffffffffffffffffffffffffffffffffffffffff160217905550565b610fec612361565b603960009054906101000a900473ffffffffffffffffffffffffffffffffffffffff1673ffffffffffffffffffffffffffffffffffffffff163373ffffffffffffffffffffffffffffffffffffffff1614611092576040517f08c379a000000000000000000000000000000000000000000000000000000000815260040180806020018281038252603d8152602001806131a1603d913960400191505060405180910390fd5b80603960006101000a81548173ffffffffffffffffffffffffffffffffffffffff021916908373ffffffffffffffffffffffffffffffffffffffff16021790555050565b6000603560009054906101000a900473ffffffffffffffffffffffffffffffffffffffff16905090565b6000603560009054906101000a900473ffffffffffffffffffffffffffffffffffffffff1673ffffffffffffffffffffffffffffffffffffffff163373ffffffffffffffffffffffffffffffffffffffff1614905090565b600073ffffffffffffffffffffffffffffffffffffffff16603660009054906101000a900473ffffffffffffffffffffffffffffffffffffffff1673ffffffffffffffffffffffffffffffffffffffff16148061120257503373ffffffffffffffffffffffffffffffffffffffff16603660009054906101000a900473ffffffffffffffffffffffffffffffffffffffff1673ffffffffffffffffffffffffffffffffffffffff16145b806112b857503373ffffffffffffffffffffffffffffffffffffffff163073ffffffffffffffffffffffffffffffffffffffff16638da5cb5b6040518163ffffffff1660e01b815260040160206040518083038186803b15801561126557600080fd5b505afa158015611279573d6000803e3d6000fd5b505050506040513d602081101561128f57600080fd5b810190808051906020019092919050505073ffffffffffffffffffffffffffffffffffffffff16145b61130d576040517f08c379a000000000000000000000000000000000000000000000000000000000815260040180806020018281038252604381526020018061315e6043913960600191505060405180910390fd5b80603660006101000a81548173ffffffffffffffffffffffffffffffffffffffff021916908373ffffffffffffffffffffffffffffffffffffffff16021790555050565b600060019054906101000a900460ff1680611370575061136f6123ec565b5b8061138757506000809054906101000a900460ff16155b6113dc576040517f08c379a000000000000000000000000000000000000000000000000000000000815260040180806020018281038252602e8152602001806132c7602e913960400191505060405180910390fd5b60008060019054906101000a900460ff16159050801561142c576001600060016101000a81548160ff02191690831515021790555060016000806101000a81548160ff0219169083151502179055505b61146b60405180608001604052808681526020018581526020018481526020013073ffffffffffffffffffffffffffffffffffffffff16815250612403565b60338190555080156114925760008060016101000a81548160ff0219169083151502179055505b50505050565b6000603a600083815260200190815260200160002060009054906101000a900473ffffffffffffffffffffffffffffffffffffffff169050919050565b6114dd612361565b60006115528b8b8b6000600381106114f157fe5b60200201358b60006003811061150357fe5b60200201358b8b8080601f016020809104026020016040519081016040528093929190818152602001838380828437600081840152601f19601f820116905080830192505050505050506124b5565b905060006115c98c8c8c60016003811061156857fe5b60200201358c60016003811061157a57fe5b60200201358a8a8080601f016020809104026020016040519081016040528093929190818152602001838380828437600081840152601f19601f820116905080830192505050505050506124b5565b905060006116408d8d8d6002600381106115df57fe5b60200201358d6002600381106115f157fe5b602002013589898080601f016020809104026020016040519081016040528093929190818152602001838380828437600081840152601f19601f820116905080830192505050505050506124b5565b90506116858383838e6003806020026040519081016040528092919082600360200280828437600081840152601f19601f820116905080830192505050505050612573565b8b603a60008f815260200190815260200160002060006101000a81548173ffffffffffffffffffffffffffffffffffffffff021916908373ffffffffffffffffffffffffffffffffffffffff1602179055507fe3bb0ac731cc954324aaed6ad32916fd7f573ad6ce5814cba27f06914d92c11d8d8d8d868686604051808781526020018673ffffffffffffffffffffffffffffffffffffffff1673ffffffffffffffffffffffffffffffffffffffff16815260200185600360200280828437600081840152601f19601f8201169050808301925050508473ffffffffffffffffffffffffffffffffffffffff1673ffffffffffffffffffffffffffffffffffffffff1681526020018373ffffffffffffffffffffffffffffffffffffffff1673ffffffffffffffffffffffffffffffffffffffff1681526020018273ffffffffffffffffffffffffffffffffffffffff1673ffffffffffffffffffffffffffffffffffffffff168152602001965050505050505060405180910390a150505050505050505050505050565b600060019054906101000a900460ff168061182f575061182e6123ec565b5b8061184657506000809054906101000a900460ff16155b61189b576040517f08c379a000000000000000000000000000000000000000000000000000000000815260040180806020018281038252602e8152602001806132c7602e913960400191505060405180910390fd5b60008060019054906101000a900460ff1615905080156118eb576001600060016101000a81548160ff02191690831515021790555060016000806101000a81548160ff0219169083151502179055505b600073ffffffffffffffffffffffffffffffffffffffff168573ffffffffffffffffffffffffffffffffffffffff161415801561192d57506000602060ff1614155b611982576040517f08c379a00000000000000000000000000000000000000000000000000000000081526004018080602001828103825260328152602001806133ec6032913960400191505060405180910390fd5b84603760006101000a81548173ffffffffffffffffffffffffffffffffffffffff021916908373ffffffffffffffffffffffffffffffffffffffff1602179055508360388190555082603960006101000a81548173ffffffffffffffffffffffffffffffffffffffff021916908373ffffffffffffffffffffffffffffffffffffffff160217905550611a806040518060400160405280601881526020017f55736572205265706c69636120536574204d616e6167657200000000000000008152506040518060400160405280600181526020017f310000000000000000000000000000000000000000000000000000000000000081525084611351565b6000603c60006101000a81548160ff0219169083151502179055508015611abc5760008060016101000a81548160ff0219169083151502179055505b5050505050565b611acb612361565b6000611ba28b8b8b8b80806020026020016040519081016040528093929190818152602001838360200280828437600081840152601f19601f820116905080830192505050505050508a8a8a80806020026020016040519081016040528093929190818152602001838360200280828437600081840152601f19601f820116905080830192505050505050508989898080601f016020809104026020016040519081016040528093929190818152602001838380828437600081840152601f19601f820116905080830192505050505050506128e3565b905060008090506000603760009054906101000a900473ffffffffffffffffffffffffffffffffffffffff1673ffffffffffffffffffffffffffffffffffffffff1663e16c7d986038546040518263ffffffff1660e01b81526004018082815260200191505060206040518083038186803b158015611c2057600080fd5b505afa158015611c34573d6000803e3d6000fd5b505050506040513d6020811015611c4a57600080fd5b810190808051906020019092919050505073ffffffffffffffffffffffffffffffffffffffff1663b0467deb8e6040518263ffffffff1660e01b815260040180828152602001915050604080518083038186803b158015611caa57600080fd5b505afa158015611cbe573d6000803e3d6000fd5b505050506040513d6040811015611cd457600080fd5b810190808051906020019092919080519060200190929190505050509050600073ffffffffffffffffffffffffffffffffffffffff168173ffffffffffffffffffffffffffffffffffffffff161415611d95576040517f08c379a00000000000000000000000000000000000000000000000000000000081526004018080602001828103825260138152602001807f56616c696420757365722072657175697265640000000000000000000000000081525060200191505060405180910390fd5b8073ffffffffffffffffffffffffffffffffffffffff168373ffffffffffffffffffffffffffffffffffffffff161480611e2d5750603a60008a815260200190815260200160002060009054906101000a900473ffffffffffffffffffffffffffffffffffffffff1673ffffffffffffffffffffffffffffffffffffffff168373ffffffffffffffffffffffffffffffffffffffff16145b80611e855750603960009054906101000a900473ffffffffffffffffffffffffffffffffffffffff1673ffffffffffffffffffffffffffffffffffffffff168373ffffffffffffffffffffffffffffffffffffffff16145b15611e8f57600191505b88603b60008f81526020019081526020016000206000015414611efd576040517f08c379a00000000000000000000000000000000000000000000000000000000081526004018080602001828103825260238152602001806133c96023913960400191505060405180910390fd5b611f4a8d898980806020026020016040519081016040528093929190818152602001838360200280828437600081840152601f19601f820116905080830192505050505050508585612a55565b91506001151582151514611fc6576040517f08c379a00000000000000000000000000000000000000000000000000000000081526004018080602001828103825260188152602001807f496e76616c696420757064617465206f7065726174696f6e000000000000000081525060200191505060405180910390fd5b600073ffffffffffffffffffffffffffffffffffffffff16603a60008e815260200190815260200160002060009054906101000a900473ffffffffffffffffffffffffffffffffffffffff1673ffffffffffffffffffffffffffffffffffffffff16141561209c576040517f08c379a00000000000000000000000000000000000000000000000000000000081526004018080602001828103825260128152602001807f5072696d617279206d757374206578697374000000000000000000000000000081525060200191505060405180910390fd5b60008090505b8b8b90508110156121a257600073ffffffffffffffffffffffffffffffffffffffff16603a60008e8e858181106120d557fe5b90506020020135815260200190815260200160002060009054906101000a900473ffffffffffffffffffffffffffffffffffffffff1673ffffffffffffffffffffffffffffffffffffffff161415612195576040517f08c379a00000000000000000000000000000000000000000000000000000000081526004018080602001828103825260148152602001807f5365636f6e64617279206d75737420657869737400000000000000000000000081525060200191505060405180910390fd5b80806001019150506120a2565b5060405180604001604052808d81526020018c8c80806020026020016040519081016040528093929190818152602001838360200280828437600081840152601f19601f82011690508083019250505050505050815250603b60008f815260200190815260200160002060008201518160000155602082015181600101908051906020019061223292919061309d565b509050507f749e2a83763ee5e26f7d3f86cea90c1b51d7321fd0a8698de63ba0b43e8377408d8d8d8d60405180858152602001848152602001806020018281038252848482818152602001925060200280828437600081840152601f19601f8201169050808301925050509550505050505060405180910390a150505050505050505050505050565b6122c3611100565b612335576040517f08c379a00000000000000000000000000000000000000000000000000000000081526004018080602001828103825260208152602001807f4f776e61626c653a2063616c6c6572206973206e6f7420746865206f776e657281525060200191505060405180910390fd5b61233e81612c0c565b50565b60346020528060005260406000206000915054906101000a900460ff1681565b60011515603c60009054906101000a900460ff161515146123ea576040517f08c379a00000000000000000000000000000000000000000000000000000000081526004018080602001828103825260138152602001807f4d75737420626520696e697469616c697a65640000000000000000000000000081525060200191505060405180910390fd5b565b6000803090506000813b9050600081149250505090565b60006040518080613275605291396052019050604051809103902082600001518051906020012083602001518051906020012084604001518560600151604051602001808681526020018581526020018481526020018381526020018273ffffffffffffffffffffffffffffffffffffffff1673ffffffffffffffffffffffffffffffffffffffff16815260200195505050505050604051602081830303815290604052805190602001209050919050565b60008061254b604051808061341e607291396072019050604051809103902088888888604051602001808681526020018581526020018473ffffffffffffffffffffffffffffffffffffffff1673ffffffffffffffffffffffffffffffffffffffff1681526020018381526020018281526020019550505050505060405160208183030381529060405280519060200120612d52565b905060006125598285612db4565b90506125658282612e53565b809250505095945050505050565b8273ffffffffffffffffffffffffffffffffffffffff168473ffffffffffffffffffffffffffffffffffffffff16141580156125db57508173ffffffffffffffffffffffffffffffffffffffff168473ffffffffffffffffffffffffffffffffffffffff1614155b801561261357508173ffffffffffffffffffffffffffffffffffffffff168373ffffffffffffffffffffffffffffffffffffffff1614155b612685576040517f08c379a000000000000000000000000000000000000000000000000000000000815260040180806020018281038252601b8152602001807f44697374696e63742070726f706f73657273207265717569726564000000000081525060200191505060405180910390fd5b8373ffffffffffffffffffffffffffffffffffffffff16603a6000836000600381106126ad57fe5b6020020151815260200190815260200160002060009054906101000a900473ffffffffffffffffffffffffffffffffffffffff1673ffffffffffffffffffffffffffffffffffffffff161461274d576040517f08c379a00000000000000000000000000000000000000000000000000000000081526004018080602001828103825260288152602001806131106028913960400191505060405180910390fd5b8273ffffffffffffffffffffffffffffffffffffffff16603a60008360016003811061277557fe5b6020020151815260200190815260200160002060009054906101000a900473ffffffffffffffffffffffffffffffffffffffff1673ffffffffffffffffffffffffffffffffffffffff1614612815576040517f08c379a000000000000000000000000000000000000000000000000000000000815260040180806020018281038252602881526020018061324d6028913960400191505060405180910390fd5b8173ffffffffffffffffffffffffffffffffffffffff16603a60008360026003811061283d57fe5b6020020151815260200190815260200160002060009054906101000a900473ffffffffffffffffffffffffffffffffffffffff1673ffffffffffffffffffffffffffffffffffffffff16146128dd576040517f08c379a00000000000000000000000000000000000000000000000000000000081526004018080602001828103825260288152602001806132036028913960400191505060405180910390fd5b50505050565b600080612a2b604051808061334e607b9139607b01905060405180910390208a8a8a6040516020018080602001828103825283818151815260200191508051906020019060200280838360005b8381101561294b578082015181840152602081019050612930565b5050505090500192505050604051602081830303815290604052805190602001208a8a6040516020018080602001828103825283818151815260200191508051906020019060200280838360005b838110156129b4578082015181840152602081019050612999565b5050505090500192505050604051602081830303815290604052805190602001208a6040516020018088815260200187815260200186815260200185815260200184815260200183815260200182815260200197505050505050505060405160208183030381529060405280519060200120612d52565b90506000612a398285612db4565b9050612a458282612e53565b8092505050979650505050505050565b6000603b600086815260200190815260200160002060010180549050845114612ac9576040517f08c379a00000000000000000000000000000000000000000000000000000000081526004018080602001828103825260258152602001806131de6025913960400191505060405180910390fd5b600082905060008090505b8551811015612bff57858181518110612ae957fe5b6020026020010151603b60008981526020019081526020016000206001018281548110612b1257fe5b906000526020600020015414612b73576040517f08c379a00000000000000000000000000000000000000000000000000000000081526004018080602001828103825260258152602001806131de6025913960400191505060405180910390fd5b603a6000878381518110612b8357fe5b6020026020010151815260200190815260200160002060009054906101000a900473ffffffffffffffffffffffffffffffffffffffff1673ffffffffffffffffffffffffffffffffffffffff168573ffffffffffffffffffffffffffffffffffffffff161415612bf257600191505b8080600101915050612ad4565b5080915050949350505050565b600073ffffffffffffffffffffffffffffffffffffffff168173ffffffffffffffffffffffffffffffffffffffff161415612c92576040517f08c379a00000000000000000000000000000000000000000000000000000000081526004018080602001828103825260268152602001806131386026913960400191505060405180910390fd5b8073ffffffffffffffffffffffffffffffffffffffff16603560009054906101000a900473ffffffffffffffffffffffffffffffffffffffff1673ffffffffffffffffffffffffffffffffffffffff167f8be0079c531659141344cd1fd0a4f28419497f9722a3daafe3b4186f6b6457e060405160405180910390a380603560006101000a81548173ffffffffffffffffffffffffffffffffffffffff021916908373ffffffffffffffffffffffffffffffffffffffff16021790555050565b60006033548260405160200180807f190100000000000000000000000000000000000000000000000000000000000081525060020183815260200182815260200192505050604051602081830303815290604052805190602001209050919050565b600080612dc18484612f77565b9050600073ffffffffffffffffffffffffffffffffffffffff168173ffffffffffffffffffffffffffffffffffffffff161415612e49576040517f08c379a000000000000000000000000000000000000000000000000000000000815260040180806020018281038252602a8152602001806132f5602a913960400191505060405180910390fd5b8091505092915050565b60008282604051602001808381526020018273ffffffffffffffffffffffffffffffffffffffff1673ffffffffffffffffffffffffffffffffffffffff168152602001925050506040516020818303038152906040528051906020012090506034600082815260200190815260200160002060009054906101000a900460ff1615612f46576040517f08c379a00000000000000000000000000000000000000000000000000000000081526004018080602001828103825260148152602001807f5369676e6174757265206e6f7420756e6971756500000000000000000000000081525060200191505060405180910390fd5b60016034600083815260200190815260200160002060006101000a81548160ff021916908315150217905550505050565b60006041825114612f8b5760009050613075565b60008060006020850151925060408501519150606085015160001a90507f7fffffffffffffffffffffffffffffff5d576e7357a4501ddfe92f46681b20a08260001c1115612fdf5760009350505050613075565b601b8160ff1614158015612ff75750601c8160ff1614155b156130085760009350505050613075565b60018682858560405160008152602001604052604051808581526020018460ff1660ff1681526020018381526020018281526020019450505050506020604051602081039080840390855afa158015613065573d6000803e3d6000fd5b5050506020604051035193505050505b92915050565b6040518060600160405280600390602082028038833980820191505090505090565b8280548282559060005260206000209081019282156130d9579160200282015b828111156130d85782518255916020019190600101906130bd565b5b5090506130e691906130ea565b5090565b61310c91905b808211156131085760008160009055506001016130f0565b5090565b9056fe496e76616c69642077616c6c65742070726f766964656420666f72203173742070726f706f7365724f776e61626c653a206e6577206f776e657220697320746865207a65726f206164647265737343616e206f6e6c792062652063616c6c65642069662072656769737472794164647265737320697320656d7074792c206d73672e73656e646572206f72206f776e6572496e76616c69642073656e6465722c206578706563742063757272656e7420757365725265706c696361536574426f6f74737472617041646472657373496e76616c6964207072696f72207365636f6e6461727920636f6e66696775726174696f6e496e76616c69642077616c6c65742070726f766964656420666f72203372642070726f706f7365724d69736d61746368656420626f6f747374726170206172726179206c656e67746873496e76616c69642077616c6c65742070726f766964656420666f7220326e642070726f706f736572454950373132446f6d61696e28737472696e67206e616d652c737472696e672076657273696f6e2c75696e7432353620636861696e49642c6164647265737320766572696679696e67436f6e747261637429436f6e747261637420696e7374616e63652068617320616c7265616479206265656e20696e697469616c697a65645369676e65722063616e6e6f7420626520636f6e7472616374206372656174696f6e20616464726573734f6e6c792063616c6c61626c6520627920757365725265706c696361536574426f6f747374726170416464726573735570646174655265706c6963615365742875696e74207573657249642c75696e74207072696d6172792c62797465733332207365636f6e646172696573486173682c75696e74206f6c645072696d6172792c62797465733332206f6c645365636f6e646172696573486173682c62797465733332206e6f6e636529496e76616c6964207072696f72207072696d61727920636f6e66696775726174696f6e5265717569726573206e6f6e2d7a65726f205f72656769737472794164647265737320616e642072656769737472794b657950726f706f73654164644f72557064617465436f6e74656e744e6f64652875696e74206e6577436e6f646549642c61646472657373206e6577436e6f646544656c65676174654f776e657257616c6c65742c75696e742070726f706f736572537049642c62797465733332206e6f6e636529a165627a7a72305820c4c56b60f7afbe9404993fca8aea780f7dbb66b54cf3fcc4b00a8c627660d7130029",
  "source": "pragma solidity ^0.5.0;\n\nimport \"./interface/RegistryInterface.sol\";\nimport \"./registry/RegistryContract.sol\";\nimport \"./UserFactory.sol\";\n\nimport \"./SigningLogicInitializable.sol\";\n\n\n/** @title Contract for Audius user replica set management */\ncontract UserReplicaSetManager is SigningLogicInitializable, RegistryContract {\n    /// @notice Reference to data contract registry\n    RegistryInterface private registry = RegistryInterface(0);\n    /// @notice User factory key used to confirm valid users during reconfig operations\n    bytes32 private userFactoryRegistryKey;\n\n    /// @notice Address permissioned to update user replica sets\n    address userReplicaSetBootstrapAddress;\n\n    /// @notice ServiceProvider ID to ServiceProvider delegateOwnerWallet,\n    ///     reflecting registered values on Audius Ethereum L1 contracts\n    mapping (uint => address) spIdToContentNodeDelegateWallet;\n\n    /// @notice Struct used to represent replica sets\n    //          Each uint represents the spID registered on eth-contracts\n    struct ReplicaSet {\n        uint primary;\n        uint[] secondaries;\n    }\n\n    /// @notice Current uint userId to Replica Set\n    mapping (uint => ReplicaSet) userReplicaSets;\n\n    /// @notice Flag indicating whether bootstrap information has been configured\n    bool seedComplete;\n\n    /* Events */\n    event UpdateReplicaSet(\n        uint _userId,\n        uint _primary,\n        uint[] _secondaries\n    );\n\n    event AddOrUpdateContentNode(\n        uint _newCnodeId,\n        address _newCnodeDelegateOwnerWallet,\n        uint[3] _proposerSpIds,\n        address _proposer1Address,\n        address _proposer2Address,\n        address _proposer3Address\n    );\n\n    /// @notice EIP-712 Typehash definitions\n    //          Used to validate identity with gasless transaction submission\n    bytes32 constant PROPOSE_ADD_UPDATE_CNODE_REQUEST_TYPEHASH = keccak256(\n        \"ProposeAddOrUpdateContentNode(uint newCnodeId,address newCnodeDelegateOwnerWallet,uint proposerSpId,bytes32 nonce)\"\n    );\n    bytes32 constant UPDATE_REPLICA_SET_REQUEST_TYPEHASH = keccak256(\n        \"UpdateReplicaSet(uint userId,uint primary,bytes32 secondariesHash,uint oldPrimary,bytes32 oldSecondariesHash,bytes32 nonce)\"\n    );\n\n    function initialize(\n        address _registryAddress,\n        bytes32 _userFactoryRegistryKey,\n        address _userReplicaSetBootstrapAddress,\n        uint _networkId\n    ) public initializer\n    {\n        require(\n            _registryAddress != address(0x00) &&\n            _userFactoryRegistryKey.length != 0,\n            \"Requires non-zero _registryAddress and registryKey\"\n        );\n        registry = RegistryInterface(_registryAddress);\n        userFactoryRegistryKey = _userFactoryRegistryKey;\n        userReplicaSetBootstrapAddress = _userReplicaSetBootstrapAddress;\n        // Initialize base Signing Logic contract\n        SigningLogicInitializable.initialize(\n            \"User Replica Set Manager\",\n            \"1\",\n            _networkId\n        );\n        seedComplete = false;\n    }\n\n    /**\n     * @notice Function used to initialize bootstrap nodes\n     * Prior to this function, the contract is effectively disabled\n     */\n    function seedBootstrapNodes(\n        uint[] calldata _bootstrapSPIds,\n        address[] calldata _bootstrapNodeDelegateWallets\n    ) external\n    {\n        require(\n            msg.sender == userReplicaSetBootstrapAddress,\n            \"Only callable by userReplicaSetBootstrapAddress\"\n        );\n        require(seedComplete == false, \"Seed operation already completed\");\n        uint256[3] memory emptyProposerIds = [uint256(0), uint256(0), uint256(0)];\n        require(\n            _bootstrapSPIds.length == _bootstrapNodeDelegateWallets.length,\n            \"Mismatched bootstrap array lengths\"\n        );\n        for (uint i = 0; i < _bootstrapSPIds.length; i++) {\n            spIdToContentNodeDelegateWallet[_bootstrapSPIds[i]] = _bootstrapNodeDelegateWallets[i];\n            emit AddOrUpdateContentNode(\n                _bootstrapSPIds[i],\n                _bootstrapNodeDelegateWallets[i],\n                emptyProposerIds,\n                address(0x00),\n                address(0x00),\n                address(0x00)\n            );\n        }\n        seedComplete = true;\n    }\n\n    /**\n     * @notice Chain of trust based authentication scheme\n     *         Nodes are required to have an identity in Audius L2 and this function enables\n     *         known entities to register other known entities on L2 contracts.\n     * @dev Multiple distinct parties must sign and submit signatures as part of this request\n     * @param _newCnodeId - Incoming spID\n     * @param _newCnodeDelegateOwnerWallet - Incoming SP delegateOwnerWallet\n     * @param _proposerSpIds - Array of 3 spIDs proposing new node\n     * @param _proposerNonces - Array of 3 nonces, each index corresponding to _proposerSpIds\n     * @param _proposer1Sig - Signature from first proposing node\n     * @param _proposer2Sig - Signature from second proposing node\n     * @param _proposer3Sig - Signature from third proposing node\n     */\n    function addOrUpdateContentNode(\n        uint _newCnodeId,\n        address _newCnodeDelegateOwnerWallet,\n        uint[3] calldata _proposerSpIds,\n        bytes32[3] calldata _proposerNonces,\n        bytes calldata _proposer1Sig,\n        bytes calldata _proposer2Sig,\n        bytes calldata _proposer3Sig\n    ) external\n    {\n        _requireSeed();\n        // For every entry in spIds/Nonces/Sigs\n        //  Recover signer using the signature for inner function (tmp is addOrUpdateCreatorNode)\n        //  Confirm that the spId <-> recoveredSigner DOES exist and match what is stored on chain\n        address proposer1Address = _recoverProposeAddOrUpdateContentNodeSignerAddress(\n            _newCnodeId,\n            _newCnodeDelegateOwnerWallet,\n            _proposerSpIds[0],\n            _proposerNonces[0],\n            _proposer1Sig\n        );\n        address proposer2Address = _recoverProposeAddOrUpdateContentNodeSignerAddress(\n            _newCnodeId,\n            _newCnodeDelegateOwnerWallet,\n            _proposerSpIds[1],\n            _proposerNonces[1],\n            _proposer2Sig\n        );\n        address proposer3Address = _recoverProposeAddOrUpdateContentNodeSignerAddress(\n            _newCnodeId,\n            _newCnodeDelegateOwnerWallet,\n            _proposerSpIds[2],\n            _proposerNonces[2],\n            _proposer3Sig\n        );\n        _validateUpdateOperation(\n            proposer1Address,\n            proposer2Address,\n            proposer3Address,\n            _proposerSpIds\n        );\n        spIdToContentNodeDelegateWallet[_newCnodeId] = _newCnodeDelegateOwnerWallet;\n        emit AddOrUpdateContentNode(\n            _newCnodeId,\n            _newCnodeDelegateOwnerWallet,\n            _proposerSpIds,\n            proposer1Address,\n            proposer2Address,\n            proposer3Address\n        );\n    }\n\n    /**\n     * @notice Function used to perform updates to a given user's replica set\n     * @param _userId - User for whom this update operation is being performed\n     * @param _primary - Incoming primary for _userId\n     * @param _secondaries - Incoming array of n spIDs for _userId\n     * @param _oldPrimary - Current primary on chain for _userId\n     * @param _oldSecondaries - Current array of secondaries on chain for _userId\n     * @param _requestNonce - Nonce generated by signer\n     * @param _subjectSig - Signature generated by signer\n     */\n    function updateReplicaSet(\n        uint _userId,\n        uint _primary,\n        uint[] calldata _secondaries,\n        uint _oldPrimary,\n        uint[] calldata _oldSecondaries,\n        bytes32 _requestNonce,\n        bytes calldata _subjectSig\n    ) external\n    {\n        _requireSeed();\n        address signer = _recoverUserReplicaSetRequestSignerAddress(\n            _userId,\n            _primary,\n            _secondaries,\n            _oldPrimary,\n            _oldSecondaries,\n            _requestNonce,\n            _subjectSig\n        );\n\n        // A valid updater can be one of the following:\n        //     - userWallet\n        //     - user old primary node\n        //     - user old secondary node\n        //     - replica set bootstrap address\n        bool validUpdater = false;\n        // Get user object from UserFactory\n        (address userWallet, ) = UserFactory(\n            registry.getContract(userFactoryRegistryKey)\n        ).getUser(_userId);\n        require(userWallet != address(0x00), \"Valid user required\");\n\n        // Valid updaters include userWallet (artist account), existing primary, existing secondary, or contract deployer\n        if (signer == userWallet ||\n            signer == spIdToContentNodeDelegateWallet[_oldPrimary] ||\n            signer == userReplicaSetBootstrapAddress\n           )\n        {\n            validUpdater = true;\n        }\n\n        // Caller's notion of existing primary must match registered value on chain\n        require(\n            userReplicaSets[_userId].primary == _oldPrimary,\n            \"Invalid prior primary configuration\"\n        );\n\n        // Check if any of the old secondaries submitted this operation\n        validUpdater = _compareUserSecondariesAndCheckSender(\n            _userId,\n            _oldSecondaries,\n            signer,\n            validUpdater\n        );\n        require(validUpdater == true, \"Invalid update operation\");\n\n        // Confirm primary and every incoming secondary is valid\n        require(spIdToContentNodeDelegateWallet[_primary] != address(0x00), \"Primary must exist\");\n        for (uint i = 0; i < _secondaries.length; i++) {\n            require(\n                spIdToContentNodeDelegateWallet[_secondaries[i]] != address(0x00),\n                \"Secondary must exist\"\n            );\n        }\n\n        // Perform replica set update\n        userReplicaSets[_userId] = ReplicaSet({\n            primary: _primary,\n            secondaries: _secondaries\n        });\n\n        emit UpdateReplicaSet(_userId, _primary, _secondaries);\n    }\n\n    /// @notice Update configured userReplicaSetBootstrapAddress\n    ///         Only callable by currently configured address on chain\n    ///         Allows special address to renounce ability\n    function updateUserReplicaBootstrapAddress (\n        address _newBootstrapAddress\n    ) external\n    {\n        _requireSeed();\n        require(\n            msg.sender == userReplicaSetBootstrapAddress,\n            \"Invalid sender, expect current userReplicaSetBootstrapAddress\"\n        );\n        userReplicaSetBootstrapAddress = _newBootstrapAddress;\n    }\n\n    /// @notice Return a users current replica set\n    function getUserReplicaSet(uint _userId) external view\n    returns (uint primary, uint[] memory secondaries)\n    {\n        return (\n            userReplicaSets[_userId].primary,\n            userReplicaSets[_userId].secondaries\n        );\n    }\n\n    /// @notice Get wallet registered on chain corresponding to Content Node spID\n    function getContentNodeWallet(uint _spID) external view\n    returns (address wallet)\n    {\n        return spIdToContentNodeDelegateWallet[_spID];\n    }\n\n    /// @notice Get userReplicaSetBootstrapAddress\n    function getUserReplicaSetBootstrapAddress() external view\n    returns (address)\n    {\n        return userReplicaSetBootstrapAddress;\n    }\n\n    /// @notice Get seedComplete\n    function getSeedComplete() external view\n    returns (bool)\n    {\n        return seedComplete;\n\n    }\n\n    /* EIP712 - Signer recovery */\n    function _recoverProposeAddOrUpdateContentNodeSignerAddress(\n        uint _cnodeId,\n        address _cnodeWallet,\n        uint _proposerId,\n        bytes32 _nonce,\n        bytes memory _subjectSig\n    ) internal returns (address)\n    {\n        bytes32 signatureDigest = generateSchemaHash(\n            keccak256(\n                abi.encode(\n                    PROPOSE_ADD_UPDATE_CNODE_REQUEST_TYPEHASH,\n                    _cnodeId,\n                    _cnodeWallet,\n                    _proposerId,\n                    _nonce\n                )\n            )\n        );\n        address signer = recoverSigner(signatureDigest, _subjectSig);\n        burnSignatureDigest(signatureDigest, signer);\n        return signer;\n    }\n\n    function _recoverUserReplicaSetRequestSignerAddress(\n        uint _userId,\n        uint _primary,\n        uint[] memory _secondaries,\n        uint _oldPrimary,\n        uint[] memory _oldSecondaries,\n        bytes32 _nonce,\n        bytes memory _subjectSig\n    ) internal returns (address)\n    {\n        bytes32 signatureDigest = generateSchemaHash(\n            keccak256(\n                abi.encode(\n                    UPDATE_REPLICA_SET_REQUEST_TYPEHASH,\n                    _userId,\n                    _primary,\n                    keccak256(abi.encode(_secondaries)),\n                    _oldPrimary,\n                    keccak256(abi.encode(_oldSecondaries)),\n                    _nonce\n                )\n            )\n        );\n        address signer = recoverSigner(signatureDigest, _subjectSig);\n        burnSignatureDigest(signatureDigest, signer);\n        return signer;\n    }\n\n    function _compareUserSecondariesAndCheckSender(\n        uint _userId,\n        uint[] memory _oldSecondaries,\n        address signer,\n        bool senderFound\n    ) internal view returns (bool)\n    {\n        // Caller's notion of secondary values must match registered value on chain\n        // A secondary node can also be considered a valid updater\n        require(\n            _oldSecondaries.length == userReplicaSets[_userId].secondaries.length,\n            \"Invalid prior secondary configuration\"\n        );\n        bool secondarySenderFound = senderFound;\n        for (uint i = 0; i < _oldSecondaries.length; i++) {\n            require(\n                userReplicaSets[_userId].secondaries[i] == _oldSecondaries[i],\n                \"Invalid prior secondary configuration\"\n            );\n            if (signer == spIdToContentNodeDelegateWallet[_oldSecondaries[i]]) {\n                secondarySenderFound = true;\n            }\n        }\n        return secondarySenderFound;\n    }\n\n    // Confirm sender is valid\n    function _validateUpdateOperation (\n        address _proposer1Address,\n        address _proposer2Address,\n        address _proposer3Address,\n        uint[3] memory _proposerSpIds\n    ) internal view\n    {\n        // Require distinct proposer addresses\n        require(\n            (_proposer1Address != _proposer2Address) &&\n            (_proposer1Address != _proposer3Address) &&\n            (_proposer2Address != _proposer3Address),\n            \"Distinct proposers required\"\n        );\n        // Confirm addresses and inputted spID values match expected values on chain\n        require(\n            spIdToContentNodeDelegateWallet[_proposerSpIds[0]] == _proposer1Address,\n            \"Invalid wallet provided for 1st proposer\"\n        );\n        require(\n            spIdToContentNodeDelegateWallet[_proposerSpIds[1]] == _proposer2Address,\n            \"Invalid wallet provided for 2nd proposer\"\n        );\n        require(\n            spIdToContentNodeDelegateWallet[_proposerSpIds[2]] == _proposer3Address,\n            \"Invalid wallet provided for 3rd proposer\"\n        );\n    }\n\n    function _requireSeed () internal view {\n        require(seedComplete == true, \"Must be initialized\");\n    }\n}\n",
  "sourcePath": "/home/ubuntu/audius-protocol/contracts/contracts/UserReplicaSetManager.sol",
  "compiler": {
    "name": "solc",
    "version": "0.5.8+commit.23d335f2.Emscripten.clang"
  },
  "schemaVersion": "3.0.16",
  "updatedAt": "2021-01-08T23:14:14.749Z",
  "devdoc": {
    "methods": {
      "addOrUpdateContentNode(uint256,address,uint256[3],bytes32[3],bytes,bytes,bytes)": {
        "details": "Multiple distinct parties must sign and submit signatures as part of this request",
        "params": {
          "_newCnodeDelegateOwnerWallet": "- Incoming SP delegateOwnerWallet",
          "_newCnodeId": "- Incoming spID",
          "_proposer1Sig": "- Signature from first proposing node",
          "_proposer2Sig": "- Signature from second proposing node",
          "_proposer3Sig": "- Signature from third proposing node",
          "_proposerNonces": "- Array of 3 nonces, each index corresponding to _proposerSpIds",
          "_proposerSpIds": "- Array of 3 spIDs proposing new node"
        }
      },
      "isOwner()": {
        "details": "Returns true if the caller is the current owner."
      },
      "owner()": {
        "details": "Returns the address of the current owner."
      },
      "renounceOwnership()": {
        "details": "Leaves the contract without owner. It will not be possible to call `onlyOwner` functions anymore. Can only be called by the current owner.     * > Note: Renouncing ownership will leave the contract without an owner, thereby removing any functionality that is only available to the owner."
      },
      "transferOwnership(address)": {
        "details": "Transfers ownership of the contract to a new account (`newOwner`). Can only be called by the current owner."
      },
      "updateReplicaSet(uint256,uint256,uint256[],uint256,uint256[],bytes32,bytes)": {
        "params": {
          "_oldPrimary": "- Current primary on chain for _userId",
          "_oldSecondaries": "- Current array of secondaries on chain for _userId",
          "_primary": "- Incoming primary for _userId",
          "_requestNonce": "- Nonce generated by signer",
          "_secondaries": "- Incoming array of n spIDs for _userId",
          "_subjectSig": "- Signature generated by signer",
          "_userId": "- User for whom this update operation is being performed"
        }
      }
    },
    "title": "Contract for Audius user replica set management "
  },
  "userdoc": {
    "methods": {
      "addOrUpdateContentNode(uint256,address,uint256[3],bytes32[3],bytes,bytes,bytes)": {
        "notice": "Chain of trust based authentication scheme        Nodes are required to have an identity in Audius L2 and this function enables        known entities to register other known entities on L2 contracts."
      },
      "getContentNodeWallet(uint256)": {
        "notice": "Get wallet registered on chain corresponding to Content Node spID"
      },
      "getSeedComplete()": {
        "notice": "Get seedComplete"
      },
      "getUserReplicaSet(uint256)": {
        "notice": "Return a users current replica set"
      },
      "getUserReplicaSetBootstrapAddress()": {
        "notice": "Get userReplicaSetBootstrapAddress"
      },
      "seedBootstrapNodes(uint256[],address[])": {
        "notice": "Function used to initialize bootstrap nodes Prior to this function, the contract is effectively disabled"
      },
      "updateReplicaSet(uint256,uint256,uint256[],uint256,uint256[],bytes32,bytes)": {
        "notice": "Function used to perform updates to a given user's replica set"
      },
      "updateUserReplicaBootstrapAddress(address)": {
        "notice": "Update configured userReplicaSetBootstrapAddress         Only callable by currently configured address on chain         Allows special address to renounce ability"
      }
    }
  }
}