{
  "contractName": "Registry",
  "abi": [
    {
      "constant": true,
      "inputs": [],
      "name": "owner",
      "outputs": [
        {
          "name": "",
          "type": "address"
        }
      ],
      "payable": false,
      "stateMutability": "view",
      "type": "function"
    },
    {
      "constant": false,
      "inputs": [
        {
          "name": "newOwner",
          "type": "address"
        }
      ],
      "name": "transferOwnership",
      "outputs": [],
      "payable": false,
      "stateMutability": "nonpayable",
      "type": "function"
    },
    {
      "inputs": [
        {
          "name": "_registryStorageAddress",
          "type": "address"
        }
      ],
      "payable": false,
      "stateMutability": "nonpayable",
      "type": "constructor"
    },
    {
      "anonymous": false,
      "inputs": [
        {
          "indexed": false,
          "name": "_name",
          "type": "bytes32"
        },
        {
          "indexed": false,
          "name": "_address",
          "type": "address"
        }
      ],
      "name": "ContractAdded",
      "type": "event"
    },
    {
      "anonymous": false,
      "inputs": [
        {
          "indexed": false,
          "name": "_name",
          "type": "bytes32"
        },
        {
          "indexed": false,
          "name": "_address",
          "type": "address"
        }
      ],
      "name": "ContractRemoved",
      "type": "event"
    },
    {
      "anonymous": false,
      "inputs": [
        {
          "indexed": false,
          "name": "_name",
          "type": "bytes32"
        },
        {
          "indexed": false,
          "name": "_oldAddress",
          "type": "address"
        },
        {
          "indexed": false,
          "name": "_newAddress",
          "type": "address"
        }
      ],
      "name": "ContractUpgraded",
      "type": "event"
    },
    {
      "anonymous": false,
      "inputs": [
        {
          "indexed": true,
          "name": "previousOwner",
          "type": "address"
        },
        {
          "indexed": true,
          "name": "newOwner",
          "type": "address"
        }
      ],
      "name": "OwnershipTransferred",
      "type": "event"
    },
    {
      "constant": false,
      "inputs": [
        {
          "name": "_name",
          "type": "bytes32"
        },
        {
          "name": "_address",
          "type": "address"
        }
      ],
      "name": "addContract",
      "outputs": [],
      "payable": false,
      "stateMutability": "nonpayable",
      "type": "function"
    },
    {
      "constant": true,
      "inputs": [
        {
          "name": "_name",
          "type": "bytes32"
        }
      ],
      "name": "getContract",
      "outputs": [
        {
          "name": "contractAddr",
          "type": "address"
        }
      ],
      "payable": false,
      "stateMutability": "view",
      "type": "function"
    },
    {
      "constant": false,
      "inputs": [
        {
          "name": "_name",
          "type": "bytes32"
        }
      ],
      "name": "removeContract",
      "outputs": [],
      "payable": false,
      "stateMutability": "nonpayable",
      "type": "function"
    },
    {
      "constant": false,
      "inputs": [
        {
          "name": "_name",
          "type": "bytes32"
        },
        {
          "name": "_newAddress",
          "type": "address"
        }
      ],
      "name": "upgradeContract",
      "outputs": [],
      "payable": false,
      "stateMutability": "nonpayable",
      "type": "function"
    }
  ],
  "bytecode": "0x60806040526000600160006101000a81548173ffffffffffffffffffffffffffffffffffffffff021916908373ffffffffffffffffffffffffffffffffffffffff16021790555034801561005257600080fd5b506040516020806113e483398101806040528101908080519060200190929190505050336000806101000a81548173ffffffffffffffffffffffffffffffffffffffff021916908373ffffffffffffffffffffffffffffffffffffffff16021790555060008173ffffffffffffffffffffffffffffffffffffffff161415151561016a576040517f08c379a00000000000000000000000000000000000000000000000000000000081526004018080602001828103825260298152602001807f5265717569726573206e6f6e2d7a65726f205f726567697374727953746f726181526020017f676541646472657373000000000000000000000000000000000000000000000081525060400191505060405180910390fd5b80600160006101000a81548173ffffffffffffffffffffffffffffffffffffffff021916908373ffffffffffffffffffffffffffffffffffffffff16021790555050611229806101bb6000396000f300608060405260043610610078576000357c0100000000000000000000000000000000000000000000000000000000900463ffffffff1680635188f9961461007d5780638da5cb5b146100ce5780639c44d17a14610125578063a43e04d814610176578063e16c7d98146101a7578063f2fde38b14610218575b600080fd5b34801561008957600080fd5b506100cc6004803603810190808035600019169060200190929190803573ffffffffffffffffffffffffffffffffffffffff16906020019092919050505061025b565b005b3480156100da57600080fd5b506100e3610707565b604051808273ffffffffffffffffffffffffffffffffffffffff1673ffffffffffffffffffffffffffffffffffffffff16815260200191505060405180910390f35b34801561013157600080fd5b506101746004803603810190808035600019169060200190929190803573ffffffffffffffffffffffffffffffffffffffff16906020019092919050505061072c565b005b34801561018257600080fd5b506101a56004803603810190808035600019169060200190929190505050610bfa565b005b3480156101b357600080fd5b506101d66004803603810190808035600019169060200190929190505050610fcb565b604051808273ffffffffffffffffffffffffffffffffffffffff1673ffffffffffffffffffffffffffffffffffffffff16815260200191505060405180910390f35b34801561022457600080fd5b50610259600480360381019080803573ffffffffffffffffffffffffffffffffffffffff1690602001909291905050506110a8565b005b60008060009054906101000a900473ffffffffffffffffffffffffffffffffffffffff1673ffffffffffffffffffffffffffffffffffffffff163373ffffffffffffffffffffffffffffffffffffffff161415156102b857600080fd5b6000600160009054906101000a900473ffffffffffffffffffffffffffffffffffffffff1673ffffffffffffffffffffffffffffffffffffffff166321f8a721856040518263ffffffff167c0100000000000000000000000000000000000000000000000000000000028152600401808260001916600019168152602001915050602060405180830381600087803b15801561035357600080fd5b505af1158015610367573d6000803e3d6000fd5b505050506040513d602081101561037d57600080fd5b810190808051906020019092919050505073ffffffffffffffffffffffffffffffffffffffff16141515610465576040517f08c379a00000000000000000000000000000000000000000000000000000000081526004018080602001828103825260548152602001807f5265717569726573207468617420676976656e205f6e616d6520646f6573206e81526020017f6f7420616c72656164792068617665206e6f6e2d7a65726f207265676973746581526020017f72656420636f6e7472616374206164647265737300000000000000000000000081525060600191505060405180910390fd5b60008273ffffffffffffffffffffffffffffffffffffffff16141515156104f4576040517f08c379a000000000000000000000000000000000000000000000000000000000815260040180806020018281038252601a8152602001807f5265717569726573206e6f6e2d7a65726f205f6164647265737300000000000081525060200191505060405180910390fd5b8190508073ffffffffffffffffffffffffffffffffffffffff1663a91ee0dc306040518263ffffffff167c0100000000000000000000000000000000000000000000000000000000028152600401808273ffffffffffffffffffffffffffffffffffffffff1673ffffffffffffffffffffffffffffffffffffffff168152602001915050600060405180830381600087803b15801561059257600080fd5b505af11580156105a6573d6000803e3d6000fd5b50505050600160009054906101000a900473ffffffffffffffffffffffffffffffffffffffff1673ffffffffffffffffffffffffffffffffffffffff1663ca446dd984846040518363ffffffff167c01000000000000000000000000000000000000000000000000000000000281526004018083600019166000191681526020018273ffffffffffffffffffffffffffffffffffffffff1673ffffffffffffffffffffffffffffffffffffffff16815260200192505050600060405180830381600087803b15801561067757600080fd5b505af115801561068b573d6000803e3d6000fd5b505050507f643cefa5894755d9e02f78cb384977d4ee3a06c8394b062a290e19176e9c69de83836040518083600019166000191681526020018273ffffffffffffffffffffffffffffffffffffffff1673ffffffffffffffffffffffffffffffffffffffff1681526020019250505060405180910390a1505050565b6000809054906101000a900473ffffffffffffffffffffffffffffffffffffffff1681565b60008060009054906101000a900473ffffffffffffffffffffffffffffffffffffffff1673ffffffffffffffffffffffffffffffffffffffff163373ffffffffffffffffffffffffffffffffffffffff1614151561078957600080fd5b600160009054906101000a900473ffffffffffffffffffffffffffffffffffffffff1673ffffffffffffffffffffffffffffffffffffffff166321f8a721846040518263ffffffff167c0100000000000000000000000000000000000000000000000000000000028152600401808260001916600019168152602001915050602060405180830381600087803b15801561082257600080fd5b505af1158015610836573d6000803e3d6000fd5b505050506040513d602081101561084c57600080fd5b8101908080519060200190929190505050905060008173ffffffffffffffffffffffffffffffffffffffff161415151561093a576040517f08c379a00000000000000000000000000000000000000000000000000000000081526004018080602001828103825260458152602001807f526571756972657320676976656e205f6e616d6520616c72656164792068617381526020017f206e6f6e2d7a65726f207265676973746572656420636f6e747261637420616481526020017f647265737300000000000000000000000000000000000000000000000000000081525060600191505060405180910390fd5b8073ffffffffffffffffffffffffffffffffffffffff166341c0e1b56040518163ffffffff167c0100000000000000000000000000000000000000000000000000000000028152600401600060405180830381600087803b15801561099e57600080fd5b505af11580156109b2573d6000803e3d6000fd5b505050508173ffffffffffffffffffffffffffffffffffffffff1663a91ee0dc306040518263ffffffff167c0100000000000000000000000000000000000000000000000000000000028152600401808273ffffffffffffffffffffffffffffffffffffffff1673ffffffffffffffffffffffffffffffffffffffff168152602001915050600060405180830381600087803b158015610a5157600080fd5b505af1158015610a65573d6000803e3d6000fd5b50505050600160009054906101000a900473ffffffffffffffffffffffffffffffffffffffff1673ffffffffffffffffffffffffffffffffffffffff1663ca446dd984846040518363ffffffff167c01000000000000000000000000000000000000000000000000000000000281526004018083600019166000191681526020018273ffffffffffffffffffffffffffffffffffffffff1673ffffffffffffffffffffffffffffffffffffffff16815260200192505050600060405180830381600087803b158015610b3657600080fd5b505af1158015610b4a573d6000803e3d6000fd5b505050507f8b3c9342e23b53b74b0f760c251b1b6b5553d1c3d23239357405f70d5fe43d558382846040518084600019166000191681526020018373ffffffffffffffffffffffffffffffffffffffff1673ffffffffffffffffffffffffffffffffffffffff1681526020018273ffffffffffffffffffffffffffffffffffffffff1673ffffffffffffffffffffffffffffffffffffffff168152602001935050505060405180910390a1505050565b60008060009054906101000a900473ffffffffffffffffffffffffffffffffffffffff1673ffffffffffffffffffffffffffffffffffffffff163373ffffffffffffffffffffffffffffffffffffffff16141515610c5757600080fd5b600160009054906101000a900473ffffffffffffffffffffffffffffffffffffffff1673ffffffffffffffffffffffffffffffffffffffff166321f8a721836040518263ffffffff167c0100000000000000000000000000000000000000000000000000000000028152600401808260001916600019168152602001915050602060405180830381600087803b158015610cf057600080fd5b505af1158015610d04573d6000803e3d6000fd5b505050506040513d6020811015610d1a57600080fd5b8101908080519060200190929190505050905060008173ffffffffffffffffffffffffffffffffffffffff1614151515610e08576040517f08c379a000000000000000000000000000000000000000000000000000000000815260040180806020018281038252604a8152602001807f5265717569726573207468617420676976656e205f6e616d6520616c7265616481526020017f7920686173206e6f6e2d7a65726f207265676973746572656420636f6e74726181526020017f637420616464726573730000000000000000000000000000000000000000000081525060600191505060405180910390fd5b8073ffffffffffffffffffffffffffffffffffffffff166341c0e1b56040518163ffffffff167c0100000000000000000000000000000000000000000000000000000000028152600401600060405180830381600087803b158015610e6c57600080fd5b505af1158015610e80573d6000803e3d6000fd5b50505050600160009054906101000a900473ffffffffffffffffffffffffffffffffffffffff1673ffffffffffffffffffffffffffffffffffffffff1663ca446dd98360006040518363ffffffff167c01000000000000000000000000000000000000000000000000000000000281526004018083600019166000191681526020018273ffffffffffffffffffffffffffffffffffffffff16815260200192505050600060405180830381600087803b158015610f3c57600080fd5b505af1158015610f50573d6000803e3d6000fd5b505050507f266f45300baf5abcdb8653dcec68c843b20fb984df2fae4cd1e3fecaf461995282826040518083600019166000191681526020018273ffffffffffffffffffffffffffffffffffffffff1673ffffffffffffffffffffffffffffffffffffffff1681526020019250505060405180910390a15050565b6000600160009054906101000a900473ffffffffffffffffffffffffffffffffffffffff1673ffffffffffffffffffffffffffffffffffffffff166321f8a721836040518263ffffffff167c0100000000000000000000000000000000000000000000000000000000028152600401808260001916600019168152602001915050602060405180830381600087803b15801561106657600080fd5b505af115801561107a573d6000803e3d6000fd5b505050506040513d602081101561109057600080fd5b81019080805190602001909291905050509050919050565b6000809054906101000a900473ffffffffffffffffffffffffffffffffffffffff1673ffffffffffffffffffffffffffffffffffffffff163373ffffffffffffffffffffffffffffffffffffffff1614151561110357600080fd5b600073ffffffffffffffffffffffffffffffffffffffff168173ffffffffffffffffffffffffffffffffffffffff161415151561113f57600080fd5b8073ffffffffffffffffffffffffffffffffffffffff166000809054906101000a900473ffffffffffffffffffffffffffffffffffffffff1673ffffffffffffffffffffffffffffffffffffffff167f8be0079c531659141344cd1fd0a4f28419497f9722a3daafe3b4186f6b6457e060405160405180910390a3806000806101000a81548173ffffffffffffffffffffffffffffffffffffffff021916908373ffffffffffffffffffffffffffffffffffffffff160217905550505600a165627a7a723058201a99e3ba31479bf43cce52576572c2dbba5033f0b200e78c3faba6dc86d941b20029",
  "source": "pragma solidity ^0.4.23;\n\nimport \"openzeppelin-solidity/contracts/ownership/Ownable.sol\";\nimport \"../interface/RegistryStorageInterface.sol\";\nimport \"../interface/RegistryContractInterface.sol\";\n\n\n/**\n * @title Central hub for RegistryContracts that stores all contract addresses\n *    and facilitates inter-contract communication\n * @dev The registry acts as the central hub for all RegistryContracts.\n *    It stores the addresses for all contracts so when one contract wants to\n *    communicate with with another, it must go:\n *      Calling Contract -> Registry -> Destination Contract\n *    It also serves as a communication hub and a version manager that can\n *    upgrade existing contracts and remove contracts\n */\ncontract Registry is Ownable {\n\n  RegistryStorageInterface registryStorageInterface = RegistryStorageInterface(0);\n\n  event ContractAdded(bytes32 _name, address _address);\n  event ContractRemoved(bytes32 _name, address _address);\n  event ContractUpgraded(bytes32 _name, address _oldAddress, address _newAddress);\n\n  // Set main storage address\n  constructor (address _registryStorageAddress) Ownable() public {\n    require(\n      _registryStorageAddress != 0x0,\n      \"Requires non-zero _registryStorageAddress\");\n    registryStorageInterface = RegistryStorageInterface(_registryStorageAddress);\n  }\n\n  /**\n   * @dev addContract does two things:\n   * 1.) registers the address of given RegistryContract in the registry\n   * 2.) sets the registry address in given RegistryContract so only the registry can call functions on given contract    \n   */\n  function addContract(bytes32 _name, address _address) external onlyOwner {\n    require(\n      registryStorageInterface.getAddress(_name) == 0x0,\n      \"Requires that given _name does not already have non-zero registered contract address\");\n    require(\n      _address != 0x0,\n      \"Requires non-zero _address\");\n    RegistryContractInterface registryContract = RegistryContractInterface(_address);\n    registryContract.setRegistry(address(this));\n    registryStorageInterface.setAddress(_name, _address);\n    emit ContractAdded(_name, _address);\n  }\n\n  /**\n   * @notice  returns contract address registered under given registry key\n   * @param   _name - registry key for lookup\n   * @return  contractAddr - address of contract registered under given registry key\n   */\n  function getContract(bytes32 _name) external view returns (address contractAddr) {\n    return registryStorageInterface.getAddress(_name);\n  }\n\n  /**\n   * @notice  removes contract address registered under given registry key\n   * @param   _name - registry key for lookup\n   */\n  function removeContract(bytes32 _name) external onlyOwner {\n    address contractAddress = registryStorageInterface.getAddress(_name); \n    require(\n      contractAddress != 0x0,\n      \"Requires that given _name already has non-zero registered contract address\");\n    RegistryContractInterface(contractAddress).kill();\n    registryStorageInterface.setAddress(_name, 0x0);\n    emit ContractRemoved(_name, contractAddress);\n  }\n\n  /**\n   * @notice  replaces contract address registered under given key with provided address\n   * @param   _name - registry key for lookup\n   * @param   _newAddress - new contract address to register under given key\n   */\n  function upgradeContract(bytes32 _name, address _newAddress) external onlyOwner {\n    address oldAddress = registryStorageInterface.getAddress(_name); \n    require(\n      oldAddress != 0x0,\n      \"Requires given _name already has non-zero registered contract address\");\n    RegistryContractInterface(oldAddress).kill();\n    RegistryContractInterface(_newAddress).setRegistry(address(this));\n    registryStorageInterface.setAddress(_name, _newAddress);\n    emit ContractUpgraded(_name, oldAddress, _newAddress);\n  }\n}\n\n",
  "sourcePath": "/Users/dheeraj/Documents/audius-contracts/contracts/registry/Registry.sol",
  "compiler": {
    "name": "solc",
    "version": "0.4.24+commit.e67f0147.Emscripten.clang"
  },
  "schemaVersion": "2.0.1",
  "updatedAt": "2018-11-05T17:56:41.421Z"
}