{
  "contractName": "AudiusToken",
  "abi": [
    {
      "anonymous": false,
      "inputs": [
        {
          "indexed": true,
          "internalType": "address",
          "name": "owner",
          "type": "address"
        },
        {
          "indexed": true,
          "internalType": "address",
          "name": "spender",
          "type": "address"
        },
        {
          "indexed": false,
          "internalType": "uint256",
          "name": "value",
          "type": "uint256"
        }
      ],
      "name": "Approval",
      "type": "event"
    },
    {
      "anonymous": false,
      "inputs": [
        {
          "indexed": true,
          "internalType": "address",
          "name": "account",
          "type": "address"
        }
      ],
      "name": "MinterAdded",
      "type": "event"
    },
    {
      "anonymous": false,
      "inputs": [
        {
          "indexed": true,
          "internalType": "address",
          "name": "account",
          "type": "address"
        }
      ],
      "name": "MinterRemoved",
      "type": "event"
    },
    {
      "anonymous": false,
      "inputs": [
        {
          "indexed": false,
          "internalType": "address",
          "name": "account",
          "type": "address"
        }
      ],
      "name": "Paused",
      "type": "event"
    },
    {
      "anonymous": false,
      "inputs": [
        {
          "indexed": true,
          "internalType": "address",
          "name": "account",
          "type": "address"
        }
      ],
      "name": "PauserAdded",
      "type": "event"
    },
    {
      "anonymous": false,
      "inputs": [
        {
          "indexed": true,
          "internalType": "address",
          "name": "account",
          "type": "address"
        }
      ],
      "name": "PauserRemoved",
      "type": "event"
    },
    {
      "anonymous": false,
      "inputs": [
        {
          "indexed": true,
          "internalType": "address",
          "name": "from",
          "type": "address"
        },
        {
          "indexed": true,
          "internalType": "address",
          "name": "to",
          "type": "address"
        },
        {
          "indexed": false,
          "internalType": "uint256",
          "name": "value",
          "type": "uint256"
        }
      ],
      "name": "Transfer",
      "type": "event"
    },
    {
      "anonymous": false,
      "inputs": [
        {
          "indexed": false,
          "internalType": "address",
          "name": "account",
          "type": "address"
        }
      ],
      "name": "Unpaused",
      "type": "event"
    },
    {
      "constant": true,
      "inputs": [],
      "name": "DOMAIN_SEPARATOR",
      "outputs": [
        {
          "internalType": "bytes32",
          "name": "",
          "type": "bytes32"
        }
      ],
      "payable": false,
      "stateMutability": "view",
      "type": "function"
    },
    {
      "constant": true,
      "inputs": [],
      "name": "PERMIT_TYPEHASH",
      "outputs": [
        {
          "internalType": "bytes32",
          "name": "",
          "type": "bytes32"
        }
      ],
      "payable": false,
      "stateMutability": "view",
      "type": "function"
    },
    {
      "constant": false,
      "inputs": [
        {
          "internalType": "address",
          "name": "account",
          "type": "address"
        }
      ],
      "name": "addMinter",
      "outputs": [],
      "payable": false,
      "stateMutability": "nonpayable",
      "type": "function"
    },
    {
      "constant": false,
      "inputs": [
        {
          "internalType": "address",
          "name": "account",
          "type": "address"
        }
      ],
      "name": "addPauser",
      "outputs": [],
      "payable": false,
      "stateMutability": "nonpayable",
      "type": "function"
    },
    {
      "constant": true,
      "inputs": [
        {
          "internalType": "address",
          "name": "owner",
          "type": "address"
        },
        {
          "internalType": "address",
          "name": "spender",
          "type": "address"
        }
      ],
      "name": "allowance",
      "outputs": [
        {
          "internalType": "uint256",
          "name": "",
          "type": "uint256"
        }
      ],
      "payable": false,
      "stateMutability": "view",
      "type": "function"
    },
    {
      "constant": false,
      "inputs": [
        {
          "internalType": "address",
          "name": "spender",
          "type": "address"
        },
        {
          "internalType": "uint256",
          "name": "value",
          "type": "uint256"
        }
      ],
      "name": "approve",
      "outputs": [
        {
          "internalType": "bool",
          "name": "",
          "type": "bool"
        }
      ],
      "payable": false,
      "stateMutability": "nonpayable",
      "type": "function"
    },
    {
      "constant": true,
      "inputs": [
        {
          "internalType": "address",
          "name": "account",
          "type": "address"
        }
      ],
      "name": "balanceOf",
      "outputs": [
        {
          "internalType": "uint256",
          "name": "",
          "type": "uint256"
        }
      ],
      "payable": false,
      "stateMutability": "view",
      "type": "function"
    },
    {
      "constant": false,
      "inputs": [
        {
          "internalType": "uint256",
          "name": "amount",
          "type": "uint256"
        }
      ],
      "name": "burn",
      "outputs": [],
      "payable": false,
      "stateMutability": "nonpayable",
      "type": "function"
    },
    {
      "constant": false,
      "inputs": [
        {
          "internalType": "address",
          "name": "account",
          "type": "address"
        },
        {
          "internalType": "uint256",
          "name": "amount",
          "type": "uint256"
        }
      ],
      "name": "burnFrom",
      "outputs": [],
      "payable": false,
      "stateMutability": "nonpayable",
      "type": "function"
    },
    {
      "constant": true,
      "inputs": [],
      "name": "decimals",
      "outputs": [
        {
          "internalType": "uint8",
          "name": "",
          "type": "uint8"
        }
      ],
      "payable": false,
      "stateMutability": "view",
      "type": "function"
    },
    {
      "constant": false,
      "inputs": [
        {
          "internalType": "address",
          "name": "spender",
          "type": "address"
        },
        {
          "internalType": "uint256",
          "name": "subtractedValue",
          "type": "uint256"
        }
      ],
      "name": "decreaseAllowance",
      "outputs": [
        {
          "internalType": "bool",
          "name": "",
          "type": "bool"
        }
      ],
      "payable": false,
      "stateMutability": "nonpayable",
      "type": "function"
    },
    {
      "constant": false,
      "inputs": [
        {
          "internalType": "address",
          "name": "spender",
          "type": "address"
        },
        {
          "internalType": "uint256",
          "name": "addedValue",
          "type": "uint256"
        }
      ],
      "name": "increaseAllowance",
      "outputs": [
        {
          "internalType": "bool",
          "name": "",
          "type": "bool"
        }
      ],
      "payable": false,
      "stateMutability": "nonpayable",
      "type": "function"
    },
    {
      "constant": true,
      "inputs": [
        {
          "internalType": "address",
          "name": "account",
          "type": "address"
        }
      ],
      "name": "isMinter",
      "outputs": [
        {
          "internalType": "bool",
          "name": "",
          "type": "bool"
        }
      ],
      "payable": false,
      "stateMutability": "view",
      "type": "function"
    },
    {
      "constant": true,
      "inputs": [
        {
          "internalType": "address",
          "name": "account",
          "type": "address"
        }
      ],
      "name": "isPauser",
      "outputs": [
        {
          "internalType": "bool",
          "name": "",
          "type": "bool"
        }
      ],
      "payable": false,
      "stateMutability": "view",
      "type": "function"
    },
    {
      "constant": false,
      "inputs": [
        {
          "internalType": "address",
          "name": "account",
          "type": "address"
        },
        {
          "internalType": "uint256",
          "name": "amount",
          "type": "uint256"
        }
      ],
      "name": "mint",
      "outputs": [
        {
          "internalType": "bool",
          "name": "",
          "type": "bool"
        }
      ],
      "payable": false,
      "stateMutability": "nonpayable",
      "type": "function"
    },
    {
      "constant": true,
      "inputs": [],
      "name": "name",
      "outputs": [
        {
          "internalType": "string",
          "name": "",
          "type": "string"
        }
      ],
      "payable": false,
      "stateMutability": "view",
      "type": "function"
    },
    {
      "constant": true,
      "inputs": [
        {
          "internalType": "address",
          "name": "",
          "type": "address"
        }
      ],
      "name": "nonces",
      "outputs": [
        {
          "internalType": "uint256",
          "name": "",
          "type": "uint256"
        }
      ],
      "payable": false,
      "stateMutability": "view",
      "type": "function"
    },
    {
      "constant": false,
      "inputs": [],
      "name": "pause",
      "outputs": [],
      "payable": false,
      "stateMutability": "nonpayable",
      "type": "function"
    },
    {
      "constant": true,
      "inputs": [],
      "name": "paused",
      "outputs": [
        {
          "internalType": "bool",
          "name": "",
          "type": "bool"
        }
      ],
      "payable": false,
      "stateMutability": "view",
      "type": "function"
    },
    {
      "constant": false,
      "inputs": [],
      "name": "renounceMinter",
      "outputs": [],
      "payable": false,
      "stateMutability": "nonpayable",
      "type": "function"
    },
    {
      "constant": false,
      "inputs": [],
      "name": "renouncePauser",
      "outputs": [],
      "payable": false,
      "stateMutability": "nonpayable",
      "type": "function"
    },
    {
      "constant": true,
      "inputs": [],
      "name": "symbol",
      "outputs": [
        {
          "internalType": "string",
          "name": "",
          "type": "string"
        }
      ],
      "payable": false,
      "stateMutability": "view",
      "type": "function"
    },
    {
      "constant": true,
      "inputs": [],
      "name": "totalSupply",
      "outputs": [
        {
          "internalType": "uint256",
          "name": "",
          "type": "uint256"
        }
      ],
      "payable": false,
      "stateMutability": "view",
      "type": "function"
    },
    {
      "constant": false,
      "inputs": [
        {
          "internalType": "address",
          "name": "to",
          "type": "address"
        },
        {
          "internalType": "uint256",
          "name": "value",
          "type": "uint256"
        }
      ],
      "name": "transfer",
      "outputs": [
        {
          "internalType": "bool",
          "name": "",
          "type": "bool"
        }
      ],
      "payable": false,
      "stateMutability": "nonpayable",
      "type": "function"
    },
    {
      "constant": false,
      "inputs": [
        {
          "internalType": "address",
          "name": "from",
          "type": "address"
        },
        {
          "internalType": "address",
          "name": "to",
          "type": "address"
        },
        {
          "internalType": "uint256",
          "name": "value",
          "type": "uint256"
        }
      ],
      "name": "transferFrom",
      "outputs": [
        {
          "internalType": "bool",
          "name": "",
          "type": "bool"
        }
      ],
      "payable": false,
      "stateMutability": "nonpayable",
      "type": "function"
    },
    {
      "constant": false,
      "inputs": [],
      "name": "unpause",
      "outputs": [],
      "payable": false,
      "stateMutability": "nonpayable",
      "type": "function"
    },
    {
      "constant": false,
      "inputs": [
        {
          "internalType": "string",
          "name": "name",
          "type": "string"
        },
        {
          "internalType": "string",
          "name": "symbol",
          "type": "string"
        },
        {
          "internalType": "uint8",
          "name": "decimals",
          "type": "uint8"
        }
      ],
      "name": "initialize",
      "outputs": [],
      "payable": false,
      "stateMutability": "nonpayable",
      "type": "function"
    },
    {
      "constant": false,
      "inputs": [
        {
          "internalType": "address",
          "name": "_owner",
          "type": "address"
        },
        {
          "internalType": "address",
          "name": "governance",
          "type": "address"
        }
      ],
      "name": "initialize",
      "outputs": [],
      "payable": false,
      "stateMutability": "nonpayable",
      "type": "function"
    },
    {
      "constant": false,
      "inputs": [],
      "name": "initialize",
      "outputs": [],
      "payable": false,
      "stateMutability": "nonpayable",
      "type": "function"
    },
    {
      "constant": false,
      "inputs": [
        {
          "internalType": "address",
          "name": "sender",
          "type": "address"
        }
      ],
      "name": "initialize",
      "outputs": [],
      "payable": false,
      "stateMutability": "nonpayable",
      "type": "function"
    },
    {
      "constant": false,
      "inputs": [
        {
          "internalType": "address",
          "name": "owner",
          "type": "address"
        },
        {
          "internalType": "address",
          "name": "spender",
          "type": "address"
        },
        {
          "internalType": "uint256",
          "name": "value",
          "type": "uint256"
        },
        {
          "internalType": "uint256",
          "name": "deadline",
          "type": "uint256"
        },
        {
          "internalType": "uint8",
          "name": "v",
          "type": "uint8"
        },
        {
          "internalType": "bytes32",
          "name": "r",
          "type": "bytes32"
        },
        {
          "internalType": "bytes32",
          "name": "s",
          "type": "bytes32"
        }
      ],
      "name": "permit",
      "outputs": [],
      "payable": false,
      "stateMutability": "nonpayable",
      "type": "function"
    }
  ],
  "bytecode": "0x60806040526123a7806100136000396000f3fe608060405234801561001057600080fd5b50600436106101e55760003560e01c80636ef8d66d1161010f578063983b2d56116100a2578063aa271e1a11610071578063aa271e1a14610676578063c4d66de81461069c578063d505accf146106c2578063dd62ed3e14610713576101e5565b8063983b2d56146105f05780639865027514610616578063a457c2d71461061e578063a9059cbb1461064a576101e5565b80638129fc1c116100de5780638129fc1c146105b257806382dc1ec4146105ba5780638456cb59146105e057806395d89b41146105e8576101e5565b80636ef8d66d1461053257806370a082311461053a57806379cc6790146105605780637ecebe001461058c576101e5565b80633644e5151161018757806342966c681161015657806342966c68146104b957806346fbf68e146104d6578063485cc955146104fc5780635c975abb1461052a576101e5565b80633644e5151461045157806339509351146104595780633f4ba83a1461048557806340c10f191461048d576101e5565b806318160ddd116101c357806318160ddd146103db57806323b872dd146103f557806330adf81f1461042b578063313ce56714610433576101e5565b806306fdde03146101ea578063095ea7b3146102675780631624f6c6146102a7575b600080fd5b6101f2610741565b6040805160208082528351818301528351919283929083019185019080838360005b8381101561022c578181015183820152602001610214565b50505050905090810190601f1680156102595780820380516001836020036101000a031916815260200191505b509250505060405180910390f35b6102936004803603604081101561027d57600080fd5b506001600160a01b0381351690602001356107d8565b604080519115158252519081900360200190f35b6103d9600480360360608110156102bd57600080fd5b8101906020810181356401000000008111156102d857600080fd5b8201836020820111156102ea57600080fd5b8035906020019184600183028401116401000000008311171561030c57600080fd5b91908080601f016020809104026020016040519081016040528093929190818152602001838380828437600092019190915250929594936020810193503591505064010000000081111561035f57600080fd5b82018360208201111561037157600080fd5b8035906020019184600183028401116401000000008311171561039357600080fd5b91908080601f0160208091040260200160405190810160405280939291908181526020018383808284376000920191909152509295505050903560ff1691506108389050565b005b6103e3610914565b60408051918252519081900360200190f35b6102936004803603606081101561040b57600080fd5b506001600160a01b0381358116916020810135909116906040013561091a565b6103e361097c565b61043b6109a0565b6040805160ff9092168252519081900360200190f35b6103e36109a9565b6102936004803603604081101561046f57600080fd5b506001600160a01b0381351690602001356109b0565b6103d9610a09565b610293600480360360408110156104a357600080fd5b506001600160a01b038135169060200135610af4565b6103d9600480360360208110156104cf57600080fd5b5035610b54565b610293600480360360208110156104ec57600080fd5b50356001600160a01b0316610b68565b6103d96004803603604081101561051257600080fd5b506001600160a01b0381358116916020013516610b82565b610293610d79565b6103d9610d83565b6103e36004803603602081101561055057600080fd5b50356001600160a01b0316610d95565b6103d96004803603604081101561057657600080fd5b506001600160a01b038135169060200135610db0565b6103e3600480360360208110156105a257600080fd5b50356001600160a01b0316610dbe565b6103d9610dd1565b6103d9600480360360208110156105d057600080fd5b50356001600160a01b0316610e7f565b6103d9610ece565b6101f2610f97565b6103d96004803603602081101561060657600080fd5b50356001600160a01b0316610ff8565b6103d9611047565b6102936004803603604081101561063457600080fd5b506001600160a01b038135169060200135611057565b6102936004803603604081101561066057600080fd5b506001600160a01b0381351690602001356110b0565b6102936004803603602081101561068c57600080fd5b50356001600160a01b0316611109565b6103d9600480360360208110156106b257600080fd5b50356001600160a01b031661111c565b6103d9600480360360e08110156106d857600080fd5b506001600160a01b03813581169160208101359091169060408101359060608101359060ff6080820135169060a08101359060c001356111c7565b6103e36004803603604081101561072957600080fd5b506001600160a01b03813581169160200135166113c0565b60698054604080516020601f60026000196101006001881615020190951694909404938401819004810282018101909252828152606093909290918301828280156107cd5780601f106107a2576101008083540402835291602001916107cd565b820191906000526020600020905b8154815290600101906020018083116107b057829003601f168201915b505050505090505b90565b6101365460009060ff1615610827576040805162461bcd60e51b815260206004820152601060248201526f14185d5cd8589b194e881c185d5cd95960821b604482015290519081900360640190fd5b61083183836113eb565b9392505050565b600054610100900460ff168061085157506108516113ff565b8061085f575060005460ff16155b61089a5760405162461bcd60e51b815260040180806020018281038252602e815260200180612292602e913960400191505060405180910390fd5b600054610100900460ff161580156108c5576000805460ff1961ff0019909116610100171660011790555b83516108d890606990602087019061202e565b5082516108ec90606a90602086019061202e565b50606b805460ff191660ff8416179055801561090e576000805461ff00191690555b50505050565b60365490565b6101365460009060ff1615610969576040805162461bcd60e51b815260206004820152601060248201526f14185d5cd8589b194e881c185d5cd95960821b604482015290519081900360640190fd5b610974848484611405565b949350505050565b7f6e71edae12b1b97f4d1f60370fef10105fa2faae0126114a169c64845d6126c981565b606b5460ff1690565b6101cd5481565b6101365460009060ff16156109ff576040805162461bcd60e51b815260206004820152601060248201526f14185d5cd8589b194e881c185d5cd95960821b604482015290519081900360640190fd5b6108318383611492565b610a19610a146114e6565b610b68565b610a545760405162461bcd60e51b815260040180806020018281038252603081526020018061210c6030913960400191505060405180910390fd5b6101365460ff16610aa3576040805162461bcd60e51b815260206004820152601460248201527314185d5cd8589b194e881b9bdd081c185d5cd95960621b604482015290519081900360640190fd5b610136805460ff191690557f5db9ee0a495bf2e6ff9c91a7834c1ba4fdd244a5e8aa4e537bd38aeae4b073aa610ad76114e6565b604080516001600160a01b039092168252519081900360200190a1565b6000610b06610b016114e6565b611109565b610b415760405162461bcd60e51b81526004018080602001828103825260308152602001806121846030913960400191505060405180910390fd5b610b4b83836114ea565b50600192915050565b610b65610b5f6114e6565b826115dc565b50565b6000610b7c6101038363ffffffff6116d816565b92915050565b600054610100900460ff1680610b9b5750610b9b6113ff565b80610ba9575060005460ff16155b610be45760405162461bcd60e51b815260040180806020018281038252602e815260200180612292602e913960400191505060405180910390fd5b600054610100900460ff16158015610c0f576000805460ff1961ff0019909116610100171660011790555b610c566040518060400160405280600681526020016541756469757360d01b81525060405180604001604052806005815260200164415544494f60d81b8152506012610838565b610c5f8261111c565b610c683361173f565b610c7e836b033b2e3c9fd0803ce80000006114ea565b610c8782610ff8565b610c8f611047565b610c97610dd1565b60405146908060526121d58239604080519182900360520182208282018252600683526541756469757360d01b6020938401528151808301835260018152603160f81b908401528151808401919091527fbf92ffa8d618cd090d960a5b3cb58c78332d37eedf59819530a17714aa2dc74c818301527fc89efdaa54c0f20c7adf612882df0950f5a951637e0307cdcb4c672f298b8bc6606082015260808101949094523060a0808601919091528151808603909101815260c0909401905282519201919091206101cd55508015610d74576000805461ff00191690555b505050565b6101365460ff1690565b610d93610d8e6114e6565b6117d5565b565b6001600160a01b031660009081526034602052604090205490565b610dba828261181e565b5050565b6101ce6020526000908152604090205481565b600054610100900460ff1680610dea5750610dea6113ff565b80610df8575060005460ff16155b610e335760405162461bcd60e51b815260040180806020018281038252602e815260200180612292602e913960400191505060405180910390fd5b600054610100900460ff16158015610e5e576000805460ff1961ff0019909116610100171660011790555b6033805460ff191660011790558015610b65576000805461ff001916905550565b610e8a610a146114e6565b610ec55760405162461bcd60e51b815260040180806020018281038252603081526020018061210c6030913960400191505060405180910390fd5b610b6581611872565b610ed9610a146114e6565b610f145760405162461bcd60e51b815260040180806020018281038252603081526020018061210c6030913960400191505060405180910390fd5b6101365460ff1615610f60576040805162461bcd60e51b815260206004820152601060248201526f14185d5cd8589b194e881c185d5cd95960821b604482015290519081900360640190fd5b610136805460ff191660011790557f62e78cea01bee320cd4e420270b5ea74000d11b0c9f74754ebdbfc544b05a258610ad76114e6565b606a8054604080516020601f60026000196101006001881615020190951694909404938401819004810282018101909252828152606093909290918301828280156107cd5780601f106107a2576101008083540402835291602001916107cd565b611003610b016114e6565b61103e5760405162461bcd60e51b81526004018080602001828103825260308152602001806121846030913960400191505060405180910390fd5b610b65816118bb565b610d936110526114e6565b611903565b6101365460009060ff16156110a6576040805162461bcd60e51b815260206004820152601060248201526f14185d5cd8589b194e881c185d5cd95960821b604482015290519081900360640190fd5b610831838361194b565b6101365460009060ff16156110ff576040805162461bcd60e51b815260206004820152601060248201526f14185d5cd8589b194e881c185d5cd95960821b604482015290519081900360640190fd5b61083183836119b9565b6000610b7c609e8363ffffffff6116d816565b600054610100900460ff168061113557506111356113ff565b80611143575060005460ff16155b61117e5760405162461bcd60e51b815260040180806020018281038252602e815260200180612292602e913960400191505060405180910390fd5b600054610100900460ff161580156111a9576000805460ff1961ff0019909116610100171660011790555b6111b2826119cd565b8015610dba576000805461ff00191690555050565b428410156112065760405162461bcd60e51b81526004018080602001828103825260218152602001806122276021913960400191505060405180910390fd5b6101cd546001600160a01b0380891660008181526101ce602090815260408083208054600180820190925582517f6e71edae12b1b97f4d1f60370fef10105fa2faae0126114a169c64845d6126c98186015280840196909652958d166060860152608085018c905260a085019590955260c08085018b90528151808603909101815260e08501825280519083012061190160f01b6101008601526101028501969096526101228085019690965280518085039096018652610142840180825286519683019690962095839052610162840180825286905260ff89166101828501526101a284018890526101c28401879052519193926101e280820193601f1981019281900390910190855afa158015611323573d6000803e3d6000fd5b5050604051601f1901519150506001600160a01b038116158015906113595750886001600160a01b0316816001600160a01b0316145b6113aa576040805162461bcd60e51b815260206004820152601e60248201527f417564697573546f6b656e3a20496e76616c6964207369676e61747572650000604482015290519081900360640190fd5b6113b5898989611a83565b505050505050505050565b6001600160a01b03918216600090815260356020908152604080832093909416825291909152205490565b6000610b4b6113f86114e6565b8484611a83565b303b1590565b6000611412848484611b6f565b6114888461141e6114e6565b61148385604051806060016040528060288152602001612248602891396001600160a01b038a1660009081526035602052604081209061145c6114e6565b6001600160a01b03168152602081019190915260400160002054919063ffffffff611ccd16565b611a83565b5060019392505050565b6000610b4b61149f6114e6565b8461148385603560006114b06114e6565b6001600160a01b03908116825260208083019390935260409182016000908120918c16815292529020549063ffffffff611d6416565b3390565b6001600160a01b038216611545576040805162461bcd60e51b815260206004820152601f60248201527f45524332303a206d696e7420746f20746865207a65726f206164647265737300604482015290519081900360640190fd5b603654611558908263ffffffff611d6416565b6036556001600160a01b038216600090815260346020526040902054611584908263ffffffff611d6416565b6001600160a01b03831660008181526034602090815260408083209490945583518581529351929391927fddf252ad1be2c89b69c2b068fc378daa952ba7f163c4a11628f55a4df523b3ef9281900390910190a35050565b6001600160a01b0382166116215760405162461bcd60e51b81526004018080602001828103825260218152602001806122e46021913960400191505060405180910390fd5b611664816040518060600160405280602281526020016120ea602291396001600160a01b038516600090815260346020526040902054919063ffffffff611ccd16565b6001600160a01b038316600090815260346020526040902055603654611690908263ffffffff611dbe16565b6036556040805182815290516000916001600160a01b038516917fddf252ad1be2c89b69c2b068fc378daa952ba7f163c4a11628f55a4df523b3ef9181900360200190a35050565b60006001600160a01b03821661171f5760405162461bcd60e51b81526004018080602001828103825260228152602001806122706022913960400191505060405180910390fd5b506001600160a01b03166000908152602091909152604090205460ff1690565b600054610100900460ff168061175857506117586113ff565b80611766575060005460ff16155b6117a15760405162461bcd60e51b815260040180806020018281038252602e815260200180612292602e913960400191505060405180910390fd5b600054610100900460ff161580156117cc576000805460ff1961ff0019909116610100171660011790555b6111b282611e00565b6117e76101038263ffffffff611ea316565b6040516001600160a01b038216907fcd265ebaf09df2871cc7bd4133404a235ba12eff2041bb89d9c714a2621c7c7e90600090a250565b61182882826115dc565b610dba826118346114e6565b611483846040518060600160405280602481526020016122c0602491396001600160a01b03881660009081526035602052604081209061145c6114e6565b6118846101038263ffffffff611f0a16565b6040516001600160a01b038216907f6719d08c1888103bea251a4ed56406bd0c3e69723c8a1686e017e7bbe159b6f890600090a250565b6118cc609e8263ffffffff611f0a16565b6040516001600160a01b038216907f6ae172837ea30b801fbfcdd4108aa1d5bf8ff775444fd70256b44e6bf3dfc3f690600090a250565b611914609e8263ffffffff611ea316565b6040516001600160a01b038216907fe94479a9f7e1952cc78f2d6baab678adc1b772d936c6583def489e524cb6669290600090a250565b6000610b4b6119586114e6565b846114838560405180606001604052806025815260200161234e60259139603560006119826114e6565b6001600160a01b03908116825260208083019390935260409182016000908120918d1681529252902054919063ffffffff611ccd16565b6000610b4b6119c66114e6565b8484611b6f565b600054610100900460ff16806119e657506119e66113ff565b806119f4575060005460ff16155b611a2f5760405162461bcd60e51b815260040180806020018281038252602e815260200180612292602e913960400191505060405180910390fd5b600054610100900460ff16158015611a5a576000805460ff1961ff0019909116610100171660011790555b611a6382611f8b565b610136805460ff191690558015610dba576000805461ff00191690555050565b6001600160a01b038316611ac85760405162461bcd60e51b815260040180806020018281038252602481526020018061232a6024913960400191505060405180910390fd5b6001600160a01b038216611b0d5760405162461bcd60e51b815260040180806020018281038252602281526020018061213c6022913960400191505060405180910390fd5b6001600160a01b03808416600081815260356020908152604080832094871680845294825291829020859055815185815291517f8c5be1e5ebec7d5bd14f71427d1e84f3dd0314c0f7b2291e5b200ac8c7c3b9259281900390910190a3505050565b6001600160a01b038316611bb45760405162461bcd60e51b81526004018080602001828103825260258152602001806123056025913960400191505060405180910390fd5b6001600160a01b038216611bf95760405162461bcd60e51b81526004018080602001828103825260238152602001806120c76023913960400191505060405180910390fd5b611c3c8160405180606001604052806026815260200161215e602691396001600160a01b038616600090815260346020526040902054919063ffffffff611ccd16565b6001600160a01b038085166000908152603460205260408082209390935590841681522054611c71908263ffffffff611d6416565b6001600160a01b0380841660008181526034602090815260409182902094909455805185815290519193928716927fddf252ad1be2c89b69c2b068fc378daa952ba7f163c4a11628f55a4df523b3ef92918290030190a3505050565b60008184841115611d5c5760405162461bcd60e51b81526004018080602001828103825283818151815260200191508051906020019080838360005b83811015611d21578181015183820152602001611d09565b50505050905090810190601f168015611d4e5780820380516001836020036101000a031916815260200191505b509250505060405180910390fd5b505050900390565b600082820183811015610831576040805162461bcd60e51b815260206004820152601b60248201527f536166654d6174683a206164646974696f6e206f766572666c6f770000000000604482015290519081900360640190fd5b600061083183836040518060400160405280601e81526020017f536166654d6174683a207375627472616374696f6e206f766572666c6f770000815250611ccd565b600054610100900460ff1680611e195750611e196113ff565b80611e27575060005460ff16155b611e625760405162461bcd60e51b815260040180806020018281038252602e815260200180612292602e913960400191505060405180910390fd5b600054610100900460ff16158015611e8d576000805460ff1961ff0019909116610100171660011790555b611e9682611109565b6111b2576111b2826118bb565b611ead82826116d8565b611ee85760405162461bcd60e51b81526004018080602001828103825260218152602001806121b46021913960400191505060405180910390fd5b6001600160a01b0316600090815260209190915260409020805460ff19169055565b611f1482826116d8565b15611f66576040805162461bcd60e51b815260206004820152601f60248201527f526f6c65733a206163636f756e7420616c72656164792068617320726f6c6500604482015290519081900360640190fd5b6001600160a01b0316600090815260209190915260409020805460ff19166001179055565b600054610100900460ff1680611fa45750611fa46113ff565b80611fb2575060005460ff16155b611fed5760405162461bcd60e51b815260040180806020018281038252602e815260200180612292602e913960400191505060405180910390fd5b600054610100900460ff16158015612018576000805460ff1961ff0019909116610100171660011790555b61202182610b68565b6111b2576111b282611872565b828054600181600116156101000203166002900490600052602060002090601f016020900481019282601f1061206f57805160ff191683800117855561209c565b8280016001018555821561209c579182015b8281111561209c578251825591602001919060010190612081565b506120a89291506120ac565b5090565b6107d591905b808211156120a857600081556001016120b256fe45524332303a207472616e7366657220746f20746865207a65726f206164647265737345524332303a206275726e20616d6f756e7420657863656564732062616c616e6365506175736572526f6c653a2063616c6c657220646f6573206e6f742068617665207468652050617573657220726f6c6545524332303a20617070726f766520746f20746865207a65726f206164647265737345524332303a207472616e7366657220616d6f756e7420657863656564732062616c616e63654d696e746572526f6c653a2063616c6c657220646f6573206e6f74206861766520746865204d696e74657220726f6c65526f6c65733a206163636f756e7420646f6573206e6f74206861766520726f6c65454950373132446f6d61696e28737472696e67206e616d652c737472696e672076657273696f6e2c75696e7432353620636861696e49642c6164647265737320766572696679696e67436f6e747261637429417564697573546f6b656e3a20446561646c696e6520686173206578706972656445524332303a207472616e7366657220616d6f756e74206578636565647320616c6c6f77616e6365526f6c65733a206163636f756e7420697320746865207a65726f2061646472657373436f6e747261637420696e7374616e63652068617320616c7265616479206265656e20696e697469616c697a656445524332303a206275726e20616d6f756e74206578636565647320616c6c6f77616e636545524332303a206275726e2066726f6d20746865207a65726f206164647265737345524332303a207472616e736665722066726f6d20746865207a65726f206164647265737345524332303a20617070726f76652066726f6d20746865207a65726f206164647265737345524332303a2064656372656173656420616c6c6f77616e63652062656c6f77207a65726fa265627a7a7231582045b38c0d11297f7225fbfbb6ab2b9bcb6481f14761cd905e2628b789e9cc8d8f64736f6c63430005110032",
  "source": "pragma solidity ^0.5.0;\n\nimport \"@openzeppelin/contracts-ethereum-package/contracts/token/ERC20/ERC20.sol\";\nimport \"@openzeppelin/contracts-ethereum-package/contracts/token/ERC20/ERC20Detailed.sol\";\nimport \"@openzeppelin/contracts-ethereum-package/contracts/token/ERC20/ERC20Mintable.sol\";\nimport \"@openzeppelin/contracts-ethereum-package/contracts/token/ERC20/ERC20Pausable.sol\";\nimport \"@openzeppelin/contracts-ethereum-package/contracts/token/ERC20/ERC20Burnable.sol\";\nimport \"../InitializableV2.sol\";\n\n\n/** Upgradeable ERC20 token that is Detailed, Mintable, Pausable, Burnable. */\ncontract AudiusToken is InitializableV2,\n    ERC20,\n    ERC20Detailed,\n    ERC20Mintable,\n    ERC20Pausable,\n    ERC20Burnable\n{\n    string constant NAME = \"Audius\";\n\n    string constant SYMBOL = \"AUDIO\";\n\n    // Defines number of Wei in 1 token\n    // 18 decimals is standard - imitates relationship between Ether and Wei\n    uint8 constant DECIMALS = 18;\n\n    // 10^27 = 1 billion (10^9) tokens, 18 decimal places\n    // 1 TAUD = 1 * 10^18 wei\n    uint256 constant INITIAL_SUPPLY = 1000000000 * 10**uint256(DECIMALS);\n\n    // for ERC20 approve transactions in compliance with EIP 2612:\n    // https://github.com/ethereum/EIPs/blob/master/EIPS/eip-2612.md\n    // code below, in constructor, and in permit function adapted from the audited reference Uniswap implementation:\n    // https://github.com/Uniswap/uniswap-v2-core/blob/master/contracts/UniswapV2ERC20.sol\n    bytes32 public DOMAIN_SEPARATOR;\n    // keccak256(\"Permit(address owner,address spender,uint256 value,uint256 nonce,uint256 deadline)\");\n    bytes32 public constant PERMIT_TYPEHASH = (\n        0x6e71edae12b1b97f4d1f60370fef10105fa2faae0126114a169c64845d6126c9\n    );\n    mapping(address => uint) public nonces;\n\n    function initialize(address _owner, address governance) public initializer {\n        // ERC20 has no initialize function\n\n        // ERC20Detailed provides setters/getters for name, symbol, decimals properties\n        ERC20Detailed.initialize(NAME, SYMBOL, DECIMALS);\n\n        // ERC20Burnable has no initialize function. Makes token burnable\n\n        // Initialize call makes token pausable & gives pauserRole to governance\n        ERC20Pausable.initialize(governance);\n\n        // Initialize call makes token mintable & gives minterRole to msg.sender\n        ERC20Mintable.initialize(msg.sender);\n\n        // Mints initial token supply & transfers to _owner account\n        _mint(_owner, INITIAL_SUPPLY);\n\n        // Transfers minterRole to governance\n        addMinter(governance);\n        renounceMinter();\n\n        InitializableV2.initialize();\n\n        // EIP712-compatible signature data\n        uint chainId;\n        // solium-disable security/no-inline-assembly\n        assembly {\n            chainId := chainid\n        }\n        DOMAIN_SEPARATOR = keccak256(\n            abi.encode(\n                keccak256(\"EIP712Domain(string name,string version,uint256 chainId,address verifyingContract)\"),\n                keccak256(bytes(NAME)),\n                keccak256(bytes(\"1\")),\n                chainId,\n                address(this)\n            )\n        );\n    }\n\n    function permit(\n        address owner,\n        address spender,\n        uint value,\n        uint deadline,\n        uint8 v,\n        bytes32 r,\n        bytes32 s\n    ) external {\n        // solium-disable security/no-block-members\n        require(deadline >= block.timestamp, \"AudiusToken: Deadline has expired\");\n        bytes32 digest = keccak256(\n            abi.encodePacked(\n                \"\\x19\\x01\",\n                DOMAIN_SEPARATOR,\n                keccak256(abi.encode(PERMIT_TYPEHASH, owner, spender, value, nonces[owner]++, deadline))\n            )\n        );\n        address recoveredAddress = ecrecover(digest, v, r, s);\n        require(\n            recoveredAddress != address(0) && recoveredAddress == owner,\n            \"AudiusToken: Invalid signature\"\n        );\n        _approve(owner, spender, value);\n    }\n}\n",
  "sourcePath": "/usr/src/app/contracts/erc20/AudiusToken.sol",
  "compiler": {
    "name": "solc",
    "version": "0.5.17+commit.d19bba13.Emscripten.clang"
  },
  "schemaVersion": "3.4.4",
  "updatedAt": "2023-03-02T06:41:29.365Z",
  "devdoc": {
    "methods": {
      "allowance(address,address)": {
        "details": "See {IERC20-allowance}."
      },
      "balanceOf(address)": {
        "details": "See {IERC20-balanceOf}."
      },
      "burn(uint256)": {
        "details": "Destroys `amount` tokens from the caller.     * See {ERC20-_burn}."
      },
      "burnFrom(address,uint256)": {
        "details": "See {ERC20-_burnFrom}."
      },
      "decimals()": {
        "details": "Returns the number of decimals used to get its user representation. For example, if `decimals` equals `2`, a balance of `505` tokens should be displayed to a user as `5,05` (`505 / 10 ** 2`).     * Tokens usually opt for a value of 18, imitating the relationship between Ether and Wei.     * NOTE: This information is only used for _display_ purposes: it in no way affects any of the arithmetic of the contract, including {IERC20-balanceOf} and {IERC20-transfer}."
      },
      "initialize(string,string,uint8)": {
        "details": "Sets the values for `name`, `symbol`, and `decimals`. All three of these values are immutable: they can only be set once during construction."
      },
      "mint(address,uint256)": {
        "details": "See {ERC20-_mint}.     * Requirements:     * - the caller must have the {MinterRole}."
      },
      "name()": {
        "details": "Returns the name of the token."
      },
      "pause()": {
        "details": "Called by a pauser to pause, triggers stopped state."
      },
      "paused()": {
        "details": "Returns true if the contract is paused, and false otherwise."
      },
      "symbol()": {
        "details": "Returns the symbol of the token, usually a shorter version of the name."
      },
      "totalSupply()": {
        "details": "See {IERC20-totalSupply}."
      },
      "unpause()": {
        "details": "Called by a pauser to unpause, returns to normal state."
      }
    }
  },
  "userdoc": {
    "methods": {
      "initialize()": {
        "notice": "wrapper function around parent contract Initializable's `initializable` modifier     initializable modifier ensures this function can only be called once by each deployed child contract     sets isInitialized flag to true to which is used by _requireIsInitialized()"
      }
    },
    "notice": "Upgradeable ERC20 token that is Detailed, Mintable, Pausable, Burnable. "
  }
}