{
  "contractName": "AudiusAdminUpgradeabilityProxy",
  "abi": [
    {
      "inputs": [
        {
          "internalType": "address",
          "name": "_logic",
          "type": "address"
        },
        {
          "internalType": "address",
          "name": "_proxyAdmin",
          "type": "address"
        },
        {
          "internalType": "bytes",
          "name": "_data",
          "type": "bytes"
        }
      ],
      "payable": true,
      "stateMutability": "payable",
      "type": "constructor"
    },
    {
      "anonymous": false,
      "inputs": [
        {
          "indexed": true,
          "internalType": "address",
          "name": "implementation",
          "type": "address"
        }
      ],
      "name": "Upgraded",
      "type": "event"
    },
    {
      "payable": true,
      "stateMutability": "payable",
      "type": "fallback"
    },
    {
      "constant": false,
      "inputs": [
        {
          "internalType": "address",
          "name": "_newImplementation",
          "type": "address"
        }
      ],
      "name": "upgradeTo",
      "outputs": [],
      "payable": false,
      "stateMutability": "nonpayable",
      "type": "function"
    },
    {
      "constant": true,
      "inputs": [],
      "name": "getAudiusProxyAdminAddress",
      "outputs": [
        {
          "internalType": "address",
          "name": "",
          "type": "address"
        }
      ],
      "payable": false,
      "stateMutability": "view",
      "type": "function"
    },
    {
      "constant": true,
      "inputs": [],
      "name": "implementation",
      "outputs": [
        {
          "internalType": "address",
          "name": "",
          "type": "address"
        }
      ],
      "payable": false,
      "stateMutability": "view",
      "type": "function"
    },
    {
      "constant": false,
      "inputs": [
        {
          "internalType": "address",
          "name": "_adminAddress",
          "type": "address"
        }
      ],
      "name": "setAudiusProxyAdminAddress",
      "outputs": [],
      "payable": false,
      "stateMutability": "nonpayable",
      "type": "function"
    }
  ],
  "bytecode": "0x60806040526040516107233803806107238339818101604052606081101561002657600080fd5b8151602083015160408085018051915193959294830192918464010000000082111561005157600080fd5b90830190602082018581111561006657600080fd5b825164010000000081118282018810171561008057600080fd5b82525081516020918201929091019080838360005b838110156100ad578181015183820152602001610095565b50505050905090810190601f1680156100da5780820380516001836020036101000a031916815260200191505b5060408181527f656970313936372e70726f78792e696d706c656d656e746174696f6e0000000082525190819003601c0190208693508492506000805160206106c883398151915260001990910114905061013157fe5b610143826001600160e01b0361022616565b8051156101fb576000826001600160a01b0316826040518082805190602001908083835b602083106101865780518252601f199092019160209182019101610167565b6001836020036101000a038019825116818451168082178552505050505050905001915050600060405180830381855af49150503d80600081146101e6576040519150601f19603f3d011682016040523d82523d6000602084013e6101eb565b606091505b50509050806101f957600080fd5b505b5050600080546001600160a01b0319166001600160a01b0393909316929092179091555061028c9050565b6102398161028660201b6103751760201c565b6102745760405162461bcd60e51b815260040180806020018281038252603b8152602001806106e8603b913960400191505060405180910390fd5b6000805160206106c883398151915255565b3b151590565b61042d8061029b6000396000f3fe60806040526004361061003f5760003560e01c80631a31c07c146100495780633659cfe61461007a5780635c60da1b146100ad57806391f52f7c146100c2575b6100476100f5565b005b34801561005557600080fd5b5061005e61010f565b604080516001600160a01b039092168252519081900360200190f35b34801561008657600080fd5b506100476004803603602081101561009d57600080fd5b50356001600160a01b031661011e565b3480156100b957600080fd5b5061005e6101dd565b3480156100ce57600080fd5b50610047600480360360208110156100e557600080fd5b50356001600160a01b03166101ec565b6100fd61010d565b61010d610108610284565b6102a9565b565b6000546001600160a01b031690565b600054604080516080810190915260428082526001600160a01b039092163314916103b76020830139906101d05760405162461bcd60e51b81526004018080602001828103825283818151815260200191508051906020019080838360005b8381101561019557818101518382015260200161017d565b50505050905090810190601f1680156101c25780820380516001836020036101000a031916815260200191505b509250505060405180910390fd5b506101da816102cd565b50565b60006101e7610284565b905090565b600054604080516080810190915260428082526001600160a01b039092163314916103b76020830139906102615760405162461bcd60e51b815260206004820181815283516024840152835190928392604490910191908501908083836000831561019557818101518382015260200161017d565b50600080546001600160a01b0319166001600160a01b0392909216919091179055565b7f360894a13ba1a3210667c828492db98dca3e2076cc3735a920a3ca505d382bbc5490565b3660008037600080366000845af43d6000803e8080156102c8573d6000f35b3d6000fd5b6102d68161030d565b6040516001600160a01b038216907fbc7cd75a20ee27fd9adebab32041f755214dbc6bffa90cc0225b39da2e5c2d3b90600090a250565b61031681610375565b6103515760405162461bcd60e51b815260040180806020018281038252603b81526020018061037c603b913960400191505060405180910390fd5b7f360894a13ba1a3210667c828492db98dca3e2076cc3735a920a3ca505d382bbc55565b3b15159056fe43616e6e6f742073657420612070726f787920696d706c656d656e746174696f6e20746f2061206e6f6e2d636f6e7472616374206164647265737341756469757341646d696e557067726164656162696c69747950726f78793a2043616c6c6572206d7573742062652063757272656e742070726f78792061646d696ea265627a7a72315820b6762552f28295888a90e51426fa3c052797f47ced48c6667d607de4874e3a0e64736f6c63430005110032360894a13ba1a3210667c828492db98dca3e2076cc3735a920a3ca505d382bbc43616e6e6f742073657420612070726f787920696d706c656d656e746174696f6e20746f2061206e6f6e2d636f6e74726163742061646472657373",
  "source": "pragma solidity ^0.5.0;\n\nimport \"@openzeppelin/upgrades/contracts/upgradeability/UpgradeabilityProxy.sol\";\n\n\n/**\n * @notice Wrapper around OpenZeppelin's UpgradeabilityProxy contract.\n * Permissions proxy upgrade logic to Audius Governance contract.\n * https://github.com/OpenZeppelin/openzeppelin-sdk/blob/release/2.8/packages/lib/contracts/upgradeability/UpgradeabilityProxy.sol\n * @dev Any logic contract that has a signature clash with this proxy contract will be unable to call those functions\n *      Please ensure logic contract functions do not share a signature with any functions defined in this file\n */\ncontract AudiusAdminUpgradeabilityProxy is UpgradeabilityProxy {\n    address private proxyAdmin;\n    string private constant ERROR_ONLY_ADMIN = (\n        \"AudiusAdminUpgradeabilityProxy: Caller must be current proxy admin\"\n    );\n\n    /**\n     * @notice Sets admin address for future upgrades\n     * @param _logic - address of underlying logic contract.\n     *      Passed to UpgradeabilityProxy constructor.\n     * @param _proxyAdmin - address of proxy admin\n     *      Set to governance contract address for all non-governance contracts\n     *      Governance is deployed and upgraded to have own address as admin\n     * @param _data - data of function to be called on logic contract.\n     *      Passed to UpgradeabilityProxy constructor.\n     */\n    constructor(\n      address _logic,\n      address _proxyAdmin,\n      bytes memory _data\n    )\n    UpgradeabilityProxy(_logic, _data) public payable\n    {\n        proxyAdmin = _proxyAdmin;\n    }\n\n    /**\n     * @notice Upgrade the address of the logic contract for this proxy\n     * @dev Recreation of AdminUpgradeabilityProxy._upgradeTo.\n     *      Adds a check to ensure msg.sender is the Audius Proxy Admin\n     * @param _newImplementation - new address of logic contract that the proxy will point to\n     */\n    function upgradeTo(address _newImplementation) external {\n        require(msg.sender == proxyAdmin, ERROR_ONLY_ADMIN);\n        _upgradeTo(_newImplementation);\n    }\n\n    /**\n     * @return Current proxy admin address\n     */\n    function getAudiusProxyAdminAddress() external view returns (address) {\n        return proxyAdmin;\n    }\n\n    /**\n     * @return The address of the implementation.\n     */\n    function implementation() external view returns (address) {\n        return _implementation();\n    }\n\n    /**\n     * @notice Set the Audius Proxy Admin\n     * @dev Only callable by current proxy admin address\n     * @param _adminAddress - new admin address\n     */\n    function setAudiusProxyAdminAddress(address _adminAddress) external {\n        require(msg.sender == proxyAdmin, ERROR_ONLY_ADMIN);\n        proxyAdmin = _adminAddress;\n    }\n}\n",
  "sourcePath": "/usr/src/app/contracts/AudiusAdminUpgradeabilityProxy.sol",
  "compiler": {
    "name": "solc",
    "version": "0.5.17+commit.d19bba13.Emscripten.clang"
  },
  "schemaVersion": "3.4.4",
  "updatedAt": "2023-03-02T06:41:29.050Z",
  "devdoc": {
    "details": "Any logic contract that has a signature clash with this proxy contract will be unable to call those functions     Please ensure logic contract functions do not share a signature with any functions defined in this file",
    "methods": {
      "constructor": {
        "params": {
          "_data": "- data of function to be called on logic contract.     Passed to UpgradeabilityProxy constructor.",
          "_logic": "- address of underlying logic contract.     Passed to UpgradeabilityProxy constructor.",
          "_proxyAdmin": "- address of proxy admin     Set to governance contract address for all non-governance contracts     Governance is deployed and upgraded to have own address as admin"
        }
      },
      "getAudiusProxyAdminAddress()": {
        "return": "Current proxy admin address"
      },
      "implementation()": {
        "return": "The address of the implementation."
      },
      "setAudiusProxyAdminAddress(address)": {
        "details": "Only callable by current proxy admin address",
        "params": {
          "_adminAddress": "- new admin address"
        }
      },
      "upgradeTo(address)": {
        "details": "Recreation of AdminUpgradeabilityProxy._upgradeTo.     Adds a check to ensure msg.sender is the Audius Proxy Admin",
        "params": {
          "_newImplementation": "- new address of logic contract that the proxy will point to"
        }
      }
    }
  },
  "userdoc": {
    "methods": {
      "constructor": "Sets admin address for future upgrades",
      "setAudiusProxyAdminAddress(address)": {
        "notice": "Set the Audius Proxy Admin"
      },
      "upgradeTo(address)": {
        "notice": "Upgrade the address of the logic contract for this proxy"
      }
    },
    "notice": "Wrapper around OpenZeppelin's UpgradeabilityProxy contract. Permissions proxy upgrade logic to Audius Governance contract. https://github.com/OpenZeppelin/openzeppelin-sdk/blob/release/2.8/packages/lib/contracts/upgradeability/UpgradeabilityProxy.sol"
  }
}