{
  "contractName": "DelegateManagerV2",
  "abi": [
    {
      "anonymous": false,
      "inputs": [
        {
          "indexed": true,
          "internalType": "address",
          "name": "_claimer",
          "type": "address"
        },
        {
          "indexed": true,
          "internalType": "uint256",
          "name": "_rewards",
          "type": "uint256"
        },
        {
          "indexed": true,
          "internalType": "uint256",
          "name": "_newTotal",
          "type": "uint256"
        }
      ],
      "name": "Claim",
      "type": "event"
    },
    {
      "anonymous": false,
      "inputs": [
        {
          "indexed": true,
          "internalType": "address",
          "name": "_newClaimsManagerAddress",
          "type": "address"
        }
      ],
      "name": "ClaimsManagerAddressUpdated",
      "type": "event"
    },
    {
      "anonymous": false,
      "inputs": [
        {
          "indexed": true,
          "internalType": "address",
          "name": "_newGovernanceAddress",
          "type": "address"
        }
      ],
      "name": "GovernanceAddressUpdated",
      "type": "event"
    },
    {
      "anonymous": false,
      "inputs": [
        {
          "indexed": true,
          "internalType": "address",
          "name": "_delegator",
          "type": "address"
        },
        {
          "indexed": true,
          "internalType": "address",
          "name": "_serviceProvider",
          "type": "address"
        },
        {
          "indexed": true,
          "internalType": "uint256",
          "name": "_increaseAmount",
          "type": "uint256"
        }
      ],
      "name": "IncreaseDelegatedStake",
      "type": "event"
    },
    {
      "anonymous": false,
      "inputs": [
        {
          "indexed": true,
          "internalType": "uint256",
          "name": "_maxDelegators",
          "type": "uint256"
        }
      ],
      "name": "MaxDelegatorsUpdated",
      "type": "event"
    },
    {
      "anonymous": false,
      "inputs": [
        {
          "indexed": true,
          "internalType": "uint256",
          "name": "_minDelegationAmount",
          "type": "uint256"
        }
      ],
      "name": "MinDelegationUpdated",
      "type": "event"
    },
    {
      "anonymous": false,
      "inputs": [
        {
          "indexed": true,
          "internalType": "uint256",
          "name": "_removeDelegatorEvalDuration",
          "type": "uint256"
        }
      ],
      "name": "RemoveDelegatorEvalDurationUpdated",
      "type": "event"
    },
    {
      "anonymous": false,
      "inputs": [
        {
          "indexed": true,
          "internalType": "uint256",
          "name": "_removeDelegatorLockupDuration",
          "type": "uint256"
        }
      ],
      "name": "RemoveDelegatorLockupDurationUpdated",
      "type": "event"
    },
    {
      "anonymous": false,
      "inputs": [
        {
          "indexed": true,
          "internalType": "address",
          "name": "_serviceProvider",
          "type": "address"
        },
        {
          "indexed": true,
          "internalType": "address",
          "name": "_delegator",
          "type": "address"
        }
      ],
      "name": "RemoveDelegatorRequestCancelled",
      "type": "event"
    },
    {
      "anonymous": false,
      "inputs": [
        {
          "indexed": true,
          "internalType": "address",
          "name": "_serviceProvider",
          "type": "address"
        },
        {
          "indexed": true,
          "internalType": "address",
          "name": "_delegator",
          "type": "address"
        },
        {
          "indexed": true,
          "internalType": "uint256",
          "name": "_unstakedAmount",
          "type": "uint256"
        }
      ],
      "name": "RemoveDelegatorRequestEvaluated",
      "type": "event"
    },
    {
      "anonymous": false,
      "inputs": [
        {
          "indexed": true,
          "internalType": "address",
          "name": "_serviceProvider",
          "type": "address"
        },
        {
          "indexed": true,
          "internalType": "address",
          "name": "_delegator",
          "type": "address"
        },
        {
          "indexed": true,
          "internalType": "uint256",
          "name": "_lockupExpiryBlock",
          "type": "uint256"
        }
      ],
      "name": "RemoveDelegatorRequested",
      "type": "event"
    },
    {
      "anonymous": false,
      "inputs": [
        {
          "indexed": true,
          "internalType": "address",
          "name": "_serviceProvider",
          "type": "address"
        },
        {
          "indexed": true,
          "internalType": "uint256",
          "name": "_spMinDelegationAmount",
          "type": "uint256"
        }
      ],
      "name": "SPMinDelegationAmountUpdated",
      "type": "event"
    },
    {
      "anonymous": false,
      "inputs": [
        {
          "indexed": true,
          "internalType": "address",
          "name": "_newServiceProviderFactoryAddress",
          "type": "address"
        }
      ],
      "name": "ServiceProviderFactoryAddressUpdated",
      "type": "event"
    },
    {
      "anonymous": false,
      "inputs": [
        {
          "indexed": true,
          "internalType": "address",
          "name": "_target",
          "type": "address"
        },
        {
          "indexed": true,
          "internalType": "uint256",
          "name": "_amount",
          "type": "uint256"
        },
        {
          "indexed": true,
          "internalType": "uint256",
          "name": "_newTotal",
          "type": "uint256"
        }
      ],
      "name": "Slash",
      "type": "event"
    },
    {
      "anonymous": false,
      "inputs": [
        {
          "indexed": true,
          "internalType": "address",
          "name": "_newStakingAddress",
          "type": "address"
        }
      ],
      "name": "StakingAddressUpdated",
      "type": "event"
    },
    {
      "anonymous": false,
      "inputs": [
        {
          "indexed": true,
          "internalType": "uint256",
          "name": "_undelegateLockupDuration",
          "type": "uint256"
        }
      ],
      "name": "UndelegateLockupDurationUpdated",
      "type": "event"
    },
    {
      "anonymous": false,
      "inputs": [
        {
          "indexed": true,
          "internalType": "address",
          "name": "_delegator",
          "type": "address"
        },
        {
          "indexed": true,
          "internalType": "address",
          "name": "_serviceProvider",
          "type": "address"
        },
        {
          "indexed": true,
          "internalType": "uint256",
          "name": "_amount",
          "type": "uint256"
        }
      ],
      "name": "UndelegateStakeRequestCancelled",
      "type": "event"
    },
    {
      "anonymous": false,
      "inputs": [
        {
          "indexed": true,
          "internalType": "address",
          "name": "_delegator",
          "type": "address"
        },
        {
          "indexed": true,
          "internalType": "address",
          "name": "_serviceProvider",
          "type": "address"
        },
        {
          "indexed": true,
          "internalType": "uint256",
          "name": "_amount",
          "type": "uint256"
        }
      ],
      "name": "UndelegateStakeRequestEvaluated",
      "type": "event"
    },
    {
      "anonymous": false,
      "inputs": [
        {
          "indexed": true,
          "internalType": "address",
          "name": "_delegator",
          "type": "address"
        },
        {
          "indexed": true,
          "internalType": "address",
          "name": "_serviceProvider",
          "type": "address"
        },
        {
          "indexed": true,
          "internalType": "uint256",
          "name": "_amount",
          "type": "uint256"
        },
        {
          "indexed": false,
          "internalType": "uint256",
          "name": "_lockupExpiryBlock",
          "type": "uint256"
        }
      ],
      "name": "UndelegateStakeRequested",
      "type": "event"
    },
    {
      "constant": false,
      "inputs": [
        {
          "internalType": "address",
          "name": "_tokenAddress",
          "type": "address"
        },
        {
          "internalType": "address",
          "name": "_governanceAddress",
          "type": "address"
        },
        {
          "internalType": "uint256",
          "name": "_undelegateLockupDuration",
          "type": "uint256"
        }
      ],
      "name": "initialize",
      "outputs": [],
      "payable": false,
      "stateMutability": "nonpayable",
      "type": "function"
    },
    {
      "constant": false,
      "inputs": [],
      "name": "initialize",
      "outputs": [],
      "payable": false,
      "stateMutability": "nonpayable",
      "type": "function"
    },
    {
      "constant": false,
      "inputs": [
        {
          "internalType": "address",
          "name": "_targetSP",
          "type": "address"
        },
        {
          "internalType": "uint256",
          "name": "_amount",
          "type": "uint256"
        }
      ],
      "name": "delegateStake",
      "outputs": [
        {
          "internalType": "uint256",
          "name": "",
          "type": "uint256"
        }
      ],
      "payable": false,
      "stateMutability": "nonpayable",
      "type": "function"
    },
    {
      "constant": false,
      "inputs": [
        {
          "internalType": "address",
          "name": "_target",
          "type": "address"
        },
        {
          "internalType": "uint256",
          "name": "_amount",
          "type": "uint256"
        }
      ],
      "name": "requestUndelegateStake",
      "outputs": [
        {
          "internalType": "uint256",
          "name": "",
          "type": "uint256"
        }
      ],
      "payable": false,
      "stateMutability": "nonpayable",
      "type": "function"
    },
    {
      "constant": false,
      "inputs": [],
      "name": "cancelUndelegateStakeRequest",
      "outputs": [],
      "payable": false,
      "stateMutability": "nonpayable",
      "type": "function"
    },
    {
      "constant": false,
      "inputs": [],
      "name": "undelegateStake",
      "outputs": [
        {
          "internalType": "uint256",
          "name": "",
          "type": "uint256"
        }
      ],
      "payable": false,
      "stateMutability": "nonpayable",
      "type": "function"
    },
    {
      "constant": false,
      "inputs": [
        {
          "internalType": "address",
          "name": "_serviceProvider",
          "type": "address"
        }
      ],
      "name": "claimRewards",
      "outputs": [],
      "payable": false,
      "stateMutability": "nonpayable",
      "type": "function"
    },
    {
      "constant": false,
      "inputs": [
        {
          "internalType": "uint256",
          "name": "_amount",
          "type": "uint256"
        },
        {
          "internalType": "address",
          "name": "_slashAddress",
          "type": "address"
        }
      ],
      "name": "slash",
      "outputs": [],
      "payable": false,
      "stateMutability": "nonpayable",
      "type": "function"
    },
    {
      "constant": false,
      "inputs": [
        {
          "internalType": "address",
          "name": "_serviceProvider",
          "type": "address"
        },
        {
          "internalType": "address",
          "name": "_delegator",
          "type": "address"
        }
      ],
      "name": "requestRemoveDelegator",
      "outputs": [],
      "payable": false,
      "stateMutability": "nonpayable",
      "type": "function"
    },
    {
      "constant": false,
      "inputs": [
        {
          "internalType": "address",
          "name": "_serviceProvider",
          "type": "address"
        },
        {
          "internalType": "address",
          "name": "_delegator",
          "type": "address"
        }
      ],
      "name": "cancelRemoveDelegatorRequest",
      "outputs": [],
      "payable": false,
      "stateMutability": "nonpayable",
      "type": "function"
    },
    {
      "constant": false,
      "inputs": [
        {
          "internalType": "address",
          "name": "_serviceProvider",
          "type": "address"
        },
        {
          "internalType": "address",
          "name": "_delegator",
          "type": "address"
        }
      ],
      "name": "removeDelegator",
      "outputs": [],
      "payable": false,
      "stateMutability": "nonpayable",
      "type": "function"
    },
    {
      "constant": false,
      "inputs": [
        {
          "internalType": "address",
          "name": "_serviceProvider",
          "type": "address"
        },
        {
          "internalType": "uint256",
          "name": "_spMinDelegationAmount",
          "type": "uint256"
        }
      ],
      "name": "updateSPMinDelegationAmount",
      "outputs": [],
      "payable": false,
      "stateMutability": "nonpayable",
      "type": "function"
    },
    {
      "constant": false,
      "inputs": [
        {
          "internalType": "uint256",
          "name": "_duration",
          "type": "uint256"
        }
      ],
      "name": "updateUndelegateLockupDuration",
      "outputs": [],
      "payable": false,
      "stateMutability": "nonpayable",
      "type": "function"
    },
    {
      "constant": false,
      "inputs": [
        {
          "internalType": "uint256",
          "name": "_maxDelegators",
          "type": "uint256"
        }
      ],
      "name": "updateMaxDelegators",
      "outputs": [],
      "payable": false,
      "stateMutability": "nonpayable",
      "type": "function"
    },
    {
      "constant": false,
      "inputs": [
        {
          "internalType": "uint256",
          "name": "_minDelegationAmount",
          "type": "uint256"
        }
      ],
      "name": "updateMinDelegationAmount",
      "outputs": [],
      "payable": false,
      "stateMutability": "nonpayable",
      "type": "function"
    },
    {
      "constant": false,
      "inputs": [
        {
          "internalType": "uint256",
          "name": "_duration",
          "type": "uint256"
        }
      ],
      "name": "updateRemoveDelegatorLockupDuration",
      "outputs": [],
      "payable": false,
      "stateMutability": "nonpayable",
      "type": "function"
    },
    {
      "constant": false,
      "inputs": [
        {
          "internalType": "uint256",
          "name": "_duration",
          "type": "uint256"
        }
      ],
      "name": "updateRemoveDelegatorEvalDuration",
      "outputs": [],
      "payable": false,
      "stateMutability": "nonpayable",
      "type": "function"
    },
    {
      "constant": false,
      "inputs": [
        {
          "internalType": "address",
          "name": "_governanceAddress",
          "type": "address"
        }
      ],
      "name": "setGovernanceAddress",
      "outputs": [],
      "payable": false,
      "stateMutability": "nonpayable",
      "type": "function"
    },
    {
      "constant": false,
      "inputs": [
        {
          "internalType": "address",
          "name": "_stakingAddress",
          "type": "address"
        }
      ],
      "name": "setStakingAddress",
      "outputs": [],
      "payable": false,
      "stateMutability": "nonpayable",
      "type": "function"
    },
    {
      "constant": false,
      "inputs": [
        {
          "internalType": "address",
          "name": "_spFactory",
          "type": "address"
        }
      ],
      "name": "setServiceProviderFactoryAddress",
      "outputs": [],
      "payable": false,
      "stateMutability": "nonpayable",
      "type": "function"
    },
    {
      "constant": false,
      "inputs": [
        {
          "internalType": "address",
          "name": "_claimsManagerAddress",
          "type": "address"
        }
      ],
      "name": "setClaimsManagerAddress",
      "outputs": [],
      "payable": false,
      "stateMutability": "nonpayable",
      "type": "function"
    },
    {
      "constant": true,
      "inputs": [
        {
          "internalType": "address",
          "name": "_sp",
          "type": "address"
        }
      ],
      "name": "getDelegatorsList",
      "outputs": [
        {
          "internalType": "address[]",
          "name": "",
          "type": "address[]"
        }
      ],
      "payable": false,
      "stateMutability": "view",
      "type": "function"
    },
    {
      "constant": true,
      "inputs": [
        {
          "internalType": "address",
          "name": "_delegator",
          "type": "address"
        }
      ],
      "name": "getTotalDelegatorStake",
      "outputs": [
        {
          "internalType": "uint256",
          "name": "",
          "type": "uint256"
        }
      ],
      "payable": false,
      "stateMutability": "view",
      "type": "function"
    },
    {
      "constant": true,
      "inputs": [
        {
          "internalType": "address",
          "name": "_sp",
          "type": "address"
        }
      ],
      "name": "getTotalDelegatedToServiceProvider",
      "outputs": [
        {
          "internalType": "uint256",
          "name": "",
          "type": "uint256"
        }
      ],
      "payable": false,
      "stateMutability": "view",
      "type": "function"
    },
    {
      "constant": true,
      "inputs": [
        {
          "internalType": "address",
          "name": "_sp",
          "type": "address"
        }
      ],
      "name": "getTotalLockedDelegationForServiceProvider",
      "outputs": [
        {
          "internalType": "uint256",
          "name": "",
          "type": "uint256"
        }
      ],
      "payable": false,
      "stateMutability": "view",
      "type": "function"
    },
    {
      "constant": true,
      "inputs": [
        {
          "internalType": "address",
          "name": "_delegator",
          "type": "address"
        },
        {
          "internalType": "address",
          "name": "_serviceProvider",
          "type": "address"
        }
      ],
      "name": "getDelegatorStakeForServiceProvider",
      "outputs": [
        {
          "internalType": "uint256",
          "name": "",
          "type": "uint256"
        }
      ],
      "payable": false,
      "stateMutability": "view",
      "type": "function"
    },
    {
      "constant": true,
      "inputs": [
        {
          "internalType": "address",
          "name": "_delegator",
          "type": "address"
        }
      ],
      "name": "getPendingUndelegateRequest",
      "outputs": [
        {
          "internalType": "address",
          "name": "target",
          "type": "address"
        },
        {
          "internalType": "uint256",
          "name": "amount",
          "type": "uint256"
        },
        {
          "internalType": "uint256",
          "name": "lockupExpiryBlock",
          "type": "uint256"
        }
      ],
      "payable": false,
      "stateMutability": "view",
      "type": "function"
    },
    {
      "constant": true,
      "inputs": [
        {
          "internalType": "address",
          "name": "_serviceProvider",
          "type": "address"
        },
        {
          "internalType": "address",
          "name": "_delegator",
          "type": "address"
        }
      ],
      "name": "getPendingRemoveDelegatorRequest",
      "outputs": [
        {
          "internalType": "uint256",
          "name": "",
          "type": "uint256"
        }
      ],
      "payable": false,
      "stateMutability": "view",
      "type": "function"
    },
    {
      "constant": true,
      "inputs": [
        {
          "internalType": "address",
          "name": "_serviceProvider",
          "type": "address"
        }
      ],
      "name": "getSPMinDelegationAmount",
      "outputs": [
        {
          "internalType": "uint256",
          "name": "",
          "type": "uint256"
        }
      ],
      "payable": false,
      "stateMutability": "view",
      "type": "function"
    },
    {
      "constant": true,
      "inputs": [],
      "name": "getUndelegateLockupDuration",
      "outputs": [
        {
          "internalType": "uint256",
          "name": "",
          "type": "uint256"
        }
      ],
      "payable": false,
      "stateMutability": "view",
      "type": "function"
    },
    {
      "constant": true,
      "inputs": [],
      "name": "getMaxDelegators",
      "outputs": [
        {
          "internalType": "uint256",
          "name": "",
          "type": "uint256"
        }
      ],
      "payable": false,
      "stateMutability": "view",
      "type": "function"
    },
    {
      "constant": true,
      "inputs": [],
      "name": "getMinDelegationAmount",
      "outputs": [
        {
          "internalType": "uint256",
          "name": "",
          "type": "uint256"
        }
      ],
      "payable": false,
      "stateMutability": "view",
      "type": "function"
    },
    {
      "constant": true,
      "inputs": [],
      "name": "getRemoveDelegatorLockupDuration",
      "outputs": [
        {
          "internalType": "uint256",
          "name": "",
          "type": "uint256"
        }
      ],
      "payable": false,
      "stateMutability": "view",
      "type": "function"
    },
    {
      "constant": true,
      "inputs": [],
      "name": "getRemoveDelegatorEvalDuration",
      "outputs": [
        {
          "internalType": "uint256",
          "name": "",
          "type": "uint256"
        }
      ],
      "payable": false,
      "stateMutability": "view",
      "type": "function"
    },
    {
      "constant": true,
      "inputs": [],
      "name": "getGovernanceAddress",
      "outputs": [
        {
          "internalType": "address",
          "name": "",
          "type": "address"
        }
      ],
      "payable": false,
      "stateMutability": "view",
      "type": "function"
    },
    {
      "constant": true,
      "inputs": [],
      "name": "getServiceProviderFactoryAddress",
      "outputs": [
        {
          "internalType": "address",
          "name": "",
          "type": "address"
        }
      ],
      "payable": false,
      "stateMutability": "view",
      "type": "function"
    },
    {
      "constant": true,
      "inputs": [],
      "name": "getClaimsManagerAddress",
      "outputs": [
        {
          "internalType": "address",
          "name": "",
          "type": "address"
        }
      ],
      "payable": false,
      "stateMutability": "view",
      "type": "function"
    },
    {
      "constant": true,
      "inputs": [],
      "name": "getStakingAddress",
      "outputs": [
        {
          "internalType": "address",
          "name": "",
          "type": "address"
        }
      ],
      "payable": false,
      "stateMutability": "view",
      "type": "function"
    }
  ],
  "bytecode": "0x608060405234801561001057600080fd5b50614868806100206000396000f3fe608060405234801561001057600080fd5b50600436106102315760003560e01c8063862c95b911610130578063b9ca6067116100b8578063ef5cfb8c1161007c578063ef5cfb8c14610656578063f4e0d9ac1461067c578063f5c081ad146106a2578063feaf8048146106bf578063fed3d1fd146106c757610231565b8063b9ca606714610591578063ca31b4b5146105bf578063cfc16254146105e5578063e0d229ff1461060b578063e37e191c1461063957610231565b8063a7bac487116100ff578063a7bac487146104f4578063aa70d23614610520578063b0303b7514610546578063b11caba51461056c578063b26df5641461057457610231565b8063862c95b9146104795780639336086f14610496578063948e5426146104e45780639d974fb5146104ec57610231565b80634a551fe7116101be578063732524941161018257806373252494146104155780637dc1eeba1461041d5780638129fc1c1461044357806382d51e2c1461044b5780638504f1881461045357610231565b80634a551fe7146103685780635ad15ada1461039657806368579837146103b35780636a53f10f146103df578063721e4221146103e757610231565b80631794bb3c116102055780631794bb3c146102845780631d0f283a146102bc578063201ae9db146102ea5780633c323a1b146103105780633d82e3c11461033c57610231565b80622ae74a1461023657806309a945a01461025a5780630e9ed68b1461027457806315fe40701461027c575b600080fd5b61023e61073d565b604080516001600160a01b039092168252519081900360200190f35b610262610758565b60408051918252519081900360200190f35b61023e610769565b610262610783565b6102ba6004803603606081101561029a57600080fd5b506001600160a01b03813581169160208101359091169060400135610794565b005b6102ba600480360360408110156102d257600080fd5b506001600160a01b0381358116916020013516610891565b6102ba6004803603602081101561030057600080fd5b50356001600160a01b0316610a10565b6102626004803603604081101561032657600080fd5b506001600160a01b038135169060200135610af2565b6102ba6004803603604081101561035257600080fd5b50803590602001356001600160a01b0316610e9e565b6102626004803603604081101561037e57600080fd5b506001600160a01b0381358116916020013516611640565b6102ba600480360360208110156103ac57600080fd5b5035611676565b6102ba600480360360408110156103c957600080fd5b506001600160a01b038135169060200135611741565b6102ba6118f9565b6102ba600480360360408110156103fd57600080fd5b506001600160a01b03813581169160200135166119e0565b61023e611ba3565b6102626004803603602081101561043357600080fd5b50356001600160a01b0316611bc2565b6102ba611beb565b610262611c9a565b6102626004803603602081101561046957600080fd5b50356001600160a01b0316611cab565b6102ba6004803603602081101561048f57600080fd5b5035611cd1565b6104bc600480360360208110156104ac57600080fd5b50356001600160a01b0316611d9c565b604080516001600160a01b039094168452602084019290925282820152519081900360600190f35b61023e611dfe565b610262611e18565b6102626004803603604081101561050a57600080fd5b506001600160a01b038135169060200135611e29565b6102ba6004803603602081101561053657600080fd5b50356001600160a01b03166120bd565b6102626004803603602081101561055c57600080fd5b50356001600160a01b031661219f565b6102626121c5565b6102ba6004803603602081101561058a57600080fd5b50356121d6565b610262600480360360408110156105a757600080fd5b506001600160a01b03813581169160200135166122a1565b610262600480360360208110156105d557600080fd5b50356001600160a01b03166122d7565b6102ba600480360360208110156105fb57600080fd5b50356001600160a01b03166122f2565b6102ba6004803603604081101561062157600080fd5b506001600160a01b03813581169160200135166123e5565b6102ba6004803603602081101561064f57600080fd5b50356127b5565b6102ba6004803603602081101561066c57600080fd5b50356001600160a01b0316612884565b6102ba6004803603602081101561069257600080fd5b50356001600160a01b0316612aab565b6102ba600480360360208110156106b857600080fd5b5035612b8d565b610262612c5c565b6106ed600480360360208110156106dd57600080fd5b50356001600160a01b031661315e565b60408051602080825283518183015283519192839290830191858101910280838360005b83811015610729578181015183820152602001610711565b505050509050019250505060405180910390f35b60006107476131df565b506035546001600160a01b03165b90565b60006107626131df565b5060375490565b60006107736131df565b506034546001600160a01b031690565b600061078d6131df565b5060385490565b600054610100900460ff16806107ad57506107ad61326a565b806107bb575060005460ff16155b6107f65760405162461bcd60e51b815260040180806020018281038252602e81526020018061452e602e913960400191505060405180910390fd5b600054610100900460ff16158015610821576000805460ff1961ff0019909116610100171660011790555b61082a83613270565b603c80546001600160a01b0319166001600160a01b03861617905560af60385568056bc75e2d6310000060395561085f611beb565b6108688261333d565b61087361b5bb61346c565b6119f6603b55801561088b576000805461ff00191690555b50505050565b336001600160a01b03831614806108b7575060335461010090046001600160a01b031633145b6040518060600160405280603981526020016143ed60399139906109595760405162461bcd60e51b81526004018080602001828103825283818151815260200191508051906020019080838360005b8381101561091e578181015183820152602001610906565b50505050905090810190601f16801561094b5780820380516001836020036101000a031916815260200191505b509250505060405180910390fd5b506001600160a01b038083166000908152604160209081526040808320938516835292905220546109bb5760405162461bcd60e51b81526004018080602001828103825260238152602001806142a26023913960400191505060405180910390fd5b6001600160a01b03808316600081815260416020908152604080832094861680845294909152808220829055517fd7a1b9c3d30d51412b848777bffec951c371bf58a13788d70c12f534f82d4cb39190a35050565b610a186131df565b603360019054906101000a90046001600160a01b03166001600160a01b0316336001600160a01b0316146040518060600160405280603581526020016146f46035913990610aa75760405162461bcd60e51b815260206004820181815283516024840152835190928392604490910191908501908083836000831561091e578181015183820152602001610906565b50603580546001600160a01b0319166001600160a01b0383169081179091556040517f373f84f0177a6c2e019f2e0e73c988359e56e111629a261c9bba5c968c383ed190600090a250565b6000610afc6131df565b610b0461359b565b610b0c6135e4565b610b1461362b565b610b1d83613672565b15610b595760405162461bcd60e51b815260040180806020018281038252603e815260200180614264603e913960400191505060405180910390fd5b60345460408051636c483ff360e01b81526001600160a01b0386811660048301523360248301819052604483018790529251929316918291636c483ff391606480830192600092919082900301818387803b158015610bb757600080fd5b505af1158015610bcb573d6000803e3d6000fd5b50505050610bd982866136f7565b610c67576001600160a01b038581166000818152603d602090815260408220600201805460018101825581845291832090910180546001600160a01b0319169487169490941790935560385491905290541115610c675760405162461bcd60e51b815260040180806020018281038252602c8152602001806141c3602c913960400191505060405180910390fd5b6001600160a01b0385166000908152603d6020526040902054610cfc9083908790610c98908863ffffffff61378116565b6001600160a01b038087166000908152603e60209081526040808320938d1683529290522054610cce908963ffffffff61378116565b6001600160a01b0387166000908152603f6020526040902054610cf7908a63ffffffff61378116565b6137e2565b6039546001600160a01b038084166000908152603e60209081526040808320938a168352929052205410801590610d6257506001600160a01b038086166000818152604260209081526040808320549487168352603e8252808320938352929052205410155b6040518060600160405280603381526020016144266033913990610dc75760405162461bcd60e51b815260206004820181815283516024840152835190928392604490910191908501908083836000831561091e578181015183820152602001610906565b50603554604080516303a378e360e61b81526001600160a01b0388811660048301529151919092169163e8de38c0916024808301926000929190829003018186803b158015610e1557600080fd5b505afa158015610e29573d6000803e3d6000fd5b5050505083856001600160a01b0316836001600160a01b03167f82d701855f3ac4a098fc0249261c5e06d1050d23c8aa351fae8abefc2a464fda60405160405180910390a4506001600160a01b039081166000908152603e602090815260408083209387168352929052205490505b92915050565b610ea66131df565b610eae61359b565b610eb66135e4565b603360019054906101000a90046001600160a01b03166001600160a01b0316336001600160a01b0316146040518060600160405280603581526020016146f46035913990610f455760405162461bcd60e51b815260206004820181815283516024840152835190928392604490910191908501908083836000831561091e578181015183820152602001610906565b5060345460355460408051634b341aed60e01b81526001600160a01b03858116600483015291519382169391909216916000918491634b341aed916024808301926020929190829003018186803b158015610f9f57600080fd5b505afa158015610fb3573d6000803e3d6000fd5b505050506040513d6020811015610fc957600080fd5b505190508481101561100c5760405162461bcd60e51b815260040180806020018281038252603e815260200180614729603e913960400191505060405180910390fd5b604080516001624d61bb60e11b031981526001600160a01b03868116600483015282516000939186169263ff653c8a926024808301939192829003018186803b15801561105857600080fd5b505afa15801561106c573d6000803e3d6000fd5b505050506040513d604081101561108257600080fd5b5051905080156110fd57826001600160a01b03166354350cee866040518263ffffffff1660e01b815260040180826001600160a01b03166001600160a01b03168152602001915050600060405180830381600087803b1580156110e457600080fd5b505af11580156110f8573d6000803e3d6000fd5b505050505b6000836001600160a01b031663f273e9a8876040518263ffffffff1660e01b815260040180826001600160a01b03166001600160a01b0316815260200191505060c06040518083038186803b15801561115557600080fd5b505afa158015611169573d6000803e3d6000fd5b505050506040513d60c081101561117f57600080fd5b50519050806111bf5760405162461bcd60e51b81526004018080602001828103825260308152602001806144fe6030913960400191505060405180910390fd5b846001600160a01b0316633d82e3c188886040518363ffffffff1660e01b815260040180838152602001826001600160a01b03166001600160a01b0316815260200192505050600060405180830381600087803b15801561121f57600080fd5b505af1158015611233573d6000803e3d6000fd5b505050506000856001600160a01b0316634b341aed886040518263ffffffff1660e01b815260040180826001600160a01b03166001600160a01b0316815260200191505060206040518083038186803b15801561128f57600080fd5b505afa1580156112a3573d6000803e3d6000fd5b505050506040513d60208110156112b957600080fd5b5051604051909150819089906001600160a01b038a16907fe05ad941535eea602efe44ddd7d96e5db6ad9a4865c360257aad8cf4c0a9446990600090a46000805b6001600160a01b0389166000908152603d6020526040902060020154811015611540576001600160a01b0389166000908152603d6020526040812060020180548390811061134457fe5b60009182526020808320909101546001600160a01b03908116808452603e83526040808520928f16855291909252822054909250906113998961138d888563ffffffff61382916565b9063ffffffff61388216565b90506114056113ae838363ffffffff6138c416565b603e6000866001600160a01b03166001600160a01b0316815260200190815260200160002060008f6001600160a01b03166001600160a01b03168152602001908152602001600020546138c490919063ffffffff16565b603e6000856001600160a01b03166001600160a01b0316815260200190815260200160002060008e6001600160a01b03166001600160a01b03168152602001908152602001600020819055506114958361149061146b84866138c490919063ffffffff16565b6001600160a01b0387166000908152603f60205260409020549063ffffffff6138c416565b613906565b6114b56114a8838363ffffffff6138c416565b869063ffffffff61378116565b6001600160a01b03841660009081526040602081905290206001015490955015611535576001600160a01b0380841660009081526040602081815281832080546001918201549516808552603d909252919092200154909190611529908390611524908463ffffffff6138c416565b613922565b61153285613941565b50505b5050506001016112fa565b506001600160a01b0388166000908152603d602052604090205461156a908263ffffffff6138c416565b6001600160a01b0389166000908152603d6020526040812091909155611596868463ffffffff6138c416565b905060006115aa828463ffffffff6138c416565b90506001600160a01b03881663b90bc8528b6115cc888563ffffffff6138c416565b6040518363ffffffff1660e01b815260040180836001600160a01b03166001600160a01b0316815260200182815260200192505050600060405180830381600087803b15801561161b57600080fd5b505af115801561162f573d6000803e3d6000fd5b505050505050505050505050505050565b600061164a6131df565b506001600160a01b03918216600090815260416020908152604080832093909416825291909152205490565b61167e6131df565b603360019054906101000a90046001600160a01b03166001600160a01b0316336001600160a01b0316146040518060600160405280603581526020016146f4603591399061170d5760405162461bcd60e51b815260206004820181815283516024840152835190928392604490910191908501908083836000831561091e578181015183820152602001610906565b50603981905560405181907f2a565983434870f0302d93575c6ee07199767028d6f294c9d1d6a1cd0979f1e190600090a250565b6117496131df565b816001600160a01b0316336001600160a01b03161460405180606001604052806038815260200161469160389139906117c35760405162461bcd60e51b815260206004820181815283516024840152835190928392604490910191908501908083836000831561091e578181015183820152602001610906565b5060355460408051631e4e7d3560e31b81526001600160a01b0385811660048301529151600093929092169163f273e9a89160248082019260c092909190829003018186803b15801561181557600080fd5b505afa158015611829573d6000803e3d6000fd5b505050506040513d60c081101561183f57600080fd5b50606090810151604080519283019052603880835290925082151591906146916020830139906118b05760405162461bcd60e51b815260206004820181815283516024840152835190928392604490910191908501908083836000831561091e578181015183820152602001610906565b506001600160a01b038316600081815260426020526040808220859055518492917fb5cbea0eea08e03cbff1c1db26b3125d44b4dd567d36c988c01ca3f6e694aea391a3505050565b6119016131df565b3361190b8161394f565b6119465760405162461bcd60e51b81526004018080602001828103825260288152602001806143c56028913960400191505060405180910390fd5b6001600160a01b038082166000908152604060208181528183206001808201549154909516808552603d9092529190922090920154611991908290611524908563ffffffff6138c416565b61199a83613941565b81816001600160a01b0316846001600160a01b03167fdd2f922d72fb35f887498001c4c6bc61a53f40a51ad38c576e092bc7c688352360405160405180910390a4505050565b6119e86131df565b336001600160a01b0383161480611a0e575060335461010090046001600160a01b031633145b6040518060600160405280603981526020016143ed6039913990611a735760405162461bcd60e51b815260206004820181815283516024840152835190928392604490910191908501908083836000831561091e578181015183820152602001610906565b506001600160a01b0380831660009081526041602090815260408083209385168352929052205415611ad65760405162461bcd60e51b81526004018080602001828103825260318152602001806145a86031913960400191505060405180910390fd5b611ae081836136f7565b6040518060600160405280603081526020016142c56030913990611b455760405162461bcd60e51b815260206004820181815283516024840152835190928392604490910191908501908083836000831561091e578181015183820152602001610906565b50603a546001600160a01b038381166000818152604160209081526040808320948716808452949091528082204390950194859055517fd6f2f5867e98ef295f42626fa37ec5192436d80d6b552dc38c971b9ddbe16e109190a45050565b6000611bad6131df565b5060335461010090046001600160a01b031690565b6000611bcc6131df565b506001600160a01b03166000908152603d602052604090206001015490565b600054610100900460ff1680611c045750611c0461326a565b80611c12575060005460ff16155b611c4d5760405162461bcd60e51b815260040180806020018281038252602e81526020018061452e602e913960400191505060405180910390fd5b600054610100900460ff16158015611c78576000805460ff1961ff0019909116610100171660011790555b6033805460ff191660011790558015611c97576000805461ff00191690555b50565b6000611ca46131df565b50603a5490565b6000611cb56131df565b506001600160a01b03166000908152603d602052604090205490565b611cd96131df565b603360019054906101000a90046001600160a01b03166001600160a01b0316336001600160a01b0316146040518060600160405280603581526020016146f46035913990611d685760405162461bcd60e51b815260206004820181815283516024840152835190928392604490910191908501908083836000831561091e578181015183820152602001610906565b50603881905560405181907f6ba19979a519727673bc99b911e17ce26c5b91bbf7471cfc082fea38eb2a488490600090a250565b6000806000611da96131df565b611db161415b565b505050506001600160a01b03908116600090815260406020818152918190208151606081018352815490941680855260018201549385018490526002909101549390910183905292909190565b6000611e086131df565b506036546001600160a01b031690565b6000611e226131df565b50603b5490565b6000611e336131df565b611e3b61362b565b60008211611e7a5760405162461bcd60e51b815260040180806020018281038252604c81526020018061455c604c913960600191505060405180910390fd5b611e8383613672565b15611ebf5760405162461bcd60e51b815260040180806020018281038252604681526020018061431f6046913960600191505060405180910390fd5b33611eca81856136f7565b6040518060600160405280603081526020016142c56030913990611f2f5760405162461bcd60e51b815260206004820181815283516024840152835190928392604490910191908501908083836000831561091e578181015183820152602001610906565b50611f398161394f565b15611f755760405162461bcd60e51b815260040180806020018281038252602b8152602001806146c9602b913960400191505060405180910390fd5b6001600160a01b038082166000908152603e602090815260408083209388168352929052205480841115611fda5760405162461bcd60e51b81526004018080602001828103825260578152602001806145d96057913960600191505060405180910390fd5b6000611ff16037544361378190919063ffffffff16565b9050611fff838787846139bb565b6001600160a01b0386166000908152603d6020526040902060010154612031908790611524908863ffffffff61378116565b84866001600160a01b0316846001600160a01b03167f0c0ebdfe3f3ccdb3ad070f98a3fb9656a7b8781c299a5c0cd0f37e4d5a02556d846040518082815260200191505060405180910390a46001600160a01b038084166000908152603e60209081526040808320938a16835292905220546120b3908663ffffffff6138c416565b9695505050505050565b6120c56131df565b603360019054906101000a90046001600160a01b03166001600160a01b0316336001600160a01b0316146040518060600160405280603581526020016146f460359139906121545760405162461bcd60e51b815260206004820181815283516024840152835190928392604490910191908501908083836000831561091e578181015183820152602001610906565b50603680546001600160a01b0319166001600160a01b0383169081179091556040517f3b3679838ffd21f454712cf443ab98f11d36d5552da016314c5cbe364a10c24390600090a250565b60006121a96131df565b506001600160a01b03166000908152603f602052604090205490565b60006121cf6131df565b5060395490565b6121de6131df565b603360019054906101000a90046001600160a01b03166001600160a01b0316336001600160a01b0316146040518060600160405280603581526020016146f4603591399061226d5760405162461bcd60e51b815260206004820181815283516024840152835190928392604490910191908501908083836000831561091e578181015183820152602001610906565b50603b81905560405181907f10c34e4da809ce0e816d31562e6f5a3d38f913c470dd384ed0a73710281b23dd90600090a250565b60006122ab6131df565b506001600160a01b039182166000908152603e6020908152604080832093909416825291909152205490565b6001600160a01b031660009081526042602052604090205490565b6122fa6131df565b603360019054906101000a90046001600160a01b03166001600160a01b0316336001600160a01b0316146040518060600160405280603581526020016146f460359139906123895760405162461bcd60e51b815260206004820181815283516024840152835190928392604490910191908501908083836000831561091e578181015183820152602001610906565b5061239381613270565b60338054610100600160a81b0319166101006001600160a01b038416908102919091179091556040517fd0e77a42021adb46a85dc0dbcdd75417f2042ed5c51474cb43a25ce0f1049a1e90600090a250565b6123ed6131df565b6123f561359b565b336001600160a01b038316148061241b575060335461010090046001600160a01b031633145b6040518060600160405280603981526020016143ed60399139906124805760405162461bcd60e51b815260206004820181815283516024840152835190928392604490910191908501908083836000831561091e578181015183820152602001610906565b506001600160a01b038083166000908152604160209081526040808320938516835292905220546124e25760405162461bcd60e51b81526004018080602001828103825260238152602001806142a26023913960400191505060405180910390fd5b6001600160a01b038083166000908152604160209081526040808320938516835292905220544310156125465760405162461bcd60e51b815260040180806020018281038252602781526020018061466a6027913960400191505060405180910390fd5b603b546001600160a01b038084166000908152604160209081526040808320938616835292905220540143106125ad5760405162461bcd60e51b815260040180806020018281038252603a815260200180614630603a913960400191505060405180910390fd5b6001600160a01b038082166000818152603e60209081526040808320878616808552925280832054603454825163666cc1c560e11b8152600481019490945260248401959095526044830181905290519094939093169263ccd9838a9260648084019391929182900301818387803b15801561262857600080fd5b505af115801561263c573d6000803e3d6000fd5b5050506001600160a01b0384166000908152603d60205260409020546126d0915083908590612671908563ffffffff6138c416565b6001600160a01b038087166000908152603e60209081526040808320938b16835292905220546126a7908663ffffffff6138c416565b6001600160a01b0387166000908152603f6020526040902054610cf7908763ffffffff6138c416565b6126d98261394f565b801561270157506001600160a01b038281166000908152604060208190529020548116908416145b15612752576001600160a01b038083166000908152604060208181528183206001908101549488168452603d909152912001546127499185916115249163ffffffff6138c416565b61275282613941565b61275c8383613a13565b6001600160a01b0380841660008181526041602090815260408083209487168084529490915280822082905551849392917f912ca4f48e16ea4ec940ef9071c9cc3eb57f01c07e052b1f797caaade6504f8b91a4505050565b6127bd6131df565b603360019054906101000a90046001600160a01b03166001600160a01b0316336001600160a01b0316146040518060600160405280603581526020016146f4603591399061284c5760405162461bcd60e51b815260206004820181815283516024840152835190928392604490910191908501908083836000831561091e578181015183820152602001610906565b506128568161333d565b60405181907fcb0491a1854ba445c5afa53dcbe6d6224e52d99cb73840cb58b0c5b79cd434bf90600090a250565b61288c6131df565b61289461359b565b61289c6135e4565b6128a461362b565b6035546001600160a01b03166000808080806128c08688613b42565b9450945094509450945081600014156128de57505050505050611c97565b6000612951888585858b6001600160a01b0316636c75fdf36040518163ffffffff1660e01b815260040160206040518083038186803b15801561292057600080fd5b505afa158015612934573d6000803e3d6000fd5b505050506040513d602081101561294a57600080fd5b5051613e55565b6001600160a01b0389166000908152603d602052604090205490915061297d908263ffffffff61378116565b6001600160a01b0389166000908152603d60205260408120919091556129a9848363ffffffff6138c416565b905060006129bd878363ffffffff61378116565b6001600160a01b038b166000908152603d60205260409020549091506129ea90829063ffffffff61378116565b8814612a275760405162461bcd60e51b815260040180806020018281038252602d815260200180614797602d913960400191505060405180910390fd5b886001600160a01b031663b90bc8528b836040518363ffffffff1660e01b815260040180836001600160a01b03166001600160a01b0316815260200182815260200192505050600060405180830381600087803b158015612a8757600080fd5b505af1158015612a9b573d6000803e3d6000fd5b5050505050505050505050505050565b612ab36131df565b603360019054906101000a90046001600160a01b03166001600160a01b0316336001600160a01b0316146040518060600160405280603581526020016146f46035913990612b425760405162461bcd60e51b815260206004820181815283516024840152835190928392604490910191908501908083836000831561091e578181015183820152602001610906565b50603480546001600160a01b0319166001600160a01b0383169081179091556040517f8ae96d8af35324a34b19e4f33e72d620b502f69595bb43870ab5fd7a7de7823990600090a250565b612b956131df565b603360019054906101000a90046001600160a01b03166001600160a01b0316336001600160a01b0316146040518060600160405280603581526020016146f46035913990612c245760405162461bcd60e51b815260206004820181815283516024840152835190928392604490910191908501908083836000831561091e578181015183820152602001610906565b50612c2e8161346c565b60405181907f6e9686f24e1165005f49d9abb260eb40aed402da21db4894ebd3895a6519a45490600090a250565b6000612c666131df565b612c6e61359b565b612c766135e4565b612c7e61362b565b33612c888161394f565b612cc35760405162461bcd60e51b81526004018080602001828103825260288152602001806143c56028913960400191505060405180910390fd5b6001600160a01b038116600090815260406020819052902060020154431015612d1d5760405162461bcd60e51b815260040180806020018281038252602781526020018061466a6027913960400191505060405180910390fd5b6001600160a01b03808216600090815260406020819052902054612d419116613672565b15612d7d5760405162461bcd60e51b815260040180806020018281038252603e81526020018061447a603e913960400191505060405180910390fd5b6001600160a01b038082166000818152604060208190528082208054600190910154603454835163666cc1c560e11b81529287166004840181905260248401969096526044830182905292519495909492169263ccd9838a9260648084019382900301818387803b158015612df157600080fd5b505af1158015612e05573d6000803e3d6000fd5b5050506001600160a01b0383166000908152603d6020526040902054612e99915084908490612e3a908563ffffffff6138c416565b6001600160a01b038088166000908152603e60209081526040808320938a1683529290522054612e70908663ffffffff6138c416565b6001600160a01b0388166000908152603f6020526040902054610cf7908763ffffffff6138c416565b6039546001600160a01b038085166000908152603e602090815260408083209387168352929052205410801590612eff57506001600160a01b038083166000818152604260209081526040808320549488168352603e8252808320938352929052205410155b80612f2d57506001600160a01b038084166000908152603e6020908152604080832093861683529290522054155b6040518060600160405280603381526020016144266033913990612f925760405162461bcd60e51b815260206004820181815283516024840152835190928392604490910191908501908083836000831561091e578181015183820152602001610906565b506001600160a01b038084166000908152603e6020908152604080832093861683529290522054612fc757612fc78284613a13565b6001600160a01b0382166000908152603d6020526040902060010154612ff9908390611524908463ffffffff6138c416565b61300283613941565b80826001600160a01b0316846001600160a01b03167fdf026d8db1c407002e7abde612fb40b6031db7aa35d4b3b699d07627f891e63160405160405180910390a460355460408051631e4e7d3560e31b81526001600160a01b0385811660048301529151600093929092169163f273e9a89160248082019260c092909190829003018186803b15801561309457600080fd5b505afa1580156130a8573d6000803e3d6000fd5b505050506040513d60c08110156130be57600080fd5b505160355460408051635c85e42960e11b81526001600160a01b03878116600483015260248201859052915193945091169163b90bc8529160448082019260009290919082900301818387803b15801561311757600080fd5b505af115801561312b573d6000803e3d6000fd5b5050506001600160a01b039485166000908152603e60209081526040808320969097168252949094525050502054905090565b60606131686131df565b6001600160a01b0382166000908152603d6020908152604091829020600201805483518184028101840190945280845290918301828280156131d357602002820191906000526020600020905b81546001600160a01b031681526001909101906020018083116131b5575b50505050509050919050565b6033546040805180820190915260208082527f496e697469616c697a61626c6556323a204e6f7420696e697469616c697a6564908201529060ff161515600114611c975760405162461bcd60e51b815260206004820181815283516024840152835190928392604490910191908501908083836000831561091e578181015183820152602001610906565b303b1590565b806001600160a01b0316630ea773076040518163ffffffff1660e01b815260040160206040518083038186803b1580156132a957600080fd5b505afa1580156132bd573d6000803e3d6000fd5b505050506040513d60208110156132d357600080fd5b505115156001146133155760405162461bcd60e51b81526004018080602001828103825260468152602001806144b86046913960600191505060405180910390fd5b603380546001600160a01b0390921661010002610100600160a81b0319909216919091179055565b6000603360019054906101000a90046001600160a01b03169050806001600160a01b031663062888856040518163ffffffff1660e01b815260040160206040518083038186803b15801561339057600080fd5b505afa1580156133a4573d6000803e3d6000fd5b505050506040513d60208110156133ba57600080fd5b505160408051633ecc6a4360e01b815290516001600160a01b03841691633ecc6a43916004808301926020929190829003018186803b1580156133fc57600080fd5b505afa158015613410573d6000803e3d6000fd5b505050506040513d602081101561342657600080fd5b50510182116134665760405162461bcd60e51b81526004018080602001828103825260708152602001806147c46070913960800191505060405180910390fd5b50603755565b6000603360019054906101000a90046001600160a01b03169050806001600160a01b031663062888856040518163ffffffff1660e01b815260040160206040518083038186803b1580156134bf57600080fd5b505afa1580156134d3573d6000803e3d6000fd5b505050506040513d60208110156134e957600080fd5b505160408051633ecc6a4360e01b815290516001600160a01b03841691633ecc6a43916004808301926020929190829003018186803b15801561352b57600080fd5b505afa15801561353f573d6000803e3d6000fd5b505050506040513d602081101561355557600080fd5b50510182116135955760405162461bcd60e51b81526004018080602001828103825260758152602001806141ef6075913960800191505060405180910390fd5b50603a55565b6034546001600160a01b03166135e25760405162461bcd60e51b815260040180806020018281038252602a8152602001806142f5602a913960400191505060405180910390fd5b565b6035546001600160a01b03166135e25760405162461bcd60e51b81526004018080602001828103825260398152602001806143656039913960400191505060405180910390fd5b6036546001600160a01b03166135e25760405162461bcd60e51b81526004018080602001828103825260308152602001806147676030913960400191505060405180910390fd5b6036546040805163d017f48360e01b81526001600160a01b03848116600483015291516000939290921691829163d017f483916024808301926020929190829003018186803b1580156136c457600080fd5b505afa1580156136d8573d6000803e3d6000fd5b505050506040513d60208110156136ee57600080fd5b50519392505050565b6000805b6001600160a01b0383166000908152603d6020526040902060020154811015613777576001600160a01b038381166000908152603d602052604090206002018054918616918390811061374a57fe5b6000918252602090912001546001600160a01b0316141561376f576001915050610e98565b6001016136fb565b5060009392505050565b6000828201838110156137db576040805162461bcd60e51b815260206004820152601b60248201527f536166654d6174683a206164646974696f6e206f766572666c6f770000000000604482015290519081900360640190fd5b9392505050565b6001600160a01b038085166000818152603d602090815260408083208890559389168252603e815283822092825291909152208290556138228582613906565b5050505050565b60008261383857506000610e98565b8282028284828161384557fe5b04146137db5760405162461bcd60e51b81526004018080602001828103825260218152602001806144596021913960400191505060405180910390fd5b60006137db83836040518060400160405280601a81526020017f536166654d6174683a206469766973696f6e206279207a65726f00000000000081525061409c565b60006137db83836040518060400160405280601e81526020017f536166654d6174683a207375627472616374696f6e206f766572666c6f770000815250614101565b6001600160a01b039091166000908152603f6020526040902055565b6001600160a01b039091166000908152603d6020526040902060010155565b611c978160008060006139bb565b6001600160a01b0381166000908152604060208190528120600201541580159061399357506001600160a01b03821660009081526040602081905290206001015415155b8015610e985750506001600160a01b0390811660009081526040602081905290205416151590565b604080516060810182526001600160a01b03948516815260208082019485528183019384529585166000908152958290529420935184546001600160a01b031916931692909217835551600183015551600290910155565b60005b6001600160a01b0383166000908152603d6020526040902060020154811015613b3d576001600160a01b038381166000908152603d6020526040902060020180549184169183908110613a6557fe5b6000918252602090912001546001600160a01b03161415613b35576001600160a01b0383166000908152603d6020526040902060020180546000198101908110613aab57fe5b60009182526020808320909101546001600160a01b038681168452603d9092526040909220600201805491909216919083908110613ae557fe5b600091825260208083209190910180546001600160a01b0319166001600160a01b039485161790559185168152603d90915260409020600201805490613b2f906000198301614185565b50613b3d565b600101613a16565b505050565b600080600080600080876001600160a01b031663ff653c8a886040518263ffffffff1660e01b815260040180826001600160a01b03166001600160a01b03168152602001915050604080518083038186803b158015613ba057600080fd5b505afa158015613bb4573d6000803e3d6000fd5b505050506040513d6040811015613bca57600080fd5b50516001600160a01b0388166000908152603d602052604081206001015491925090613bfc908363ffffffff61378116565b60365460408051631bff085760e21b81526001600160a01b038c811660048301526024820185905291519394506000939190921691636ffc215c91604480830192602092919082900301818787803b158015613c5757600080fd5b505af1158015613c6b573d6000803e3d6000fd5b505050506040513d6020811015613c8157600080fd5b505160345460408051634b341aed60e01b81526001600160a01b038d811660048301529151939450911691634b341aed91602480820192602092909190829003018186803b158015613cd257600080fd5b505afa158015613ce6573d6000803e3d6000fd5b505050506040513d6020811015613cfc57600080fd5b505160408051631e4e7d3560e31b81526001600160a01b038c811660048301529151929a50908c169163f273e9a89160248082019260c092909190829003018186803b158015613d4b57600080fd5b505afa158015613d5f573d6000803e3d6000fd5b505050506040513d60c0811015613d7557600080fd5b5080516020918201516001600160a01b038c166000908152603d90935260408320549199509550613dad90899063ffffffff61378116565b9050613dbf818463ffffffff6138c416565b9650613dd1898263ffffffff6138c416565b8214613e0e5760405162461bcd60e51b815260040180806020018281038252602781526020018061439e6027913960400191505060405180910390fd5b88868b6001600160a01b03167f34fcbac0073d7c3d388e51312faf357774904998eeb8fca628b9e6f65ee1cbf760405160405180910390a450935050509295509295909350565b6000805b6001600160a01b0387166000908152603d6020526040902060020154811015614092576001600160a01b0387166000908152603d60205260408120600201805483908110613ea357fe5b60009182526020808320909101546001600160a01b03908116808452603e835260408085208d84168087529085528186205483875294829052942054909450919291161415613f1c576001600160a01b038216600090815260406020819052902060010154613f1990829063ffffffff6138c416565b90505b6000613f328961138d848b63ffffffff61382916565b90506000613f69613f498b8963ffffffff61382916565b61138d8a613f5d878e63ffffffff61382916565b9063ffffffff61382916565b9050613fd5613f7e838363ffffffff6138c416565b603e6000876001600160a01b03166001600160a01b0316815260200190815260200160002060008e6001600160a01b03166001600160a01b031681526020019081526020016000205461378190919063ffffffff16565b603e6000866001600160a01b03166001600160a01b0316815260200190815260200160002060008d6001600160a01b03166001600160a01b03168152602001908152602001600020819055506140608461149061403b84866138c490919063ffffffff16565b6001600160a01b0388166000908152603f60205260409020549063ffffffff61378116565b614080614073838363ffffffff6138c416565b879063ffffffff61378116565b95505060019093019250613e59915050565b5095945050505050565b600081836140eb5760405162461bcd60e51b815260206004820181815283516024840152835190928392604490910191908501908083836000831561091e578181015183820152602001610906565b5060008385816140f757fe5b0495945050505050565b600081848411156141535760405162461bcd60e51b815260206004820181815283516024840152835190928392604490910191908501908083836000831561091e578181015183820152602001610906565b505050900390565b604051806060016040528060006001600160a01b0316815260200160008152602001600081525090565b815481835581811115613b3d57600083815260209020613b3d91810190830161075591905b808211156141be57600081556001016141aa565b509056fe44656c65676174654d616e616765723a204d6178696d756d2064656c656761746f727320657863656564656444656c65676174654d616e616765723a2072656d6f766544656c656761746f724c6f636b75704475726174696f6e206475726174696f6e206d7573742062652067726561746572207468616e20676f7665726e616e636520766f74696e67506572696f64202b20657865637574696f6e44656c617944656c65676174654d616e616765723a2044656c65676174696f6e206e6f74207065726d697474656420666f722053502070656e64696e6720636c61696d44656c65676174654d616e616765723a204e6f2070656e64696e67207265717565737444656c65676174654d616e616765723a2044656c656761746f72206d757374206265207374616b656420666f7220535044656c65676174654d616e616765723a207374616b696e6741646472657373206973206e6f742073657444656c65676174654d616e616765723a20556e64656c65676174652072657175657374206e6f74207065726d697474656420666f722053502070656e64696e6720636c61696d44656c65676174654d616e616765723a207365727669636550726f7669646572466163746f727941646472657373206973206e6f742073657444656c65676174654d616e616765723a2052657761726420616d6f756e74206d69736d6174636844656c65676174654d616e616765723a2050656e64696e67206c6f636b757020657870656374656444656c65676174654d616e616765723a204f6e6c792063616c6c61626c6520627920746172676574205350206f7220676f7665726e616e636544656c65676174654d616e616765723a204d696e696d756d2064656c65676174696f6e20616d6f756e74207265717569726564536166654d6174683a206d756c7469706c69636174696f6e206f766572666c6f7744656c65676174654d616e616765723a20556e64656c6567617465206e6f74207065726d697474656420666f722053502070656e64696e6720636c61696d44656c65676174654d616e616765723a205f676f7665726e616e636541646472657373206973206e6f7420612076616c696420676f7665726e616e636520636f6e747261637444656c65676174654d616e616765723a20536572766963652050726f7669646572207374616b65207265717569726564436f6e747261637420696e7374616e63652068617320616c7265616479206265656e20696e697469616c697a656444656c65676174654d616e616765723a2052657175657374656420756e64656c6567617465207374616b6520616d6f756e74206d7573742062652067726561746572207468616e207a65726f44656c65676174654d616e616765723a2050656e64696e672072656d6f76652064656c656761746f72207265717565737444656c65676174654d616e616765723a2043616e6e6f742064656372656173652067726561746572207468616e2063757272656e746c79207374616b656420666f722074686973205365727669636550726f766964657244656c65676174654d616e616765723a2052656d6f766544656c656761746f72206576616c756174696f6e2077696e646f77206578706972656444656c65676174654d616e616765723a204c6f636b7570206d757374206265206578706972656444656c65676174654d616e616765723a204f6e6c792063616c6c61626c652062792076616c696420536572766963652050726f766964657244656c65676174654d616e616765723a204e6f2070656e64696e67206c6f636b757020657870656374656444656c65676174654d616e616765723a204f6e6c792063616c6c61626c6520627920476f7665726e616e636520636f6e747261637444656c65676174654d616e616765723a2043616e6e6f7420736c617368206d6f7265207468616e20746f74616c2063757272656e746c79207374616b656444656c65676174654d616e616765723a20636c61696d734d616e6167657241646472657373206973206e6f742073657444656c65676174654d616e616765723a20636c61696d5265776172647320616d6f756e74206d69736d6174636844656c65676174654d616e616765723a20756e64656c65676174654c6f636b75704475726174696f6e206475726174696f6e206d7573742062652067726561746572207468616e20676f7665726e616e636520766f74696e67506572696f64202b20657865637574696f6e44656c6179a265627a7a72315820eb7c536e7c52a8e458d03d1883555facbfd3a61ea46402892162ac1807eedf4d64736f6c63430005110032",
  "source": "pragma solidity ^0.5.0;\n\nimport \"@openzeppelin/contracts-ethereum-package/contracts/token/ERC20/ERC20Mintable.sol\";\nimport \"@openzeppelin/contracts-ethereum-package/contracts/token/ERC20/ERC20.sol\";\n/// @notice SafeMath imported via ServiceProviderFactory.sol\n/// @notice Governance imported via Staking.sol\n\nimport \"./Staking.sol\";\nimport \"./ServiceProviderFactory.sol\";\nimport \"./ClaimsManager.sol\";\n\n\n/**\n * Designed to manage delegation to staking contract\n */\ncontract DelegateManagerV2 is InitializableV2 {\n    using SafeMath for uint256;\n\n    string private constant ERROR_ONLY_GOVERNANCE = (\n        \"DelegateManager: Only callable by Governance contract\"\n    );\n    string private constant ERROR_MINIMUM_DELEGATION = (\n        \"DelegateManager: Minimum delegation amount required\"\n    );\n    string private constant ERROR_ONLY_SP_GOVERNANCE = (\n        \"DelegateManager: Only callable by target SP or governance\"\n    );\n    string private constant ERROR_DELEGATOR_STAKE = (\n        \"DelegateManager: Delegator must be staked for SP\"\n    );\n\n    address private governanceAddress;\n    address private stakingAddress;\n    address private serviceProviderFactoryAddress;\n    address private claimsManagerAddress;\n\n    /**\n     * Period in  blocks an undelegate operation is delayed.\n     * The undelegate operation speed bump is to prevent a delegator from\n     *      attempting to remove their delegation in anticipation of a slash.\n     * @notice Must be greater than governance votingPeriod + executionDelay\n     */\n    uint256 private undelegateLockupDuration;\n\n    /// @notice Maximum number of delegators a single account can handle\n    uint256 private maxDelegators;\n\n    /// @notice Minimum amount of delegation allowed\n    uint256 private minDelegationAmount;\n\n    /**\n     * Lockup duration for a remove delegator request.\n     * The remove delegator speed bump is to prevent a service provider from maliciously\n     *     removing a delegator prior to the evaluation of a proposal.\n     * @notice Must be greater than governance votingPeriod + executionDelay\n     */\n    uint256 private removeDelegatorLockupDuration;\n\n    /**\n     * Evaluation period for a remove delegator request\n     * @notice added to expiry block calculated for removeDelegatorLockupDuration\n     */\n    uint256 private removeDelegatorEvalDuration;\n\n    // Staking contract ref\n    ERC20Mintable private audiusToken;\n\n    // Struct representing total delegated to SP and list of delegators\n    struct ServiceProviderDelegateInfo {\n        uint256 totalDelegatedStake;\n        uint256 totalLockedUpStake;\n        address[] delegators;\n    }\n\n    // Data structures for lockup during withdrawal\n    struct UndelegateStakeRequest {\n        address serviceProvider;\n        uint256 amount;\n        uint256 lockupExpiryBlock;\n    }\n\n    // Service provider address -> ServiceProviderDelegateInfo\n    mapping (address => ServiceProviderDelegateInfo) private spDelegateInfo;\n\n    // Delegator stake by address delegated to\n    // delegator -> (service provider -> delegatedStake)\n    mapping (address => mapping(address => uint256)) private delegateInfo;\n\n    // Delegator stake total by address\n    // delegator -> (totalDelegated)\n    // Note - delegator properties are maintained in a mapping instead of struct\n    // in order to facilitate extensibility in the future.\n    mapping (address => uint256) private delegatorTotalStake;\n\n    // Requester to pending undelegate request\n    mapping (address => UndelegateStakeRequest) private undelegateRequests;\n\n    // Pending remove delegator requests\n    // service provider -> (delegator -> lockupExpiryBlock)\n    mapping (address => mapping (address => uint256)) private removeDelegatorRequests;\n\n    event IncreaseDelegatedStake(\n        address indexed _delegator,\n        address indexed _serviceProvider,\n        uint256 indexed _increaseAmount\n    );\n\n    event UndelegateStakeRequested(\n        address indexed _delegator,\n        address indexed _serviceProvider,\n        uint256 indexed _amount,\n        uint256 _lockupExpiryBlock\n    );\n\n    event UndelegateStakeRequestCancelled(\n        address indexed _delegator,\n        address indexed _serviceProvider,\n        uint256 indexed _amount\n    );\n\n    event UndelegateStakeRequestEvaluated(\n        address indexed _delegator,\n        address indexed _serviceProvider,\n        uint256 indexed _amount\n    );\n\n    event Claim(\n        address indexed _claimer,\n        uint256 indexed _rewards,\n        uint256 indexed _newTotal\n    );\n\n    event Slash(\n        address indexed _target,\n        uint256 indexed _amount,\n        uint256 indexed _newTotal\n    );\n\n    event RemoveDelegatorRequested(\n        address indexed _serviceProvider,\n        address indexed _delegator,\n        uint256 indexed _lockupExpiryBlock\n    );\n\n    event RemoveDelegatorRequestCancelled(\n        address indexed _serviceProvider,\n        address indexed _delegator\n    );\n\n    event RemoveDelegatorRequestEvaluated(\n        address indexed _serviceProvider,\n        address indexed _delegator,\n        uint256 indexed _unstakedAmount\n    );\n\n    event MaxDelegatorsUpdated(uint256 indexed _maxDelegators);\n    event MinDelegationUpdated(uint256 indexed _minDelegationAmount);\n    event UndelegateLockupDurationUpdated(uint256 indexed _undelegateLockupDuration);\n    event GovernanceAddressUpdated(address indexed _newGovernanceAddress);\n    event StakingAddressUpdated(address indexed _newStakingAddress);\n    event ServiceProviderFactoryAddressUpdated(address indexed _newServiceProviderFactoryAddress);\n    event ClaimsManagerAddressUpdated(address indexed _newClaimsManagerAddress);\n    event RemoveDelegatorLockupDurationUpdated(uint256 indexed _removeDelegatorLockupDuration);\n    event RemoveDelegatorEvalDurationUpdated(uint256 indexed _removeDelegatorEvalDuration);\n\n    // ========================================= New State Variables =========================================\n\n    string private constant ERROR_ONLY_SERVICE_PROVIDER = (\n        \"DelegateManager: Only callable by valid Service Provider\"\n    );\n\n    // minDelegationAmount per service provider\n    mapping (address => uint256) private spMinDelegationAmounts;\n\n    event SPMinDelegationAmountUpdated(\n        address indexed _serviceProvider,\n        uint256 indexed _spMinDelegationAmount\n    );\n\n    // ========================================= Modifier Functions =========================================\n\n    /**\n     * @notice Function to initialize the contract\n     * @dev stakingAddress must be initialized separately after Staking contract is deployed\n     * @dev serviceProviderFactoryAddress must be initialized separately after ServiceProviderFactory contract is deployed\n     * @dev claimsManagerAddress must be initialized separately after ClaimsManager contract is deployed\n     * @param _tokenAddress - address of ERC20 token that will be claimed\n     * @param _governanceAddress - Governance proxy address\n     */\n    function initialize (\n        address _tokenAddress,\n        address _governanceAddress,\n        uint256 _undelegateLockupDuration\n    ) public initializer\n    {\n        _updateGovernanceAddress(_governanceAddress);\n        audiusToken = ERC20Mintable(_tokenAddress);\n        maxDelegators = 175;\n        // Default minimum delegation amount set to 100AUD\n        minDelegationAmount = 100 * 10**uint256(18);\n        InitializableV2.initialize();\n\n        _updateUndelegateLockupDuration(_undelegateLockupDuration);\n\n        // 1 week = 168hrs * 60 min/hr * 60 sec/min / ~13 sec/block = 46523 blocks\n        _updateRemoveDelegatorLockupDuration(46523);\n\n        // 24hr * 60min/hr * 60sec/min / ~13 sec/block = 6646 blocks\n        removeDelegatorEvalDuration = 6646;\n    }\n\n    /**\n     * @notice Allow a delegator to delegate stake to a service provider\n     * @param _targetSP - address of service provider to delegate to\n     * @param _amount - amount in wei to delegate\n     * @return Updated total amount delegated to the service provider by delegator\n     */\n    function delegateStake(\n        address _targetSP,\n        uint256 _amount\n    ) external returns (uint256)\n    {\n        _requireIsInitialized();\n        _requireStakingAddressIsSet();\n        _requireServiceProviderFactoryAddressIsSet();\n        _requireClaimsManagerAddressIsSet();\n\n        require(\n            !_claimPending(_targetSP),\n            \"DelegateManager: Delegation not permitted for SP pending claim\"\n        );\n        address delegator = msg.sender;\n        Staking stakingContract = Staking(stakingAddress);\n\n        // Stake on behalf of target service provider\n        stakingContract.delegateStakeFor(\n            _targetSP,\n            delegator,\n            _amount\n        );\n\n        // Update list of delegators to SP if necessary\n        if (!_delegatorExistsForSP(delegator, _targetSP)) {\n            // If not found, update list of delegates\n            spDelegateInfo[_targetSP].delegators.push(delegator);\n            require(\n                spDelegateInfo[_targetSP].delegators.length <= maxDelegators,\n                \"DelegateManager: Maximum delegators exceeded\"\n            );\n        }\n\n        // Update following values in storage through helper\n        // totalServiceProviderDelegatedStake = current sp total + new amount,\n        // totalStakedForSpFromDelegator = current delegator total for sp + new amount,\n        // totalDelegatorStake = current delegator total + new amount\n        _updateDelegatorStake(\n            delegator,\n            _targetSP,\n            spDelegateInfo[_targetSP].totalDelegatedStake.add(_amount),\n            delegateInfo[delegator][_targetSP].add(_amount),\n            delegatorTotalStake[delegator].add(_amount)\n        );\n\n        // Need to ensure delegationAmount is >= both minDelegationAmount and spMinDelegationAmount\n        //  since spMinDelegationAmount by default is 0\n        require(\n            (delegateInfo[delegator][_targetSP] >= minDelegationAmount &&\n             delegateInfo[delegator][_targetSP] >= spMinDelegationAmounts[_targetSP]\n            ),\n            ERROR_MINIMUM_DELEGATION\n        );\n\n        // Validate balance\n        ServiceProviderFactory(\n            serviceProviderFactoryAddress\n        ).validateAccountStakeBalance(_targetSP);\n\n        emit IncreaseDelegatedStake(\n            delegator,\n            _targetSP,\n            _amount\n        );\n\n        // Return new total\n        return delegateInfo[delegator][_targetSP];\n    }\n\n    /**\n     * @notice Submit request for undelegation\n     * @param _target - address of service provider to undelegate stake from\n     * @param _amount - amount in wei to undelegate\n     * @return Updated total amount delegated to the service provider by delegator\n     */\n    function requestUndelegateStake(\n        address _target,\n        uint256 _amount\n    ) external returns (uint256)\n    {\n        _requireIsInitialized();\n        _requireClaimsManagerAddressIsSet();\n\n        require(\n            _amount > 0,\n            \"DelegateManager: Requested undelegate stake amount must be greater than zero\"\n        );\n        require(\n            !_claimPending(_target),\n            \"DelegateManager: Undelegate request not permitted for SP pending claim\"\n        );\n        address delegator = msg.sender;\n        require(\n            _delegatorExistsForSP(delegator, _target),\n            ERROR_DELEGATOR_STAKE\n        );\n\n        // Confirm no pending delegation request\n        require(\n            !_undelegateRequestIsPending(delegator),\n            \"DelegateManager: No pending lockup expected\"\n        );\n\n        // Ensure valid bounds\n        uint256 currentlyDelegatedToSP = delegateInfo[delegator][_target];\n        require(\n            _amount <= currentlyDelegatedToSP,\n            \"DelegateManager: Cannot decrease greater than currently staked for this ServiceProvider\"\n        );\n\n        // Submit updated request for sender, with target sp, undelegate amount, target expiry block\n        uint256 lockupExpiryBlock = block.number.add(undelegateLockupDuration);\n        _updateUndelegateStakeRequest(\n            delegator,\n            _target,\n            _amount,\n            lockupExpiryBlock\n        );\n        // Update total locked for this service provider, increasing by unstake amount\n        _updateServiceProviderLockupAmount(\n            _target,\n            spDelegateInfo[_target].totalLockedUpStake.add(_amount)\n        );\n\n        emit UndelegateStakeRequested(delegator, _target, _amount, lockupExpiryBlock);\n        return delegateInfo[delegator][_target].sub(_amount);\n    }\n\n    /**\n     * @notice Cancel undelegation request\n     */\n    function cancelUndelegateStakeRequest() external {\n        _requireIsInitialized();\n\n        address delegator = msg.sender;\n        // Confirm pending delegation request\n        require(\n            _undelegateRequestIsPending(delegator),\n            \"DelegateManager: Pending lockup expected\"\n        );\n        uint256 unstakeAmount = undelegateRequests[delegator].amount;\n        address unlockFundsSP = undelegateRequests[delegator].serviceProvider;\n        // Update total locked for this service provider, decreasing by unstake amount\n        _updateServiceProviderLockupAmount(\n            unlockFundsSP,\n            spDelegateInfo[unlockFundsSP].totalLockedUpStake.sub(unstakeAmount)\n        );\n        // Remove pending request\n        _resetUndelegateStakeRequest(delegator);\n        emit UndelegateStakeRequestCancelled(delegator, unlockFundsSP, unstakeAmount);\n    }\n\n    /**\n     * @notice Finalize undelegation request and withdraw stake\n     * @return New total amount currently staked after stake has been undelegated\n     */\n    function undelegateStake() external returns (uint256) {\n        _requireIsInitialized();\n        _requireStakingAddressIsSet();\n        _requireServiceProviderFactoryAddressIsSet();\n        _requireClaimsManagerAddressIsSet();\n\n        address delegator = msg.sender;\n\n        // Confirm pending delegation request\n        require(\n            _undelegateRequestIsPending(delegator),\n            \"DelegateManager: Pending lockup expected\"\n        );\n\n        // Confirm lockup expiry has expired\n        require(\n            undelegateRequests[delegator].lockupExpiryBlock <= block.number,\n            \"DelegateManager: Lockup must be expired\"\n        );\n\n        // Confirm no pending claim for this service provider\n        require(\n            !_claimPending(undelegateRequests[delegator].serviceProvider),\n            \"DelegateManager: Undelegate not permitted for SP pending claim\"\n        );\n\n        address serviceProvider = undelegateRequests[delegator].serviceProvider;\n        uint256 unstakeAmount = undelegateRequests[delegator].amount;\n\n        // Unstake on behalf of target service provider\n        Staking(stakingAddress).undelegateStakeFor(\n            serviceProvider,\n            delegator,\n            unstakeAmount\n        );\n\n        // Update total delegated for SP\n        // totalServiceProviderDelegatedStake - total amount delegated to service provider\n        // totalStakedForSpFromDelegator - amount staked from this delegator to targeted service provider\n        _updateDelegatorStake(\n            delegator,\n            serviceProvider,\n            spDelegateInfo[serviceProvider].totalDelegatedStake.sub(unstakeAmount),\n            delegateInfo[delegator][serviceProvider].sub(unstakeAmount),\n            delegatorTotalStake[delegator].sub(unstakeAmount)\n        );\n\n        // Need to ensure delegationAmount is >= both minDelegationAmount and spMinDelegationAmount\n        //  since spMinDelegationAmount by default is 0\n        // Only exception is when delegating entire stake down to 0\n        require(\n            (\n                delegateInfo[delegator][serviceProvider] >= minDelegationAmount &&\n                delegateInfo[delegator][serviceProvider] >= spMinDelegationAmounts[serviceProvider]\n            ) || delegateInfo[delegator][serviceProvider] == 0,\n            ERROR_MINIMUM_DELEGATION\n        );\n\n        // Remove from delegators list if no delegated stake remaining\n        if (delegateInfo[delegator][serviceProvider] == 0) {\n            _removeFromDelegatorsList(serviceProvider, delegator);\n        }\n\n        // Update total locked for this service provider, decreasing by unstake amount\n        _updateServiceProviderLockupAmount(\n            serviceProvider,\n            spDelegateInfo[serviceProvider].totalLockedUpStake.sub(unstakeAmount)\n        );\n        // Reset undelegate request\n        _resetUndelegateStakeRequest(delegator);\n\n        emit UndelegateStakeRequestEvaluated(\n            delegator,\n            serviceProvider,\n            unstakeAmount\n        );\n\n        // Need to update service provider's `validBounds` flag\n        //  Only way to do this is through `SPFactory.updateServiceProviderStake()`\n        //  So we call it with the existing `spDeployerStake`\n        (uint256 spDeployerStake,,,,,) = (\n            ServiceProviderFactory(serviceProviderFactoryAddress).getServiceProviderDetails(serviceProvider)\n        );\n        ServiceProviderFactory(serviceProviderFactoryAddress).updateServiceProviderStake(\n            serviceProvider, spDeployerStake\n        );\n\n        // Return new total\n        return delegateInfo[delegator][serviceProvider];\n    }\n\n    /**\n     * @notice Claim and distribute rewards to delegators and service provider as necessary\n     * @param _serviceProvider - Provider for which rewards are being distributed\n     * @dev Factors in service provider rewards from delegator and transfers deployer cut\n     */\n    function claimRewards(address _serviceProvider) external {\n        _requireIsInitialized();\n        _requireStakingAddressIsSet();\n        _requireServiceProviderFactoryAddressIsSet();\n        _requireClaimsManagerAddressIsSet();\n\n        ServiceProviderFactory spFactory = ServiceProviderFactory(serviceProviderFactoryAddress);\n\n        // Total rewards = (balance in staking) - ((balance in sp factory) + (balance in delegate manager))\n        (\n            uint256 totalBalanceInStaking,\n            uint256 totalBalanceInSPFactory,\n            uint256 totalActiveFunds,\n            uint256 totalRewards,\n            uint256 deployerCut\n        ) = _validateClaimRewards(spFactory, _serviceProvider);\n\n        // No-op if balance is already equivalent\n        // This case can occur if no rewards due to bound violation or all stake is locked\n        if (totalRewards == 0) {\n            return;\n        }\n\n        uint256 totalDelegatedStakeIncrease = _distributeDelegateRewards(\n            _serviceProvider,\n            totalActiveFunds,\n            totalRewards,\n            deployerCut,\n            spFactory.getServiceProviderDeployerCutBase()\n        );\n\n        // Update total delegated to this SP\n        spDelegateInfo[_serviceProvider].totalDelegatedStake = (\n            spDelegateInfo[_serviceProvider].totalDelegatedStake.add(totalDelegatedStakeIncrease)\n        );\n\n        // spRewardShare represents rewards directly allocated to service provider for their stake\n        // Value is computed as the remainder of total minted rewards after distribution to\n        // delegators, eliminating any potential for precision loss.\n        uint256 spRewardShare = totalRewards.sub(totalDelegatedStakeIncrease);\n\n        // Adding the newly calculated reward share to current balance\n        uint256 newSPFactoryBalance = totalBalanceInSPFactory.add(spRewardShare);\n\n        require(\n            totalBalanceInStaking == newSPFactoryBalance.add(spDelegateInfo[_serviceProvider].totalDelegatedStake),\n            \"DelegateManager: claimRewards amount mismatch\"\n        );\n\n        spFactory.updateServiceProviderStake(\n            _serviceProvider,\n            newSPFactoryBalance\n        );\n    }\n\n    /**\n     * @notice Reduce current stake amount\n     * @dev Only callable by governance. Slashes service provider and delegators equally\n     * @param _amount - amount in wei to slash\n     * @param _slashAddress - address of service provider to slash\n     */\n    function slash(uint256 _amount, address _slashAddress)\n    external\n    {\n        _requireIsInitialized();\n        _requireStakingAddressIsSet();\n        _requireServiceProviderFactoryAddressIsSet();\n\n        require(msg.sender == governanceAddress, ERROR_ONLY_GOVERNANCE);\n\n        Staking stakingContract = Staking(stakingAddress);\n        ServiceProviderFactory spFactory = ServiceProviderFactory(serviceProviderFactoryAddress);\n\n        // Amount stored in staking contract for owner\n        uint256 totalBalanceInStakingPreSlash = stakingContract.totalStakedFor(_slashAddress);\n        require(\n            (totalBalanceInStakingPreSlash >= _amount),\n            \"DelegateManager: Cannot slash more than total currently staked\"\n        );\n\n        // Cancel any withdrawal request for this service provider\n        (uint256 spLockedStake,) = spFactory.getPendingDecreaseStakeRequest(_slashAddress);\n        if (spLockedStake > 0) {\n            spFactory.cancelDecreaseStakeRequest(_slashAddress);\n        }\n\n        // Amount in sp factory for slash target\n        (uint256 totalBalanceInSPFactory,,,,,) = (\n            spFactory.getServiceProviderDetails(_slashAddress)\n        );\n        require(\n            totalBalanceInSPFactory > 0,\n            \"DelegateManager: Service Provider stake required\"\n        );\n\n        // Decrease value in Staking contract\n        // A value of zero slash will fail in staking, reverting this transaction\n        stakingContract.slash(_amount, _slashAddress);\n        uint256 totalBalanceInStakingAfterSlash = stakingContract.totalStakedFor(_slashAddress);\n\n        // Emit slash event\n        emit Slash(_slashAddress, _amount, totalBalanceInStakingAfterSlash);\n\n        uint256 totalDelegatedStakeDecrease = 0;\n        // For each delegator and deployer, recalculate new value\n        // newStakeAmount = newStakeAmount * (oldStakeAmount / totalBalancePreSlash)\n        for (uint256 i = 0; i < spDelegateInfo[_slashAddress].delegators.length; i++) {\n            address delegator = spDelegateInfo[_slashAddress].delegators[i];\n            uint256 preSlashDelegateStake = delegateInfo[delegator][_slashAddress];\n            uint256 newDelegateStake = (\n             totalBalanceInStakingAfterSlash.mul(preSlashDelegateStake)\n            ).div(totalBalanceInStakingPreSlash);\n            // slashAmountForDelegator = preSlashDelegateStake - newDelegateStake;\n            delegateInfo[delegator][_slashAddress] = (\n                delegateInfo[delegator][_slashAddress].sub(preSlashDelegateStake.sub(newDelegateStake))\n            );\n            // Update total stake for delegator\n            _updateDelegatorTotalStake(\n                delegator,\n                delegatorTotalStake[delegator].sub(preSlashDelegateStake.sub(newDelegateStake))\n            );\n            // Update total decrease amount\n            totalDelegatedStakeDecrease = (\n                totalDelegatedStakeDecrease.add(preSlashDelegateStake.sub(newDelegateStake))\n            );\n            // Check for any locked up funds for this slashed delegator\n            // Slash overrides any pending withdrawal requests\n            if (undelegateRequests[delegator].amount != 0) {\n                address unstakeSP = undelegateRequests[delegator].serviceProvider;\n                uint256 unstakeAmount = undelegateRequests[delegator].amount;\n                // Remove pending request\n                _updateServiceProviderLockupAmount(\n                    unstakeSP,\n                    spDelegateInfo[unstakeSP].totalLockedUpStake.sub(unstakeAmount)\n                );\n                _resetUndelegateStakeRequest(delegator);\n            }\n        }\n\n        // Update total delegated to this SP\n        spDelegateInfo[_slashAddress].totalDelegatedStake = (\n            spDelegateInfo[_slashAddress].totalDelegatedStake.sub(totalDelegatedStakeDecrease)\n        );\n\n        // Remaining decrease applied to service provider\n        uint256 totalStakeDecrease = (\n            totalBalanceInStakingPreSlash.sub(totalBalanceInStakingAfterSlash)\n        );\n        uint256 totalSPFactoryBalanceDecrease = (\n            totalStakeDecrease.sub(totalDelegatedStakeDecrease)\n        );\n        spFactory.updateServiceProviderStake(\n            _slashAddress,\n            totalBalanceInSPFactory.sub(totalSPFactoryBalanceDecrease)\n        );\n    }\n\n    /**\n     * @notice Initiate forcible removal of a delegator\n     * @param _serviceProvider - address of service provider\n     * @param _delegator - address of delegator\n     */\n    function requestRemoveDelegator(address _serviceProvider, address _delegator) external {\n        _requireIsInitialized();\n\n        require(\n            msg.sender == _serviceProvider || msg.sender == governanceAddress,\n            ERROR_ONLY_SP_GOVERNANCE\n        );\n\n        require(\n            removeDelegatorRequests[_serviceProvider][_delegator] == 0,\n            \"DelegateManager: Pending remove delegator request\"\n        );\n\n        require(\n            _delegatorExistsForSP(_delegator, _serviceProvider),\n            ERROR_DELEGATOR_STAKE\n        );\n\n        // Update lockup\n        removeDelegatorRequests[_serviceProvider][_delegator] = (\n            block.number + removeDelegatorLockupDuration\n        );\n\n        emit RemoveDelegatorRequested(\n            _serviceProvider,\n            _delegator,\n            removeDelegatorRequests[_serviceProvider][_delegator]\n        );\n    }\n\n    /**\n     * @notice Cancel pending removeDelegator request\n     * @param _serviceProvider - address of service provider\n     * @param _delegator - address of delegator\n     */\n    function cancelRemoveDelegatorRequest(address _serviceProvider, address _delegator) external {\n        require(\n            msg.sender == _serviceProvider || msg.sender == governanceAddress,\n            ERROR_ONLY_SP_GOVERNANCE\n        );\n        require(\n            removeDelegatorRequests[_serviceProvider][_delegator] != 0,\n            \"DelegateManager: No pending request\"\n        );\n        // Reset lockup expiry\n        removeDelegatorRequests[_serviceProvider][_delegator] = 0;\n        emit RemoveDelegatorRequestCancelled(_serviceProvider, _delegator);\n    }\n\n    /**\n     * @notice Evaluate removeDelegator request\n     * @param _serviceProvider - address of service provider\n     * @param _delegator - address of delegator\n     * @return Updated total amount delegated to the service provider by delegator\n     */\n    function removeDelegator(address _serviceProvider, address _delegator) external {\n        _requireIsInitialized();\n        _requireStakingAddressIsSet();\n\n        require(\n            msg.sender == _serviceProvider || msg.sender == governanceAddress,\n            ERROR_ONLY_SP_GOVERNANCE\n        );\n\n        require(\n            removeDelegatorRequests[_serviceProvider][_delegator] != 0,\n            \"DelegateManager: No pending request\"\n        );\n\n        // Enforce lockup expiry block\n        require(\n            block.number >= removeDelegatorRequests[_serviceProvider][_delegator],\n            \"DelegateManager: Lockup must be expired\"\n        );\n\n        // Enforce evaluation window for request\n        require(\n            block.number < removeDelegatorRequests[_serviceProvider][_delegator] + removeDelegatorEvalDuration,\n            \"DelegateManager: RemoveDelegator evaluation window expired\"\n        );\n\n        uint256 unstakeAmount = delegateInfo[_delegator][_serviceProvider];\n        // Unstake on behalf of target service provider\n        Staking(stakingAddress).undelegateStakeFor(\n            _serviceProvider,\n            _delegator,\n            unstakeAmount\n        );\n        // Update total delegated for SP\n        // totalServiceProviderDelegatedStake - total amount delegated to service provider\n        // totalStakedForSpFromDelegator - amount staked from this delegator to targeted service provider\n        _updateDelegatorStake(\n            _delegator,\n            _serviceProvider,\n            spDelegateInfo[_serviceProvider].totalDelegatedStake.sub(unstakeAmount),\n            delegateInfo[_delegator][_serviceProvider].sub(unstakeAmount),\n            delegatorTotalStake[_delegator].sub(unstakeAmount)\n        );\n\n        if (\n            _undelegateRequestIsPending(_delegator) &&\n            undelegateRequests[_delegator].serviceProvider == _serviceProvider\n        ) {\n            // Remove pending request information\n            _updateServiceProviderLockupAmount(\n                _serviceProvider,\n                spDelegateInfo[_serviceProvider].totalLockedUpStake.sub(undelegateRequests[_delegator].amount)\n            );\n            _resetUndelegateStakeRequest(_delegator);\n        }\n\n        // Remove from list of delegators\n        _removeFromDelegatorsList(_serviceProvider, _delegator);\n\n        // Reset lockup expiry\n        removeDelegatorRequests[_serviceProvider][_delegator] = 0;\n        emit RemoveDelegatorRequestEvaluated(_serviceProvider, _delegator, unstakeAmount);\n    }\n\n    /**\n     * @notice SP can update their minDelegationAmount\n     * @param _serviceProvider - address of service provider\n     * @param _spMinDelegationAmount - new minDelegationAmount for SP\n     * @notice does not enforce _spMinDelegationAmount >= minDelegationAmount since not necessary\n     *      delegateStake() and undelegateStake() always take the max of both already\n     */\n    function updateSPMinDelegationAmount(\n        address _serviceProvider,\n        uint256 _spMinDelegationAmount\n    ) external {\n        _requireIsInitialized();\n\n        require(msg.sender == _serviceProvider, ERROR_ONLY_SERVICE_PROVIDER);\n\n        /**\n         * Ensure _serviceProvider is a valid SP\n         * No objective source of truth, closest heuristic is numEndpoints > 0\n         */\n        (,,, uint256 numEndpoints,,) = (\n            ServiceProviderFactory(serviceProviderFactoryAddress)\n            .getServiceProviderDetails(_serviceProvider)\n        );\n        require(numEndpoints > 0, ERROR_ONLY_SERVICE_PROVIDER);\n\n        spMinDelegationAmounts[_serviceProvider] = _spMinDelegationAmount;\n\n        emit SPMinDelegationAmountUpdated(_serviceProvider, _spMinDelegationAmount);\n    }\n\n    /**\n     * @notice Update duration for undelegate request lockup\n     * @param _duration - new lockup duration\n     */\n    function updateUndelegateLockupDuration(uint256 _duration) external {\n        _requireIsInitialized();\n\n        require(msg.sender == governanceAddress, ERROR_ONLY_GOVERNANCE);\n\n        _updateUndelegateLockupDuration(_duration);\n        emit UndelegateLockupDurationUpdated(_duration);\n    }\n\n    /**\n     * @notice Update maximum delegators allowed\n     * @param _maxDelegators - new max delegators\n     */\n    function updateMaxDelegators(uint256 _maxDelegators) external {\n        _requireIsInitialized();\n\n        require(msg.sender == governanceAddress, ERROR_ONLY_GOVERNANCE);\n\n        maxDelegators = _maxDelegators;\n        emit MaxDelegatorsUpdated(_maxDelegators);\n    }\n\n    /**\n     * @notice Update minimum delegation amount\n     * @param _minDelegationAmount - min new min delegation amount\n     */\n    function updateMinDelegationAmount(uint256 _minDelegationAmount) external {\n        _requireIsInitialized();\n\n        require(msg.sender == governanceAddress, ERROR_ONLY_GOVERNANCE);\n\n        minDelegationAmount = _minDelegationAmount;\n        emit MinDelegationUpdated(_minDelegationAmount);\n    }\n\n    /**\n     * @notice Update remove delegator lockup duration\n     * @param _duration - new lockup duration\n     */\n    function updateRemoveDelegatorLockupDuration(uint256 _duration) external {\n        _requireIsInitialized();\n\n        require(msg.sender == governanceAddress, ERROR_ONLY_GOVERNANCE);\n\n        _updateRemoveDelegatorLockupDuration(_duration);\n        emit RemoveDelegatorLockupDurationUpdated(_duration);\n    }\n\n    /**\n     * @notice Update remove delegator evaluation window duration\n     * @param _duration - new window duration\n     */\n    function updateRemoveDelegatorEvalDuration(uint256 _duration) external {\n        _requireIsInitialized();\n\n        require(msg.sender == governanceAddress, ERROR_ONLY_GOVERNANCE);\n\n        removeDelegatorEvalDuration = _duration;\n        emit RemoveDelegatorEvalDurationUpdated(_duration);\n    }\n\n    /**\n     * @notice Set the Governance address\n     * @dev Only callable by Governance address\n     * @param _governanceAddress - address for new Governance contract\n     */\n    function setGovernanceAddress(address _governanceAddress) external {\n        _requireIsInitialized();\n\n        require(msg.sender == governanceAddress, ERROR_ONLY_GOVERNANCE);\n\n        _updateGovernanceAddress(_governanceAddress);\n        governanceAddress = _governanceAddress;\n        emit GovernanceAddressUpdated(_governanceAddress);\n    }\n\n    /**\n     * @notice Set the Staking address\n     * @dev Only callable by Governance address\n     * @param _stakingAddress - address for new Staking contract\n     */\n    function setStakingAddress(address _stakingAddress) external {\n        _requireIsInitialized();\n\n        require(msg.sender == governanceAddress, ERROR_ONLY_GOVERNANCE);\n        stakingAddress = _stakingAddress;\n        emit StakingAddressUpdated(_stakingAddress);\n    }\n\n    /**\n     * @notice Set the ServiceProviderFactory address\n     * @dev Only callable by Governance address\n     * @param _spFactory - address for new ServiceProviderFactory contract\n     */\n    function setServiceProviderFactoryAddress(address _spFactory) external {\n        _requireIsInitialized();\n\n        require(msg.sender == governanceAddress, ERROR_ONLY_GOVERNANCE);\n        serviceProviderFactoryAddress = _spFactory;\n        emit ServiceProviderFactoryAddressUpdated(_spFactory);\n    }\n\n    /**\n     * @notice Set the ClaimsManager address\n     * @dev Only callable by Governance address\n     * @param _claimsManagerAddress - address for new ClaimsManager contract\n     */\n    function setClaimsManagerAddress(address _claimsManagerAddress) external {\n        _requireIsInitialized();\n\n        require(msg.sender == governanceAddress, ERROR_ONLY_GOVERNANCE);\n        claimsManagerAddress = _claimsManagerAddress;\n        emit ClaimsManagerAddressUpdated(_claimsManagerAddress);\n    }\n\n    // ========================================= View Functions =========================================\n\n    /**\n     * @notice Get list of delegators for a given service provider\n     * @param _sp - service provider address\n     */\n    function getDelegatorsList(address _sp)\n    external view returns (address[] memory)\n    {\n        _requireIsInitialized();\n\n        return spDelegateInfo[_sp].delegators;\n    }\n\n    /**\n     * @notice Get total delegation from a given address\n     * @param _delegator - delegator address\n     */\n    function getTotalDelegatorStake(address _delegator)\n    external view returns (uint256)\n    {\n        _requireIsInitialized();\n\n        return delegatorTotalStake[_delegator];\n    }\n\n    /// @notice Get total amount delegated to a service provider\n    function getTotalDelegatedToServiceProvider(address _sp)\n    external view returns (uint256)\n    {\n        _requireIsInitialized();\n\n        return spDelegateInfo[_sp].totalDelegatedStake;\n    }\n\n    /// @notice Get total delegated stake locked up for a service provider\n    function getTotalLockedDelegationForServiceProvider(address _sp)\n    external view returns (uint256)\n    {\n        _requireIsInitialized();\n\n        return spDelegateInfo[_sp].totalLockedUpStake;\n    }\n\n    /// @notice Get total currently staked for a delegator, for a given service provider\n    function getDelegatorStakeForServiceProvider(address _delegator, address _serviceProvider)\n    external view returns (uint256)\n    {\n        _requireIsInitialized();\n\n        return delegateInfo[_delegator][_serviceProvider];\n    }\n\n    /**\n     * @notice Get status of pending undelegate request for a given address\n     * @param _delegator - address of the delegator\n     */\n    function getPendingUndelegateRequest(address _delegator)\n    external view returns (address target, uint256 amount, uint256 lockupExpiryBlock)\n    {\n        _requireIsInitialized();\n\n        UndelegateStakeRequest memory req = undelegateRequests[_delegator];\n        return (req.serviceProvider, req.amount, req.lockupExpiryBlock);\n    }\n\n    /**\n     * @notice Get status of pending remove delegator request for a given address\n     * @param _serviceProvider - address of the service provider\n     * @param _delegator - address of the delegator\n     * @return - current lockup expiry block for remove delegator request\n     */\n    function getPendingRemoveDelegatorRequest(\n        address _serviceProvider,\n        address _delegator\n    ) external view returns (uint256)\n    {\n        _requireIsInitialized();\n\n        return removeDelegatorRequests[_serviceProvider][_delegator];\n    }\n\n    /**\n     * @notice Get minDelegationAmount for given SP\n     * @param _serviceProvider - address of the service provider\n     * @return - minDelegationAmount for given SP\n     */\n    function getSPMinDelegationAmount(address _serviceProvider) external view returns (uint256) {\n        return spMinDelegationAmounts[_serviceProvider];\n    }\n\n    /// @notice Get current undelegate lockup duration\n    function getUndelegateLockupDuration()\n    external view returns (uint256)\n    {\n        _requireIsInitialized();\n\n        return undelegateLockupDuration;\n    }\n\n    /// @notice Current maximum delegators\n    function getMaxDelegators()\n    external view returns (uint256)\n    {\n        _requireIsInitialized();\n\n        return maxDelegators;\n    }\n\n    /// @notice Get minimum delegation amount\n    function getMinDelegationAmount()\n    external view returns (uint256)\n    {\n        _requireIsInitialized();\n\n        return minDelegationAmount;\n    }\n\n    /// @notice Get the duration for remove delegator request lockup\n    function getRemoveDelegatorLockupDuration()\n    external view returns (uint256)\n    {\n        _requireIsInitialized();\n\n        return removeDelegatorLockupDuration;\n    }\n\n    /// @notice Get the duration for evaluation of remove delegator operations\n    function getRemoveDelegatorEvalDuration()\n    external view returns (uint256)\n    {\n        _requireIsInitialized();\n\n        return removeDelegatorEvalDuration;\n    }\n\n    /// @notice Get the Governance address\n    function getGovernanceAddress() external view returns (address) {\n        _requireIsInitialized();\n\n        return governanceAddress;\n    }\n\n    /// @notice Get the ServiceProviderFactory address\n    function getServiceProviderFactoryAddress() external view returns (address) {\n        _requireIsInitialized();\n\n        return serviceProviderFactoryAddress;\n    }\n\n    /// @notice Get the ClaimsManager address\n    function getClaimsManagerAddress() external view returns (address) {\n        _requireIsInitialized();\n\n        return claimsManagerAddress;\n    }\n\n    /// @notice Get the Staking address\n    function getStakingAddress() external view returns (address)\n    {\n        _requireIsInitialized();\n\n        return stakingAddress;\n    }\n\n    // ========================================= Internal functions =========================================\n\n    /**\n     * @notice Helper function for claimRewards to get balances from Staking contract\n               and do validation\n     * @param spFactory - reference to ServiceProviderFactory contract\n     * @param _serviceProvider - address for which rewards are being claimed\n     * @return (totalBalanceInStaking, totalBalanceInSPFactory, totalActiveFunds, spLockedStake, totalRewards, deployerCut)\n     */\n    function _validateClaimRewards(ServiceProviderFactory spFactory, address _serviceProvider)\n    internal returns (\n        uint256 totalBalanceInStaking,\n        uint256 totalBalanceInSPFactory,\n        uint256 totalActiveFunds,\n        uint256 totalRewards,\n        uint256 deployerCut\n    )\n    {\n        // Account for any pending locked up stake for the service provider\n        (uint256 spLockedStake,) = spFactory.getPendingDecreaseStakeRequest(_serviceProvider);\n        uint256 totalLockedUpStake = (\n            spDelegateInfo[_serviceProvider].totalLockedUpStake.add(spLockedStake)\n        );\n\n        // Process claim for msg.sender\n        // Total locked parameter is equal to delegate locked up stake + service provider locked up stake\n        uint256 mintedRewards = ClaimsManager(claimsManagerAddress).processClaim(\n            _serviceProvider,\n            totalLockedUpStake\n        );\n\n        // Amount stored in staking contract for owner\n        totalBalanceInStaking = Staking(stakingAddress).totalStakedFor(_serviceProvider);\n\n        // Amount in sp factory for claimer\n        (\n            totalBalanceInSPFactory,\n            deployerCut,\n            ,,,\n        ) = spFactory.getServiceProviderDetails(_serviceProvider);\n        // Require active stake to claim any rewards\n\n        // Amount in delegate manager staked to service provider\n        uint256 totalBalanceOutsideStaking = (\n            totalBalanceInSPFactory.add(spDelegateInfo[_serviceProvider].totalDelegatedStake)\n        );\n\n        totalActiveFunds = totalBalanceOutsideStaking.sub(totalLockedUpStake);\n\n        require(\n            mintedRewards == totalBalanceInStaking.sub(totalBalanceOutsideStaking),\n            \"DelegateManager: Reward amount mismatch\"\n        );\n\n        // Emit claim event\n        emit Claim(_serviceProvider, totalRewards, totalBalanceInStaking);\n\n        return (\n            totalBalanceInStaking,\n            totalBalanceInSPFactory,\n            totalActiveFunds,\n            mintedRewards,\n            deployerCut\n        );\n    }\n\n    /**\n     * @notice Perform state updates when a delegate stake has changed\n     * @param _delegator - address of delegator\n     * @param _serviceProvider - address of service provider\n     * @param _totalServiceProviderDelegatedStake - total delegated to this service provider\n     * @param _totalStakedForSpFromDelegator - total delegated to this service provider by delegator\n     * @param _totalDelegatorStake - total delegated from this delegator address\n     */\n    function _updateDelegatorStake(\n        address _delegator,\n        address _serviceProvider,\n        uint256 _totalServiceProviderDelegatedStake,\n        uint256 _totalStakedForSpFromDelegator,\n        uint256 _totalDelegatorStake\n    ) internal\n    {\n        // Update total delegated for SP\n        spDelegateInfo[_serviceProvider].totalDelegatedStake = _totalServiceProviderDelegatedStake;\n\n        // Update amount staked from this delegator to targeted service provider\n        delegateInfo[_delegator][_serviceProvider] = _totalStakedForSpFromDelegator;\n\n        // Update total delegated from this delegator\n        _updateDelegatorTotalStake(_delegator, _totalDelegatorStake);\n    }\n\n    /**\n     * @notice Reset pending undelegate stake request\n     * @param _delegator - address of delegator\n     */\n    function _resetUndelegateStakeRequest(address _delegator) internal\n    {\n        _updateUndelegateStakeRequest(_delegator, address(0), 0, 0);\n    }\n\n    /**\n     * @notice Perform updates when undelegate request state has changed\n     * @param _delegator - address of delegator\n     * @param _serviceProvider - address of service provider\n     * @param _amount - amount being undelegated\n     * @param _lockupExpiryBlock - block at which stake can be undelegated\n     */\n    function _updateUndelegateStakeRequest(\n        address _delegator,\n        address _serviceProvider,\n        uint256 _amount,\n        uint256 _lockupExpiryBlock\n    ) internal\n    {\n        // Update lockup information\n        undelegateRequests[_delegator] = UndelegateStakeRequest({\n            lockupExpiryBlock: _lockupExpiryBlock,\n            amount: _amount,\n            serviceProvider: _serviceProvider\n        });\n    }\n\n    /**\n     * @notice Update total amount delegated from an address\n     * @param _delegator - address of service provider\n     * @param _amount - updated delegator total\n     */\n    function _updateDelegatorTotalStake(address _delegator, uint256 _amount) internal\n    {\n        delegatorTotalStake[_delegator] = _amount;\n    }\n\n    /**\n     * @notice Update amount currently locked up for this service provider\n     * @param _serviceProvider - address of service provider\n     * @param _updatedLockupAmount - updated lock up amount\n     */\n    function _updateServiceProviderLockupAmount(\n        address _serviceProvider,\n        uint256 _updatedLockupAmount\n    ) internal\n    {\n        spDelegateInfo[_serviceProvider].totalLockedUpStake = _updatedLockupAmount;\n    }\n\n    function _removeFromDelegatorsList(address _serviceProvider, address _delegator) internal\n    {\n        for (uint256 i = 0; i < spDelegateInfo[_serviceProvider].delegators.length; i++) {\n            if (spDelegateInfo[_serviceProvider].delegators[i] == _delegator) {\n                // Overwrite and shrink delegators list\n                spDelegateInfo[_serviceProvider].delegators[i] = spDelegateInfo[_serviceProvider].delegators[spDelegateInfo[_serviceProvider].delegators.length - 1];\n                spDelegateInfo[_serviceProvider].delegators.length--;\n                break;\n            }\n        }\n    }\n\n    /**\n     * @notice Helper function to distribute rewards to any delegators\n     * @param _sp - service provider account tracked in staking\n     * @param _totalActiveFunds - total funds minus any locked stake\n     * @param _totalRewards - total rewaards generated in this round\n     * @param _deployerCut - service provider cut of delegate rewards, defined as deployerCut / deployerCutBase\n     * @param _deployerCutBase - denominator value for calculating service provider cut as a %\n     * @return (totalBalanceInStaking, totalBalanceInSPFactory, totalBalanceOutsideStaking)\n     */\n    function _distributeDelegateRewards(\n        address _sp,\n        uint256 _totalActiveFunds,\n        uint256 _totalRewards,\n        uint256 _deployerCut,\n        uint256 _deployerCutBase\n    )\n    internal returns (uint256 totalDelegatedStakeIncrease)\n    {\n        // Traverse all delegates and calculate their rewards\n        // As each delegate reward is calculated, increment SP cut reward accordingly\n        for (uint256 i = 0; i < spDelegateInfo[_sp].delegators.length; i++) {\n            address delegator = spDelegateInfo[_sp].delegators[i];\n            uint256 delegateStakeToSP = delegateInfo[delegator][_sp];\n\n            // Subtract any locked up stake\n            if (undelegateRequests[delegator].serviceProvider == _sp) {\n                delegateStakeToSP = delegateStakeToSP.sub(undelegateRequests[delegator].amount);\n            }\n\n            // Calculate rewards by ((delegateStakeToSP / totalActiveFunds) * totalRewards)\n            uint256 rewardsPriorToSPCut = (\n              delegateStakeToSP.mul(_totalRewards)\n            ).div(_totalActiveFunds);\n\n            // Multiply by deployer cut fraction to calculate reward for SP\n            // Operation constructed to perform all multiplication prior to division\n            // uint256 spDeployerCut = (rewardsPriorToSPCut * deployerCut ) / (deployerCutBase);\n            //                    = ((delegateStakeToSP * totalRewards) / totalActiveFunds) * deployerCut ) / (deployerCutBase);\n            //                    = ((delegateStakeToSP * totalRewards * deployerCut) / totalActiveFunds ) / (deployerCutBase);\n            //                    = (delegateStakeToSP * totalRewards * deployerCut) / (deployerCutBase * totalActiveFunds);\n            uint256 spDeployerCut = (\n                (delegateStakeToSP.mul(_totalRewards)).mul(_deployerCut)\n            ).div(\n                _totalActiveFunds.mul(_deployerCutBase)\n            );\n            // Increase total delegate reward in DelegateManager\n            // Subtract SP reward from rewards to calculate delegate reward\n            // delegateReward = rewardsPriorToSPCut - spDeployerCut;\n            delegateInfo[delegator][_sp] = (\n                delegateInfo[delegator][_sp].add(rewardsPriorToSPCut.sub(spDeployerCut))\n            );\n\n            // Update total for this delegator\n            _updateDelegatorTotalStake(\n                delegator,\n                delegatorTotalStake[delegator].add(rewardsPriorToSPCut.sub(spDeployerCut))\n            );\n\n            totalDelegatedStakeIncrease = (\n                totalDelegatedStakeIncrease.add(rewardsPriorToSPCut.sub(spDeployerCut))\n            );\n        }\n\n        return (totalDelegatedStakeIncrease);\n    }\n\n    /**\n     * @notice Set the governance address after confirming contract identity\n     * @param _governanceAddress - Incoming governance address\n     */\n    function _updateGovernanceAddress(address _governanceAddress) internal {\n        require(\n            Governance(_governanceAddress).isGovernanceAddress() == true,\n            \"DelegateManager: _governanceAddress is not a valid governance contract\"\n        );\n        governanceAddress = _governanceAddress;\n    }\n\n    /**\n     * @notice Set the remove delegator lockup duration after validating against governance\n     * @param _duration - Incoming remove delegator duration value\n     */\n    function _updateRemoveDelegatorLockupDuration(uint256 _duration) internal {\n        Governance governance = Governance(governanceAddress);\n        require(\n            _duration > governance.getVotingPeriod() + governance.getExecutionDelay(),\n            \"DelegateManager: removeDelegatorLockupDuration duration must be greater than governance votingPeriod + executionDelay\"\n        );\n        removeDelegatorLockupDuration = _duration;\n    }\n\n    /**\n     * @notice Set the undelegate lockup duration after validating against governance\n     * @param _duration - Incoming undelegate lockup duration value\n     */\n    function _updateUndelegateLockupDuration(uint256 _duration) internal {\n        Governance governance = Governance(governanceAddress);\n        require(\n            _duration > governance.getVotingPeriod() + governance.getExecutionDelay(),\n            \"DelegateManager: undelegateLockupDuration duration must be greater than governance votingPeriod + executionDelay\"\n        );\n        undelegateLockupDuration = _duration;\n    }\n\n    /**\n     * @notice Returns if delegator has delegated to a service provider\n     * @param _delegator - address of delegator\n     * @param _serviceProvider - address of service provider\n     * @return boolean indicating whether delegator exists for service provider\n     */\n    function _delegatorExistsForSP(\n        address _delegator,\n        address _serviceProvider\n    ) internal view returns (bool)\n    {\n        for (uint256 i = 0; i < spDelegateInfo[_serviceProvider].delegators.length; i++) {\n            if (spDelegateInfo[_serviceProvider].delegators[i] == _delegator) {\n                return true;\n            }\n        }\n        // Not found\n        return false;\n    }\n\n    /**\n     * @notice Determine if a claim is pending for this service provider\n     * @param _sp - address of service provider\n     * @return boolean indicating whether a claim is pending\n     */\n    function _claimPending(address _sp) internal view returns (bool) {\n        ClaimsManager claimsManager = ClaimsManager(claimsManagerAddress);\n        return claimsManager.claimPending(_sp);\n    }\n\n    /**\n     * @notice Determine if a decrease request has been initiated\n     * @param _delegator - address of delegator\n     * @return boolean indicating whether a decrease request is pending\n     */\n    function _undelegateRequestIsPending(address _delegator) internal view returns (bool)\n    {\n        return (\n            (undelegateRequests[_delegator].lockupExpiryBlock != 0) &&\n            (undelegateRequests[_delegator].amount != 0) &&\n            (undelegateRequests[_delegator].serviceProvider != address(0))\n        );\n    }\n\n    // ========================================= Private Functions =========================================\n\n    function _requireStakingAddressIsSet() private view {\n        require(\n            stakingAddress != address(0x00),\n            \"DelegateManager: stakingAddress is not set\"\n        );\n    }\n\n    function _requireServiceProviderFactoryAddressIsSet() private view {\n        require(\n            serviceProviderFactoryAddress != address(0x00),\n            \"DelegateManager: serviceProviderFactoryAddress is not set\"\n        );\n    }\n\n    function _requireClaimsManagerAddressIsSet() private view {\n        require(\n            claimsManagerAddress != address(0x00),\n            \"DelegateManager: claimsManagerAddress is not set\"\n        );\n    }\n}\n",
  "sourcePath": "/usr/src/app/contracts/DelegateManagerV2.sol",
  "compiler": {
    "name": "solc",
    "version": "0.5.17+commit.d19bba13.Emscripten.clang"
  },
  "schemaVersion": "3.4.4",
  "updatedAt": "2023-03-02T06:41:29.141Z",
  "devdoc": {
    "methods": {
      "cancelRemoveDelegatorRequest(address,address)": {
        "params": {
          "_delegator": "- address of delegator",
          "_serviceProvider": "- address of service provider"
        }
      },
      "claimRewards(address)": {
        "details": "Factors in service provider rewards from delegator and transfers deployer cut",
        "params": {
          "_serviceProvider": "- Provider for which rewards are being distributed"
        }
      },
      "delegateStake(address,uint256)": {
        "params": {
          "_amount": "- amount in wei to delegate",
          "_targetSP": "- address of service provider to delegate to"
        },
        "return": "Updated total amount delegated to the service provider by delegator"
      },
      "getDelegatorsList(address)": {
        "params": {
          "_sp": "- service provider address"
        }
      },
      "getPendingRemoveDelegatorRequest(address,address)": {
        "params": {
          "_delegator": "- address of the delegator",
          "_serviceProvider": "- address of the service provider"
        },
        "return": "- current lockup expiry block for remove delegator request"
      },
      "getPendingUndelegateRequest(address)": {
        "params": {
          "_delegator": "- address of the delegator"
        }
      },
      "getSPMinDelegationAmount(address)": {
        "params": {
          "_serviceProvider": "- address of the service provider"
        },
        "return": "- minDelegationAmount for given SP"
      },
      "getTotalDelegatorStake(address)": {
        "params": {
          "_delegator": "- delegator address"
        }
      },
      "initialize(address,address,uint256)": {
        "details": "stakingAddress must be initialized separately after Staking contract is deployedserviceProviderFactoryAddress must be initialized separately after ServiceProviderFactory contract is deployedclaimsManagerAddress must be initialized separately after ClaimsManager contract is deployed",
        "params": {
          "_governanceAddress": "- Governance proxy address",
          "_tokenAddress": "- address of ERC20 token that will be claimed"
        }
      },
      "removeDelegator(address,address)": {
        "params": {
          "_delegator": "- address of delegator",
          "_serviceProvider": "- address of service provider"
        },
        "return": "Updated total amount delegated to the service provider by delegator"
      },
      "requestRemoveDelegator(address,address)": {
        "params": {
          "_delegator": "- address of delegator",
          "_serviceProvider": "- address of service provider"
        }
      },
      "requestUndelegateStake(address,uint256)": {
        "params": {
          "_amount": "- amount in wei to undelegate",
          "_target": "- address of service provider to undelegate stake from"
        },
        "return": "Updated total amount delegated to the service provider by delegator"
      },
      "setClaimsManagerAddress(address)": {
        "details": "Only callable by Governance address",
        "params": {
          "_claimsManagerAddress": "- address for new ClaimsManager contract"
        }
      },
      "setGovernanceAddress(address)": {
        "details": "Only callable by Governance address",
        "params": {
          "_governanceAddress": "- address for new Governance contract"
        }
      },
      "setServiceProviderFactoryAddress(address)": {
        "details": "Only callable by Governance address",
        "params": {
          "_spFactory": "- address for new ServiceProviderFactory contract"
        }
      },
      "setStakingAddress(address)": {
        "details": "Only callable by Governance address",
        "params": {
          "_stakingAddress": "- address for new Staking contract"
        }
      },
      "slash(uint256,address)": {
        "details": "Only callable by governance. Slashes service provider and delegators equally",
        "params": {
          "_amount": "- amount in wei to slash",
          "_slashAddress": "- address of service provider to slash"
        }
      },
      "undelegateStake()": {
        "return": "New total amount currently staked after stake has been undelegated"
      },
      "updateMaxDelegators(uint256)": {
        "params": {
          "_maxDelegators": "- new max delegators"
        }
      },
      "updateMinDelegationAmount(uint256)": {
        "params": {
          "_minDelegationAmount": "- min new min delegation amount"
        }
      },
      "updateRemoveDelegatorEvalDuration(uint256)": {
        "params": {
          "_duration": "- new window duration"
        }
      },
      "updateRemoveDelegatorLockupDuration(uint256)": {
        "params": {
          "_duration": "- new lockup duration"
        }
      },
      "updateSPMinDelegationAmount(address,uint256)": {
        "params": {
          "_serviceProvider": "- address of service provider",
          "_spMinDelegationAmount": "- new minDelegationAmount for SP"
        }
      },
      "updateUndelegateLockupDuration(uint256)": {
        "params": {
          "_duration": "- new lockup duration"
        }
      }
    }
  },
  "userdoc": {
    "methods": {
      "cancelRemoveDelegatorRequest(address,address)": {
        "notice": "Cancel pending removeDelegator request"
      },
      "cancelUndelegateStakeRequest()": {
        "notice": "Cancel undelegation request"
      },
      "claimRewards(address)": {
        "notice": "Claim and distribute rewards to delegators and service provider as necessary"
      },
      "delegateStake(address,uint256)": {
        "notice": "Allow a delegator to delegate stake to a service provider"
      },
      "getClaimsManagerAddress()": {
        "notice": "Get the ClaimsManager address"
      },
      "getDelegatorStakeForServiceProvider(address,address)": {
        "notice": "Get total currently staked for a delegator, for a given service provider"
      },
      "getDelegatorsList(address)": {
        "notice": "Get list of delegators for a given service provider"
      },
      "getGovernanceAddress()": {
        "notice": "Get the Governance address"
      },
      "getMaxDelegators()": {
        "notice": "Current maximum delegators"
      },
      "getMinDelegationAmount()": {
        "notice": "Get minimum delegation amount"
      },
      "getPendingRemoveDelegatorRequest(address,address)": {
        "notice": "Get status of pending remove delegator request for a given address"
      },
      "getPendingUndelegateRequest(address)": {
        "notice": "Get status of pending undelegate request for a given address"
      },
      "getRemoveDelegatorEvalDuration()": {
        "notice": "Get the duration for evaluation of remove delegator operations"
      },
      "getRemoveDelegatorLockupDuration()": {
        "notice": "Get the duration for remove delegator request lockup"
      },
      "getSPMinDelegationAmount(address)": {
        "notice": "Get minDelegationAmount for given SP"
      },
      "getServiceProviderFactoryAddress()": {
        "notice": "Get the ServiceProviderFactory address"
      },
      "getStakingAddress()": {
        "notice": "Get the Staking address"
      },
      "getTotalDelegatedToServiceProvider(address)": {
        "notice": "Get total amount delegated to a service provider"
      },
      "getTotalDelegatorStake(address)": {
        "notice": "Get total delegation from a given address"
      },
      "getTotalLockedDelegationForServiceProvider(address)": {
        "notice": "Get total delegated stake locked up for a service provider"
      },
      "getUndelegateLockupDuration()": {
        "notice": "Get current undelegate lockup duration"
      },
      "initialize()": {
        "notice": "wrapper function around parent contract Initializable's `initializable` modifier     initializable modifier ensures this function can only be called once by each deployed child contract     sets isInitialized flag to true to which is used by _requireIsInitialized()"
      },
      "initialize(address,address,uint256)": {
        "notice": "Function to initialize the contract"
      },
      "removeDelegator(address,address)": {
        "notice": "Evaluate removeDelegator request"
      },
      "requestRemoveDelegator(address,address)": {
        "notice": "Initiate forcible removal of a delegator"
      },
      "requestUndelegateStake(address,uint256)": {
        "notice": "Submit request for undelegation"
      },
      "setClaimsManagerAddress(address)": {
        "notice": "Set the ClaimsManager address"
      },
      "setGovernanceAddress(address)": {
        "notice": "Set the Governance address"
      },
      "setServiceProviderFactoryAddress(address)": {
        "notice": "Set the ServiceProviderFactory address"
      },
      "setStakingAddress(address)": {
        "notice": "Set the Staking address"
      },
      "slash(uint256,address)": {
        "notice": "Reduce current stake amount"
      },
      "undelegateStake()": {
        "notice": "Finalize undelegation request and withdraw stake"
      },
      "updateMaxDelegators(uint256)": {
        "notice": "Update maximum delegators allowed"
      },
      "updateMinDelegationAmount(uint256)": {
        "notice": "Update minimum delegation amount"
      },
      "updateRemoveDelegatorEvalDuration(uint256)": {
        "notice": "Update remove delegator evaluation window duration"
      },
      "updateRemoveDelegatorLockupDuration(uint256)": {
        "notice": "Update remove delegator lockup duration"
      },
      "updateSPMinDelegationAmount(address,uint256)": {
        "notice": "SP can update their minDelegationAmountdoes not enforce _spMinDelegationAmount >= minDelegationAmount since not necessary     delegateStake() and undelegateStake() always take the max of both already"
      },
      "updateUndelegateLockupDuration(uint256)": {
        "notice": "Update duration for undelegate request lockup"
      }
    },
    "notice": "Designed to manage delegation to staking contract"
  }
}