{
  "contractName": "ERC20Pausable",
  "abi": [
    {
      "anonymous": false,
      "inputs": [
        {
          "indexed": true,
          "internalType": "address",
          "name": "owner",
          "type": "address"
        },
        {
          "indexed": true,
          "internalType": "address",
          "name": "spender",
          "type": "address"
        },
        {
          "indexed": false,
          "internalType": "uint256",
          "name": "value",
          "type": "uint256"
        }
      ],
      "name": "Approval",
      "type": "event"
    },
    {
      "anonymous": false,
      "inputs": [
        {
          "indexed": false,
          "internalType": "address",
          "name": "account",
          "type": "address"
        }
      ],
      "name": "Paused",
      "type": "event"
    },
    {
      "anonymous": false,
      "inputs": [
        {
          "indexed": true,
          "internalType": "address",
          "name": "account",
          "type": "address"
        }
      ],
      "name": "PauserAdded",
      "type": "event"
    },
    {
      "anonymous": false,
      "inputs": [
        {
          "indexed": true,
          "internalType": "address",
          "name": "account",
          "type": "address"
        }
      ],
      "name": "PauserRemoved",
      "type": "event"
    },
    {
      "anonymous": false,
      "inputs": [
        {
          "indexed": true,
          "internalType": "address",
          "name": "from",
          "type": "address"
        },
        {
          "indexed": true,
          "internalType": "address",
          "name": "to",
          "type": "address"
        },
        {
          "indexed": false,
          "internalType": "uint256",
          "name": "value",
          "type": "uint256"
        }
      ],
      "name": "Transfer",
      "type": "event"
    },
    {
      "anonymous": false,
      "inputs": [
        {
          "indexed": false,
          "internalType": "address",
          "name": "account",
          "type": "address"
        }
      ],
      "name": "Unpaused",
      "type": "event"
    },
    {
      "constant": false,
      "inputs": [
        {
          "internalType": "address",
          "name": "account",
          "type": "address"
        }
      ],
      "name": "addPauser",
      "outputs": [],
      "payable": false,
      "stateMutability": "nonpayable",
      "type": "function"
    },
    {
      "constant": true,
      "inputs": [
        {
          "internalType": "address",
          "name": "owner",
          "type": "address"
        },
        {
          "internalType": "address",
          "name": "spender",
          "type": "address"
        }
      ],
      "name": "allowance",
      "outputs": [
        {
          "internalType": "uint256",
          "name": "",
          "type": "uint256"
        }
      ],
      "payable": false,
      "stateMutability": "view",
      "type": "function"
    },
    {
      "constant": true,
      "inputs": [
        {
          "internalType": "address",
          "name": "account",
          "type": "address"
        }
      ],
      "name": "balanceOf",
      "outputs": [
        {
          "internalType": "uint256",
          "name": "",
          "type": "uint256"
        }
      ],
      "payable": false,
      "stateMutability": "view",
      "type": "function"
    },
    {
      "constant": true,
      "inputs": [
        {
          "internalType": "address",
          "name": "account",
          "type": "address"
        }
      ],
      "name": "isPauser",
      "outputs": [
        {
          "internalType": "bool",
          "name": "",
          "type": "bool"
        }
      ],
      "payable": false,
      "stateMutability": "view",
      "type": "function"
    },
    {
      "constant": false,
      "inputs": [],
      "name": "pause",
      "outputs": [],
      "payable": false,
      "stateMutability": "nonpayable",
      "type": "function"
    },
    {
      "constant": true,
      "inputs": [],
      "name": "paused",
      "outputs": [
        {
          "internalType": "bool",
          "name": "",
          "type": "bool"
        }
      ],
      "payable": false,
      "stateMutability": "view",
      "type": "function"
    },
    {
      "constant": false,
      "inputs": [],
      "name": "renouncePauser",
      "outputs": [],
      "payable": false,
      "stateMutability": "nonpayable",
      "type": "function"
    },
    {
      "constant": true,
      "inputs": [],
      "name": "totalSupply",
      "outputs": [
        {
          "internalType": "uint256",
          "name": "",
          "type": "uint256"
        }
      ],
      "payable": false,
      "stateMutability": "view",
      "type": "function"
    },
    {
      "constant": false,
      "inputs": [],
      "name": "unpause",
      "outputs": [],
      "payable": false,
      "stateMutability": "nonpayable",
      "type": "function"
    },
    {
      "constant": false,
      "inputs": [
        {
          "internalType": "address",
          "name": "sender",
          "type": "address"
        }
      ],
      "name": "initialize",
      "outputs": [],
      "payable": false,
      "stateMutability": "nonpayable",
      "type": "function"
    },
    {
      "constant": false,
      "inputs": [
        {
          "internalType": "address",
          "name": "to",
          "type": "address"
        },
        {
          "internalType": "uint256",
          "name": "value",
          "type": "uint256"
        }
      ],
      "name": "transfer",
      "outputs": [
        {
          "internalType": "bool",
          "name": "",
          "type": "bool"
        }
      ],
      "payable": false,
      "stateMutability": "nonpayable",
      "type": "function"
    },
    {
      "constant": false,
      "inputs": [
        {
          "internalType": "address",
          "name": "from",
          "type": "address"
        },
        {
          "internalType": "address",
          "name": "to",
          "type": "address"
        },
        {
          "internalType": "uint256",
          "name": "value",
          "type": "uint256"
        }
      ],
      "name": "transferFrom",
      "outputs": [
        {
          "internalType": "bool",
          "name": "",
          "type": "bool"
        }
      ],
      "payable": false,
      "stateMutability": "nonpayable",
      "type": "function"
    },
    {
      "constant": false,
      "inputs": [
        {
          "internalType": "address",
          "name": "spender",
          "type": "address"
        },
        {
          "internalType": "uint256",
          "name": "value",
          "type": "uint256"
        }
      ],
      "name": "approve",
      "outputs": [
        {
          "internalType": "bool",
          "name": "",
          "type": "bool"
        }
      ],
      "payable": false,
      "stateMutability": "nonpayable",
      "type": "function"
    },
    {
      "constant": false,
      "inputs": [
        {
          "internalType": "address",
          "name": "spender",
          "type": "address"
        },
        {
          "internalType": "uint256",
          "name": "addedValue",
          "type": "uint256"
        }
      ],
      "name": "increaseAllowance",
      "outputs": [
        {
          "internalType": "bool",
          "name": "",
          "type": "bool"
        }
      ],
      "payable": false,
      "stateMutability": "nonpayable",
      "type": "function"
    },
    {
      "constant": false,
      "inputs": [
        {
          "internalType": "address",
          "name": "spender",
          "type": "address"
        },
        {
          "internalType": "uint256",
          "name": "subtractedValue",
          "type": "uint256"
        }
      ],
      "name": "decreaseAllowance",
      "outputs": [
        {
          "internalType": "bool",
          "name": "",
          "type": "bool"
        }
      ],
      "payable": false,
      "stateMutability": "nonpayable",
      "type": "function"
    }
  ],
  "bytecode": "0x60806040526111bf806100136000396000f3fe608060405234801561001057600080fd5b50600436106100f55760003560e01c80636ef8d66d11610097578063a457c2d711610066578063a457c2d71461024a578063a9059cbb14610276578063c4d66de8146102a2578063dd62ed3e146102c8576100f5565b80636ef8d66d146101ee57806370a08231146101f657806382dc1ec41461021c5780638456cb5914610242576100f5565b806339509351116100d3578063395093511461018a5780633f4ba83a146101b657806346fbf68e146101c05780635c975abb146101e6576100f5565b8063095ea7b3146100fa57806318160ddd1461013a57806323b872dd14610154575b600080fd5b6101266004803603604081101561011057600080fd5b506001600160a01b0381351690602001356102f6565b604080519115158252519081900360200190f35b610142610355565b60408051918252519081900360200190f35b6101266004803603606081101561016a57600080fd5b506001600160a01b0381358116916020810135909116906040013561035b565b610126600480360360408110156101a057600080fd5b506001600160a01b0381351690602001356103bc565b6101be610414565b005b610126600480360360208110156101d657600080fd5b50356001600160a01b03166104fd565b610126610516565b6101be61051f565b6101426004803603602081101561020c57600080fd5b50356001600160a01b0316610531565b6101be6004803603602081101561023257600080fd5b50356001600160a01b031661054c565b6101be61059e565b6101266004803603604081101561026057600080fd5b506001600160a01b038135169060200135610665565b6101266004803603604081101561028c57600080fd5b506001600160a01b0381351690602001356106bd565b6101be600480360360208110156102b857600080fd5b50356001600160a01b0316610715565b610142600480360360408110156102de57600080fd5b506001600160a01b03813581169160200135166107c1565b609b5460009060ff1615610344576040805162461bcd60e51b815260206004820152601060248201526f14185d5cd8589b194e881c185d5cd95960821b604482015290519081900360640190fd5b61034e83836107ec565b9392505050565b60355490565b609b5460009060ff16156103a9576040805162461bcd60e51b815260206004820152601060248201526f14185d5cd8589b194e881c185d5cd95960821b604482015290519081900360640190fd5b6103b4848484610809565b949350505050565b609b5460009060ff161561040a576040805162461bcd60e51b815260206004820152601060248201526f14185d5cd8589b194e881c185d5cd95960821b604482015290519081900360640190fd5b61034e8383610896565b61042461041f6108ea565b6104fd565b61045f5760405162461bcd60e51b815260040180806020018281038252603081526020018061100c6030913960400191505060405180910390fd5b609b5460ff166104ad576040805162461bcd60e51b815260206004820152601460248201527314185d5cd8589b194e881b9bdd081c185d5cd95960621b604482015290519081900360640190fd5b609b805460ff191690557f5db9ee0a495bf2e6ff9c91a7834c1ba4fdd244a5e8aa4e537bd38aeae4b073aa6104e06108ea565b604080516001600160a01b039092168252519081900360200190a1565b600061051060688363ffffffff6108ee16565b92915050565b609b5460ff1690565b61052f61052a6108ea565b610955565b565b6001600160a01b031660009081526033602052604090205490565b61055761041f6108ea565b6105925760405162461bcd60e51b815260040180806020018281038252603081526020018061100c6030913960400191505060405180910390fd5b61059b8161099d565b50565b6105a961041f6108ea565b6105e45760405162461bcd60e51b815260040180806020018281038252603081526020018061100c6030913960400191505060405180910390fd5b609b5460ff161561062f576040805162461bcd60e51b815260206004820152601060248201526f14185d5cd8589b194e881c185d5cd95960821b604482015290519081900360640190fd5b609b805460ff191660011790557f62e78cea01bee320cd4e420270b5ea74000d11b0c9f74754ebdbfc544b05a2586104e06108ea565b609b5460009060ff16156106b3576040805162461bcd60e51b815260206004820152601060248201526f14185d5cd8589b194e881c185d5cd95960821b604482015290519081900360640190fd5b61034e83836109e5565b609b5460009060ff161561070b576040805162461bcd60e51b815260206004820152601060248201526f14185d5cd8589b194e881c185d5cd95960821b604482015290519081900360640190fd5b61034e8383610a53565b600054610100900460ff168061072e575061072e610a67565b8061073c575060005460ff16155b6107775760405162461bcd60e51b815260040180806020018281038252602e8152602001806110ef602e913960400191505060405180910390fd5b600054610100900460ff161580156107a2576000805460ff1961ff0019909116610100171660011790555b6107ab82610a6d565b80156107bd576000805461ff00191690555b5050565b6001600160a01b03918216600090815260346020908152604080832093909416825291909152205490565b60006108006107f96108ea565b8484610b22565b50600192915050565b6000610816848484610c0e565b61088c846108226108ea565b610887856040518060600160405280602881526020016110a5602891396001600160a01b038a166000908152603460205260408120906108606108ea565b6001600160a01b03168152602081019190915260400160002054919063ffffffff610d6c16565b610b22565b5060019392505050565b60006108006108a36108ea565b8461088785603460006108b46108ea565b6001600160a01b03908116825260208083019390935260409182016000908120918c16815292529020549063ffffffff610e0316565b3390565b60006001600160a01b0382166109355760405162461bcd60e51b81526004018080602001828103825260228152602001806110cd6022913960400191505060405180910390fd5b506001600160a01b03166000908152602091909152604090205460ff1690565b61096660688263ffffffff610e5d16565b6040516001600160a01b038216907fcd265ebaf09df2871cc7bd4133404a235ba12eff2041bb89d9c714a2621c7c7e90600090a250565b6109ae60688263ffffffff610ec416565b6040516001600160a01b038216907f6719d08c1888103bea251a4ed56406bd0c3e69723c8a1686e017e7bbe159b6f890600090a250565b60006108006109f26108ea565b84610887856040518060600160405280602581526020016111666025913960346000610a1c6108ea565b6001600160a01b03908116825260208083019390935260409182016000908120918d1681529252902054919063ffffffff610d6c16565b6000610800610a606108ea565b8484610c0e565b303b1590565b600054610100900460ff1680610a865750610a86610a67565b80610a94575060005460ff16155b610acf5760405162461bcd60e51b815260040180806020018281038252602e8152602001806110ef602e913960400191505060405180910390fd5b600054610100900460ff16158015610afa576000805460ff1961ff0019909116610100171660011790555b610b0382610f45565b609b805460ff1916905580156107bd576000805461ff00191690555050565b6001600160a01b038316610b675760405162461bcd60e51b81526004018080602001828103825260248152602001806111426024913960400191505060405180910390fd5b6001600160a01b038216610bac5760405162461bcd60e51b815260040180806020018281038252602281526020018061103c6022913960400191505060405180910390fd5b6001600160a01b03808416600081815260346020908152604080832094871680845294825291829020859055815185815291517f8c5be1e5ebec7d5bd14f71427d1e84f3dd0314c0f7b2291e5b200ac8c7c3b9259281900390910190a3505050565b6001600160a01b038316610c535760405162461bcd60e51b815260040180806020018281038252602581526020018061111d6025913960400191505060405180910390fd5b6001600160a01b038216610c985760405162461bcd60e51b8152600401808060200182810382526023815260200180610fe96023913960400191505060405180910390fd5b610cdb8160405180606001604052806026815260200161105e602691396001600160a01b038616600090815260336020526040902054919063ffffffff610d6c16565b6001600160a01b038085166000908152603360205260408082209390935590841681522054610d10908263ffffffff610e0316565b6001600160a01b0380841660008181526033602090815260409182902094909455805185815290519193928716927fddf252ad1be2c89b69c2b068fc378daa952ba7f163c4a11628f55a4df523b3ef92918290030190a3505050565b60008184841115610dfb5760405162461bcd60e51b81526004018080602001828103825283818151815260200191508051906020019080838360005b83811015610dc0578181015183820152602001610da8565b50505050905090810190601f168015610ded5780820380516001836020036101000a031916815260200191505b509250505060405180910390fd5b505050900390565b60008282018381101561034e576040805162461bcd60e51b815260206004820152601b60248201527f536166654d6174683a206164646974696f6e206f766572666c6f770000000000604482015290519081900360640190fd5b610e6782826108ee565b610ea25760405162461bcd60e51b81526004018080602001828103825260218152602001806110846021913960400191505060405180910390fd5b6001600160a01b0316600090815260209190915260409020805460ff19169055565b610ece82826108ee565b15610f20576040805162461bcd60e51b815260206004820152601f60248201527f526f6c65733a206163636f756e7420616c72656164792068617320726f6c6500604482015290519081900360640190fd5b6001600160a01b0316600090815260209190915260409020805460ff19166001179055565b600054610100900460ff1680610f5e5750610f5e610a67565b80610f6c575060005460ff16155b610fa75760405162461bcd60e51b815260040180806020018281038252602e8152602001806110ef602e913960400191505060405180910390fd5b600054610100900460ff16158015610fd2576000805460ff1961ff0019909116610100171660011790555b610fdb826104fd565b6107ab576107ab8261099d56fe45524332303a207472616e7366657220746f20746865207a65726f2061646472657373506175736572526f6c653a2063616c6c657220646f6573206e6f742068617665207468652050617573657220726f6c6545524332303a20617070726f766520746f20746865207a65726f206164647265737345524332303a207472616e7366657220616d6f756e7420657863656564732062616c616e6365526f6c65733a206163636f756e7420646f6573206e6f74206861766520726f6c6545524332303a207472616e7366657220616d6f756e74206578636565647320616c6c6f77616e6365526f6c65733a206163636f756e7420697320746865207a65726f2061646472657373436f6e747261637420696e7374616e63652068617320616c7265616479206265656e20696e697469616c697a656445524332303a207472616e736665722066726f6d20746865207a65726f206164647265737345524332303a20617070726f76652066726f6d20746865207a65726f206164647265737345524332303a2064656372656173656420616c6c6f77616e63652062656c6f77207a65726fa265627a7a72315820bfc34c77772ac9c1958a63f5e24301f9ea13d65c9ae39a40425c2a02fb4ae1ae64736f6c63430005110032",
  "source": "pragma solidity ^0.5.0;\n\nimport \"@openzeppelin/upgrades/contracts/Initializable.sol\";\nimport \"./ERC20.sol\";\nimport \"../../lifecycle/Pausable.sol\";\n\n/**\n * @title Pausable token\n * @dev ERC20 with pausable transfers and allowances.\n *\n * Useful if you want to stop trades until the end of a crowdsale, or have\n * an emergency switch for freezing all token transfers in the event of a large\n * bug.\n */\ncontract ERC20Pausable is Initializable, ERC20, Pausable {\n    function initialize(address sender) public initializer {\n        Pausable.initialize(sender);\n    }\n\n    function transfer(address to, uint256 value) public whenNotPaused returns (bool) {\n        return super.transfer(to, value);\n    }\n\n    function transferFrom(address from, address to, uint256 value) public whenNotPaused returns (bool) {\n        return super.transferFrom(from, to, value);\n    }\n\n    function approve(address spender, uint256 value) public whenNotPaused returns (bool) {\n        return super.approve(spender, value);\n    }\n\n    function increaseAllowance(address spender, uint256 addedValue) public whenNotPaused returns (bool) {\n        return super.increaseAllowance(spender, addedValue);\n    }\n\n    function decreaseAllowance(address spender, uint256 subtractedValue) public whenNotPaused returns (bool) {\n        return super.decreaseAllowance(spender, subtractedValue);\n    }\n\n    uint256[50] private ______gap;\n}\n",
  "sourcePath": "@openzeppelin/contracts-ethereum-package/contracts/token/ERC20/ERC20Pausable.sol",
  "compiler": {
    "name": "solc",
    "version": "0.5.17+commit.d19bba13.Emscripten.clang"
  },
  "schemaVersion": "3.4.4",
  "updatedAt": "2023-03-02T06:41:29.013Z",
  "devdoc": {
    "details": "ERC20 with pausable transfers and allowances. * Useful if you want to stop trades until the end of a crowdsale, or have an emergency switch for freezing all token transfers in the event of a large bug.",
    "methods": {
      "allowance(address,address)": {
        "details": "See {IERC20-allowance}."
      },
      "balanceOf(address)": {
        "details": "See {IERC20-balanceOf}."
      },
      "pause()": {
        "details": "Called by a pauser to pause, triggers stopped state."
      },
      "paused()": {
        "details": "Returns true if the contract is paused, and false otherwise."
      },
      "totalSupply()": {
        "details": "See {IERC20-totalSupply}."
      },
      "unpause()": {
        "details": "Called by a pauser to unpause, returns to normal state."
      }
    },
    "title": "Pausable token"
  },
  "userdoc": {
    "methods": {}
  }
}