{
  "contractName": "EthRewardsManager",
  "abi": [
    {
      "constant": false,
      "inputs": [],
      "name": "initialize",
      "outputs": [],
      "payable": false,
      "stateMutability": "nonpayable",
      "type": "function"
    },
    {
      "constant": false,
      "inputs": [
        {
          "internalType": "address",
          "name": "_tokenAddress",
          "type": "address"
        },
        {
          "internalType": "address",
          "name": "_governanceAddress",
          "type": "address"
        },
        {
          "internalType": "address",
          "name": "_wormholeAddress",
          "type": "address"
        },
        {
          "internalType": "bytes32",
          "name": "_recipient",
          "type": "bytes32"
        },
        {
          "internalType": "address[]",
          "name": "_antiAbuseOracleAddresses",
          "type": "address[]"
        }
      ],
      "name": "initialize",
      "outputs": [],
      "payable": false,
      "stateMutability": "nonpayable",
      "type": "function"
    },
    {
      "constant": false,
      "inputs": [
        {
          "internalType": "address",
          "name": "_governanceAddress",
          "type": "address"
        }
      ],
      "name": "setGovernanceAddress",
      "outputs": [],
      "payable": false,
      "stateMutability": "nonpayable",
      "type": "function"
    },
    {
      "constant": false,
      "inputs": [
        {
          "internalType": "bytes32",
          "name": "_recipient",
          "type": "bytes32"
        }
      ],
      "name": "setRecipientAddress",
      "outputs": [],
      "payable": false,
      "stateMutability": "nonpayable",
      "type": "function"
    },
    {
      "constant": false,
      "inputs": [
        {
          "internalType": "address[]",
          "name": "_antiAbuseOracleAddresses",
          "type": "address[]"
        }
      ],
      "name": "setAntiAbuseOracleAddresses",
      "outputs": [],
      "payable": false,
      "stateMutability": "nonpayable",
      "type": "function"
    },
    {
      "constant": false,
      "inputs": [
        {
          "internalType": "uint256",
          "name": "arbiterFee",
          "type": "uint256"
        },
        {
          "internalType": "uint32",
          "name": "_nonce",
          "type": "uint32"
        }
      ],
      "name": "transferToSolana",
      "outputs": [],
      "payable": false,
      "stateMutability": "nonpayable",
      "type": "function"
    },
    {
      "constant": true,
      "inputs": [],
      "name": "token",
      "outputs": [
        {
          "internalType": "address",
          "name": "",
          "type": "address"
        }
      ],
      "payable": false,
      "stateMutability": "view",
      "type": "function"
    },
    {
      "constant": true,
      "inputs": [],
      "name": "getGovernanceAddress",
      "outputs": [
        {
          "internalType": "address",
          "name": "",
          "type": "address"
        }
      ],
      "payable": false,
      "stateMutability": "view",
      "type": "function"
    },
    {
      "constant": true,
      "inputs": [],
      "name": "getRecipientAddress",
      "outputs": [
        {
          "internalType": "bytes32",
          "name": "",
          "type": "bytes32"
        }
      ],
      "payable": false,
      "stateMutability": "view",
      "type": "function"
    },
    {
      "constant": true,
      "inputs": [],
      "name": "getAntiAbuseOracleAddresses",
      "outputs": [
        {
          "internalType": "address[]",
          "name": "",
          "type": "address[]"
        }
      ],
      "payable": false,
      "stateMutability": "view",
      "type": "function"
    }
  ],
  "bytecode": "0x608060405234801561001057600080fd5b50610d91806100206000396000f3fe608060405234801561001057600080fd5b506004361061009e5760003560e01c80638129fc1c116100665780638129fc1c146101815780638d9e608814610189578063945decf4146101f9578063cfc16254146102c4578063fc0c546a146102ea5761009e565b806305a7cdd6146100a35780634316d72d146100c25780635550a621146100eb57806373252494146101435780637ce87b4314610167575b600080fd5b6100c0600480360360208110156100b957600080fd5b50356102f2565b005b6100c0600480360360408110156100d857600080fd5b508035906020013563ffffffff166103cc565b6100f361056a565b60408051602080825283518183015283519192839290830191858101910280838360005b8381101561012f578181015183820152602001610117565b505050509050019250505060405180910390f35b61014b6105d5565b604080516001600160a01b039092168252519081900360200190f35b61016f6105f4565b60408051918252519081900360200190f35b6100c0610605565b6100c06004803603602081101561019f57600080fd5b8101906020810181356401000000008111156101ba57600080fd5b8201836020820111156101cc57600080fd5b803590602001918460208302840111640100000000831117156101ee57600080fd5b5090925090506106b4565b6100c0600480360360a081101561020f57600080fd5b6001600160a01b03823581169260208101358216926040820135909216916060820135919081019060a08101608082013564010000000081111561025257600080fd5b82018360208201111561026457600080fd5b8035906020019184602083028401116401000000008311171561028657600080fd5b91908080602002602001604051908101604052809392919081815260200183836020028082843760009201919091525092955061075d945050505050565b6100c0600480360360208110156102da57600080fd5b50356001600160a01b031661093c565b61014b6109dd565b6102fa6109f7565b603360019054906101000a90046001600160a01b03166001600160a01b0316336001600160a01b031614604051806060016040528060228152602001610d0e60229139906103c65760405162461bcd60e51b81526004018080602001828103825283818151815260200191508051906020019080838360005b8381101561038b578181015183820152602001610373565b50505050905090810190601f1680156103b85780820380516001836020036101000a031916815260200191505b509250505060405180910390fd5b50603655565b6103d46109f7565b603454604080516370a0823160e01b815230600482015290516000926001600160a01b0316916370a08231916024808301926020929190829003018186803b15801561041f57600080fd5b505afa158015610433573d6000803e3d6000fd5b505050506040513d602081101561044957600080fd5b50516034546035546040805163095ea7b360e01b81526001600160a01b03928316600482015260248101859052905193945091169163095ea7b3916044808201926020929091908290030181600087803b1580156104a657600080fd5b505af11580156104ba573d6000803e3d6000fd5b505050506040513d60208110156104d057600080fd5b50506035546034546036546040805162f5287b60e41b81526001600160a01b039384166004820152602481018690526001604482015260648101929092526084820187905263ffffffff861660a4830152519190921691630f5287b09160c480830192600092919082900301818387803b15801561054d57600080fd5b505af1158015610561573d6000803e3d6000fd5b50505050505050565b60606105746109f7565b60378054806020026020016040519081016040528092919081815260200182805480156105ca57602002820191906000526020600020905b81546001600160a01b031681526001909101906020018083116105ac575b505050505090505b90565b60006105df6109f7565b5060335461010090046001600160a01b031690565b60006105fe6109f7565b5060365490565b600054610100900460ff168061061e575061061e610a82565b8061062c575060005460ff16155b6106675760405162461bcd60e51b815260040180806020018281038252602e815260200180610ce0602e913960400191505060405180910390fd5b600054610100900460ff16158015610692576000805460ff1961ff0019909116610100171660011790555b6033805460ff1916600117905580156106b1576000805461ff00191690555b50565b6106bc6109f7565b603360019054906101000a90046001600160a01b03166001600160a01b0316336001600160a01b031614604051806060016040528060228152602001610d0e602291399061074b5760405162461bcd60e51b815260206004820181815283516024840152835190928392604490910191908501908083836000831561038b578181015183820152602001610373565b5061075860378383610b91565b505050565b600054610100900460ff16806107765750610776610a82565b80610784575060005460ff16155b6107bf5760405162461bcd60e51b815260040180806020018281038252602e815260200180610ce0602e913960400191505060405180910390fd5b600054610100900460ff161580156107ea576000805460ff1961ff0019909116610100171660011790555b6107f386610a88565b6040518060600160405280602a8152602001610cb6602a9139906108585760405162461bcd60e51b815260206004820181815283516024840152835190928392604490910191908501908083836000831561038b578181015183820152602001610373565b5061086284610a88565b6040518060600160405280602d8152602001610d30602d9139906108c75760405162461bcd60e51b815260206004820181815283516024840152835190928392604490910191908501908083836000831561038b578181015183820152602001610373565b50603480546001600160a01b038089166001600160a01b031992831617909255603580549287169290911691909117905560368390558151610910906037906020850190610bf4565b5061091a85610ac4565b610922610605565b8015610934576000805461ff00191690555b505050505050565b6109446109f7565b603360019054906101000a90046001600160a01b03166001600160a01b0316336001600160a01b031614604051806060016040528060228152602001610d0e60229139906109d35760405162461bcd60e51b815260206004820181815283516024840152835190928392604490910191908501908083836000831561038b578181015183820152602001610373565b506106b181610ac4565b60006109e76109f7565b506034546001600160a01b031690565b6033546040805180820190915260208082527f496e697469616c697a61626c6556323a204e6f7420696e697469616c697a6564908201529060ff1615156001146106b15760405162461bcd60e51b815260206004820181815283516024840152835190928392604490910191908501908083836000831561038b578181015183820152602001610373565b303b1590565b6000813f7fc5d2460186f7233c927e7db2dcc703c0e500b653ca82273b7bfad8045d85a470818114801590610abc57508115155b949350505050565b806001600160a01b0316630ea773076040518163ffffffff1660e01b815260040160206040518083038186803b158015610afd57600080fd5b505afa158015610b11573d6000803e3d6000fd5b505050506040513d6020811015610b2757600080fd5b50511515600114610b695760405162461bcd60e51b8152600401808060200182810382526048815260200180610c6e6048913960600191505060405180910390fd5b603380546001600160a01b0390921661010002610100600160a81b0319909216919091179055565b828054828255906000526020600020908101928215610be4579160200282015b82811115610be45781546001600160a01b0319166001600160a01b03843516178255602090920191600190910190610bb1565b50610bf0929150610c49565b5090565b828054828255906000526020600020908101928215610be4579160200282015b82811115610be457825182546001600160a01b0319166001600160a01b03909116178255602090920191600190910190610c14565b6105d291905b80821115610bf05780546001600160a01b0319168155600101610c4f56fe457468526577617264734d616e616765723a205f676f7665726e616e636541646472657373206973206e6f7420612076616c696420676f7665726e616e636520636f6e7472616374457468526577617264734d616e616765723a20746f6b656e206973206e6f74206120636f6e7472616374436f6e747261637420696e7374616e63652068617320616c7265616479206265656e20696e697469616c697a6564457468526577617264734d616e616765723a204f6e6c7920676f7665726e616e6365457468526577617264734d616e616765723a20776f726d686f6c65206973206e6f74206120636f6e7472616374a265627a7a72315820fb0d086745281ac6b36352bb1f505eca3d448e31cd46be10f1e2d566ec175ede64736f6c63430005110032",
  "source": "pragma solidity ^0.5.0;\n\nimport \"@openzeppelin/contracts-ethereum-package/contracts/token/ERC20/SafeERC20.sol\";\nimport \"@openzeppelin/contracts-ethereum-package/contracts/token/ERC20/ERC20.sol\";\nimport \"@openzeppelin/contracts-ethereum-package/contracts/utils/Address.sol\";\nimport \"./InitializableV2.sol\";\nimport \"./Governance.sol\";\nimport \"./IWormhole.sol\";\n\n\ncontract EthRewardsManager is InitializableV2 {\n    using SafeERC20 for ERC20;\n\n    string private constant ERROR_TOKEN_NOT_CONTRACT = (\n        \"EthRewardsManager: token is not a contract\"\n    );\n    string private constant ERROR_WORMHOLE_NOT_CONTRACT = (\n        \"EthRewardsManager: wormhole is not a contract\"\n    );\n    string private constant ERROR_ONLY_GOVERNANCE = (\n        \"EthRewardsManager: Only governance\"\n    );\n\n    address private governanceAddress;\n\n    /// @dev ERC-20 token that will be used to stake with\n    ERC20 internal audiusToken;\n    Wormhole internal wormhole;\n    bytes32 internal recipient;\n\n    address[] internal antiAbuseOracleAddresses;\n\n    /**\n     * @notice Function to initialize the contract\n     * @param _tokenAddress - address of ERC20 token\n     * @param _governanceAddress - address for Governance proxy contract\n     * @param _wormholeAddress - address for Wormhole contract\n     * @param _recipient - solana address of recipient\n     * @param _antiAbuseOracleAddresses - addresses for anti abuse oracle\n     */\n    function initialize(\n        address _tokenAddress,\n        address _governanceAddress,\n        address _wormholeAddress,\n        bytes32 _recipient,\n        address[] memory _antiAbuseOracleAddresses\n    ) public initializer {\n        require(Address.isContract(_tokenAddress), ERROR_TOKEN_NOT_CONTRACT);\n        require(\n            Address.isContract(_wormholeAddress),\n            ERROR_WORMHOLE_NOT_CONTRACT\n        );\n        audiusToken = ERC20(_tokenAddress);\n        wormhole = Wormhole(_wormholeAddress);\n        recipient = _recipient;\n        antiAbuseOracleAddresses = _antiAbuseOracleAddresses;\n        _updateGovernanceAddress(_governanceAddress);\n        InitializableV2.initialize();\n    }\n\n    /**\n     * @notice Set the Governance address\n     * @dev Only callable by Governance address\n     * @param _governanceAddress - address for new Governance contract\n     */\n    function setGovernanceAddress(address _governanceAddress) external {\n        _requireIsInitialized();\n\n        require(msg.sender == governanceAddress, ERROR_ONLY_GOVERNANCE);\n        _updateGovernanceAddress(_governanceAddress);\n    }\n\n    /**\n     * @notice Set the recipient address\n     * @dev Only callable by Governance address\n     * @param _recipient - address for new recipient\n     */\n    function setRecipientAddress(bytes32 _recipient) external {\n        _requireIsInitialized();\n\n        require(msg.sender == governanceAddress, ERROR_ONLY_GOVERNANCE);\n        recipient = _recipient;\n    }\n\n    /**\n     * @notice Set antiAbuseOracleAddresses\n     * @dev Only callable by Governance address\n     * @param _antiAbuseOracleAddresses - values of new anti abuse oracle addresses\n     */\n    function setAntiAbuseOracleAddresses(address[] calldata _antiAbuseOracleAddresses) external {\n        _requireIsInitialized();\n\n        require(msg.sender == governanceAddress, ERROR_ONLY_GOVERNANCE);\n        antiAbuseOracleAddresses = _antiAbuseOracleAddresses;\n    }\n\n    /* External functions */\n\n    /**\n     * @notice Transfers to solana\n     * @param arbiterFee - fee to pay wormhole arbiter\n     * @param _nonce - nonce for wormhole\n     */\n    function transferToSolana(uint256 arbiterFee, uint32 _nonce) external {\n        _requireIsInitialized();\n\n        uint256 balance = audiusToken.balanceOf(address(this));\n        audiusToken.approve(address(wormhole), balance);\n\n        wormhole.transferTokens(\n            address(audiusToken),\n            balance,\n            1,\n            recipient,\n            arbiterFee,\n            _nonce\n        );\n    }\n\n    /**\n     * @notice Get the token used by the contract\n     * @return The token used by the contract\n     */\n    function token() external view returns (address) {\n        _requireIsInitialized();\n\n        return address(audiusToken);\n    }\n\n    /// @notice Get the Governance address\n    function getGovernanceAddress() external view returns (address) {\n        _requireIsInitialized();\n\n        return governanceAddress;\n    }\n\n    /// @notice Get the recipient address\n    function getRecipientAddress() external view returns (bytes32) {\n        _requireIsInitialized();\n\n        return recipient;\n    }\n\n    /// @notice Get the anti abuse oracle addresses\n    function getAntiAbuseOracleAddresses() external view returns (address[] memory) {\n        _requireIsInitialized();\n\n        return antiAbuseOracleAddresses;\n    }\n\n    // ========================================= Internal Functions =========================================\n\n    /**\n     * @notice Set the governance address after confirming contract identity\n     * @param _governanceAddress - Incoming governance address\n     */\n    function _updateGovernanceAddress(address _governanceAddress) internal {\n        require(\n            Governance(_governanceAddress).isGovernanceAddress() == true,\n            \"EthRewardsManager: _governanceAddress is not a valid governance contract\"\n        );\n        governanceAddress = _governanceAddress;\n    }\n}\n",
  "sourcePath": "/usr/src/app/contracts/EthRewardsManager.sol",
  "compiler": {
    "name": "solc",
    "version": "0.5.17+commit.d19bba13.Emscripten.clang"
  },
  "schemaVersion": "3.4.4",
  "updatedAt": "2023-03-02T06:41:29.189Z",
  "devdoc": {
    "methods": {
      "initialize(address,address,address,bytes32,address[])": {
        "params": {
          "_antiAbuseOracleAddresses": "- addresses for anti abuse oracle",
          "_governanceAddress": "- address for Governance proxy contract",
          "_recipient": "- solana address of recipient",
          "_tokenAddress": "- address of ERC20 token",
          "_wormholeAddress": "- address for Wormhole contract"
        }
      },
      "setAntiAbuseOracleAddresses(address[])": {
        "details": "Only callable by Governance address",
        "params": {
          "_antiAbuseOracleAddresses": "- values of new anti abuse oracle addresses"
        }
      },
      "setGovernanceAddress(address)": {
        "details": "Only callable by Governance address",
        "params": {
          "_governanceAddress": "- address for new Governance contract"
        }
      },
      "setRecipientAddress(bytes32)": {
        "details": "Only callable by Governance address",
        "params": {
          "_recipient": "- address for new recipient"
        }
      },
      "token()": {
        "return": "The token used by the contract"
      },
      "transferToSolana(uint256,uint32)": {
        "params": {
          "_nonce": "- nonce for wormhole",
          "arbiterFee": "- fee to pay wormhole arbiter"
        }
      }
    }
  },
  "userdoc": {
    "methods": {
      "getAntiAbuseOracleAddresses()": {
        "notice": "Get the anti abuse oracle addresses"
      },
      "getGovernanceAddress()": {
        "notice": "Get the Governance address"
      },
      "getRecipientAddress()": {
        "notice": "Get the recipient address"
      },
      "initialize()": {
        "notice": "wrapper function around parent contract Initializable's `initializable` modifier     initializable modifier ensures this function can only be called once by each deployed child contract     sets isInitialized flag to true to which is used by _requireIsInitialized()"
      },
      "initialize(address,address,address,bytes32,address[])": {
        "notice": "Function to initialize the contract"
      },
      "setAntiAbuseOracleAddresses(address[])": {
        "notice": "Set antiAbuseOracleAddresses"
      },
      "setGovernanceAddress(address)": {
        "notice": "Set the Governance address"
      },
      "setRecipientAddress(bytes32)": {
        "notice": "Set the recipient address"
      },
      "token()": {
        "notice": "Get the token used by the contract"
      },
      "transferToSolana(uint256,uint32)": {
        "notice": "Transfers to solana"
      }
    }
  }
}