{
  "contractName": "GovernanceUpgraded",
  "abi": [
    {
      "anonymous": false,
      "inputs": [
        {
          "indexed": true,
          "internalType": "uint256",
          "name": "_newExecutionDelay",
          "type": "uint256"
        }
      ],
      "name": "ExecutionDelayUpdated",
      "type": "event"
    },
    {
      "anonymous": false,
      "inputs": [
        {
          "indexed": true,
          "internalType": "address",
          "name": "_targetContractAddress",
          "type": "address"
        },
        {
          "indexed": false,
          "internalType": "uint256",
          "name": "_callValue",
          "type": "uint256"
        },
        {
          "indexed": true,
          "internalType": "string",
          "name": "_functionSignature",
          "type": "string"
        },
        {
          "indexed": true,
          "internalType": "bytes",
          "name": "_callData",
          "type": "bytes"
        },
        {
          "indexed": false,
          "internalType": "bytes",
          "name": "_returnData",
          "type": "bytes"
        }
      ],
      "name": "GuardianTransactionExecuted",
      "type": "event"
    },
    {
      "anonymous": false,
      "inputs": [
        {
          "indexed": true,
          "internalType": "address",
          "name": "_newGuardianAddress",
          "type": "address"
        }
      ],
      "name": "GuardianshipTransferred",
      "type": "event"
    },
    {
      "anonymous": false,
      "inputs": [
        {
          "indexed": true,
          "internalType": "uint256",
          "name": "_newMaxInProgressProposals",
          "type": "uint256"
        }
      ],
      "name": "MaxInProgressProposalsUpdated",
      "type": "event"
    },
    {
      "anonymous": false,
      "inputs": [
        {
          "indexed": true,
          "internalType": "uint256",
          "name": "_proposalId",
          "type": "uint256"
        },
        {
          "indexed": true,
          "internalType": "enum Governance.Outcome",
          "name": "_outcome",
          "type": "uint8"
        },
        {
          "indexed": false,
          "internalType": "uint256",
          "name": "_voteMagnitudeYes",
          "type": "uint256"
        },
        {
          "indexed": false,
          "internalType": "uint256",
          "name": "_voteMagnitudeNo",
          "type": "uint256"
        },
        {
          "indexed": false,
          "internalType": "uint256",
          "name": "_numVotes",
          "type": "uint256"
        }
      ],
      "name": "ProposalOutcomeEvaluated",
      "type": "event"
    },
    {
      "anonymous": false,
      "inputs": [
        {
          "indexed": true,
          "internalType": "uint256",
          "name": "_proposalId",
          "type": "uint256"
        },
        {
          "indexed": true,
          "internalType": "address",
          "name": "_proposer",
          "type": "address"
        },
        {
          "indexed": false,
          "internalType": "string",
          "name": "_name",
          "type": "string"
        },
        {
          "indexed": false,
          "internalType": "string",
          "name": "_description",
          "type": "string"
        }
      ],
      "name": "ProposalSubmitted",
      "type": "event"
    },
    {
      "anonymous": false,
      "inputs": [
        {
          "indexed": true,
          "internalType": "uint256",
          "name": "_proposalId",
          "type": "uint256"
        },
        {
          "indexed": true,
          "internalType": "bool",
          "name": "_success",
          "type": "bool"
        },
        {
          "indexed": false,
          "internalType": "bytes",
          "name": "_returnData",
          "type": "bytes"
        }
      ],
      "name": "ProposalTransactionExecuted",
      "type": "event"
    },
    {
      "anonymous": false,
      "inputs": [
        {
          "indexed": true,
          "internalType": "uint256",
          "name": "_proposalId",
          "type": "uint256"
        }
      ],
      "name": "ProposalVetoed",
      "type": "event"
    },
    {
      "anonymous": false,
      "inputs": [
        {
          "indexed": true,
          "internalType": "uint256",
          "name": "_proposalId",
          "type": "uint256"
        },
        {
          "indexed": true,
          "internalType": "address",
          "name": "_voter",
          "type": "address"
        },
        {
          "indexed": true,
          "internalType": "enum Governance.Vote",
          "name": "_vote",
          "type": "uint8"
        },
        {
          "indexed": false,
          "internalType": "uint256",
          "name": "_voterStake",
          "type": "uint256"
        }
      ],
      "name": "ProposalVoteSubmitted",
      "type": "event"
    },
    {
      "anonymous": false,
      "inputs": [
        {
          "indexed": true,
          "internalType": "uint256",
          "name": "_proposalId",
          "type": "uint256"
        },
        {
          "indexed": true,
          "internalType": "address",
          "name": "_voter",
          "type": "address"
        },
        {
          "indexed": true,
          "internalType": "enum Governance.Vote",
          "name": "_vote",
          "type": "uint8"
        },
        {
          "indexed": false,
          "internalType": "uint256",
          "name": "_voterStake",
          "type": "uint256"
        },
        {
          "indexed": false,
          "internalType": "enum Governance.Vote",
          "name": "_previousVote",
          "type": "uint8"
        }
      ],
      "name": "ProposalVoteUpdated",
      "type": "event"
    },
    {
      "anonymous": false,
      "inputs": [
        {
          "indexed": true,
          "internalType": "address",
          "name": "_newRegistryAddress",
          "type": "address"
        }
      ],
      "name": "RegistryAddressUpdated",
      "type": "event"
    },
    {
      "anonymous": false,
      "inputs": [
        {
          "indexed": true,
          "internalType": "uint256",
          "name": "_newVotingPeriod",
          "type": "uint256"
        }
      ],
      "name": "VotingPeriodUpdated",
      "type": "event"
    },
    {
      "anonymous": false,
      "inputs": [
        {
          "indexed": true,
          "internalType": "uint256",
          "name": "_newVotingQuorumPercent",
          "type": "uint256"
        }
      ],
      "name": "VotingQuorumPercentUpdated",
      "type": "event"
    },
    {
      "constant": false,
      "inputs": [
        {
          "internalType": "uint256",
          "name": "_proposalId",
          "type": "uint256"
        }
      ],
      "name": "evaluateProposalOutcome",
      "outputs": [
        {
          "internalType": "enum Governance.Outcome",
          "name": "",
          "type": "uint8"
        }
      ],
      "payable": false,
      "stateMutability": "nonpayable",
      "type": "function"
    },
    {
      "constant": true,
      "inputs": [],
      "name": "getDelegateManagerAddress",
      "outputs": [
        {
          "internalType": "address",
          "name": "",
          "type": "address"
        }
      ],
      "payable": false,
      "stateMutability": "view",
      "type": "function"
    },
    {
      "constant": true,
      "inputs": [],
      "name": "getExecutionDelay",
      "outputs": [
        {
          "internalType": "uint256",
          "name": "",
          "type": "uint256"
        }
      ],
      "payable": false,
      "stateMutability": "view",
      "type": "function"
    },
    {
      "constant": true,
      "inputs": [],
      "name": "getGuardianAddress",
      "outputs": [
        {
          "internalType": "address",
          "name": "",
          "type": "address"
        }
      ],
      "payable": false,
      "stateMutability": "view",
      "type": "function"
    },
    {
      "constant": true,
      "inputs": [],
      "name": "getInProgressProposals",
      "outputs": [
        {
          "internalType": "uint256[]",
          "name": "",
          "type": "uint256[]"
        }
      ],
      "payable": false,
      "stateMutability": "view",
      "type": "function"
    },
    {
      "constant": true,
      "inputs": [],
      "name": "getMaxInProgressProposals",
      "outputs": [
        {
          "internalType": "uint16",
          "name": "",
          "type": "uint16"
        }
      ],
      "payable": false,
      "stateMutability": "view",
      "type": "function"
    },
    {
      "constant": true,
      "inputs": [
        {
          "internalType": "uint256",
          "name": "_proposalId",
          "type": "uint256"
        }
      ],
      "name": "getProposalById",
      "outputs": [
        {
          "internalType": "uint256",
          "name": "proposalId",
          "type": "uint256"
        },
        {
          "internalType": "address",
          "name": "proposer",
          "type": "address"
        },
        {
          "internalType": "uint256",
          "name": "submissionBlockNumber",
          "type": "uint256"
        },
        {
          "internalType": "bytes32",
          "name": "targetContractRegistryKey",
          "type": "bytes32"
        },
        {
          "internalType": "address",
          "name": "targetContractAddress",
          "type": "address"
        },
        {
          "internalType": "uint256",
          "name": "callValue",
          "type": "uint256"
        },
        {
          "internalType": "string",
          "name": "functionSignature",
          "type": "string"
        },
        {
          "internalType": "bytes",
          "name": "callData",
          "type": "bytes"
        },
        {
          "internalType": "enum Governance.Outcome",
          "name": "outcome",
          "type": "uint8"
        },
        {
          "internalType": "uint256",
          "name": "voteMagnitudeYes",
          "type": "uint256"
        },
        {
          "internalType": "uint256",
          "name": "voteMagnitudeNo",
          "type": "uint256"
        },
        {
          "internalType": "uint256",
          "name": "numVotes",
          "type": "uint256"
        }
      ],
      "payable": false,
      "stateMutability": "view",
      "type": "function"
    },
    {
      "constant": true,
      "inputs": [
        {
          "internalType": "uint256",
          "name": "_proposalId",
          "type": "uint256"
        }
      ],
      "name": "getProposalTargetContractHash",
      "outputs": [
        {
          "internalType": "bytes32",
          "name": "",
          "type": "bytes32"
        }
      ],
      "payable": false,
      "stateMutability": "view",
      "type": "function"
    },
    {
      "constant": true,
      "inputs": [],
      "name": "getRegistryAddress",
      "outputs": [
        {
          "internalType": "address",
          "name": "",
          "type": "address"
        }
      ],
      "payable": false,
      "stateMutability": "view",
      "type": "function"
    },
    {
      "constant": true,
      "inputs": [],
      "name": "getServiceProviderFactoryAddress",
      "outputs": [
        {
          "internalType": "address",
          "name": "",
          "type": "address"
        }
      ],
      "payable": false,
      "stateMutability": "view",
      "type": "function"
    },
    {
      "constant": true,
      "inputs": [],
      "name": "getStakingAddress",
      "outputs": [
        {
          "internalType": "address",
          "name": "",
          "type": "address"
        }
      ],
      "payable": false,
      "stateMutability": "view",
      "type": "function"
    },
    {
      "constant": true,
      "inputs": [
        {
          "internalType": "uint256",
          "name": "_proposalId",
          "type": "uint256"
        },
        {
          "internalType": "address",
          "name": "_voter",
          "type": "address"
        }
      ],
      "name": "getVoteInfoByProposalAndVoter",
      "outputs": [
        {
          "internalType": "enum Governance.Vote",
          "name": "vote",
          "type": "uint8"
        },
        {
          "internalType": "uint256",
          "name": "voteMagnitude",
          "type": "uint256"
        }
      ],
      "payable": false,
      "stateMutability": "view",
      "type": "function"
    },
    {
      "constant": true,
      "inputs": [],
      "name": "getVotingPeriod",
      "outputs": [
        {
          "internalType": "uint256",
          "name": "",
          "type": "uint256"
        }
      ],
      "payable": false,
      "stateMutability": "view",
      "type": "function"
    },
    {
      "constant": true,
      "inputs": [],
      "name": "getVotingQuorumPercent",
      "outputs": [
        {
          "internalType": "uint256",
          "name": "",
          "type": "uint256"
        }
      ],
      "payable": false,
      "stateMutability": "view",
      "type": "function"
    },
    {
      "constant": false,
      "inputs": [
        {
          "internalType": "bytes32",
          "name": "_targetContractRegistryKey",
          "type": "bytes32"
        },
        {
          "internalType": "uint256",
          "name": "_callValue",
          "type": "uint256"
        },
        {
          "internalType": "string",
          "name": "_functionSignature",
          "type": "string"
        },
        {
          "internalType": "bytes",
          "name": "_callData",
          "type": "bytes"
        }
      ],
      "name": "guardianExecuteTransaction",
      "outputs": [],
      "payable": false,
      "stateMutability": "nonpayable",
      "type": "function"
    },
    {
      "constant": true,
      "inputs": [],
      "name": "inProgressProposalsAreUpToDate",
      "outputs": [
        {
          "internalType": "bool",
          "name": "",
          "type": "bool"
        }
      ],
      "payable": false,
      "stateMutability": "view",
      "type": "function"
    },
    {
      "constant": false,
      "inputs": [
        {
          "internalType": "address",
          "name": "_registryAddress",
          "type": "address"
        },
        {
          "internalType": "uint256",
          "name": "_votingPeriod",
          "type": "uint256"
        },
        {
          "internalType": "uint256",
          "name": "_executionDelay",
          "type": "uint256"
        },
        {
          "internalType": "uint256",
          "name": "_votingQuorumPercent",
          "type": "uint256"
        },
        {
          "internalType": "uint16",
          "name": "_maxInProgressProposals",
          "type": "uint16"
        },
        {
          "internalType": "address",
          "name": "_guardianAddress",
          "type": "address"
        }
      ],
      "name": "initialize",
      "outputs": [],
      "payable": false,
      "stateMutability": "nonpayable",
      "type": "function"
    },
    {
      "constant": false,
      "inputs": [],
      "name": "initialize",
      "outputs": [],
      "payable": false,
      "stateMutability": "nonpayable",
      "type": "function"
    },
    {
      "constant": true,
      "inputs": [],
      "name": "isGovernanceAddress",
      "outputs": [
        {
          "internalType": "bool",
          "name": "",
          "type": "bool"
        }
      ],
      "payable": false,
      "stateMutability": "pure",
      "type": "function"
    },
    {
      "constant": false,
      "inputs": [
        {
          "internalType": "address",
          "name": "_delegateManagerAddress",
          "type": "address"
        }
      ],
      "name": "setDelegateManagerAddress",
      "outputs": [],
      "payable": false,
      "stateMutability": "nonpayable",
      "type": "function"
    },
    {
      "constant": false,
      "inputs": [
        {
          "internalType": "uint256",
          "name": "_newExecutionDelay",
          "type": "uint256"
        }
      ],
      "name": "setExecutionDelay",
      "outputs": [],
      "payable": false,
      "stateMutability": "nonpayable",
      "type": "function"
    },
    {
      "constant": false,
      "inputs": [
        {
          "internalType": "uint16",
          "name": "_newMaxInProgressProposals",
          "type": "uint16"
        }
      ],
      "name": "setMaxInProgressProposals",
      "outputs": [],
      "payable": false,
      "stateMutability": "nonpayable",
      "type": "function"
    },
    {
      "constant": false,
      "inputs": [
        {
          "internalType": "address",
          "name": "_registryAddress",
          "type": "address"
        }
      ],
      "name": "setRegistryAddress",
      "outputs": [],
      "payable": false,
      "stateMutability": "nonpayable",
      "type": "function"
    },
    {
      "constant": false,
      "inputs": [
        {
          "internalType": "address",
          "name": "_serviceProviderFactoryAddress",
          "type": "address"
        }
      ],
      "name": "setServiceProviderFactoryAddress",
      "outputs": [],
      "payable": false,
      "stateMutability": "nonpayable",
      "type": "function"
    },
    {
      "constant": false,
      "inputs": [
        {
          "internalType": "address",
          "name": "_stakingAddress",
          "type": "address"
        }
      ],
      "name": "setStakingAddress",
      "outputs": [],
      "payable": false,
      "stateMutability": "nonpayable",
      "type": "function"
    },
    {
      "constant": false,
      "inputs": [
        {
          "internalType": "uint256",
          "name": "_votingPeriod",
          "type": "uint256"
        }
      ],
      "name": "setVotingPeriod",
      "outputs": [],
      "payable": false,
      "stateMutability": "nonpayable",
      "type": "function"
    },
    {
      "constant": false,
      "inputs": [
        {
          "internalType": "uint256",
          "name": "_votingQuorumPercent",
          "type": "uint256"
        }
      ],
      "name": "setVotingQuorumPercent",
      "outputs": [],
      "payable": false,
      "stateMutability": "nonpayable",
      "type": "function"
    },
    {
      "constant": false,
      "inputs": [
        {
          "internalType": "bytes32",
          "name": "_targetContractRegistryKey",
          "type": "bytes32"
        },
        {
          "internalType": "uint256",
          "name": "_callValue",
          "type": "uint256"
        },
        {
          "internalType": "string",
          "name": "_functionSignature",
          "type": "string"
        },
        {
          "internalType": "bytes",
          "name": "_callData",
          "type": "bytes"
        },
        {
          "internalType": "string",
          "name": "_name",
          "type": "string"
        },
        {
          "internalType": "string",
          "name": "_description",
          "type": "string"
        }
      ],
      "name": "submitProposal",
      "outputs": [
        {
          "internalType": "uint256",
          "name": "",
          "type": "uint256"
        }
      ],
      "payable": false,
      "stateMutability": "nonpayable",
      "type": "function"
    },
    {
      "constant": false,
      "inputs": [
        {
          "internalType": "uint256",
          "name": "_proposalId",
          "type": "uint256"
        },
        {
          "internalType": "enum Governance.Vote",
          "name": "_vote",
          "type": "uint8"
        }
      ],
      "name": "submitVote",
      "outputs": [],
      "payable": false,
      "stateMutability": "nonpayable",
      "type": "function"
    },
    {
      "constant": false,
      "inputs": [
        {
          "internalType": "address",
          "name": "_newGuardianAddress",
          "type": "address"
        }
      ],
      "name": "transferGuardianship",
      "outputs": [],
      "payable": false,
      "stateMutability": "nonpayable",
      "type": "function"
    },
    {
      "constant": false,
      "inputs": [
        {
          "internalType": "uint256",
          "name": "_proposalId",
          "type": "uint256"
        },
        {
          "internalType": "enum Governance.Vote",
          "name": "_vote",
          "type": "uint8"
        }
      ],
      "name": "updateVote",
      "outputs": [],
      "payable": false,
      "stateMutability": "nonpayable",
      "type": "function"
    },
    {
      "constant": false,
      "inputs": [
        {
          "internalType": "uint256",
          "name": "_proposalId",
          "type": "uint256"
        }
      ],
      "name": "vetoProposal",
      "outputs": [],
      "payable": false,
      "stateMutability": "nonpayable",
      "type": "function"
    },
    {
      "constant": true,
      "inputs": [],
      "name": "newFunction",
      "outputs": [
        {
          "internalType": "uint256",
          "name": "",
          "type": "uint256"
        }
      ],
      "payable": false,
      "stateMutability": "view",
      "type": "function"
    }
  ],
  "bytecode": "0x60806040526000603b5534801561001557600080fd5b50614215806100256000396000f3fe608060405234801561001057600080fd5b50600436106101fa5760003560e01c80638aad517d1161011a578063b4e12e2c116100ad578063ea0217cf1161007c578063ea0217cf146108e6578063ea63d65114610903578063ea7e6ffb14610929578063f21de1e814610931578063f4e0d9ac14610939576101fa565b8063b4e12e2c146107d6578063c47afb54146108a0578063d16543f6146108c1578063e4917d9f146108c9576101fa565b806399653fbe116100e957806399653fbe146105fa5780639cef4240146106205780639fa0bc9414610646578063ab7b4993146107b0576101fa565b80638aad517d146105115780638aeda86b146105685780638b6572901461058557806398b93cb5146105a2576101fa565b80633656de21116101925780636ec9e644116101615780636ec9e644146104855780636f65108c146104ab5780637476f748146104c85780638129fc1c14610509576101fa565b80633656de21146102b85780633ecc6a431461042b57806355c66ac1146104335780635c51bc731461047d576101fa565b80630ea77307116101ce5780630ea77307146102645780631b28d63e14610280578063201ae9db146102885780632b95acf3146102b0576101fa565b80622ae74a146101ff57806306288885146102235780630b0543f91461023d5780630e9ed68b1461025c575b600080fd5b61020761095f565b604080516001600160a01b039092168252519081900360200190f35b61022b61097a565b60408051918252519081900360200190f35b61024561098b565b6040805161ffff9092168252519081900360200190f35b6102076109a0565b61026c6109ba565b604080519115158252519081900360200190f35b61022b6109bf565b6102ae6004803603602081101561029e57600080fd5b50356001600160a01b03166109cf565b005b61022b610ae5565b6102d5600480360360208110156102ce57600080fd5b5035610af6565b604051808d81526020018c6001600160a01b03166001600160a01b031681526020018b81526020018a8152602001896001600160a01b03166001600160a01b03168152602001888152602001806020018060200187600881111561033557fe5b60ff168152602001868152602001858152602001848152602001838103835289818151815260200191508051906020019080838360005b8381101561038457818101518382015260200161036c565b50505050905090810190601f1680156103b15780820380516001836020036101000a031916815260200191505b5083810382528851815288516020918201918a019080838360005b838110156103e45781810151838201526020016103cc565b50505050905090810190601f1680156104115780820380516001836020036101000a031916815260200191505b509e50505050505050505050505050505060405180910390f35b61022b610d69565b6102ae600480360360c081101561044957600080fd5b506001600160a01b03813581169160208101359160408201359160608101359161ffff6080830135169160a0013516610d7a565b61020761106e565b6102ae6004803603604081101561049b57600080fd5b508035906020013560ff1661108e565b6102ae600480360360208110156104c157600080fd5b5035611356565b6104e5600480360360208110156104de57600080fd5b5035611466565b604051808260088111156104f557fe5b60ff16815260200191505060405180910390f35b6102ae611b28565b61053d6004803603604081101561052757600080fd5b50803590602001356001600160a01b0316611bd7565b6040518083600281111561054d57fe5b60ff1681526020018281526020019250505060405180910390f35b6102ae6004803603602081101561057e57600080fd5b5035611c2a565b61022b6004803603602081101561059b57600080fd5b5035611d46565b6105aa611d6f565b60408051602080825283518183015283519192839290830191858101910280838360005b838110156105e65781810151838201526020016105ce565b505050509050019250505060405180910390f35b6102ae6004803603604081101561061057600080fd5b508035906020013560ff16611dcf565b6102ae6004803603602081101561063657600080fd5b50356001600160a01b03166120a8565b61022b600480360360c081101561065c57600080fd5b813591602081013591810190606081016040820135600160201b81111561068257600080fd5b82018360208201111561069457600080fd5b803590602001918460018302840111600160201b831117156106b557600080fd5b919390929091602081019035600160201b8111156106d257600080fd5b8201836020820111156106e457600080fd5b803590602001918460018302840111600160201b8311171561070557600080fd5b919390929091602081019035600160201b81111561072257600080fd5b82018360208201111561073457600080fd5b803590602001918460018302840111600160201b8311171561075557600080fd5b919390929091602081019035600160201b81111561077257600080fd5b82018360208201111561078457600080fd5b803590602001918460018302840111600160201b831117156107a557600080fd5b509092509050612169565b6102ae600480360360208110156107c657600080fd5b50356001600160a01b031661272b565b6102ae600480360360808110156107ec57600080fd5b813591602081013591810190606081016040820135600160201b81111561081257600080fd5b82018360208201111561082457600080fd5b803590602001918460018302840111600160201b8311171561084557600080fd5b919390929091602081019035600160201b81111561086257600080fd5b82018360208201111561087457600080fd5b803590602001918460018302840111600160201b8311171561089557600080fd5b50909250905061286c565b6102ae600480360360208110156108b657600080fd5b503561ffff16612b98565b610207612c8d565b6102ae600480360360208110156108df57600080fd5b5035612ca7565b6102ae600480360360208110156108fc57600080fd5b5035612d4c565b6102ae6004803603602081101561091957600080fd5b50356001600160a01b0316612e5b565b61026c612f34565b610207612fb4565b6102ae6004803603602081101561094f57600080fd5b50356001600160a01b0316612fd3565b60006109696130ac565b506035546001600160a01b03165b90565b60006109846130ac565b5060385490565b60006109956130ac565b50603a5461ffff1690565b60006109aa6130ac565b506034546001600160a01b031690565b600190565b60006109c96130ac565b50600590565b6109d76130ac565b604080516060810190915260218082523330149190613fd4602083013990610a7d5760405162461bcd60e51b81526004018080602001828103825283818151815260200191508051906020019080838360005b83811015610a42578181015183820152602001610a2a565b50505050905090810190601f168015610a6f5780820380516001836020036101000a031916815260200191505b509250505060405180910390fd5b506001600160a01b038116610ac35760405162461bcd60e51b815260040180806020018281038252603c815260200180613c8e603c913960400191505060405180910390fd5b603580546001600160a01b0319166001600160a01b0392909216919091179055565b6000610aef6130ac565b5060395490565b600080600080600080606080600080600080610b106130ac565b610b198d613137565b610b216139fa565b60008e8152603c602090815260409182902082516101a081018452815481526001808301546001600160a01b0390811683860152600280850154848801526003850154606085015260048501549091166080840152600584015460a084015260068401805487516101009482161594909402600019011691909104601f81018690048602830186019096528582529194929360c086019391929190830182828015610c0d5780601f10610be257610100808354040283529160200191610c0d565b820191906000526020600020905b815481529060010190602001808311610bf057829003601f168201915b505050918352505060078201805460408051602060026001851615610100026000190190941693909304601f8101849004840282018401909252818152938201939291830182828015610ca15780601f10610c7657610100808354040283529160200191610ca1565b820191906000526020600020905b815481529060010190602001808311610c8457829003601f168201915b505050918352505060088281015460209092019160ff1690811115610cc257fe5b6008811115610ccd57fe5b815260200160098201548152602001600a8201548152602001600b8201548152602001600e820154815250509050806000015181602001518260400151836060015184608001518560a001518660c001518760e001518861010001518961012001518a61014001518b61016001518595508494509c509c509c509c509c509c509c509c509c509c509c509c505091939597999b5091939597999b565b6000610d736130ac565b5060375490565b600054610100900460ff1680610d935750610d93613184565b80610da1575060005460ff16155b610ddc5760405162461bcd60e51b815260040180806020018281038252602e815260200180613fa6602e913960400191505060405180910390fd5b600054610100900460ff16158015610e07576000805460ff1961ff0019909116610100171660011790555b60006001600160a01b0316876001600160a01b031614156040518060600160405280602e8152602001613e1c602e913990610e835760405162461bcd60e51b8152602060048201818152835160248401528351909283926044909101919085019080838360008315610a42578181015183820152602001610a2a565b5060338054610100600160a81b0319166101006001600160a01b038a16021790556040805160608101909152602b8082528715159190613cca602083013990610f0d5760405162461bcd60e51b8152602060048201818152835160248401528351909283926044909101919085019080838360008315610a42578181015183820152602001610a2a565b506037869055603885905561ffff8316610f585760405162461bcd60e51b8152600401808060200182810382526035815260200180613de76035913960400191505060405180910390fd5b603a805461ffff191661ffff85161790558315801590610f79575060648411155b604051806060016040528060398152602001613c066039913990610fde5760405162461bcd60e51b8152602060048201818152835160248401528351909283926044909101919085019080838360008315610a42578181015183820152602001610a2a565b5060398490556001600160a01b0382166110295760405162461bcd60e51b815260040180806020018281038252602e815260200180613b32602e913960400191505060405180910390fd5b603a805462010000600160b01b031916620100006001600160a01b03851602179055611053611b28565b8015611065576000805461ff00191690555b50505050505050565b60006110786130ac565b50603a546201000090046001600160a01b031690565b6110966130ac565b61109e61318a565b6110a66131d3565b6110ae61321a565b6110b782613137565b6000828152603c60205260408120600201546037543392906110e090839063ffffffff61326116565b905081431180156110f15750804311155b61112c5760405162461bcd60e51b815260040180806020018281038252602b815260200180614019602b913960400191505060405180910390fd5b6000858152603c602090815260408083206001600160a01b0387168452600c0190915281205460ff169081600281111561116257fe5b141561119f5760405162461bcd60e51b8152600401808060200182810382526031815260200180613d846031913960400191505060405180910390fd5b60028560028111156111ad57fe5b14806111c4575060018560028111156111c257fe5b145b6111ff5760405162461bcd60e51b815260040180806020018281038252602c815260200180613e4a602c913960400191505060405180910390fd5b6000868152603c602090815260408083206001600160a01b0388168452600c019091529020805486919060ff1916600183600281111561123b57fe5b02179055506000868152603c602090815260408083206001600160a01b0388168452600d01909152902054600282600281111561127457fe5b14801561128c5750600186600281111561128a57fe5b145b156112aa5761129b87826132c4565b6112a587826132ff565b6112e9565b60018260028111156112b857fe5b1480156112d0575060028660028111156112ce57fe5b145b156112e9576112df878261333a565b6112e9878261335c565b8560028111156112f557fe5b856001600160a01b0316887fce17252ae577424288e3ad071d9d5e757aeb4cdfaa1877449a20b54951474a3a84866040518083815260200182600281111561133957fe5b60ff1681526020019250505060405180910390a450505050505050565b61135e6130ac565b61136781613137565b603a546201000090046001600160a01b031633146113b65760405162461bcd60e51b815260040180806020018281038252602d815260200180613bd9602d913960400191505060405180910390fd5b6000818152603c6020526040812060089081015460ff16908111156113d757fe5b146114135760405162461bcd60e51b815260040180806020018281038252602a815260200180613c64602a913960400191505060405180910390fd5b6000818152603c60205260409020600801805460ff191660061790556114388161337e565b60405181907fde0cea2a3a0097cc3d981d40c375407760e85bc9c5e69aea449ac3885f8615c690600090a250565b60006114706130ac565b61147861318a565b6114806131d3565b61148861321a565b61149182613137565b6000828152603c6020526040812060089081015460ff16908111156114b257fe5b146114ee5760405162461bcd60e51b8152600401808060200182810382526032815260200180613db56032913960400191505060405180910390fd5b6000828152603c6020526040812060088101805460ff19166005179055600201546038546037549192916115349190611528908590613261565b9063ffffffff61326116565b90508043116115745760405162461bcd60e51b815260040180806020018281038252604e815260200180613b60604e913960600191505060405180910390fd5b6033546000858152603c60209081526040808320600301548151631c2d8fb360e31b815260048101919091529051929361010090046001600160a01b03169263e16c7d9892602480840193919291829003018186803b1580156115d657600080fd5b505afa1580156115ea573d6000803e3d6000fd5b505050506040513d602081101561160057600080fd5b50516000868152603c6020526040812060040154919250906001600160a01b0380841691161461163257506007611a75565b6000868152603c60205260409020600e015461164d83613417565b1461165a57506008611a75565b6000868152603c602090815260409182902082516101a081018452815481526001808301546001600160a01b0390811683860152600280850154848801526003850154606085015260048501549091166080840152600584015460a084015260068401805487516101009482161594909402600019011691909104601f810186900486028301860190965285825261184295929460c0860193908301828280156117455780601f1061171a57610100808354040283529160200191611745565b820191906000526020600020905b81548152906001019060200180831161172857829003601f168201915b505050918352505060078201805460408051602060026001851615610100026000190190941693909304601f81018490048402820184019092528181529382019392918301828280156117d95780601f106117ae576101008083540402835291602001916117d9565b820191906000526020600020905b8154815290600101906020018083116117bc57829003601f168201915b505050918352505060088281015460209092019160ff16908111156117fa57fe5b600881111561180557fe5b815260098201546020820152600a8201546040820152600b8201546060820152600e909101546080909101526034546001600160a01b031661341b565b61184e57506003611a75565b6000868152603c60205260409020600a8101546009909101541115611a71576000868152603c60209081526040808320600581015460069091018054835160026001831615610100026000190190921691909104601f81018690048602820186019094528381526060946119b594899493918301828280156119115780601f106118e657610100808354040283529160200191611911565b820191906000526020600020905b8154815290600101906020018083116118f457829003601f168201915b50505060008e8152603c60209081526040918290206007018054835160026001831615610100026000190190921691909104601f8101849004840282018401909452838152945092508301828280156119ab5780601f10611980576101008083540402835291602001916119ab565b820191906000526020600020905b81548152906001019060200180831161198e57829003601f168201915b50505050506134cc565b91509150811515887fa85727613e00cfd4688ad13995391ed4b4cd9e493bcb978393d8fddeec804dbd836040518080602001828103825283818151815260200191508051906020019080838360005b83811015611a1c578181015183820152602001611a04565b50505050905090810190601f168015611a495780820380516001836020036101000a031916815260200191505b509250505060405180910390a38115611a655760029250611a6a565b600492505b5050611a75565b5060015b6000868152603c6020526040902060089081018054839260ff19909116906001908490811115611aa157fe5b0217905550611aaf8661337e565b806008811115611abb57fe5b6000878152603c60209081526040918290206009810154600a820154600b9092015484519182529281019190915280830191909152905188917fb5c05f2b4df457fb2a62ca282c87338fa901f0b7de530321f507d59859cc11cf919081900360600190a395945050505050565b600054610100900460ff1680611b415750611b41613184565b80611b4f575060005460ff16155b611b8a5760405162461bcd60e51b815260040180806020018281038252602e815260200180613fa6602e913960400191505060405180910390fd5b600054610100900460ff16158015611bb5576000805460ff1961ff0019909116610100171660011790555b6033805460ff191660011790558015611bd4576000805461ff00191690555b50565b600080611be26130ac565b611beb84613137565b50506000918252603c602090815260408084206001600160a01b03939093168452600c8301825280842054600d9093019091529091205460ff90911691565b611c326130ac565b604080516060810190915260218082523330149190613fd4602083013990611c9b5760405162461bcd60e51b8152602060048201818152835160248401528351909283926044909101919085019080838360008315610a42578181015183820152602001610a2a565b50600081118015611cad575060648111155b604051806060016040528060398152602001613c066039913990611d125760405162461bcd60e51b8152602060048201818152835160248401528351909283926044909101919085019080838360008315610a42578181015183820152602001610a2a565b50603981905560405181907fdff2dad820b0b9218ba7ff3552dda2e644f04c9933b9c6e6e30db59568056d7690600090a250565b6000611d506130ac565b611d5982613137565b506000908152603c60205260409020600e015490565b6060611d796130ac565b603d805480602002602001604051908101604052809291908181526020018280548015611dc557602002820191906000526020600020905b815481526020019060010190808311611db1575b5050505050905090565b611dd76130ac565b611ddf61318a565b611de76131d3565b611def61321a565b611df882613137565b6000828152603c6020526040812060020154603754339290611e2190839063ffffffff61326116565b90508143118015611e325750804311155b611e6d5760405162461bcd60e51b815260040180806020018281038252602b815260200180614019602b913960400191505060405180910390fd5b6000611e788461360e565b905060008111611eb95760405162461bcd60e51b81526004018080602001828103825260438152602001806140a66043913960600191505060405180910390fd5b6000868152603c602090815260408083206001600160a01b0388168452600c0190915281205460ff166002811115611eed57fe5b14611f295760405162461bcd60e51b8152600401808060200182810382526036815260200180613f706036913960400191505060405180910390fd5b6002856002811115611f3757fe5b1480611f4e57506001856002811115611f4c57fe5b145b611f895760405162461bcd60e51b815260040180806020018281038252602c815260200180613e4a602c913960400191505060405180910390fd5b6000868152603c602090815260408083206001600160a01b0388168452600c019091529020805486919060ff19166001836002811115611fc557fe5b02179055506000868152603c602090815260408083206001600160a01b0388168452600d019091529020819055600285600281111561200057fe5b141561201557612010868261335c565b61201f565b61201f86826132ff565b6000868152603c60205260409020600b015461204290600163ffffffff61326116565b6000878152603c60205260409020600b015584600281111561206057fe5b6040805183815290516001600160a01b0387169189917ff3f11b6b0f2367aeeec3a6b96f9528d1b57165334563e1d7083be608cdb64a549181900360200190a4505050505050565b6120b06130ac565b603a546201000090046001600160a01b03163314612115576040805162461bcd60e51b815260206004820152601a60248201527f476f7665726e616e63653a204f6e6c7920677561726469616e2e000000000000604482015290519081900360640190fd5b603a805462010000600160b01b031916620100006001600160a01b038416908102919091179091556040517f83791e7c241cba88803a090fb286396572e88ebaea51be583bd10f82356ac41690600090a250565b60006121736130ac565b61217b61318a565b6121836131d3565b61218b61321a565b6000339050306001600160a01b031663ea7e6ffb6040518163ffffffff1660e01b815260040160206040518083038186803b1580156121c957600080fd5b505afa1580156121dd573d6000803e3d6000fd5b505050506040513d60208110156121f357600080fd5b50516122305760405162461bcd60e51b81526004018080602001828103825260608152602001806140e96060913960600191505060405180910390fd5b603a54603d5461ffff909116116122785760405162461bcd60e51b815260040180806020018281038252608f815260200180613cf5608f913960a00191505060405180910390fd5b60006122838261360e565b11806122a25750603a546001600160a01b038281166201000090920416145b6122dd5760405162461bcd60e51b815260040180806020018281038252605c815260200180613ec4605c913960600191505060405180910390fd5b60335460408051631c2d8fb360e31b8152600481018f9052905160009261010090046001600160a01b03169163e16c7d98916024808301926020929190829003018186803b15801561232e57600080fd5b505afa158015612342573d6000803e3d6000fd5b505050506040513d602081101561235857600080fd5b505190506001600160a01b0381166123a15760405162461bcd60e51b815260040180806020018281038252604e815260200180613e76604e913960600191505060405180910390fd5b896123dd5760405162461bcd60e51b815260040180806020018281038252602f815260200180613f41602f913960400191505060405180910390fd5b836124195760405162461bcd60e51b815260040180806020018281038252602b815260200180613bae602b913960400191505060405180910390fd5b856124555760405162461bcd60e51b8152600401808060200182810382526024815260200180613ff56024913960400191505060405180910390fd5b603b5460009061246c90600163ffffffff61326116565b9050604051806101a00160405280828152602001846001600160a01b031681526020014381526020018f8152602001836001600160a01b031681526020018e81526020018d8d8080601f016020809104026020016040519081016040528093929190818152602001838380828437600092019190915250505090825250604080516020601f8e018190048102820181019092528c815291810191908d908d90819084018382808284376000920182905250938552505060209092019150815260200160008152602001600081526020016000815260200161254c84613417565b90526000828152603c602090815260409182902083518155838201516001820180546001600160a01b03199081166001600160a01b039384161790915593850151600283015560608501516003830155608085015160048301805490951691161790925560a0830151600583015560c083015180516125d19260068501920190613a65565b5060e082015180516125ed916007840191602090910190613a65565b506101008201518160080160006101000a81548160ff0219169083600881111561261357fe5b02179055506101208201516009820155610140820151600a820155610160820151600b82015561018090910151600e90910155603d80546001810182556000919091527fece66cfdbd22e3f37d348a3d8e19074452862cd65fd4b9a11f0336d1ac6d1dc301819055604080518181529081018890526001600160a01b0384169082907f7edc618964f595eb3f96e87d2c01643484aa8490797eb47bd46680d0ad4c7f72908b908b908b908b90806020810160608201878780828437600083820152601f01601f191690910184810383528581526020019050858580828437600083820152604051601f909101601f19169092018290039850909650505050505050a3603b8190559d9c50505050505050505050505050565b6127336130ac565b604080516060810190915260218082523330149190613fd460208301399061279c5760405162461bcd60e51b8152602060048201818152835160248401528351909283926044909101919085019080838360008315610a42578181015183820152602001610a2a565b5060006001600160a01b0316816001600160a01b031614156040518060600160405280602e8152602001613e1c602e9139906128195760405162461bcd60e51b8152602060048201818152835160248401528351909283926044909101919085019080838360008315610a42578181015183820152602001610a2a565b5060338054610100600160a81b0319166101006001600160a01b038416908102919091179091556040517fc533a624c353ec88e315b162298e52e2b02aa03d5fb5afdbf13445a26f1d10c790600090a250565b6128746130ac565b603a546201000090046001600160a01b031633146128d9576040805162461bcd60e51b815260206004820152601a60248201527f476f7665726e616e63653a204f6e6c7920677561726469616e2e000000000000604482015290519081900360640190fd5b60335460408051631c2d8fb360e31b815260048101899052905160009261010090046001600160a01b03169163e16c7d98916024808301926020929190829003018186803b15801561292a57600080fd5b505afa15801561293e573d6000803e3d6000fd5b505050506040513d602081101561295457600080fd5b505190506001600160a01b03811661299d5760405162461bcd60e51b815260040180806020018281038252604e815260200180613e76604e913960600191505060405180910390fd5b836129d95760405162461bcd60e51b815260040180806020018281038252602f815260200180613f41602f913960400191505060405180910390fd5b60006060612a52838989898080601f01602080910402602001604051908101604052809392919081815260200183838082843760009201919091525050604080516020601f8d018190048102820181019092528b815292508b91508a90819084018382808284376000920191909152506134cc92505050565b9150915081612aa8576040805162461bcd60e51b815260206004820152601f60248201527f476f7665726e616e63653a205472616e73616374696f6e206661696c65642e00604482015290519081900360640190fd5b8484604051808383808284376040519201829003822094508b93508a925081905083838082843780830192505050925050506040518091039020846001600160a01b03167f1ed1b90f960f5def1ae3c55d9fe576389498fe6a1e2e44659f7f08f74f4f21ce8b856040518083815260200180602001828103825283818151815260200191508051906020019080838360005b83811015612b52578181015183820152602001612b3a565b50505050905090810190601f168015612b7f5780820380516001836020036101000a031916815260200191505b50935050505060405180910390a4505050505050505050565b612ba06130ac565b604080516060810190915260218082523330149190613fd4602083013990612c095760405162461bcd60e51b8152602060048201818152835160248401528351909283926044909101919085019080838360008315610a42578181015183820152602001610a2a565b5060008161ffff1611612c4d5760405162461bcd60e51b81526004018080602001828103825260388152602001806141766038913960400191505060405180910390fd5b603a805461ffff191661ffff83169081179091556040517f79913f9e27696795126259d88dbe46a5e074cd2602541360f5311a5755c4215090600090a250565b6000612c976130ac565b506036546001600160a01b031690565b612caf6130ac565b604080516060810190915260218082523330149190613fd4602083013990612d185760405162461bcd60e51b8152602060048201818152835160248401528351909283926044909101919085019080838360008315610a42578181015183820152602001610a2a565b50603881905560405181907f04aa79a5e8a5e68218f378c9b9ecf136054085d35534faf89462199fb969d1c690600090a250565b612d546130ac565b604080516060810190915260218082523330149190613fd4602083013990612dbd5760405162461bcd60e51b8152602060048201818152835160248401528351909283926044909101919085019080838360008315610a42578181015183820152602001610a2a565b50600081116040518060600160405280602b8152602001613cca602b913990612e275760405162461bcd60e51b8152602060048201818152835160248401528351909283926044909101919085019080838360008315610a42578181015183820152602001610a2a565b50603781905560405181907f651c77f42613a075437aa794c44471e3abc3a661956a67aaee165bb7396974aa90600090a250565b612e636130ac565b604080516060810190915260218082523330149190613fd4602083013990612ecc5760405162461bcd60e51b8152602060048201818152835160248401528351909283926044909101919085019080838360008315610a42578181015183820152602001610a2a565b506001600160a01b038116612f125760405162461bcd60e51b81526004018080602001828103825260358152602001806140716035913960400191505060405180910390fd5b603680546001600160a01b0319166001600160a01b0392909216919091179055565b6000612f3e6130ac565b60005b603d54811015612fac57612f93603854611528603754603c6000603d8781548110612f6857fe5b906000526020600020015481526020019081526020016000206002015461326190919063ffffffff16565b431115612fa4576000915050610977565b600101612f41565b506001905090565b6000612fbe6130ac565b5060335461010090046001600160a01b031690565b612fdb6130ac565b604080516060810190915260218082523330149190613fd46020830139906130445760405162461bcd60e51b8152602060048201818152835160248401528351909283926044909101919085019080838360008315610a42578181015183820152602001610a2a565b506001600160a01b03811661308a5760405162461bcd60e51b815260040180806020018281038252602d815260200180614044602d913960400191505060405180910390fd5b603480546001600160a01b0319166001600160a01b0392909216919091179055565b6033546040805180820190915260208082527f496e697469616c697a61626c6556323a204e6f7420696e697469616c697a6564908201529060ff161515600114611bd45760405162461bcd60e51b8152602060048201818152835160248401528351909283926044909101919085019080838360008315610a42578181015183820152602001610a2a565b603b5481111580156131495750600081115b611bd45760405162461bcd60e51b81526004018080602001828103825260338152602001806141ae6033913960400191505060405180910390fd5b303b1590565b6034546001600160a01b03166131d15760405162461bcd60e51b8152600401808060200182810382526025815260200180613c3f6025913960400191505060405180910390fd5b565b6035546001600160a01b03166131d15760405162461bcd60e51b8152600401808060200182810382526034815260200180613afe6034913960400191505060405180910390fd5b6036546001600160a01b03166131d15760405162461bcd60e51b815260040180806020018281038252602d815260200180614149602d913960400191505060405180910390fd5b6000828201838110156132bb576040805162461bcd60e51b815260206004820152601b60248201527f536166654d6174683a206164646974696f6e206f766572666c6f770000000000604482015290519081900360640190fd5b90505b92915050565b6000828152603c60205260409020600901546132e6908263ffffffff61385e16565b6000928352603c60205260409092206009019190915550565b6000828152603c60205260409020600a0154613321908263ffffffff61326116565b6000928352603c6020526040909220600a019190915550565b6000828152603c60205260409020600a0154613321908263ffffffff61385e16565b6000828152603c60205260409020600901546132e6908263ffffffff61326116565b6000805b603d548110156133bb5782603d828154811061339a57fe5b906000526020600020015414156133b3578091506133bb565b600101613382565b50603d805460001981019081106133ce57fe5b9060005260206000200154603d82815481106133e657fe5b600091825260209091200155603d8054806133fd57fe5b600190038181906000526020600020016000905590555050565b3f90565b6000806134bf836001600160a01b031663c9c5323286604001516040518263ffffffff1660e01b81526004018082815260200191505060206040518083038186803b15801561346957600080fd5b505afa15801561347d573d6000803e3d6000fd5b505050506040513d602081101561349357600080fd5b50516101408601516101208701516134b39101606463ffffffff6138a016565b9063ffffffff6138f916565b6039541115949350505050565b600060608084805190602001208460405160200180836001600160e01b0319166001600160e01b031916815260040182805190602001908083835b602083106135265780518252601f199092019160209182019101613507565b6001836020036101000a038019825116818451168082178552505050505050905001925050506040516020818303038152906040529050866001600160a01b031686826040518082805190602001908083835b602083106135985780518252601f199092019160209182019101613579565b6001836020036101000a03801982511681845116808217855250505050505090500191505060006040518083038185875af1925050503d80600081146135fa576040519150601f19603f3d011682016040523d82523d6000602084013e6135ff565b606091505b50909890975095505050505050565b60355460365460408051631e4e7d3560e31b81526001600160a01b0385811660048301529151600094831693909216918491849163f273e9a89160248082019260c092909190829003018186803b15801561366857600080fd5b505afa15801561367c573d6000803e3d6000fd5b505050506040513d60c081101561369257600080fd5b5051604080516001624d61bb60e11b031981526001600160a01b03888116600483015282519394506000939087169263ff653c8a9260248082019391829003018186803b1580156136e257600080fd5b505afa1580156136f6573d6000803e3d6000fd5b505050506040513d604081101561370c57600080fd5b505190506000613722838363ffffffff61385e16565b90506000846001600160a01b031663b0303b75896040518263ffffffff1660e01b815260040180826001600160a01b03166001600160a01b0316815260200191505060206040518083038186803b15801561377c57600080fd5b505afa158015613790573d6000803e3d6000fd5b505050506040513d60208110156137a657600080fd5b505160408051639336086f60e01b81526001600160a01b038b81166004830152915192935060009291881691639336086f91602480820192606092909190829003018186803b1580156137f857600080fd5b505afa15801561380c573d6000803e3d6000fd5b505050506040513d606081101561382257600080fd5b50602001519050600061383b838363ffffffff61385e16565b9050600061384f858363ffffffff61326116565b9b9a5050505050505050505050565b60006132bb83836040518060400160405280601e81526020017f536166654d6174683a207375627472616374696f6e206f766572666c6f77000081525061393b565b6000826138af575060006132be565b828202828482816138bc57fe5b04146132bb5760405162461bcd60e51b8152600401808060200182810382526021815260200180613f206021913960400191505060405180910390fd5b60006132bb83836040518060400160405280601a81526020017f536166654d6174683a206469766973696f6e206279207a65726f000000000000815250613995565b6000818484111561398d5760405162461bcd60e51b8152602060048201818152835160248401528351909283926044909101919085019080838360008315610a42578181015183820152602001610a2a565b505050900390565b600081836139e45760405162461bcd60e51b8152602060048201818152835160248401528351909283926044909101919085019080838360008315610a42578181015183820152602001610a2a565b5060008385816139f057fe5b0495945050505050565b604080516101a08101825260008082526020820181905291810182905260608082018390526080820183905260a0820183905260c0820181905260e0820152906101008201908152602001600081526020016000815260200160008152602001600080191681525090565b828054600181600116156101000203166002900490600052602060002090601f016020900481019282601f10613aa657805160ff1916838001178555613ad3565b82800160010185558215613ad3579182015b82811115613ad3578251825591602001919060010190613ab8565b50613adf929150613ae3565b5090565b61097791905b80821115613adf5760008155600101613ae956fe476f7665726e616e63653a207365727669636550726f7669646572466163746f727941646472657373206973206e6f7420736574476f7665726e616e63653a205265717569726573206e6f6e2d7a65726f205f677561726469616e41646472657373476f7665726e616e63653a2050726f706f73616c20766f74696e67506572696f64202620657865637574696f6e44656c6179206d75737420656e64206265666f7265206576616c756174696f6e2e476f7665726e616e63653a205f6465736372697074696f6e206c656e677468206d757374206265203e2030476f7665726e616e63653a204f6e6c7920677561726469616e2063616e207665746f2070726f706f73616c732e476f7665726e616e63653a205265717569726573205f766f74696e6751756f72756d50657263656e74206265747765656e2031202620313030476f7665726e616e63653a207374616b696e6741646472657373206973206e6f7420736574476f7665726e616e63653a2043616e6e6f74207665746f20696e6163746976652070726f706f73616c2e476f7665726e616e63653a205265717569726573206e6f6e2d7a65726f205f7365727669636550726f7669646572466163746f727941646472657373476f7665726e616e63653a205265717569726573206e6f6e2d7a65726f205f766f74696e67506572696f64476f7665726e616e63653a204e756d626572206f6620496e50726f67726573732070726f706f73616c7320616c7265616479206174206d61782e20506c65617365206576616c7561746520696620706f737369626c652c206f72207761697420666f722063757272656e742070726f706f73616c732720766f74696e67506572696f647320746f206578706972652e476f7665726e616e63653a20546f207375626d6974206e657720766f74652c2063616c6c207375626d6974566f74652829476f7665726e616e63653a2043616e206f6e6c79206576616c7561746520496e50726f67726573732070726f706f73616c2e476f7665726e616e63653a205265717569726573206e6f6e2d7a65726f205f6d6178496e50726f677265737350726f706f73616c73476f7665726e616e63653a205265717569726573206e6f6e2d7a65726f205f726567697374727941646472657373476f7665726e616e63653a2043616e206f6e6c79207375626d6974206120596573206f72204e6f20766f7465476f7665726e616e63653a205f746172676574436f6e747261637452656769737472794b6579206d75737420706f696e7420746f2076616c6964207265676973746572656420636f6e7472616374476f7665726e616e63653a2050726f706f736572206d75737420626520616464726573732077697468206e6f6e2d7a65726f20746f74616c20616374697665207374616b65206f7220626520677561726469616e416464726573732e536166654d6174683a206d756c7469706c69636174696f6e206f766572666c6f77476f7665726e616e63653a205f66756e6374696f6e5369676e61747572652063616e6e6f7420626520656d7074792e476f7665726e616e63653a20546f207570646174652070726576696f757320766f74652c2063616c6c20757064617465566f74652829436f6e747261637420696e7374616e63652068617320616c7265616479206265656e20696e697469616c697a6564476f7665726e616e63653a204f6e6c792063616c6c61626c652062792073656c66476f7665726e616e63653a205f6e616d65206c656e677468206d757374206265203e2030476f7665726e616e63653a2050726f706f73616c20766f74696e67506572696f642068617320656e646564476f7665726e616e63653a205265717569726573206e6f6e2d7a65726f205f7374616b696e6741646472657373476f7665726e616e63653a205265717569726573206e6f6e2d7a65726f205f64656c65676174654d616e6167657241646472657373476f7665726e616e63653a20566f746572206d75737420626520616464726573732077697468206e6f6e2d7a65726f20746f74616c20616374697665207374616b652e476f7665726e616e63653a2043616e6e6f74207375626d6974206e65772070726f706f73616c20756e74696c20616c6c206576616c75617461626c6520496e50726f67726573732070726f706f73616c7320617265206576616c75617465642e476f7665726e616e63653a2064656c65676174654d616e6167657241646472657373206973206e6f7420736574476f7665726e616e63653a205265717569726573206e6f6e2d7a65726f205f6e65774d6178496e50726f677265737350726f706f73616c73476f7665726e616e63653a204d7573742070726f766964652076616c6964206e6f6e2d7a65726f205f70726f706f73616c4964a265627a7a723158205c41c25892161cc4278198ca48af0245ca0fb66a586f0d805129275f7b3c696064736f6c63430005110032",
  "source": "pragma solidity ^0.5.0;\n\nimport \"../Governance.sol\";\n\n\ncontract GovernanceUpgraded is Governance {\n    function newFunction() public view returns (uint256) {\n        _requireIsInitialized();\n\n        return 5;\n    }\n}",
  "sourcePath": "/usr/src/app/contracts/test/GovernanceUpgraded.sol",
  "compiler": {
    "name": "solc",
    "version": "0.5.17+commit.d19bba13.Emscripten.clang"
  },
  "schemaVersion": "3.4.4",
  "updatedAt": "2023-03-02T06:41:29.418Z",
  "devdoc": {
    "methods": {
      "evaluateProposalOutcome(uint256)": {
        "details": "Requires that caller is an active staker at the time the proposal is created",
        "params": {
          "_proposalId": "- id of the proposal"
        },
        "return": "Outcome of proposal evaluation"
      },
      "getProposalById(uint256)": {
        "params": {
          "_proposalId": "- id of proposal"
        }
      },
      "getProposalTargetContractHash(uint256)": {
        "details": "This is a separate function because the getProposalById returns too many variables already and by adding more, you get the error `InternalCompilerError: Stack too deep, try using fewer variables`",
        "params": {
          "_proposalId": "- id of proposal"
        }
      },
      "getVoteInfoByProposalAndVoter(uint256,address)": {
        "params": {
          "_proposalId": "- id of the proposal",
          "_voter": "- address of the voter we want to check"
        },
        "return": "returns vote direction and magnitude if valid vote, else default values"
      },
      "guardianExecuteTransaction(bytes32,uint256,string,bytes)": {
        "params": {
          "_callData": "- encoded value(s) to call function with if proposal is successful",
          "_callValue": "- amount of wei if a token transfer is involved",
          "_functionSignature": "- function signature of the function to be executed if proposal is successful",
          "_targetContractRegistryKey": "- key in registry of target contract"
        }
      },
      "inProgressProposalsAreUpToDate()": {
        "details": "Is public since its called internally in `submitProposal()` as well as externally in UI"
      },
      "initialize(address,uint256,uint256,uint256,uint16,address)": {
        "details": "_votingPeriod <= DelegateManager.undelegateLockupDurationstakingAddress must be initialized separately after Staking contract is deployed",
        "params": {
          "_executionDelay": "- number of blocks that must pass after votingPeriod has expired before proposal can be evaluated/executed",
          "_guardianAddress": "- address of account that has special Governance permissions",
          "_maxInProgressProposals": "- max number of InProgress proposals possible at once",
          "_registryAddress": "- address of the registry proxy contract",
          "_votingPeriod": "- period in blocks for which a governance proposal is open for voting",
          "_votingQuorumPercent": "- required minimum percentage of total stake to have voted to consider a proposal valid"
        }
      },
      "setDelegateManagerAddress(address)": {
        "details": "Only callable by self via _executeTransaction",
        "params": {
          "_delegateManagerAddress": "- address for new DelegateManager contract"
        }
      },
      "setExecutionDelay(uint256)": {
        "details": "Only callable by self via _executeTransaction",
        "params": {
          "_newExecutionDelay": "- new value for executionDelay"
        }
      },
      "setMaxInProgressProposals(uint16)": {
        "details": "Only callable by self via _executeTransaction",
        "params": {
          "_newMaxInProgressProposals": "- new value for maxInProgressProposals"
        }
      },
      "setRegistryAddress(address)": {
        "details": "Only callable by self via _executeTransaction",
        "params": {
          "_registryAddress": "- address for new Registry contract"
        }
      },
      "setServiceProviderFactoryAddress(address)": {
        "details": "Only callable by self via _executeTransaction",
        "params": {
          "_serviceProviderFactoryAddress": "- address for new ServiceProviderFactory contract"
        }
      },
      "setStakingAddress(address)": {
        "details": "Only callable by self via _executeTransaction",
        "params": {
          "_stakingAddress": "- address for new Staking contract"
        }
      },
      "setVotingPeriod(uint256)": {
        "details": "Only callable by self via _executeTransaction",
        "params": {
          "_votingPeriod": "- new voting period"
        }
      },
      "setVotingQuorumPercent(uint256)": {
        "details": "Only callable by self via _executeTransaction",
        "params": {
          "_votingQuorumPercent": "- new voting period"
        }
      },
      "submitProposal(bytes32,uint256,string,bytes,string,string)": {
        "details": "_name and _description length is not enforced since they aren't stored on-chain and only event emitted",
        "params": {
          "_callData": "- encoded value(s) to call function with if proposal is successful",
          "_callValue": "- amount of wei to pass with function call if a token transfer is involved",
          "_description": "- Text description of proposal to be emitted in event",
          "_functionSignature": "- function signature of the function to be executed if proposal is successful",
          "_name": "- Text name of proposal to be emitted in event",
          "_targetContractRegistryKey": "- Registry key for the contract concerning this proposal"
        },
        "return": "- ID of new proposal"
      },
      "submitVote(uint256,uint8)": {
        "params": {
          "_proposalId": "- id of the proposal this vote is for",
          "_vote": "- can be either {Yes, No} from Vote enum. No other values allowed"
        }
      },
      "transferGuardianship(address)": {
        "details": "Only callable by current guardian",
        "params": {
          "_newGuardianAddress": "- new guardian address"
        }
      },
      "updateVote(uint256,uint8)": {
        "params": {
          "_proposalId": "- id of the proposal this vote is for",
          "_vote": "- can be either {Yes, No} from Vote enum. No other values allowed"
        }
      },
      "vetoProposal(uint256)": {
        "params": {
          "_proposalId": "- id of the proposal"
        }
      }
    }
  },
  "userdoc": {
    "methods": {
      "evaluateProposalOutcome(uint256)": {
        "notice": "Once the voting period + executionDelay for a proposal has ended, evaluate the outcome and     execute the proposal if voting quorum met & vote passes.     To pass, stake-weighted vote must be > 50% Yes."
      },
      "getDelegateManagerAddress()": {
        "notice": "Get the DelegateManager address"
      },
      "getExecutionDelay()": {
        "notice": "Get the proposal execution delay"
      },
      "getGuardianAddress()": {
        "notice": "Get the contract Guardian address"
      },
      "getInProgressProposals()": {
        "notice": "Get the array of all InProgress proposal Ids"
      },
      "getMaxInProgressProposals()": {
        "notice": "Get the max number of concurrent InProgress proposals"
      },
      "getProposalById(uint256)": {
        "notice": "Get proposal information by proposal Id"
      },
      "getProposalTargetContractHash(uint256)": {
        "notice": "Get proposal target contract hash by proposalId"
      },
      "getRegistryAddress()": {
        "notice": "Get the registry address"
      },
      "getServiceProviderFactoryAddress()": {
        "notice": "Get the ServiceProviderFactory address"
      },
      "getStakingAddress()": {
        "notice": "Get the Staking address"
      },
      "getVoteInfoByProposalAndVoter(uint256,address)": {
        "notice": "Get vote direction and vote magnitude for a given proposal and voter"
      },
      "getVotingPeriod()": {
        "notice": "Get the contract voting period"
      },
      "getVotingQuorumPercent()": {
        "notice": "Get the contract voting quorum percent"
      },
      "guardianExecuteTransaction(bytes32,uint256,string,bytes)": {
        "notice": "Allows the guardianAddress to execute protocol actions"
      },
      "inProgressProposalsAreUpToDate()": {
        "notice": "Returns false if any proposals in inProgressProposals array are evaluatable         Evaluatable = proposals with closed votingPeriod"
      },
      "initialize()": {
        "notice": "wrapper function around parent contract Initializable's `initializable` modifier     initializable modifier ensures this function can only be called once by each deployed child contract     sets isInitialized flag to true to which is used by _requireIsInitialized()"
      },
      "initialize(address,uint256,uint256,uint256,uint16,address)": {
        "notice": "Initialize the Governance contract"
      },
      "isGovernanceAddress()": {
        "notice": "Used to check if is governance contract before setting governance address in other contracts"
      },
      "setDelegateManagerAddress(address)": {
        "notice": "Set the DelegateManager address"
      },
      "setExecutionDelay(uint256)": {
        "notice": "Set the execution delay for a proposal"
      },
      "setMaxInProgressProposals(uint16)": {
        "notice": "Set the max number of concurrent InProgress proposals"
      },
      "setRegistryAddress(address)": {
        "notice": "Set the Registry address"
      },
      "setServiceProviderFactoryAddress(address)": {
        "notice": "Set the ServiceProviderFactory address"
      },
      "setStakingAddress(address)": {
        "notice": "Set the Staking address"
      },
      "setVotingPeriod(uint256)": {
        "notice": "Set the voting period for a Governance proposal"
      },
      "setVotingQuorumPercent(uint256)": {
        "notice": "Set the voting quorum percentage for a Governance proposal"
      },
      "submitProposal(bytes32,uint256,string,bytes,string,string)": {
        "notice": "Submit a proposal for vote. Only callable by addresses with non-zero total active stake.     total active stake = total active deployer stake + total active delegator stake"
      },
      "submitVote(uint256,uint8)": {
        "notice": "Vote on an active Proposal. Only callable by addresses with non-zero active stake."
      },
      "transferGuardianship(address)": {
        "notice": "Change the guardian address"
      },
      "updateVote(uint256,uint8)": {
        "notice": "Update previous vote on an active Proposal. Only callable by addresses with non-zero active stake."
      },
      "vetoProposal(uint256)": {
        "notice": "Action limited to the guardian address that can veto a proposal"
      }
    }
  }
}