{
  "contractName": "MockDelegateManager",
  "abi": [
    {
      "constant": false,
      "inputs": [],
      "name": "initialize",
      "outputs": [],
      "payable": false,
      "stateMutability": "nonpayable",
      "type": "function"
    },
    {
      "constant": false,
      "inputs": [
        {
          "internalType": "address",
          "name": "_claimsManagerAddress",
          "type": "address"
        }
      ],
      "name": "initialize",
      "outputs": [],
      "payable": false,
      "stateMutability": "nonpayable",
      "type": "function"
    },
    {
      "constant": false,
      "inputs": [
        {
          "internalType": "address",
          "name": "_claimer",
          "type": "address"
        },
        {
          "internalType": "uint256",
          "name": "_totalLockedForSP",
          "type": "uint256"
        }
      ],
      "name": "testProcessClaim",
      "outputs": [
        {
          "internalType": "uint256",
          "name": "",
          "type": "uint256"
        }
      ],
      "payable": false,
      "stateMutability": "nonpayable",
      "type": "function"
    }
  ],
  "bytecode": "0x608060405234801561001057600080fd5b506103fa806100206000396000f3fe608060405234801561001057600080fd5b50600436106100415760003560e01c80634f8f43cf146100465780638129fc1c14610084578063c4d66de81461008e575b600080fd5b6100726004803603604081101561005c57600080fd5b506001600160a01b0381351690602001356100b4565b60408051918252519081900360200190f35b61008c61014f565b005b61008c600480360360208110156100a457600080fd5b50356001600160a01b03166101fe565b60006100be6102c9565b60335460408051631bff085760e21b81526001600160a01b038681166004830152602482018690529151610100909304909116918291636ffc215c9160448083019260209291908290030181600087803b15801561011b57600080fd5b505af115801561012f573d6000803e3d6000fd5b505050506040513d602081101561014557600080fd5b5051949350505050565b600054610100900460ff16806101685750610168610391565b80610176575060005460ff16155b6101b15760405162461bcd60e51b815260040180806020018281038252602e815260200180610398602e913960400191505060405180910390fd5b600054610100900460ff161580156101dc576000805460ff1961ff0019909116610100171660011790555b6033805460ff1916600117905580156101fb576000805461ff00191690555b50565b600054610100900460ff16806102175750610217610391565b80610225575060005460ff16155b6102605760405162461bcd60e51b815260040180806020018281038252602e815260200180610398602e913960400191505060405180910390fd5b600054610100900460ff1615801561028b576000805460ff1961ff0019909116610100171660011790555b60338054610100600160a81b0319166101006001600160a01b038516021790556102b361014f565b80156102c5576000805461ff00191690555b5050565b6033546040805180820190915260208082527f496e697469616c697a61626c6556323a204e6f7420696e697469616c697a6564908201529060ff1615156001146101fb5760405162461bcd60e51b81526004018080602001828103825283818151815260200191508051906020019080838360005b8381101561035657818101518382015260200161033e565b50505050905090810190601f1680156103835780820380516001836020036101000a031916815260200191505b509250505060405180910390fd5b303b159056fe436f6e747261637420696e7374616e63652068617320616c7265616479206265656e20696e697469616c697a6564a265627a7a72315820cc451f0b7ca4fcb25c15e3551413abaf828d2c9bd43697870b83cfeef0c3013364736f6c63430005110032",
  "source": "pragma solidity ^0.5.0;\nimport \"@openzeppelin/contracts-ethereum-package/contracts/token/ERC20/ERC20Mintable.sol\";\nimport \"@openzeppelin/contracts-ethereum-package/contracts/token/ERC20/ERC20.sol\";\nimport \"../InitializableV2.sol\";\nimport \"../ClaimsManager.sol\";\n\n\n// TEST ONLY MOCK CONTRACT\ncontract MockDelegateManager is InitializableV2 {\n    address claimsManagerAddress;\n\n    function initialize(\n        address _claimsManagerAddress\n    ) public initializer {\n        claimsManagerAddress = _claimsManagerAddress;\n\n        InitializableV2.initialize();\n    }\n\n    // Test only function\n    function testProcessClaim(\n        address _claimer,\n        uint256 _totalLockedForSP\n    ) external returns (uint256) {\n        _requireIsInitialized();\n\n        ClaimsManager claimsManager = ClaimsManager(\n            claimsManagerAddress\n        );\n        return claimsManager.processClaim(_claimer, _totalLockedForSP);\n    }\n}\n\n",
  "sourcePath": "/usr/src/app/contracts/test/MockDelegateManager.sol",
  "compiler": {
    "name": "solc",
    "version": "0.5.17+commit.d19bba13.Emscripten.clang"
  },
  "schemaVersion": "3.4.4",
  "updatedAt": "2023-03-02T06:41:29.427Z",
  "devdoc": {
    "methods": {}
  },
  "userdoc": {
    "methods": {
      "initialize()": {
        "notice": "wrapper function around parent contract Initializable's `initializable` modifier     initializable modifier ensures this function can only be called once by each deployed child contract     sets isInitialized flag to true to which is used by _requireIsInitialized()"
      }
    }
  }
}