{
  "contractName": "MockStakingCaller",
  "abi": [
    {
      "constant": false,
      "inputs": [
        {
          "internalType": "address payable",
          "name": "_stakingAddress",
          "type": "address"
        },
        {
          "internalType": "address",
          "name": "_tokenAddress",
          "type": "address"
        }
      ],
      "name": "initialize",
      "outputs": [],
      "payable": false,
      "stateMutability": "nonpayable",
      "type": "function"
    },
    {
      "constant": false,
      "inputs": [],
      "name": "initialize",
      "outputs": [],
      "payable": false,
      "stateMutability": "nonpayable",
      "type": "function"
    },
    {
      "constant": false,
      "inputs": [
        {
          "internalType": "uint256",
          "name": "_amount",
          "type": "uint256"
        },
        {
          "internalType": "address",
          "name": "_staker",
          "type": "address"
        }
      ],
      "name": "stakeRewards",
      "outputs": [],
      "payable": false,
      "stateMutability": "nonpayable",
      "type": "function"
    },
    {
      "constant": false,
      "inputs": [
        {
          "internalType": "address",
          "name": "_accountAddress",
          "type": "address"
        },
        {
          "internalType": "uint256",
          "name": "_amount",
          "type": "uint256"
        }
      ],
      "name": "stakeFor",
      "outputs": [],
      "payable": false,
      "stateMutability": "nonpayable",
      "type": "function"
    },
    {
      "constant": false,
      "inputs": [
        {
          "internalType": "address",
          "name": "_accountAddress",
          "type": "address"
        },
        {
          "internalType": "uint256",
          "name": "_amount",
          "type": "uint256"
        }
      ],
      "name": "unstakeFor",
      "outputs": [],
      "payable": false,
      "stateMutability": "nonpayable",
      "type": "function"
    },
    {
      "constant": false,
      "inputs": [
        {
          "internalType": "uint256",
          "name": "_amount",
          "type": "uint256"
        },
        {
          "internalType": "address",
          "name": "_slashAddress",
          "type": "address"
        }
      ],
      "name": "slash",
      "outputs": [],
      "payable": false,
      "stateMutability": "nonpayable",
      "type": "function"
    },
    {
      "constant": false,
      "inputs": [
        {
          "internalType": "bool",
          "name": "_withinBounds",
          "type": "bool"
        }
      ],
      "name": "updateBounds",
      "outputs": [],
      "payable": false,
      "stateMutability": "nonpayable",
      "type": "function"
    },
    {
      "constant": true,
      "inputs": [
        {
          "internalType": "address",
          "name": "",
          "type": "address"
        }
      ],
      "name": "getServiceProviderDetails",
      "outputs": [
        {
          "internalType": "uint256",
          "name": "deployerStake",
          "type": "uint256"
        },
        {
          "internalType": "uint256",
          "name": "deployerCut",
          "type": "uint256"
        },
        {
          "internalType": "bool",
          "name": "validBounds",
          "type": "bool"
        },
        {
          "internalType": "uint256",
          "name": "numberOfEndpoints",
          "type": "uint256"
        },
        {
          "internalType": "uint256",
          "name": "minAccountStake",
          "type": "uint256"
        },
        {
          "internalType": "uint256",
          "name": "maxAccountStake",
          "type": "uint256"
        }
      ],
      "payable": false,
      "stateMutability": "view",
      "type": "function"
    },
    {
      "constant": true,
      "inputs": [],
      "name": "isInitialized",
      "outputs": [
        {
          "internalType": "bool",
          "name": "",
          "type": "bool"
        }
      ],
      "payable": false,
      "stateMutability": "view",
      "type": "function"
    },
    {
      "constant": false,
      "inputs": [],
      "name": "configurePermissions",
      "outputs": [],
      "payable": false,
      "stateMutability": "nonpayable",
      "type": "function"
    },
    {
      "constant": false,
      "inputs": [
        {
          "internalType": "address",
          "name": "_newImplementation",
          "type": "address"
        }
      ],
      "name": "upgradeStakingTo",
      "outputs": [],
      "payable": false,
      "stateMutability": "nonpayable",
      "type": "function"
    },
    {
      "constant": false,
      "inputs": [
        {
          "internalType": "address",
          "name": "_governanceAddress",
          "type": "address"
        }
      ],
      "name": "setStakingAudiusProxyAdminAddress",
      "outputs": [],
      "payable": false,
      "stateMutability": "nonpayable",
      "type": "function"
    },
    {
      "constant": true,
      "inputs": [],
      "name": "isGovernanceAddress",
      "outputs": [
        {
          "internalType": "bool",
          "name": "",
          "type": "bool"
        }
      ],
      "payable": false,
      "stateMutability": "pure",
      "type": "function"
    },
    {
      "constant": true,
      "inputs": [],
      "name": "getAudiusProxyAdminAddress",
      "outputs": [
        {
          "internalType": "address",
          "name": "",
          "type": "address"
        }
      ],
      "payable": false,
      "stateMutability": "view",
      "type": "function"
    }
  ],
  "bytecode": "0x6080604052603680546001600160a01b031916905534801561002057600080fd5b50610d60806100306000396000f3fe608060405234801561001057600080fd5b50600436106100ea5760003560e01c8063485cc9551161008c5780638fedbcbe116100665780638fedbcbe1461021a5780639b172b3514610240578063d2adcc8a1461026c578063f273e9a814610292576100ea565b8063485cc955146101c557806366da13d9146101f35780638129fc1c14610212576100ea565b80632ee40908116100c85780632ee409081461013957806336ef088c14610165578063392e53cd146101915780633d82e3c114610199576100ea565b806307541b3c146100ef5780630ea77307146100f95780631a31c07c14610115575b600080fd5b6100f76102eb565b005b610101610485565b604080519115158252519081900360200190f35b61011d61048a565b604080516001600160a01b039092168252519081900360200190f35b6100f76004803603604081101561014f57600080fd5b506001600160a01b03813516906020013561048e565b6100f76004803603604081101561017b57600080fd5b506001600160a01b038135169060200135610507565b610101610564565b6100f7600480360360408110156101af57600080fd5b50803590602001356001600160a01b0316610573565b6100f7600480360360408110156101db57600080fd5b506001600160a01b03813581169160200135166105d0565b6100f76004803603602081101561020957600080fd5b503515156106e5565b6100f7610703565b6100f76004803603602081101561023057600080fd5b50356001600160a01b03166107b2565b6100f76004803603604081101561025657600080fd5b50803590602001356001600160a01b0316610823565b6100f76004803603602081101561028257600080fd5b50356001600160a01b0316610923565b6102b8600480360360208110156102a857600080fd5b50356001600160a01b0316610979565b604080519687526020870195909552921515858501526060850191909152608084015260a0830152519081900360c00190f35b6102f36109b3565b60365460408051635538691b60e11b815230600482015290516001600160a01b039092169163aa70d2369160248082019260009290919082900301818387803b15801561033f57600080fd5b505af1158015610353573d6000803e3d6000fd5b50506036546040805163201ae9db60e01b815230600482015290516001600160a01b03909216935063201ae9db925060248082019260009290919082900301818387803b1580156103a357600080fd5b505af11580156103b7573d6000803e3d6000fd5b50506036546040805163ea63d65160e01b815230600482015290516001600160a01b03909216935063ea63d651925060248082019260009290919082900301818387803b15801561040757600080fd5b505af115801561041b573d6000803e3d6000fd5b5050603654604080516333f0589560e21b815230600482015290516001600160a01b03909216935063cfc16254925060248082019260009290919082900301818387803b15801561046b57600080fd5b505af115801561047f573d6000803e3d6000fd5b50505050565b600190565b3090565b6104966109b3565b603654604080516305dc812160e31b81526001600160a01b0385811660048301526024820185905291519190921691632ee4090891604480830192600092919082900301818387803b1580156104eb57600080fd5b505af11580156104ff573d6000803e3d6000fd5b505050505050565b61050f6109b3565b60365460408051630dbbc22360e21b81526001600160a01b03858116600483015260248201859052915191909216916336ef088c91604480830192600092919082900301818387803b1580156104eb57600080fd5b600061056e610a7b565b905090565b61057b6109b3565b60365460408051633d82e3c160e01b8152600481018590526001600160a01b03848116602483015291519190921691633d82e3c191604480830192600092919082900301818387803b1580156104eb57600080fd5b600054610100900460ff16806105e957506105e9610a84565b806105f7575060005460ff16155b6106325760405162461bcd60e51b815260040180806020018281038252602e815260200180610cd4602e913960400191505060405180910390fd5b600054610100900460ff1615801561065d576000805460ff1961ff0019909116610100171660011790555b603880546001600160a01b03199081166001600160a01b0386811691821790935560368054831690911790556037805490911691841691909117905569d3c21bcecceda1000000603455678ac7230489e800006035556106bb610703565b6038805460ff60a01b1916600160a01b17905580156106e0576000805461ff00191690555b505050565b60388054911515600160a01b0260ff60a01b19909216919091179055565b600054610100900460ff168061071c575061071c610a84565b8061072a575060005460ff16155b6107655760405162461bcd60e51b815260040180806020018281038252602e815260200180610cd4602e913960400191505060405180910390fd5b600054610100900460ff16158015610790576000805460ff1961ff0019909116610100171660011790555b6033805460ff1916600117905580156107af576000805461ff00191690555b50565b6107ba6109b3565b60385460408051631b2ce7f360e11b81526001600160a01b03848116600483015291519190921691633659cfe691602480830192600092919082900301818387803b15801561080857600080fd5b505af115801561081c573d6000803e3d6000fd5b5050505050565b61082b6109b3565b603754610849906001600160a01b031633308563ffffffff610a8a16565b6037546038546040805163095ea7b360e01b81526001600160a01b039283166004820152602481018690529051919092169163095ea7b39160448083019260209291908290030181600087803b1580156108a257600080fd5b505af11580156108b6573d6000803e3d6000fd5b505050506040513d60208110156108cc57600080fd5b505060365460408051639b172b3560e01b8152600481018590526001600160a01b03848116602483015291519190921691639b172b3591604480830192600092919082900301818387803b1580156104eb57600080fd5b61092b6109b3565b6038546040805163247d4bdf60e21b81526001600160a01b038481166004830152915191909216916391f52f7c91602480830192600092919082900301818387803b15801561080857600080fd5b60008060008060008061098a6109b3565b5050603854603554603454600098899850600160a01b90930460ff169650600195509093509150565b6033546040805180820190915260208082527f496e697469616c697a61626c6556323a204e6f7420696e697469616c697a6564908201529060ff1615156001146107af5760405162461bcd60e51b81526004018080602001828103825283818151815260200191508051906020019080838360005b83811015610a40578181015183820152602001610a28565b50505050905090810190601f168015610a6d5780820380516001836020036101000a031916815260200191505b509250505060405180910390fd5b60335460ff1690565b303b1590565b604080516001600160a01b0385811660248301528416604482015260648082018490528251808303909101815260849091019091526020810180516001600160e01b03166323b872dd60e01b17905261047f908590610af1826001600160a01b0316610c97565b610b42576040805162461bcd60e51b815260206004820152601f60248201527f5361666545524332303a2063616c6c20746f206e6f6e2d636f6e747261637400604482015290519081900360640190fd5b60006060836001600160a01b0316836040518082805190602001908083835b60208310610b805780518252601f199092019160209182019101610b61565b6001836020036101000a0380198251168184511680821785525050505050509050019150506000604051808303816000865af19150503d8060008114610be2576040519150601f19603f3d011682016040523d82523d6000602084013e610be7565b606091505b509150915081610c3e576040805162461bcd60e51b815260206004820181905260248201527f5361666545524332303a206c6f772d6c6576656c2063616c6c206661696c6564604482015290519081900360640190fd5b80511561047f57808060200190516020811015610c5a57600080fd5b505161047f5760405162461bcd60e51b815260040180806020018281038252602a815260200180610d02602a913960400191505060405180910390fd5b6000813f7fc5d2460186f7233c927e7db2dcc703c0e500b653ca82273b7bfad8045d85a470818114801590610ccb57508115155b94935050505056fe436f6e747261637420696e7374616e63652068617320616c7265616479206265656e20696e697469616c697a65645361666545524332303a204552433230206f7065726174696f6e20646964206e6f742073756363656564a265627a7a7231582031ec2b5bc848beee86d98544e265c95e441d5c5d441f77c4a715688ee27e825064736f6c63430005110032",
  "source": "pragma solidity ^0.5.0;\nimport \"../InitializableV2.sol\";\nimport \"@openzeppelin/contracts-ethereum-package/contracts/token/ERC20/ERC20.sol\";\nimport \"@openzeppelin/contracts-ethereum-package/contracts/token/ERC20/SafeERC20.sol\";\nimport \"../Staking.sol\";\nimport \"../AudiusAdminUpgradeabilityProxy.sol\";\n\n\n// TEST ONLY MOCK CONTRACT\n// Forwards basic staking functions\n// Forwards ServiceProviderFactory functions as well\ncontract MockStakingCaller is InitializableV2 {\n    using SafeERC20 for ERC20;\n\n    uint256 max;\n    uint256 min;\n\n    Staking staking = Staking(0);\n    ERC20 internal stakingToken;\n    address payable stakingAddress;\n\n    bool withinBounds;\n\n    function initialize(\n        address payable _stakingAddress,\n        address _tokenAddress\n    ) public initializer {\n        stakingAddress = _stakingAddress;\n        staking = Staking(_stakingAddress);\n        stakingToken = ERC20(_tokenAddress);\n        // Configure test max = 1 million AUD\n        max = 1000000 * 10**uint256(18);\n        // Configure test min = 10 AUD\n        min = 10 * 10**uint256(18);\n        InitializableV2.initialize();\n        withinBounds = true;\n    }\n\n    // Test only function\n    function stakeRewards(\n        uint256 _amount,\n        address _staker\n    ) external {\n        _requireIsInitialized();\n\n        // pull tokens into contract\n        stakingToken.safeTransferFrom(msg.sender, address(this), _amount);\n        // Approve transfer\n        stakingToken.approve(stakingAddress, _amount);\n        // Stake rewards\n        staking.stakeRewards(_amount, _staker);\n    }\n\n    // Test only function\n    function stakeFor(\n        address _accountAddress,\n        uint256 _amount\n    ) external {\n        _requireIsInitialized();\n\n        staking.stakeFor(_accountAddress, _amount);\n    }\n\n    // Test only function\n    function unstakeFor(\n        address _accountAddress,\n        uint256 _amount\n    ) external {\n        _requireIsInitialized();\n\n        staking.unstakeFor(_accountAddress, _amount);\n    }\n\n    function slash(\n        uint256 _amount,\n        address _slashAddress\n    ) external {\n        _requireIsInitialized();\n\n        staking.slash(_amount, _slashAddress);\n    }\n\n    function updateBounds(bool _withinBounds) external {\n        withinBounds = _withinBounds;\n    }\n\n    /// @notice Calculate the stake for an account based on total number of registered services\n    function getServiceProviderDetails(address)\n    external view returns (\n        uint256 deployerStake,\n        uint256 deployerCut,\n        bool validBounds,\n        uint256 numberOfEndpoints,\n        uint256 minAccountStake,\n        uint256 maxAccountStake)\n    {\n        _requireIsInitialized();\n\n        return (0, 0, withinBounds, 1, min, max);\n    }\n\n    function isInitialized() external view returns (bool) {\n        return _isInitialized();\n    }\n\n    function configurePermissions() external {\n        _requireIsInitialized();\n\n        staking.setClaimsManagerAddress(address(this));\n        staking.setServiceProviderFactoryAddress(address(this));\n        staking.setDelegateManagerAddress(address(this));\n        staking.setGovernanceAddress(address(this));\n    }\n\n    /// Governance mock functions\n    function upgradeStakingTo(address _newImplementation) external {\n        _requireIsInitialized();\n\n        return AudiusAdminUpgradeabilityProxy(stakingAddress).upgradeTo(_newImplementation);\n    }\n\n    function setStakingAudiusProxyAdminAddress(address _governanceAddress) external {\n        _requireIsInitialized();\n\n        return AudiusAdminUpgradeabilityProxy(\n            stakingAddress\n        ).setAudiusProxyAdminAddress(_governanceAddress);\n    }\n\n    /// @notice Used to check if is governance contract before setting governance address in other contracts\n    function isGovernanceAddress() external pure returns (bool) {\n        return true;\n    }\n\n    /// @notice Used to intentionally generate a function signature clash with AudiusAdminUpgradeabilityProxy\n    ///         Returns current address instead of proxy admin address\n    function getAudiusProxyAdminAddress() external view returns (address) {\n        return address(this);\n    }\n}\n\n",
  "sourcePath": "/usr/src/app/contracts/test/MockStakingCaller.sol",
  "compiler": {
    "name": "solc",
    "version": "0.5.17+commit.d19bba13.Emscripten.clang"
  },
  "schemaVersion": "3.4.4",
  "updatedAt": "2023-03-02T06:41:29.430Z",
  "devdoc": {
    "methods": {}
  },
  "userdoc": {
    "methods": {
      "getAudiusProxyAdminAddress()": {
        "notice": "Used to intentionally generate a function signature clash with AudiusAdminUpgradeabilityProxy         Returns current address instead of proxy admin address"
      },
      "getServiceProviderDetails(address)": {
        "notice": "Calculate the stake for an account based on total number of registered services"
      },
      "initialize()": {
        "notice": "wrapper function around parent contract Initializable's `initializable` modifier     initializable modifier ensures this function can only be called once by each deployed child contract     sets isInitialized flag to true to which is used by _requireIsInitialized()"
      },
      "isGovernanceAddress()": {
        "notice": "Used to check if is governance contract before setting governance address in other contracts"
      },
      "upgradeStakingTo(address)": {
        "notice": "Governance mock functions"
      }
    }
  }
}