{
  "contractName": "MockWormhole",
  "abi": [
    {
      "anonymous": false,
      "inputs": [
        {
          "indexed": false,
          "internalType": "uint16",
          "name": "recipientChain",
          "type": "uint16"
        },
        {
          "indexed": false,
          "internalType": "uint16",
          "name": "tokenChain",
          "type": "uint16"
        },
        {
          "indexed": false,
          "internalType": "uint8",
          "name": "tokenDecimals",
          "type": "uint8"
        },
        {
          "indexed": true,
          "internalType": "bytes32",
          "name": "token",
          "type": "bytes32"
        },
        {
          "indexed": true,
          "internalType": "bytes32",
          "name": "sender",
          "type": "bytes32"
        },
        {
          "indexed": false,
          "internalType": "bytes32",
          "name": "recipient",
          "type": "bytes32"
        },
        {
          "indexed": false,
          "internalType": "uint256",
          "name": "amount",
          "type": "uint256"
        },
        {
          "indexed": false,
          "internalType": "uint256",
          "name": "arbiterFee",
          "type": "uint256"
        },
        {
          "indexed": false,
          "internalType": "uint32",
          "name": "nonce",
          "type": "uint32"
        }
      ],
      "name": "LogTokensTransferred",
      "type": "event"
    },
    {
      "constant": false,
      "inputs": [
        {
          "internalType": "address",
          "name": "token",
          "type": "address"
        },
        {
          "internalType": "uint256",
          "name": "amount",
          "type": "uint256"
        },
        {
          "internalType": "uint16",
          "name": "recipientChain",
          "type": "uint16"
        },
        {
          "internalType": "bytes32",
          "name": "recipient",
          "type": "bytes32"
        },
        {
          "internalType": "uint256",
          "name": "arbiterFee",
          "type": "uint256"
        },
        {
          "internalType": "uint32",
          "name": "nonce",
          "type": "uint32"
        }
      ],
      "name": "transferTokens",
      "outputs": [],
      "payable": false,
      "stateMutability": "nonpayable",
      "type": "function"
    }
  ],
  "bytecode": "0x60806040526000805460ff1916600217905534801561001d57600080fd5b5061044a8061002d6000396000f3fe608060405234801561001057600080fd5b506004361061002b5760003560e01c80630f5287b014610030575b600080fd5b61007e600480360360c081101561004657600080fd5b5080356001600160a01b031690602081013590604081013561ffff169060608101359060808101359060a0013563ffffffff16610080565b005b61009b6001600160a01b03871633308863ffffffff61019716565b600080546040805163313ce56760e01b8152905160ff90921692916001600160a01b038a169163313ce567916004808301926020929190829003018186803b1580156100e657600080fd5b505afa1580156100fa573d6000803e3d6000fd5b505050506040513d602081101561011057600080fd5b50516040805161ffff808a1682528516602082015260ff83168183015260608101889052608081018a905260a0810187905263ffffffff861660c082015290519192506001600160a01b038a1691339183917f359028000241a05a5131fb9c6db7433b11281441bd890697a449c4c6f318433b9181900360e00190a3505050505050505050565b604080516001600160a01b0385811660248301528416604482015260648082018490528251808303909101815260849091019091526020810180516001600160e01b03166323b872dd60e01b1790526101f19085906101f7565b50505050565b610209826001600160a01b03166103af565b61025a576040805162461bcd60e51b815260206004820152601f60248201527f5361666545524332303a2063616c6c20746f206e6f6e2d636f6e747261637400604482015290519081900360640190fd5b60006060836001600160a01b0316836040518082805190602001908083835b602083106102985780518252601f199092019160209182019101610279565b6001836020036101000a0380198251168184511680821785525050505050509050019150506000604051808303816000865af19150503d80600081146102fa576040519150601f19603f3d011682016040523d82523d6000602084013e6102ff565b606091505b509150915081610356576040805162461bcd60e51b815260206004820181905260248201527f5361666545524332303a206c6f772d6c6576656c2063616c6c206661696c6564604482015290519081900360640190fd5b8051156101f15780806020019051602081101561037257600080fd5b50516101f15760405162461bcd60e51b815260040180806020018281038252602a8152602001806103ec602a913960400191505060405180910390fd5b6000813f7fc5d2460186f7233c927e7db2dcc703c0e500b653ca82273b7bfad8045d85a4708181148015906103e357508115155b94935050505056fe5361666545524332303a204552433230206f7065726174696f6e20646964206e6f742073756363656564a265627a7a72315820bbfea692bc77dc2535ec6e5ead7b23135136852a13a55bd6849132854e24ff9a64736f6c63430005110032",
  "source": "pragma solidity ^0.5.0;\n\nimport \"@openzeppelin/contracts-ethereum-package/contracts/token/ERC20/SafeERC20.sol\";\nimport \"@openzeppelin/contracts-ethereum-package/contracts/token/ERC20/ERC20.sol\";\nimport \"@openzeppelin/contracts-ethereum-package/contracts/token/ERC20/ERC20Detailed.sol\";\n\n\ncontract MockWormhole {\n    using SafeERC20 for ERC20;\n\n    uint8 CHAIN_ID = 2;\n\n    event LogTokensTransferred(\n        uint16 recipientChain,\n        uint16 tokenChain,\n        uint8 tokenDecimals,\n        bytes32 indexed token,\n        bytes32 indexed sender,\n        bytes32 recipient,\n        uint256 amount,\n        uint256 arbiterFee,\n        uint32 nonce\n    );\n\n    function transferTokens(\n        address token,\n        uint256 amount,\n        uint16 recipientChain,\n        bytes32 recipient,\n        uint256 arbiterFee,\n        uint32 nonce\n    ) public {\n        ERC20(token).safeTransferFrom(msg.sender, address(this), amount);\n\n        uint16 assetChain = CHAIN_ID;\n        uint8 decimals = ERC20Detailed(token).decimals();\n        bytes32 assetAddress = bytes32(uint256(token));\n\n        emit LogTokensTransferred(\n            recipientChain,\n            assetChain,\n            decimals,\n            assetAddress,\n            bytes32(uint256(msg.sender)),\n            recipient,\n            amount,\n            arbiterFee,\n            nonce\n        );\n    }\n}\n",
  "sourcePath": "/usr/src/app/contracts/test/MockWormhole.sol",
  "compiler": {
    "name": "solc",
    "version": "0.5.17+commit.d19bba13.Emscripten.clang"
  },
  "schemaVersion": "3.4.4",
  "updatedAt": "2023-03-02T06:41:29.436Z",
  "devdoc": {
    "methods": {}
  },
  "userdoc": {
    "methods": {}
  }
}