{
  "contractName": "MockAccount",
  "abi": [
    {
      "inputs": [
        {
          "internalType": "address payable",
          "name": "_owner",
          "type": "address"
        }
      ],
      "payable": false,
      "stateMutability": "nonpayable",
      "type": "constructor"
    },
    {
      "constant": true,
      "inputs": [],
      "name": "owner",
      "outputs": [
        {
          "internalType": "address",
          "name": "",
          "type": "address"
        }
      ],
      "payable": false,
      "stateMutability": "view",
      "type": "function"
    },
    {
      "constant": false,
      "inputs": [
        {
          "internalType": "address",
          "name": "_owner",
          "type": "address"
        }
      ],
      "name": "setOwner",
      "outputs": [],
      "payable": false,
      "stateMutability": "nonpayable",
      "type": "function"
    },
    {
      "constant": false,
      "inputs": [
        {
          "internalType": "address payable",
          "name": "recipient",
          "type": "address"
        }
      ],
      "name": "destroy",
      "outputs": [],
      "payable": false,
      "stateMutability": "nonpayable",
      "type": "function"
    }
  ],
  "bytecode": "0x608060405234801561001057600080fd5b506040516101de3803806101de8339818101604052602081101561003357600080fd5b5051600080546001600160a01b039092166001600160a01b0319909216919091179055610179806100656000396000f3fe608060405234801561001057600080fd5b50600436106100405760003560e01c8062f55d9d1461004557806313af40351461006d5780638da5cb5b14610093575b600080fd5b61006b6004803603602081101561005b57600080fd5b50356001600160a01b03166100b7565b005b61006b6004803603602081101561008357600080fd5b50356001600160a01b0316610113565b61009b610135565b604080516001600160a01b039092168252519081900360200190f35b6000546001600160a01b03163314610107576040805162461bcd60e51b815260206004820152600e60248201526d24b73b30b634b21039b2b73232b960911b604482015290519081900360640190fd5b806001600160a01b0316ff5b600080546001600160a01b0319166001600160a01b0392909216919091179055565b6000546001600160a01b03168156fea265627a7a72315820f45235a30b3f114c0589932e749e4639d8ef251195b22643efc69aefa6b8fed164736f6c63430005110032",
  "source": "pragma solidity ^0.5.0;\n\n\n/// Simple test contract with self destruct function\n/// Used to validate contractHash enforcement in governance\ncontract MockAccount {\n    address public owner;\n\n    constructor(address payable _owner) public {\n        owner = _owner;\n    }\n\n    function setOwner(address _owner) public {\n        owner = _owner;\n    }\n\n    function destroy(address payable recipient) public {\n        require(msg.sender == owner, \"Invalid sender\");\n        selfdestruct(recipient);\n    }\n}\n\n",
  "sourcePath": "/usr/src/app/contracts/test/MockAccount.sol",
  "compiler": {
    "name": "solc",
    "version": "0.5.17+commit.d19bba13.Emscripten.clang"
  },
  "schemaVersion": "3.4.4",
  "updatedAt": "2023-03-02T06:41:29.423Z",
  "devdoc": {
    "methods": {}
  },
  "userdoc": {
    "methods": {},
    "notice": "Simple test contract with self destruct function Used to validate contractHash enforcement in governance"
  }
}