{
  "contractName": "ServiceTypeManager",
  "abi": [
    {
      "anonymous": false,
      "inputs": [
        {
          "indexed": true,
          "internalType": "bytes32",
          "name": "_serviceType",
          "type": "bytes32"
        },
        {
          "indexed": true,
          "internalType": "uint256",
          "name": "_serviceTypeMin",
          "type": "uint256"
        },
        {
          "indexed": true,
          "internalType": "uint256",
          "name": "_serviceTypeMax",
          "type": "uint256"
        }
      ],
      "name": "ServiceTypeAdded",
      "type": "event"
    },
    {
      "anonymous": false,
      "inputs": [
        {
          "indexed": true,
          "internalType": "bytes32",
          "name": "_serviceType",
          "type": "bytes32"
        }
      ],
      "name": "ServiceTypeRemoved",
      "type": "event"
    },
    {
      "anonymous": false,
      "inputs": [
        {
          "indexed": true,
          "internalType": "bytes32",
          "name": "_serviceType",
          "type": "bytes32"
        },
        {
          "indexed": true,
          "internalType": "bytes32",
          "name": "_serviceVersion",
          "type": "bytes32"
        }
      ],
      "name": "SetServiceVersion",
      "type": "event"
    },
    {
      "constant": false,
      "inputs": [],
      "name": "initialize",
      "outputs": [],
      "payable": false,
      "stateMutability": "nonpayable",
      "type": "function"
    },
    {
      "constant": false,
      "inputs": [
        {
          "internalType": "address",
          "name": "_governanceAddress",
          "type": "address"
        }
      ],
      "name": "initialize",
      "outputs": [],
      "payable": false,
      "stateMutability": "nonpayable",
      "type": "function"
    },
    {
      "constant": true,
      "inputs": [],
      "name": "getGovernanceAddress",
      "outputs": [
        {
          "internalType": "address",
          "name": "",
          "type": "address"
        }
      ],
      "payable": false,
      "stateMutability": "view",
      "type": "function"
    },
    {
      "constant": false,
      "inputs": [
        {
          "internalType": "address",
          "name": "_governanceAddress",
          "type": "address"
        }
      ],
      "name": "setGovernanceAddress",
      "outputs": [],
      "payable": false,
      "stateMutability": "nonpayable",
      "type": "function"
    },
    {
      "constant": false,
      "inputs": [
        {
          "internalType": "bytes32",
          "name": "_serviceType",
          "type": "bytes32"
        },
        {
          "internalType": "uint256",
          "name": "_serviceTypeMin",
          "type": "uint256"
        },
        {
          "internalType": "uint256",
          "name": "_serviceTypeMax",
          "type": "uint256"
        }
      ],
      "name": "addServiceType",
      "outputs": [],
      "payable": false,
      "stateMutability": "nonpayable",
      "type": "function"
    },
    {
      "constant": false,
      "inputs": [
        {
          "internalType": "bytes32",
          "name": "_serviceType",
          "type": "bytes32"
        }
      ],
      "name": "removeServiceType",
      "outputs": [],
      "payable": false,
      "stateMutability": "nonpayable",
      "type": "function"
    },
    {
      "constant": true,
      "inputs": [
        {
          "internalType": "bytes32",
          "name": "_serviceType",
          "type": "bytes32"
        }
      ],
      "name": "getServiceTypeInfo",
      "outputs": [
        {
          "internalType": "bool",
          "name": "isValid",
          "type": "bool"
        },
        {
          "internalType": "uint256",
          "name": "minStake",
          "type": "uint256"
        },
        {
          "internalType": "uint256",
          "name": "maxStake",
          "type": "uint256"
        }
      ],
      "payable": false,
      "stateMutability": "view",
      "type": "function"
    },
    {
      "constant": true,
      "inputs": [],
      "name": "getValidServiceTypes",
      "outputs": [
        {
          "internalType": "bytes32[]",
          "name": "",
          "type": "bytes32[]"
        }
      ],
      "payable": false,
      "stateMutability": "view",
      "type": "function"
    },
    {
      "constant": true,
      "inputs": [
        {
          "internalType": "bytes32",
          "name": "_serviceType",
          "type": "bytes32"
        }
      ],
      "name": "serviceTypeIsValid",
      "outputs": [
        {
          "internalType": "bool",
          "name": "",
          "type": "bool"
        }
      ],
      "payable": false,
      "stateMutability": "view",
      "type": "function"
    },
    {
      "constant": false,
      "inputs": [
        {
          "internalType": "bytes32",
          "name": "_serviceType",
          "type": "bytes32"
        },
        {
          "internalType": "bytes32",
          "name": "_serviceVersion",
          "type": "bytes32"
        }
      ],
      "name": "setServiceVersion",
      "outputs": [],
      "payable": false,
      "stateMutability": "nonpayable",
      "type": "function"
    },
    {
      "constant": true,
      "inputs": [
        {
          "internalType": "bytes32",
          "name": "_serviceType",
          "type": "bytes32"
        },
        {
          "internalType": "uint256",
          "name": "_versionIndex",
          "type": "uint256"
        }
      ],
      "name": "getVersion",
      "outputs": [
        {
          "internalType": "bytes32",
          "name": "",
          "type": "bytes32"
        }
      ],
      "payable": false,
      "stateMutability": "view",
      "type": "function"
    },
    {
      "constant": true,
      "inputs": [
        {
          "internalType": "bytes32",
          "name": "_serviceType",
          "type": "bytes32"
        }
      ],
      "name": "getCurrentVersion",
      "outputs": [
        {
          "internalType": "bytes32",
          "name": "",
          "type": "bytes32"
        }
      ],
      "payable": false,
      "stateMutability": "view",
      "type": "function"
    },
    {
      "constant": true,
      "inputs": [
        {
          "internalType": "bytes32",
          "name": "_serviceType",
          "type": "bytes32"
        }
      ],
      "name": "getNumberOfVersions",
      "outputs": [
        {
          "internalType": "uint256",
          "name": "",
          "type": "uint256"
        }
      ],
      "payable": false,
      "stateMutability": "view",
      "type": "function"
    },
    {
      "constant": true,
      "inputs": [
        {
          "internalType": "bytes32",
          "name": "_serviceType",
          "type": "bytes32"
        },
        {
          "internalType": "bytes32",
          "name": "_serviceVersion",
          "type": "bytes32"
        }
      ],
      "name": "serviceVersionIsValid",
      "outputs": [
        {
          "internalType": "bool",
          "name": "",
          "type": "bool"
        }
      ],
      "payable": false,
      "stateMutability": "view",
      "type": "function"
    }
  ],
  "bytecode": "0x608060405234801561001057600080fd5b506111c0806100206000396000f3fe608060405234801561001057600080fd5b50600436106100ea5760003560e01c80639be6acf61161008c578063b04bee4611610066578063b04bee4614610292578063c4d66de8146102bb578063cfc16254146102e1578063f00344a614610307576100ea565b80639be6acf6146102015780639bf7734b1461023e578063af904a061461026f576100ea565b806373531e06116100c857806373531e061461018a5780637b41518f146101b95780638129fc1c146101d657806381ca9527146101de576100ea565b806343d5ef36146100ef5780635a0100d71461010e5780637325249414610166575b600080fd5b61010c6004803603602081101561010557600080fd5b503561032a565b005b610116610513565b60408051602080825283518183015283519192839290830191858101910280838360005b8381101561015257818101518382015260200161013a565b505050509050019250505060405180910390f35b61016e610574565b604080516001600160a01b039092168252519081900360200190f35b6101a7600480360360208110156101a057600080fd5b5035610593565b60408051918252519081900360200190f35b6101a7600480360360208110156101cf57600080fd5b50356105b0565b61010c61063c565b61010c600480360360408110156101f457600080fd5b50803590602001356106eb565b61021e6004803603602081101561021757600080fd5b50356108f7565b604080519315158452602084019290925282820152519081900360600190f35b61025b6004803603602081101561025457600080fd5b503561092a565b604080519115158252519081900360200190f35b6101a76004803603604081101561028557600080fd5b508035906020013561094a565b61010c600480360360608110156102a857600080fd5b50803590602081013590604001356109cd565b61010c600480360360208110156102d157600080fd5b50356001600160a01b0316610c44565b61010c600480360360208110156102f757600080fd5b50356001600160a01b0316610cf8565b61025b6004803603604081101561031d57600080fd5b5080359060200135610d99565b610332610dc4565b603360019054906101000a90046001600160a01b03166001600160a01b0316336001600160a01b03161460405180606001604052806038815260200161104c60389139906103fe5760405162461bcd60e51b81526004018080602001828103825283818151815260200191508051906020019080838360005b838110156103c35781810151838201526020016103ab565b50505050905090810190601f1680156103f05780820380516001836020036101000a031916815260200191505b509250505060405180910390fd5b50600080805b60365481101561044157836036828154811061041c57fe5b906000526020600020015414156104395780925060019150610441565b600101610404565b506001811515146104835760405162461bcd60e51b81526004018080602001828103825260338152602001806111336033913960400191505060405180910390fd5b60368054600019810191908290811061049857fe5b9060005260206000200154603684815481106104b057fe5b60009182526020909120015560368054906104cf906000198301610f22565b50600084815260376020526040808220805460ff191690555185917fa338f0c10ee88c54c6f2c919cfd8c59aead74059e72db2c01b3b4b1a0b41514c91a250505050565b606061051d610dc4565b603680548060200260200160405190810160405280929190818152602001828054801561056957602002820191906000526020600020905b815481526020019060010190808311610555575b505050505090505b90565b600061057e610dc4565b5060335461010090046001600160a01b031690565b600061059d610dc4565b5060009081526034602052604090205490565b60006105ba610dc4565b600082815260346020526040902054600111156106085760405162461bcd60e51b81526004018080602001828103825260388152602001806110cd6038913960400191505060405180910390fd5b60008281526034602052604090208054600019810191908290811061062957fe5b9060005260206000200154915050919050565b600054610100900460ff16806106555750610655610e4f565b80610663575060005460ff16155b61069e5760405162461bcd60e51b815260040180806020018281038252602e81526020018061101e602e913960400191505060405180910390fd5b600054610100900460ff161580156106c9576000805460ff1961ff0019909116610100171660011790555b6033805460ff1916600117905580156106e8576000805461ff00191690555b50565b6106f3610dc4565b603360019054906101000a90046001600160a01b03166001600160a01b0316336001600160a01b03161460405180606001604052806038815260200161104c60389139906107825760405162461bcd60e51b81526020600482018181528351602484015283519092839260449091019190850190808383600083156103c35781810151838201526020016103ab565b50306001600160a01b0316639bf7734b836040518263ffffffff1660e01b81526004018082815260200191505060206040518083038186803b1580156107c757600080fd5b505afa1580156107db573d6000803e3d6000fd5b505050506040513d60208110156107f157600080fd5b505161082e5760405162461bcd60e51b8152600401808060200182810382526028815260200180610ff66028913960400191505060405180910390fd5b600082815260356020908152604080832084845290915290205460ff16156108875760405162461bcd60e51b81526004018080602001828103825260268152602001806111666026913960400191505060405180910390fd5b60008281526034602090815260408083208054600181810183559185528385200185905585845260358352818420858552909252808320805460ff191690921790915551829184917f4e7a43cd7eeaa502383fb22f02605cd2094b120455a217c6b6d6f6e6d22886aa9190a35050565b6000806000610904610dc4565b50505060009081526037602052604090208054600182015460029092015460ff90911692565b6000610934610dc4565b5060009081526037602052604090205460ff1690565b6000610954610dc4565b60008381526034602052604090205482106109a05760405162461bcd60e51b81526004018080602001828103825260388152602001806110cd6038913960400191505060405180910390fd5b60008381526034602052604090208054839081106109ba57fe5b9060005260206000200154905092915050565b6109d5610dc4565b603360019054906101000a90046001600160a01b03166001600160a01b0316336001600160a01b03161460405180606001604052806038815260200161104c6038913990610a645760405162461bcd60e51b81526020600482018181528351602484015283519092839260449091019190850190808383600083156103c35781810151838201526020016103ab565b50306001600160a01b0316639bf7734b846040518263ffffffff1660e01b81526004018082815260200191505060206040518083038186803b158015610aa957600080fd5b505afa158015610abd573d6000803e3d6000fd5b505050506040513d6020811015610ad357600080fd5b505115610b115760405162461bcd60e51b815260040180806020018281038252602e815260200180611105602e913960400191505060405180910390fd5b818111610b4f5760405162461bcd60e51b8152600401808060200182810382526049815260200180610fad6049913960600191505060405180910390fd5b60008381526037602052604090206002015415610b9d5760405162461bcd60e51b8152600401808060200182810382526043815260200180610f6a6043913960600191505060405180910390fd5b6036805460018082019092557f4a11f94e20a93c79f6ec743a1954ec4fc2c08429ae2122118bf234b2185c81b801849055604080516060810182528281526020808201868152828401868152600089815260379093528483209351845460ff19169015151784559051948301949094559251600290910155518291849186917f75901b141ca2dab69480ccbbc6780335a550ba02ea3f80c3b2b8ac30fd1d66dc91a4505050565b600054610100900460ff1680610c5d5750610c5d610e4f565b80610c6b575060005460ff16155b610ca65760405162461bcd60e51b815260040180806020018281038252602e81526020018061101e602e913960400191505060405180910390fd5b600054610100900460ff16158015610cd1576000805460ff1961ff0019909116610100171660011790555b610cda82610e55565b610ce261063c565b8015610cf4576000805461ff00191690555b5050565b610d00610dc4565b603360019054906101000a90046001600160a01b03166001600160a01b0316336001600160a01b03161460405180606001604052806038815260200161104c6038913990610d8f5760405162461bcd60e51b81526020600482018181528351602484015283519092839260449091019190850190808383600083156103c35781810151838201526020016103ab565b506106e881610e55565b6000610da3610dc4565b50600091825260356020908152604080842092845291905290205460ff1690565b6033546040805180820190915260208082527f496e697469616c697a61626c6556323a204e6f7420696e697469616c697a6564908201529060ff1615156001146106e85760405162461bcd60e51b81526020600482018181528351602484015283519092839260449091019190850190808383600083156103c35781810151838201526020016103ab565b303b1590565b806001600160a01b0316630ea773076040518163ffffffff1660e01b815260040160206040518083038186803b158015610e8e57600080fd5b505afa158015610ea2573d6000803e3d6000fd5b505050506040513d6020811015610eb857600080fd5b50511515600114610efa5760405162461bcd60e51b81526004018080602001828103825260498152602001806110846049913960600191505060405180910390fd5b603380546001600160a01b0390921661010002610100600160a81b0319909216919091179055565b815481835581811115610f4657600083815260209020610f46918101908301610f4b565b505050565b61057191905b80821115610f655760008155600101610f51565b509056fe53657276696365547970654d616e616765723a2043616e6e6f742072652d616464207365727669636554797065206166746572206974207761732072656d6f7665642e53657276696365547970654d616e616765723a204d6178207374616b65206d757374206265206e6f6e2d7a65726f20616e642067726561746572207468616e206d696e207374616b6553657276696365547970654d616e616765723a20496e76616c696420736572766963652074797065436f6e747261637420696e7374616e63652068617320616c7265616479206265656e20696e697469616c697a656453657276696365547970654d616e616765723a204f6e6c792063616c6c61626c6520627920476f7665726e616e636520636f6e747261637453657276696365547970654d616e616765723a205f676f7665726e616e636541646472657373206973206e6f7420612076616c696420676f7665726e616e636520636f6e747261637453657276696365547970654d616e616765723a204e6f20726567697374657265642076657273696f6e206f6620736572766963655479706553657276696365547970654d616e616765723a20416c7265616479206b6e6f776e2073657276696365207479706553657276696365547970654d616e616765723a20496e76616c6964207365727669636520747970652c206e6f7420666f756e6453657276696365547970654d616e616765723a20416c72656164792072656769737465726564a265627a7a72315820cb2fad0165ccb2f82401d6d7c621c7179d7c6fc8150c6375266d73ca75f7a63c64736f6c63430005110032",
  "source": "pragma solidity ^0.5.0;\n\nimport \"./InitializableV2.sol\";\nimport \"./Governance.sol\";\n\n\ncontract ServiceTypeManager is InitializableV2 {\n    address governanceAddress;\n\n    string private constant ERROR_ONLY_GOVERNANCE = (\n        \"ServiceTypeManager: Only callable by Governance contract\"\n    );\n\n    /**\n     * @dev - mapping of serviceType - serviceTypeVersion\n     * Example - \"discovery-provider\" - [\"0.0.1\", \"0.0.2\", ..., \"currentVersion\"]\n     */\n    mapping(bytes32 => bytes32[]) private serviceTypeVersions;\n\n    /**\n     * @dev - mapping of serviceType - < serviceTypeVersion, isValid >\n     * Example - \"discovery-provider\" - <\"0.0.1\", true>\n     */\n    mapping(bytes32 => mapping(bytes32 => bool)) private serviceTypeVersionInfo;\n\n    /// @dev List of valid service types\n    bytes32[] private validServiceTypes;\n\n    /// @dev Struct representing service type info\n    struct ServiceTypeInfo {\n        bool isValid;\n        uint256 minStake;\n        uint256 maxStake;\n    }\n\n    /// @dev mapping of service type info\n    mapping(bytes32 => ServiceTypeInfo) private serviceTypeInfo;\n\n    event SetServiceVersion(\n        bytes32 indexed _serviceType,\n        bytes32 indexed _serviceVersion\n    );\n\n    event ServiceTypeAdded(\n        bytes32 indexed _serviceType,\n        uint256 indexed _serviceTypeMin,\n        uint256 indexed _serviceTypeMax\n    );\n\n    event ServiceTypeRemoved(bytes32 indexed _serviceType);\n\n    /**\n     * @notice Function to initialize the contract\n     * @param _governanceAddress - Governance proxy address\n     */\n    function initialize(address _governanceAddress) public initializer\n    {\n        _updateGovernanceAddress(_governanceAddress);\n        InitializableV2.initialize();\n    }\n\n    /// @notice Get the Governance address\n    function getGovernanceAddress() external view returns (address) {\n        _requireIsInitialized();\n\n        return governanceAddress;\n    }\n\n    /**\n     * @notice Set the Governance address\n     * @dev Only callable by Governance address\n     * @param _governanceAddress - address for new Governance contract\n     */\n    function setGovernanceAddress(address _governanceAddress) external {\n        _requireIsInitialized();\n\n        require(msg.sender == governanceAddress, ERROR_ONLY_GOVERNANCE);\n        _updateGovernanceAddress(_governanceAddress);\n    }\n\n    // ========================================= Service Type Logic =========================================\n\n    /**\n     * @notice Add a new service type\n     * @param _serviceType - type of service to add\n     * @param _serviceTypeMin - minimum stake for service type\n     * @param _serviceTypeMax - maximum stake for service type\n     */\n    function addServiceType(\n        bytes32 _serviceType,\n        uint256 _serviceTypeMin,\n        uint256 _serviceTypeMax\n    ) external\n    {\n        _requireIsInitialized();\n\n        require(msg.sender == governanceAddress, ERROR_ONLY_GOVERNANCE);\n        require(\n            !this.serviceTypeIsValid(_serviceType),\n            \"ServiceTypeManager: Already known service type\"\n        );\n        require(\n            _serviceTypeMax > _serviceTypeMin,\n            \"ServiceTypeManager: Max stake must be non-zero and greater than min stake\"\n        );\n\n        // Ensure serviceType cannot be re-added if it previously existed and was removed\n        // stored maxStake > 0 means it was previously added and removed\n        require(\n            serviceTypeInfo[_serviceType].maxStake == 0,\n            \"ServiceTypeManager: Cannot re-add serviceType after it was removed.\"\n        );\n\n        validServiceTypes.push(_serviceType);\n        serviceTypeInfo[_serviceType] = ServiceTypeInfo({\n            isValid: true,\n            minStake: _serviceTypeMin,\n            maxStake: _serviceTypeMax\n        });\n\n        emit ServiceTypeAdded(_serviceType, _serviceTypeMin, _serviceTypeMax);\n    }\n\n    /**\n     * @notice Remove an existing service type\n     * @param _serviceType - name of service type to remove\n     */\n    function removeServiceType(bytes32 _serviceType) external {\n        _requireIsInitialized();\n\n        require(msg.sender == governanceAddress, ERROR_ONLY_GOVERNANCE);\n\n        uint256 serviceIndex = 0;\n        bool foundService = false;\n        for (uint256 i = 0; i < validServiceTypes.length; i ++) {\n            if (validServiceTypes[i] == _serviceType) {\n                serviceIndex = i;\n                foundService = true;\n                break;\n            }\n        }\n        require(foundService == true, \"ServiceTypeManager: Invalid service type, not found\");\n        // Overwrite service index\n        uint256 lastIndex = validServiceTypes.length - 1;\n        validServiceTypes[serviceIndex] = validServiceTypes[lastIndex];\n        validServiceTypes.length--;\n\n        // Mark as invalid\n        serviceTypeInfo[_serviceType].isValid = false;\n        // Note - stake bounds are not reset so they can be checked to prevent serviceType from being re-added\n        emit ServiceTypeRemoved(_serviceType);\n    }\n\n    /**\n     * @notice Get isValid, min and max stake for a given service type\n     * @param _serviceType - type of service\n     * @return isValid, min and max stake for type\n     */\n    function getServiceTypeInfo(bytes32 _serviceType)\n    external view returns (bool isValid, uint256 minStake, uint256 maxStake)\n    {\n        _requireIsInitialized();\n\n        return (\n            serviceTypeInfo[_serviceType].isValid,\n            serviceTypeInfo[_serviceType].minStake,\n            serviceTypeInfo[_serviceType].maxStake\n        );\n    }\n\n    /**\n     * @notice Get list of valid service types\n     */\n    function getValidServiceTypes()\n    external view returns (bytes32[] memory)\n    {\n        _requireIsInitialized();\n\n        return validServiceTypes;\n    }\n\n    /**\n     * @notice Return indicating whether this is a valid service type\n     */\n    function serviceTypeIsValid(bytes32 _serviceType)\n    external view returns (bool)\n    {\n        _requireIsInitialized();\n\n        return serviceTypeInfo[_serviceType].isValid;\n    }\n\n    // ========================================= Service Version Logic =========================================\n\n    /**\n     * @notice Add new version for a serviceType\n     * @param _serviceType - type of service\n     * @param _serviceVersion - new version of service to add\n     */\n    function setServiceVersion(\n        bytes32 _serviceType,\n        bytes32 _serviceVersion\n    ) external\n    {\n        _requireIsInitialized();\n\n        require(msg.sender == governanceAddress, ERROR_ONLY_GOVERNANCE);\n        require(this.serviceTypeIsValid(_serviceType), \"ServiceTypeManager: Invalid service type\");\n        require(\n            serviceTypeVersionInfo[_serviceType][_serviceVersion] == false,\n            \"ServiceTypeManager: Already registered\"\n        );\n\n         // Update array of known versions for type\n        serviceTypeVersions[_serviceType].push(_serviceVersion);\n\n        // Update status for this specific service version\n        serviceTypeVersionInfo[_serviceType][_serviceVersion] = true;\n\n        emit SetServiceVersion(_serviceType, _serviceVersion);\n    }\n\n    /**\n     * @notice Get a version for a service type given it's index\n     * @param _serviceType - type of service\n     * @param _versionIndex - index in list of service versions\n     * @return bytes32 value for serviceVersion\n     */\n    function getVersion(bytes32 _serviceType, uint256 _versionIndex)\n    external view returns (bytes32)\n    {\n        _requireIsInitialized();\n\n        require(\n            serviceTypeVersions[_serviceType].length > _versionIndex,\n            \"ServiceTypeManager: No registered version of serviceType\"\n        );\n        return (serviceTypeVersions[_serviceType][_versionIndex]);\n    }\n\n    /**\n     * @notice Get curent version for a service type\n     * @param _serviceType - type of service\n     * @return Returns current version of service\n     */\n    function getCurrentVersion(bytes32 _serviceType)\n    external view returns (bytes32)\n    {\n        _requireIsInitialized();\n\n        require(\n            serviceTypeVersions[_serviceType].length >= 1,\n            \"ServiceTypeManager: No registered version of serviceType\"\n        );\n        uint256 latestVersionIndex = serviceTypeVersions[_serviceType].length - 1;\n        return (serviceTypeVersions[_serviceType][latestVersionIndex]);\n    }\n\n    /**\n     * @notice Get total number of versions for a service type\n     * @param _serviceType - type of service\n     */\n    function getNumberOfVersions(bytes32 _serviceType)\n    external view returns (uint256)\n    {\n        _requireIsInitialized();\n\n        return serviceTypeVersions[_serviceType].length;\n    }\n\n    /**\n     * @notice Return boolean indicating whether given version is valid for given type\n     * @param _serviceType - type of service\n     * @param _serviceVersion - version of service to check\n     */\n    function serviceVersionIsValid(bytes32 _serviceType, bytes32 _serviceVersion)\n    external view returns (bool)\n    {\n        _requireIsInitialized();\n\n        return serviceTypeVersionInfo[_serviceType][_serviceVersion];\n    }\n\n    /**\n     * @notice Set the governance address after confirming contract identity\n     * @param _governanceAddress - Incoming governance address\n     */\n    function _updateGovernanceAddress(address _governanceAddress) internal {\n        require(\n            Governance(_governanceAddress).isGovernanceAddress() == true,\n            \"ServiceTypeManager: _governanceAddress is not a valid governance contract\"\n        );\n        governanceAddress = _governanceAddress;\n    }\n}\n",
  "sourcePath": "/usr/src/app/contracts/ServiceTypeManager.sol",
  "compiler": {
    "name": "solc",
    "version": "0.5.17+commit.d19bba13.Emscripten.clang"
  },
  "schemaVersion": "3.4.4",
  "updatedAt": "2023-03-02T06:41:29.315Z",
  "devdoc": {
    "methods": {
      "addServiceType(bytes32,uint256,uint256)": {
        "params": {
          "_serviceType": "- type of service to add",
          "_serviceTypeMax": "- maximum stake for service type",
          "_serviceTypeMin": "- minimum stake for service type"
        }
      },
      "getCurrentVersion(bytes32)": {
        "params": {
          "_serviceType": "- type of service"
        },
        "return": "Returns current version of service"
      },
      "getNumberOfVersions(bytes32)": {
        "params": {
          "_serviceType": "- type of service"
        }
      },
      "getServiceTypeInfo(bytes32)": {
        "params": {
          "_serviceType": "- type of service"
        },
        "return": "isValid, min and max stake for type"
      },
      "getVersion(bytes32,uint256)": {
        "params": {
          "_serviceType": "- type of service",
          "_versionIndex": "- index in list of service versions"
        },
        "return": "bytes32 value for serviceVersion"
      },
      "initialize(address)": {
        "params": {
          "_governanceAddress": "- Governance proxy address"
        }
      },
      "removeServiceType(bytes32)": {
        "params": {
          "_serviceType": "- name of service type to remove"
        }
      },
      "serviceVersionIsValid(bytes32,bytes32)": {
        "params": {
          "_serviceType": "- type of service",
          "_serviceVersion": "- version of service to check"
        }
      },
      "setGovernanceAddress(address)": {
        "details": "Only callable by Governance address",
        "params": {
          "_governanceAddress": "- address for new Governance contract"
        }
      },
      "setServiceVersion(bytes32,bytes32)": {
        "params": {
          "_serviceType": "- type of service",
          "_serviceVersion": "- new version of service to add"
        }
      }
    }
  },
  "userdoc": {
    "methods": {
      "addServiceType(bytes32,uint256,uint256)": {
        "notice": "Add a new service type"
      },
      "getCurrentVersion(bytes32)": {
        "notice": "Get curent version for a service type"
      },
      "getGovernanceAddress()": {
        "notice": "Get the Governance address"
      },
      "getNumberOfVersions(bytes32)": {
        "notice": "Get total number of versions for a service type"
      },
      "getServiceTypeInfo(bytes32)": {
        "notice": "Get isValid, min and max stake for a given service type"
      },
      "getValidServiceTypes()": {
        "notice": "Get list of valid service types"
      },
      "getVersion(bytes32,uint256)": {
        "notice": "Get a version for a service type given it's index"
      },
      "initialize()": {
        "notice": "wrapper function around parent contract Initializable's `initializable` modifier     initializable modifier ensures this function can only be called once by each deployed child contract     sets isInitialized flag to true to which is used by _requireIsInitialized()"
      },
      "initialize(address)": {
        "notice": "Function to initialize the contract"
      },
      "removeServiceType(bytes32)": {
        "notice": "Remove an existing service type"
      },
      "serviceTypeIsValid(bytes32)": {
        "notice": "Return indicating whether this is a valid service type"
      },
      "serviceVersionIsValid(bytes32,bytes32)": {
        "notice": "Return boolean indicating whether given version is valid for given type"
      },
      "setGovernanceAddress(address)": {
        "notice": "Set the Governance address"
      },
      "setServiceVersion(bytes32,bytes32)": {
        "notice": "Add new version for a serviceType"
      }
    }
  }
}