{
  "contractName": "StakingUpgraded",
  "abi": [
    {
      "anonymous": false,
      "inputs": [
        {
          "indexed": true,
          "internalType": "address",
          "name": "user",
          "type": "address"
        },
        {
          "indexed": false,
          "internalType": "uint256",
          "name": "amount",
          "type": "uint256"
        },
        {
          "indexed": false,
          "internalType": "uint256",
          "name": "total",
          "type": "uint256"
        }
      ],
      "name": "Slashed",
      "type": "event"
    },
    {
      "anonymous": false,
      "inputs": [
        {
          "indexed": true,
          "internalType": "address",
          "name": "user",
          "type": "address"
        },
        {
          "indexed": false,
          "internalType": "uint256",
          "name": "amount",
          "type": "uint256"
        },
        {
          "indexed": false,
          "internalType": "uint256",
          "name": "total",
          "type": "uint256"
        }
      ],
      "name": "Staked",
      "type": "event"
    },
    {
      "anonymous": false,
      "inputs": [
        {
          "indexed": true,
          "internalType": "address",
          "name": "user",
          "type": "address"
        },
        {
          "indexed": false,
          "internalType": "uint256",
          "name": "amount",
          "type": "uint256"
        },
        {
          "indexed": false,
          "internalType": "uint256",
          "name": "total",
          "type": "uint256"
        }
      ],
      "name": "Unstaked",
      "type": "event"
    },
    {
      "constant": false,
      "inputs": [
        {
          "internalType": "address",
          "name": "_accountAddress",
          "type": "address"
        },
        {
          "internalType": "address",
          "name": "_delegatorAddress",
          "type": "address"
        },
        {
          "internalType": "uint256",
          "name": "_amount",
          "type": "uint256"
        }
      ],
      "name": "delegateStakeFor",
      "outputs": [],
      "payable": false,
      "stateMutability": "nonpayable",
      "type": "function"
    },
    {
      "constant": true,
      "inputs": [],
      "name": "getClaimsManagerAddress",
      "outputs": [
        {
          "internalType": "address",
          "name": "",
          "type": "address"
        }
      ],
      "payable": false,
      "stateMutability": "view",
      "type": "function"
    },
    {
      "constant": true,
      "inputs": [],
      "name": "getDelegateManagerAddress",
      "outputs": [
        {
          "internalType": "address",
          "name": "",
          "type": "address"
        }
      ],
      "payable": false,
      "stateMutability": "view",
      "type": "function"
    },
    {
      "constant": true,
      "inputs": [],
      "name": "getGovernanceAddress",
      "outputs": [
        {
          "internalType": "address",
          "name": "",
          "type": "address"
        }
      ],
      "payable": false,
      "stateMutability": "view",
      "type": "function"
    },
    {
      "constant": true,
      "inputs": [],
      "name": "getServiceProviderFactoryAddress",
      "outputs": [
        {
          "internalType": "address",
          "name": "",
          "type": "address"
        }
      ],
      "payable": false,
      "stateMutability": "view",
      "type": "function"
    },
    {
      "constant": false,
      "inputs": [
        {
          "internalType": "address",
          "name": "_tokenAddress",
          "type": "address"
        },
        {
          "internalType": "address",
          "name": "_governanceAddress",
          "type": "address"
        }
      ],
      "name": "initialize",
      "outputs": [],
      "payable": false,
      "stateMutability": "nonpayable",
      "type": "function"
    },
    {
      "constant": false,
      "inputs": [],
      "name": "initialize",
      "outputs": [],
      "payable": false,
      "stateMutability": "nonpayable",
      "type": "function"
    },
    {
      "constant": true,
      "inputs": [
        {
          "internalType": "address",
          "name": "_accountAddress",
          "type": "address"
        }
      ],
      "name": "isStaker",
      "outputs": [
        {
          "internalType": "bool",
          "name": "",
          "type": "bool"
        }
      ],
      "payable": false,
      "stateMutability": "view",
      "type": "function"
    },
    {
      "constant": true,
      "inputs": [
        {
          "internalType": "address",
          "name": "_accountAddress",
          "type": "address"
        }
      ],
      "name": "lastClaimedFor",
      "outputs": [
        {
          "internalType": "uint256",
          "name": "",
          "type": "uint256"
        }
      ],
      "payable": false,
      "stateMutability": "view",
      "type": "function"
    },
    {
      "constant": true,
      "inputs": [
        {
          "internalType": "address",
          "name": "_accountAddress",
          "type": "address"
        }
      ],
      "name": "lastStakedFor",
      "outputs": [
        {
          "internalType": "uint256",
          "name": "",
          "type": "uint256"
        }
      ],
      "payable": false,
      "stateMutability": "view",
      "type": "function"
    },
    {
      "constant": false,
      "inputs": [
        {
          "internalType": "address",
          "name": "_claimsManager",
          "type": "address"
        }
      ],
      "name": "setClaimsManagerAddress",
      "outputs": [],
      "payable": false,
      "stateMutability": "nonpayable",
      "type": "function"
    },
    {
      "constant": false,
      "inputs": [
        {
          "internalType": "address",
          "name": "_delegateManager",
          "type": "address"
        }
      ],
      "name": "setDelegateManagerAddress",
      "outputs": [],
      "payable": false,
      "stateMutability": "nonpayable",
      "type": "function"
    },
    {
      "constant": false,
      "inputs": [
        {
          "internalType": "address",
          "name": "_governanceAddress",
          "type": "address"
        }
      ],
      "name": "setGovernanceAddress",
      "outputs": [],
      "payable": false,
      "stateMutability": "nonpayable",
      "type": "function"
    },
    {
      "constant": false,
      "inputs": [
        {
          "internalType": "address",
          "name": "_spFactory",
          "type": "address"
        }
      ],
      "name": "setServiceProviderFactoryAddress",
      "outputs": [],
      "payable": false,
      "stateMutability": "nonpayable",
      "type": "function"
    },
    {
      "constant": false,
      "inputs": [
        {
          "internalType": "uint256",
          "name": "_amount",
          "type": "uint256"
        },
        {
          "internalType": "address",
          "name": "_slashAddress",
          "type": "address"
        }
      ],
      "name": "slash",
      "outputs": [],
      "payable": false,
      "stateMutability": "nonpayable",
      "type": "function"
    },
    {
      "constant": false,
      "inputs": [
        {
          "internalType": "address",
          "name": "_accountAddress",
          "type": "address"
        },
        {
          "internalType": "uint256",
          "name": "_amount",
          "type": "uint256"
        }
      ],
      "name": "stakeFor",
      "outputs": [],
      "payable": false,
      "stateMutability": "nonpayable",
      "type": "function"
    },
    {
      "constant": false,
      "inputs": [
        {
          "internalType": "uint256",
          "name": "_amount",
          "type": "uint256"
        },
        {
          "internalType": "address",
          "name": "_stakerAccount",
          "type": "address"
        }
      ],
      "name": "stakeRewards",
      "outputs": [],
      "payable": false,
      "stateMutability": "nonpayable",
      "type": "function"
    },
    {
      "constant": true,
      "inputs": [],
      "name": "supportsHistory",
      "outputs": [
        {
          "internalType": "bool",
          "name": "",
          "type": "bool"
        }
      ],
      "payable": false,
      "stateMutability": "view",
      "type": "function"
    },
    {
      "constant": true,
      "inputs": [],
      "name": "token",
      "outputs": [
        {
          "internalType": "address",
          "name": "",
          "type": "address"
        }
      ],
      "payable": false,
      "stateMutability": "view",
      "type": "function"
    },
    {
      "constant": true,
      "inputs": [],
      "name": "totalStaked",
      "outputs": [
        {
          "internalType": "uint256",
          "name": "",
          "type": "uint256"
        }
      ],
      "payable": false,
      "stateMutability": "view",
      "type": "function"
    },
    {
      "constant": true,
      "inputs": [
        {
          "internalType": "uint256",
          "name": "_blockNumber",
          "type": "uint256"
        }
      ],
      "name": "totalStakedAt",
      "outputs": [
        {
          "internalType": "uint256",
          "name": "",
          "type": "uint256"
        }
      ],
      "payable": false,
      "stateMutability": "view",
      "type": "function"
    },
    {
      "constant": true,
      "inputs": [
        {
          "internalType": "address",
          "name": "_accountAddress",
          "type": "address"
        }
      ],
      "name": "totalStakedFor",
      "outputs": [
        {
          "internalType": "uint256",
          "name": "",
          "type": "uint256"
        }
      ],
      "payable": false,
      "stateMutability": "view",
      "type": "function"
    },
    {
      "constant": true,
      "inputs": [
        {
          "internalType": "address",
          "name": "_accountAddress",
          "type": "address"
        },
        {
          "internalType": "uint256",
          "name": "_blockNumber",
          "type": "uint256"
        }
      ],
      "name": "totalStakedForAt",
      "outputs": [
        {
          "internalType": "uint256",
          "name": "",
          "type": "uint256"
        }
      ],
      "payable": false,
      "stateMutability": "view",
      "type": "function"
    },
    {
      "constant": false,
      "inputs": [
        {
          "internalType": "address",
          "name": "_accountAddress",
          "type": "address"
        },
        {
          "internalType": "address",
          "name": "_delegatorAddress",
          "type": "address"
        },
        {
          "internalType": "uint256",
          "name": "_amount",
          "type": "uint256"
        }
      ],
      "name": "undelegateStakeFor",
      "outputs": [],
      "payable": false,
      "stateMutability": "nonpayable",
      "type": "function"
    },
    {
      "constant": false,
      "inputs": [
        {
          "internalType": "address",
          "name": "_accountAddress",
          "type": "address"
        },
        {
          "internalType": "uint256",
          "name": "_amount",
          "type": "uint256"
        }
      ],
      "name": "unstakeFor",
      "outputs": [],
      "payable": false,
      "stateMutability": "nonpayable",
      "type": "function"
    },
    {
      "constant": false,
      "inputs": [
        {
          "internalType": "uint256",
          "name": "_amount",
          "type": "uint256"
        },
        {
          "internalType": "address",
          "name": "_stakerAccount",
          "type": "address"
        }
      ],
      "name": "updateClaimHistory",
      "outputs": [],
      "payable": false,
      "stateMutability": "nonpayable",
      "type": "function"
    },
    {
      "constant": true,
      "inputs": [],
      "name": "newFunction",
      "outputs": [
        {
          "internalType": "uint256",
          "name": "",
          "type": "uint256"
        }
      ],
      "payable": false,
      "stateMutability": "view",
      "type": "function"
    }
  ],
  "bytecode": "0x608060405234801561001057600080fd5b506121c8806100206000396000f3fe608060405234801561001057600080fd5b50600436106101a85760003560e01c806373252494116100f9578063c9c5323211610097578063d16543f611610071578063d16543f6146104c6578063ea63d651146104ce578063ede38421146104f4578063fc0c546a14610520576101a8565b8063c9c532321461044d578063ccd9838a1461046a578063cfc16254146104a0576101a8565b8063948e5426116100d3578063948e5426146103c75780639b172b35146103cf578063a2e5e73e146103fb578063aa70d23614610427576101a8565b806373252494146103af5780638129fc1c146103b7578063817b1cd2146103bf576101a8565b80633d82e3c1116101665780634b341aed116101405780634b341aed146103115780636c483ff3146103375780636f1e85331461036d5780637033e4a6146103a7576101a8565b80633d82e3c11461029157806346350ae6146102bd578063485cc955146102e3576101a8565b80622ae74a146101ad5780631b28d63e146101d1578063201ae9db146101eb578063233b7451146102135780632ee409081461023957806336ef088c14610265575b600080fd5b6101b5610528565b604080516001600160a01b039092168252519081900360200190f35b6101d9610542565b60408051918252519081900360200190f35b6102116004803603602081101561020157600080fd5b50356001600160a01b0316610552565b005b6101d96004803603602081101561022957600080fd5b50356001600160a01b0316610648565b6102116004803603604081101561024f57600080fd5b506001600160a01b0381351690602001356106c3565b6102116004803603604081101561027b57600080fd5b506001600160a01b038135169060200135610758565b610211600480360360408110156102a757600080fd5b50803590602001356001600160a01b03166107e9565b6101d9600480360360208110156102d357600080fd5b50356001600160a01b03166108ca565b610211600480360360408110156102f957600080fd5b506001600160a01b0381358116916020013516610921565b6101d96004803603602081101561032757600080fd5b50356001600160a01b0316610a60565b6102116004803603606081101561034d57600080fd5b506001600160a01b03813581169160208101359091169060400135610a91565b6103936004803603602081101561038357600080fd5b50356001600160a01b0316610b22565b604080519115158252519081900360200190f35b610393610b3e565b6101b5610b4e565b610211610b6d565b6101d9610c1c565b6101b5610c35565b610211600480360360408110156103e557600080fd5b50803590602001356001600160a01b0316610c4f565b6102116004803603604081101561041157600080fd5b50803590602001356001600160a01b0316610d1d565b6102116004803603602081101561043d57600080fd5b50356001600160a01b0316610db4565b6101d96004803603602081101561046357600080fd5b5035610e6d565b6102116004803603606081101561048057600080fd5b506001600160a01b03813581169160208101359091169060400135610e91565b610211600480360360208110156104b657600080fd5b50356001600160a01b0316610f22565b6101b5610fc2565b610211600480360360208110156104e457600080fd5b50356001600160a01b0316610fdc565b6101d96004803603604081101561050a57600080fd5b506001600160a01b038135169060200135611095565b6101b56110d6565b60006105326110f0565b506036546001600160a01b031690565b600061054c6110f0565b50600590565b61055a6110f0565b6033546040805180820190915260188152775374616b696e673a204f6e6c7920676f7665726e616e636560401b60208201529061010090046001600160a01b031633146106255760405162461bcd60e51b81526004018080602001828103825283818151815260200191508051906020019080838360005b838110156105ea5781810151838201526020016105d2565b50505050905090810190601f1680156106175780820380516001836020036101000a031916815260200191505b509250505060405180910390fd5b50603680546001600160a01b0319166001600160a01b0392909216919091179055565b60006106526110f0565b6001600160a01b03821660009081526038602052604090205480156106b8576001600160a01b03831660009081526038602052604090208054600019830190811061069957fe5b60009182526020909120015467ffffffffffffffff1691506106be9050565b60009150505b919050565b6106cb6110f0565b6106d361117b565b603654604080516060810190915260328082526001600160a01b039092163314916121626020830139906107485760405162461bcd60e51b81526020600482018181528351602484015283519092839260449091019190850190808383600083156105ea5781810151838201526020016105d2565b506107548283836111c4565b5050565b6107606110f0565b61076861117b565b603654604080516060810190915260328082526001600160a01b039092163314916121626020830139906107dd5760405162461bcd60e51b81526020600482018181528351602484015283519092839260449091019190850190808383600083156105ea5781810151838201526020016105d2565b506107548283836112d2565b6107f16110f0565b6107f96113c2565b6035546040805160608101909152602b8082526001600160a01b0390921633149161204560208301399061086e5760405162461bcd60e51b81526020600482018181528351602484015283519092839260449091019190850190808383600083156105ea5781810151838201526020016105d2565b506108798183611409565b806001600160a01b03167f45a371af55b0726877a30f464edc14db5879ab096590bacce682cf6c18223596836108ae84610a60565b6040805192835260208301919091528051918290030190a25050565b60006108d46110f0565b6001600160a01b03821660009081526038602052604090206001015480156106b8576001600160a01b03831660009081526038602052604090206001018054600019830190811061069957fe5b600054610100900460ff168061093a575061093a6114f4565b80610948575060005460ff16155b6109835760405162461bcd60e51b815260040180806020018281038252602e815260200180611fba602e913960400191505060405180910390fd5b600054610100900460ff161580156109ae576000805460ff1961ff0019909116610100171660011790555b6109b7836114fa565b6040518060600160405280602881526020016120ae6028913990610a1c5760405162461bcd60e51b81526020600482018181528351602484015283519092839260449091019190850190808383600083156105ea5781810151838201526020016105d2565b50603780546001600160a01b0319166001600160a01b038516179055610a4182611536565b610a49610b6d565b8015610a5b576000805461ff00191690555b505050565b6000610a6a6110f0565b6001600160a01b0382166000908152603860205260409020610a8b90611603565b92915050565b610a996110f0565b610aa16113c2565b6035546040805160608101909152602b8082526001600160a01b03909216331491612045602083013990610b165760405162461bcd60e51b81526020600482018181528351602484015283519092839260449091019190850190808383600083156105ea5781810151838201526020016105d2565b50610a5b8383836111c4565b6000610b2c6110f0565b6000610b3783610a60565b1192915050565b6000610b486110f0565b50600190565b6000610b586110f0565b5060335461010090046001600160a01b031690565b600054610100900460ff1680610b865750610b866114f4565b80610b94575060005460ff16155b610bcf5760405162461bcd60e51b815260040180806020018281038252602e815260200180611fba602e913960400191505060405180910390fd5b600054610100900460ff16158015610bfa576000805460ff1961ff0019909116610100171660011790555b6033805460ff191660011790558015610c19576000805461ff00191690555b50565b6000610c266110f0565b610c306039611603565b905090565b6000610c3f6110f0565b506034546001600160a01b031690565b610c576110f0565b610c5f611645565b6034546001600160a01b03163314610ca85760405162461bcd60e51b8152600401808060200182810382526029815260200180611f916029913960400191505060405180910390fd5b610cb38133846111c4565b60408051635172f39f60e11b8152600481018490526001600160a01b03831660248201529051309163a2e5e73e91604480830192600092919082900301818387803b158015610d0157600080fd5b505af1158015610d15573d6000803e3d6000fd5b505050505050565b610d256110f0565b610d2d611645565b6034546001600160a01b0316331480610d4557503330145b610d805760405162461bcd60e51b815260040180806020018281038252603881526020018061212a6038913960400191505060405180910390fd5b610754610d8c4361168c565b6001600160a01b0383166000908152603860205260409020600101908463ffffffff61171916565b610dbc6110f0565b6033546040805180820190915260188152775374616b696e673a204f6e6c7920676f7665726e616e636560401b60208201529061010090046001600160a01b03163314610e4a5760405162461bcd60e51b81526020600482018181528351602484015283519092839260449091019190850190808383600083156105ea5781810151838201526020016105d2565b50603480546001600160a01b0319166001600160a01b0392909216919091179055565b6000610e776110f0565b610a8b610e838361168c565b60399063ffffffff6117af16565b610e996110f0565b610ea16113c2565b6035546040805160608101909152602b8082526001600160a01b03909216331491612045602083013990610f165760405162461bcd60e51b81526020600482018181528351602484015283519092839260449091019190850190808383600083156105ea5781810151838201526020016105d2565b50610a5b8383836112d2565b610f2a6110f0565b6033546040805180820190915260188152775374616b696e673a204f6e6c7920676f7665726e616e636560401b60208201529061010090046001600160a01b03163314610fb85760405162461bcd60e51b81526020600482018181528351602484015283519092839260449091019190850190808383600083156105ea5781810151838201526020016105d2565b50610c1981611536565b6000610fcc6110f0565b506035546001600160a01b031690565b610fe46110f0565b6033546040805180820190915260188152775374616b696e673a204f6e6c7920676f7665726e616e636560401b60208201529061010090046001600160a01b031633146110725760405162461bcd60e51b81526020600482018181528351602484015283519092839260449091019190850190808383600083156105ea5781810151838201526020016105d2565b50603580546001600160a01b0319166001600160a01b0392909216919091179055565b600061109f6110f0565b6110cf6110ab8361168c565b6001600160a01b03851660009081526038602052604090209063ffffffff6117af16565b9392505050565b60006110e06110f0565b506037546001600160a01b031690565b6033546040805180820190915260208082527f496e697469616c697a61626c6556323a204e6f7420696e697469616c697a6564908201529060ff161515600114610c195760405162461bcd60e51b81526020600482018181528351602484015283519092839260449091019190850190808383600083156105ea5781810151838201526020016105d2565b6036546001600160a01b03166111c25760405162461bcd60e51b8152600401808060200182810382526031815260200180611f606031913960400191505060405180910390fd5b565b600081116040518060400160405280602081526020017f5374616b696e673a205a65726f20616d6f756e74206e6f7420616c6c6f7765648152509061124a5760405162461bcd60e51b81526020600482018181528351602484015283519092839260449091019190850190808383600083156105ea5781810151838201526020016105d2565b50611257838260016117bb565b611262816001611887565b603754611280906001600160a01b031683308463ffffffff6118e616565b826001600160a01b03167f1449c6dd7851abc30abf37f57715f492010519147cc2652fbc38202c18a6ee90826112b586610a60565b6040805192835260208301919091528051918290030190a2505050565b600081116040518060400160405280602081526020017f5374616b696e673a205a65726f20616d6f756e74206e6f7420616c6c6f776564815250906113585760405162461bcd60e51b81526020600482018181528351602484015283519092839260449091019190850190808383600083156105ea5781810151838201526020016105d2565b50611365838260006117bb565b611370816000611887565b60375461138d906001600160a01b0316838363ffffffff61194016565b826001600160a01b03167f7fc4727e062e336010f2c282598ef5f14facb3de68cf8195c2f23e1454b2b74e826112b586610a60565b6035546001600160a01b03166111c25760405162461bcd60e51b815260040180806020018281038252602a8152602001806120d6602a913960400191505060405180910390fd5b600081116040518060400160405280602081526020017f5374616b696e673a205a65726f20616d6f756e74206e6f7420616c6c6f7765648152509061148f5760405162461bcd60e51b81526020600482018181528351602484015283519092839260449091019190850190808383600083156105ea5781810151838201526020016105d2565b5061149c828260006117bb565b6114a7816000611887565b60375460408051630852cd8d60e31b81526004810184905290516001600160a01b03909216916342966c689160248082019260009290919082900301818387803b158015610d0157600080fd5b303b1590565b6000813f7fc5d2460186f7233c927e7db2dcc703c0e500b653ca82273b7bfad8045d85a47081811480159061152e57508115155b949350505050565b806001600160a01b0316630ea773076040518163ffffffff1660e01b815260040160206040518083038186803b15801561156f57600080fd5b505afa158015611583573d6000803e3d6000fd5b505050506040513d602081101561159957600080fd5b505115156001146115db5760405162461bcd60e51b815260040180806020018281038252603e815260200180612070603e913960400191505060405180910390fd5b603380546001600160a01b0390921661010002610100600160a81b0319909216919091179055565b805460009080156106b85782600001600182038154811061162057fe5b600091825260209091200154600160401b90046001600160c01b031691506106be9050565b6034546001600160a01b03166111c25760405162461bcd60e51b8152600401808060200182810382526028815260200180611fe86028913960400191505060405180910390fd5b60408051808201909152601581527455494e5436345f4e554d4245525f544f4f5f42494760581b602082015260009067ffffffffffffffff8311156117125760405162461bcd60e51b81526020600482018181528351602484015283519092839260449091019190850190808383600083156105ea5781810151838201526020016105d2565b5090919050565b60408051808201909152601881527f434845434b504f494e545f56414c55455f544f4f5f424947000000000000000060208201526001600160c01b038211156117a35760405162461bcd60e51b81526020600482018181528351602484015283519092839260449091019190850190808383600083156105ea5781810151838201526020016105d2565b50610a5b838383611992565b60006110cf8383611b1f565b6001600160a01b03831660009081526038602052604081206117dc90611603565b9050600082156117fd576117f6828563ffffffff611cb116565b905061184f565b8382101561183c5760405162461bcd60e51b81526004018080602001828103825260358152602001806120106035913960400191505060405180910390fd5b61184c828563ffffffff611d0b16565b90505b61188061185b4361168c565b6001600160a01b0387166000908152603860205260409020908363ffffffff61171916565b5050505050565b6000611891610c1c565b9050600082156118b2576118ab828563ffffffff611cb116565b90506118c5565b6118c2828563ffffffff611d0b16565b90505b6118e06118d14361168c565b6039908363ffffffff61171916565b50505050565b604080516001600160a01b0385811660248301528416604482015260648082018490528251808303909101815260849091019091526020810180516001600160e01b03166323b872dd60e01b1790526118e0908590611d4d565b604080516001600160a01b038416602482015260448082018490528251808303909101815260649091019091526020810180516001600160e01b031663a9059cbb60e01b179052610a5b908490611d4d565b82548015806119d25750835467ffffffffffffffff841690859060001981019081106119ba57fe5b60009182526020909120015467ffffffffffffffff16105b15611a43576040805180820190915267ffffffffffffffff80851682526001600160c01b0380851660208085019182528854600181018a5560008a8152919091209451940180549151909216600160401b0293831667ffffffffffffffff19909116179091169190911790556118e0565b6000846000016001830381548110611a5757fe5b6000918252602091829020018054604080518082019091528381527f434845434b504f494e545f43414e4e4f545f4144445f504153545f56414c55459381019390935290925067ffffffffffffffff868116911614611af75760405162461bcd60e51b81526020600482018181528351602484015283519092839260449091019190850190808383600083156105ea5781810151838201526020016105d2565b5080546001600160c01b038416600160401b0267ffffffffffffffff90911617905550505050565b815460009080611b33576000915050610a8b565b8354600019820190859082908110611b4757fe5b60009182526020909120015467ffffffffffffffff90811690851610611b9c57846000018181548110611b7657fe5b600091825260209091200154600160401b90046001600160c01b03169250610a8b915050565b84600001600081548110611bac57fe5b60009182526020909120015467ffffffffffffffff9081169085161015611bd857600092505050610a8b565b6000815b81811115611c7b57865460028383016001010490600090899083908110611bff57fe5b6000918252602090912001805490915067ffffffffffffffff908116908916811015611c2d57829450611c73565b8067ffffffffffffffff168967ffffffffffffffff161015611c5457600183039350611c73565b5054600160401b90046001600160c01b03169550610a8b945050505050565b505050611bdc565b866000018281548110611c8a57fe5b600091825260209091200154600160401b90046001600160c01b0316979650505050505050565b6000828201838110156110cf576040805162461bcd60e51b815260206004820152601b60248201527f536166654d6174683a206164646974696f6e206f766572666c6f770000000000604482015290519081900360640190fd5b60006110cf83836040518060400160405280601e81526020017f536166654d6174683a207375627472616374696f6e206f766572666c6f770000815250611f05565b611d5f826001600160a01b03166114fa565b611db0576040805162461bcd60e51b815260206004820152601f60248201527f5361666545524332303a2063616c6c20746f206e6f6e2d636f6e747261637400604482015290519081900360640190fd5b60006060836001600160a01b0316836040518082805190602001908083835b60208310611dee5780518252601f199092019160209182019101611dcf565b6001836020036101000a0380198251168184511680821785525050505050509050019150506000604051808303816000865af19150503d8060008114611e50576040519150601f19603f3d011682016040523d82523d6000602084013e611e55565b606091505b509150915081611eac576040805162461bcd60e51b815260206004820181905260248201527f5361666545524332303a206c6f772d6c6576656c2063616c6c206661696c6564604482015290519081900360640190fd5b8051156118e057808060200190516020811015611ec857600080fd5b50516118e05760405162461bcd60e51b815260040180806020018281038252602a815260200180612100602a913960400191505060405180910390fd5b60008184841115611f575760405162461bcd60e51b81526020600482018181528351602484015283519092839260449091019190850190808383600083156105ea5781810151838201526020016105d2565b50505090039056fe5374616b696e673a207365727669636550726f7669646572466163746f727941646472657373206973206e6f74207365745374616b696e673a204f6e6c792063616c6c61626c652066726f6d20436c61696d734d616e61676572436f6e747261637420696e7374616e63652068617320616c7265616479206265656e20696e697469616c697a65645374616b696e673a20636c61696d734d616e6167657241646472657373206973206e6f74207365745374616b696e673a2043616e6e6f742064656372656173652067726561746572207468616e2063757272656e742062616c616e63655374616b696e673a204f6e6c792063616c6c61626c652066726f6d2044656c65676174654d616e616765725374616b696e673a205f676f7665726e616e636541646472657373206973206e6f7420612076616c696420676f7665726e616e636520636f6e74726163745374616b696e673a205374616b696e6720746f6b656e206973206e6f74206120636f6e74726163745374616b696e673a2064656c65676174654d616e6167657241646472657373206973206e6f74207365745361666545524332303a204552433230206f7065726174696f6e20646964206e6f7420737563636565645374616b696e673a204f6e6c792063616c6c61626c652066726f6d20436c61696d734d616e61676572206f72205374616b696e672e736f6c5374616b696e673a204f6e6c792063616c6c61626c652066726f6d205365727669636550726f7669646572466163746f7279a265627a7a7231582016ae273c9e40bd7d55375ad4984a96afff6d0405868bd1013c68c01f99ef78ef64736f6c63430005110032",
  "source": "pragma solidity ^0.5.0;\n\nimport \"../Staking.sol\";\n\n\ncontract StakingUpgraded is Staking {\n    function newFunction() public view returns (uint256) {\n        _requireIsInitialized();\n\n        return 5;\n    }\n}\n",
  "sourcePath": "/usr/src/app/contracts/test/StakingUpgraded.sol",
  "compiler": {
    "name": "solc",
    "version": "0.5.17+commit.d19bba13.Emscripten.clang"
  },
  "schemaVersion": "3.4.4",
  "updatedAt": "2023-03-02T06:41:29.441Z",
  "devdoc": {
    "methods": {
      "delegateStakeFor(address,address,uint256)": {
        "params": {
          "_accountAddress": "- The final staker of the tokens",
          "_amount": "- Number of tokens staked",
          "_delegatorAddress": "- Address from which to transfer tokens"
        }
      },
      "initialize(address,address)": {
        "details": "claimsManagerAddress must be initialized separately after ClaimsManager contract is deployeddelegateManagerAddress must be initialized separately after DelegateManager contract is deployedserviceProviderFactoryAddress must be initialized separately after ServiceProviderFactory contract is deployed",
        "params": {
          "_governanceAddress": "- address for Governance proxy contract",
          "_tokenAddress": "- address of ERC20 token that will be staked"
        }
      },
      "isStaker(address)": {
        "params": {
          "_accountAddress": "- Account requesting for"
        },
        "return": "Boolean indicating whether account is a staker"
      },
      "lastClaimedFor(address)": {
        "params": {
          "_accountAddress": "- Account requesting for"
        },
        "return": "Last block number when claim requested"
      },
      "lastStakedFor(address)": {
        "params": {
          "_accountAddress": "- Account requesting for"
        },
        "return": "Last block number when account's balance was modified"
      },
      "setClaimsManagerAddress(address)": {
        "details": "Only callable by Governance address",
        "params": {
          "_claimsManager": "- address for new ClaimsManaager contract"
        }
      },
      "setDelegateManagerAddress(address)": {
        "details": "Only callable by Governance address",
        "params": {
          "_delegateManager": "- address for new DelegateManager contract"
        }
      },
      "setGovernanceAddress(address)": {
        "details": "Only callable by Governance address",
        "params": {
          "_governanceAddress": "- address for new Governance contract"
        }
      },
      "setServiceProviderFactoryAddress(address)": {
        "details": "Only callable by Governance address",
        "params": {
          "_spFactory": "- address for new ServiceProviderFactory contract"
        }
      },
      "slash(uint256,address)": {
        "details": "Callable from DelegateManager",
        "params": {
          "_amount": "- Number of tokens slashed",
          "_slashAddress": "- Address being slashed"
        }
      },
      "stakeFor(address,uint256)": {
        "params": {
          "_accountAddress": "- The final staker of the tokens",
          "_amount": "- Number of tokens staked"
        }
      },
      "stakeRewards(uint256,address)": {
        "params": {
          "_amount": "- amount of rewards to  add to stake",
          "_stakerAccount": "- address of staker"
        }
      },
      "supportsHistory()": {
        "return": "Always true"
      },
      "token()": {
        "return": "The token used by the contract for staking and locking"
      },
      "totalStaked()": {
        "return": "The total amount of tokens staked by all users"
      },
      "totalStakedAt(uint256)": {
        "params": {
          "_blockNumber": "- Block number at which we are requesting"
        },
        "return": "The amount of tokens staked at the given block number"
      },
      "totalStakedFor(address)": {
        "params": {
          "_accountAddress": "- The owner of the tokens"
        },
        "return": "The amount of tokens staked by the given account"
      },
      "totalStakedForAt(address,uint256)": {
        "params": {
          "_accountAddress": "- Account requesting for",
          "_blockNumber": "- Block number at which we are requesting"
        },
        "return": "The amount of tokens staked by the account at the given block number"
      },
      "undelegateStakeFor(address,address,uint256)": {
        "params": {
          "_accountAddress": "- The staker of the tokens",
          "_amount": "- Number of tokens unstaked",
          "_delegatorAddress": "- Address from which to transfer tokens"
        }
      },
      "unstakeFor(address,uint256)": {
        "params": {
          "_accountAddress": "- Account unstaked for, and token recipient",
          "_amount": "- Number of tokens staked"
        }
      },
      "updateClaimHistory(uint256,address)": {
        "params": {
          "_amount": "- amount to add to claim history",
          "_stakerAccount": "- address of staker"
        }
      }
    }
  },
  "userdoc": {
    "methods": {
      "delegateStakeFor(address,address,uint256)": {
        "notice": "Stakes `_amount` tokens, transferring them from `_delegatorAddress` to `_accountAddress`, only callable by DelegateManager"
      },
      "getClaimsManagerAddress()": {
        "notice": "Get the ClaimsManager address"
      },
      "getDelegateManagerAddress()": {
        "notice": "Get the DelegateManager address"
      },
      "getGovernanceAddress()": {
        "notice": "Get the Governance address"
      },
      "getServiceProviderFactoryAddress()": {
        "notice": "Get the ServiceProviderFactory address"
      },
      "initialize()": {
        "notice": "wrapper function around parent contract Initializable's `initializable` modifier     initializable modifier ensures this function can only be called once by each deployed child contract     sets isInitialized flag to true to which is used by _requireIsInitialized()"
      },
      "initialize(address,address)": {
        "notice": "Function to initialize the contract"
      },
      "isStaker(address)": {
        "notice": "Helper function wrapped around totalStakedFor. Checks whether _accountAddress is currently a valid staker with a non-zero stake"
      },
      "lastClaimedFor(address)": {
        "notice": "Get last time `_accountAddress` claimed a staking reward"
      },
      "lastStakedFor(address)": {
        "notice": "Get last time `_accountAddress` modified its staked balance"
      },
      "setClaimsManagerAddress(address)": {
        "notice": "Set the ClaimsManaager address"
      },
      "setDelegateManagerAddress(address)": {
        "notice": "Set the DelegateManager address"
      },
      "setGovernanceAddress(address)": {
        "notice": "Set the Governance address"
      },
      "setServiceProviderFactoryAddress(address)": {
        "notice": "Set the ServiceProviderFactory address"
      },
      "slash(uint256,address)": {
        "notice": "Slashes `_amount` tokens from _slashAddress"
      },
      "stakeFor(address,uint256)": {
        "notice": "Stakes `_amount` tokens, transferring them from _accountAddress, and assigns them to `_accountAddress`"
      },
      "stakeRewards(uint256,address)": {
        "notice": "Funds `_amount` of tokens from ClaimsManager to target account"
      },
      "supportsHistory()": {
        "notice": "Check whether it supports history of stakes"
      },
      "token()": {
        "notice": "Get the token used by the contract for staking and locking"
      },
      "totalStaked()": {
        "notice": "Get the total amount of tokens staked by all users"
      },
      "totalStakedAt(uint256)": {
        "notice": "Get the total amount of tokens staked by all users at block number `_blockNumber`"
      },
      "totalStakedFor(address)": {
        "notice": "Get the amount of tokens staked by `_accountAddress`"
      },
      "totalStakedForAt(address,uint256)": {
        "notice": "Get the total amount of tokens staked by `_accountAddress` at block number `_blockNumber`"
      },
      "undelegateStakeFor(address,address,uint256)": {
        "notice": "Unstakes '_amount` tokens, transferring them from `_accountAddress` to `_delegatorAddress`, only callable by DelegateManager"
      },
      "unstakeFor(address,uint256)": {
        "notice": "Unstakes `_amount` tokens, returning them to the desired account."
      },
      "updateClaimHistory(uint256,address)": {
        "notice": "Update claim history by adding an event to the claim history"
      }
    }
  }
}