{
  "contractName": "Staking",
  "abi": [
    {
      "anonymous": false,
      "inputs": [
        {
          "indexed": true,
          "internalType": "address",
          "name": "user",
          "type": "address"
        },
        {
          "indexed": false,
          "internalType": "uint256",
          "name": "amount",
          "type": "uint256"
        },
        {
          "indexed": false,
          "internalType": "uint256",
          "name": "total",
          "type": "uint256"
        }
      ],
      "name": "Slashed",
      "type": "event"
    },
    {
      "anonymous": false,
      "inputs": [
        {
          "indexed": true,
          "internalType": "address",
          "name": "user",
          "type": "address"
        },
        {
          "indexed": false,
          "internalType": "uint256",
          "name": "amount",
          "type": "uint256"
        },
        {
          "indexed": false,
          "internalType": "uint256",
          "name": "total",
          "type": "uint256"
        }
      ],
      "name": "Staked",
      "type": "event"
    },
    {
      "anonymous": false,
      "inputs": [
        {
          "indexed": true,
          "internalType": "address",
          "name": "user",
          "type": "address"
        },
        {
          "indexed": false,
          "internalType": "uint256",
          "name": "amount",
          "type": "uint256"
        },
        {
          "indexed": false,
          "internalType": "uint256",
          "name": "total",
          "type": "uint256"
        }
      ],
      "name": "Unstaked",
      "type": "event"
    },
    {
      "constant": false,
      "inputs": [
        {
          "internalType": "address",
          "name": "_tokenAddress",
          "type": "address"
        },
        {
          "internalType": "address",
          "name": "_governanceAddress",
          "type": "address"
        }
      ],
      "name": "initialize",
      "outputs": [],
      "payable": false,
      "stateMutability": "nonpayable",
      "type": "function"
    },
    {
      "constant": false,
      "inputs": [],
      "name": "initialize",
      "outputs": [],
      "payable": false,
      "stateMutability": "nonpayable",
      "type": "function"
    },
    {
      "constant": false,
      "inputs": [
        {
          "internalType": "address",
          "name": "_governanceAddress",
          "type": "address"
        }
      ],
      "name": "setGovernanceAddress",
      "outputs": [],
      "payable": false,
      "stateMutability": "nonpayable",
      "type": "function"
    },
    {
      "constant": false,
      "inputs": [
        {
          "internalType": "address",
          "name": "_claimsManager",
          "type": "address"
        }
      ],
      "name": "setClaimsManagerAddress",
      "outputs": [],
      "payable": false,
      "stateMutability": "nonpayable",
      "type": "function"
    },
    {
      "constant": false,
      "inputs": [
        {
          "internalType": "address",
          "name": "_spFactory",
          "type": "address"
        }
      ],
      "name": "setServiceProviderFactoryAddress",
      "outputs": [],
      "payable": false,
      "stateMutability": "nonpayable",
      "type": "function"
    },
    {
      "constant": false,
      "inputs": [
        {
          "internalType": "address",
          "name": "_delegateManager",
          "type": "address"
        }
      ],
      "name": "setDelegateManagerAddress",
      "outputs": [],
      "payable": false,
      "stateMutability": "nonpayable",
      "type": "function"
    },
    {
      "constant": false,
      "inputs": [
        {
          "internalType": "uint256",
          "name": "_amount",
          "type": "uint256"
        },
        {
          "internalType": "address",
          "name": "_stakerAccount",
          "type": "address"
        }
      ],
      "name": "stakeRewards",
      "outputs": [],
      "payable": false,
      "stateMutability": "nonpayable",
      "type": "function"
    },
    {
      "constant": false,
      "inputs": [
        {
          "internalType": "uint256",
          "name": "_amount",
          "type": "uint256"
        },
        {
          "internalType": "address",
          "name": "_stakerAccount",
          "type": "address"
        }
      ],
      "name": "updateClaimHistory",
      "outputs": [],
      "payable": false,
      "stateMutability": "nonpayable",
      "type": "function"
    },
    {
      "constant": false,
      "inputs": [
        {
          "internalType": "uint256",
          "name": "_amount",
          "type": "uint256"
        },
        {
          "internalType": "address",
          "name": "_slashAddress",
          "type": "address"
        }
      ],
      "name": "slash",
      "outputs": [],
      "payable": false,
      "stateMutability": "nonpayable",
      "type": "function"
    },
    {
      "constant": false,
      "inputs": [
        {
          "internalType": "address",
          "name": "_accountAddress",
          "type": "address"
        },
        {
          "internalType": "uint256",
          "name": "_amount",
          "type": "uint256"
        }
      ],
      "name": "stakeFor",
      "outputs": [],
      "payable": false,
      "stateMutability": "nonpayable",
      "type": "function"
    },
    {
      "constant": false,
      "inputs": [
        {
          "internalType": "address",
          "name": "_accountAddress",
          "type": "address"
        },
        {
          "internalType": "uint256",
          "name": "_amount",
          "type": "uint256"
        }
      ],
      "name": "unstakeFor",
      "outputs": [],
      "payable": false,
      "stateMutability": "nonpayable",
      "type": "function"
    },
    {
      "constant": false,
      "inputs": [
        {
          "internalType": "address",
          "name": "_accountAddress",
          "type": "address"
        },
        {
          "internalType": "address",
          "name": "_delegatorAddress",
          "type": "address"
        },
        {
          "internalType": "uint256",
          "name": "_amount",
          "type": "uint256"
        }
      ],
      "name": "delegateStakeFor",
      "outputs": [],
      "payable": false,
      "stateMutability": "nonpayable",
      "type": "function"
    },
    {
      "constant": false,
      "inputs": [
        {
          "internalType": "address",
          "name": "_accountAddress",
          "type": "address"
        },
        {
          "internalType": "address",
          "name": "_delegatorAddress",
          "type": "address"
        },
        {
          "internalType": "uint256",
          "name": "_amount",
          "type": "uint256"
        }
      ],
      "name": "undelegateStakeFor",
      "outputs": [],
      "payable": false,
      "stateMutability": "nonpayable",
      "type": "function"
    },
    {
      "constant": true,
      "inputs": [],
      "name": "token",
      "outputs": [
        {
          "internalType": "address",
          "name": "",
          "type": "address"
        }
      ],
      "payable": false,
      "stateMutability": "view",
      "type": "function"
    },
    {
      "constant": true,
      "inputs": [],
      "name": "supportsHistory",
      "outputs": [
        {
          "internalType": "bool",
          "name": "",
          "type": "bool"
        }
      ],
      "payable": false,
      "stateMutability": "view",
      "type": "function"
    },
    {
      "constant": true,
      "inputs": [
        {
          "internalType": "address",
          "name": "_accountAddress",
          "type": "address"
        }
      ],
      "name": "lastStakedFor",
      "outputs": [
        {
          "internalType": "uint256",
          "name": "",
          "type": "uint256"
        }
      ],
      "payable": false,
      "stateMutability": "view",
      "type": "function"
    },
    {
      "constant": true,
      "inputs": [
        {
          "internalType": "address",
          "name": "_accountAddress",
          "type": "address"
        }
      ],
      "name": "lastClaimedFor",
      "outputs": [
        {
          "internalType": "uint256",
          "name": "",
          "type": "uint256"
        }
      ],
      "payable": false,
      "stateMutability": "view",
      "type": "function"
    },
    {
      "constant": true,
      "inputs": [
        {
          "internalType": "address",
          "name": "_accountAddress",
          "type": "address"
        },
        {
          "internalType": "uint256",
          "name": "_blockNumber",
          "type": "uint256"
        }
      ],
      "name": "totalStakedForAt",
      "outputs": [
        {
          "internalType": "uint256",
          "name": "",
          "type": "uint256"
        }
      ],
      "payable": false,
      "stateMutability": "view",
      "type": "function"
    },
    {
      "constant": true,
      "inputs": [
        {
          "internalType": "uint256",
          "name": "_blockNumber",
          "type": "uint256"
        }
      ],
      "name": "totalStakedAt",
      "outputs": [
        {
          "internalType": "uint256",
          "name": "",
          "type": "uint256"
        }
      ],
      "payable": false,
      "stateMutability": "view",
      "type": "function"
    },
    {
      "constant": true,
      "inputs": [],
      "name": "getGovernanceAddress",
      "outputs": [
        {
          "internalType": "address",
          "name": "",
          "type": "address"
        }
      ],
      "payable": false,
      "stateMutability": "view",
      "type": "function"
    },
    {
      "constant": true,
      "inputs": [],
      "name": "getClaimsManagerAddress",
      "outputs": [
        {
          "internalType": "address",
          "name": "",
          "type": "address"
        }
      ],
      "payable": false,
      "stateMutability": "view",
      "type": "function"
    },
    {
      "constant": true,
      "inputs": [],
      "name": "getServiceProviderFactoryAddress",
      "outputs": [
        {
          "internalType": "address",
          "name": "",
          "type": "address"
        }
      ],
      "payable": false,
      "stateMutability": "view",
      "type": "function"
    },
    {
      "constant": true,
      "inputs": [],
      "name": "getDelegateManagerAddress",
      "outputs": [
        {
          "internalType": "address",
          "name": "",
          "type": "address"
        }
      ],
      "payable": false,
      "stateMutability": "view",
      "type": "function"
    },
    {
      "constant": true,
      "inputs": [
        {
          "internalType": "address",
          "name": "_accountAddress",
          "type": "address"
        }
      ],
      "name": "isStaker",
      "outputs": [
        {
          "internalType": "bool",
          "name": "",
          "type": "bool"
        }
      ],
      "payable": false,
      "stateMutability": "view",
      "type": "function"
    },
    {
      "constant": true,
      "inputs": [
        {
          "internalType": "address",
          "name": "_accountAddress",
          "type": "address"
        }
      ],
      "name": "totalStakedFor",
      "outputs": [
        {
          "internalType": "uint256",
          "name": "",
          "type": "uint256"
        }
      ],
      "payable": false,
      "stateMutability": "view",
      "type": "function"
    },
    {
      "constant": true,
      "inputs": [],
      "name": "totalStaked",
      "outputs": [
        {
          "internalType": "uint256",
          "name": "",
          "type": "uint256"
        }
      ],
      "payable": false,
      "stateMutability": "view",
      "type": "function"
    }
  ],
  "bytecode": "0x608060405234801561001057600080fd5b50612195806100206000396000f3fe608060405234801561001057600080fd5b506004361061018d5760003560e01c80638129fc1c116100de578063c9c5323211610097578063d16543f611610071578063d16543f6146104a3578063ea63d651146104ab578063ede38421146104d1578063fc0c546a146104fd5761018d565b8063c9c532321461042a578063ccd9838a14610447578063cfc162541461047d5761018d565b80638129fc1c14610394578063817b1cd21461039c578063948e5426146103a45780639b172b35146103ac578063a2e5e73e146103d8578063aa70d236146104045761018d565b806346350ae61161014b5780636c483ff3116101255780636c483ff3146103145780636f1e85331461034a5780637033e4a614610384578063732524941461038c5761018d565b806346350ae61461029a578063485cc955146102c05780634b341aed146102ee5761018d565b80622ae74a14610192578063201ae9db146101b6578063233b7451146101de5780632ee409081461021657806336ef088c146102425780633d82e3c11461026e575b600080fd5b61019a610505565b604080516001600160a01b039092168252519081900360200190f35b6101dc600480360360208110156101cc57600080fd5b50356001600160a01b031661051f565b005b610204600480360360208110156101f457600080fd5b50356001600160a01b0316610615565b60408051918252519081900360200190f35b6101dc6004803603604081101561022c57600080fd5b506001600160a01b038135169060200135610690565b6101dc6004803603604081101561025857600080fd5b506001600160a01b038135169060200135610725565b6101dc6004803603604081101561028457600080fd5b50803590602001356001600160a01b03166107b6565b610204600480360360208110156102b057600080fd5b50356001600160a01b0316610897565b6101dc600480360360408110156102d657600080fd5b506001600160a01b03813581169160200135166108ee565b6102046004803603602081101561030457600080fd5b50356001600160a01b0316610a2d565b6101dc6004803603606081101561032a57600080fd5b506001600160a01b03813581169160208101359091169060400135610a5e565b6103706004803603602081101561036057600080fd5b50356001600160a01b0316610aef565b604080519115158252519081900360200190f35b610370610b0b565b61019a610b1b565b6101dc610b3a565b610204610be9565b61019a610c02565b6101dc600480360360408110156103c257600080fd5b50803590602001356001600160a01b0316610c1c565b6101dc600480360360408110156103ee57600080fd5b50803590602001356001600160a01b0316610cea565b6101dc6004803603602081101561041a57600080fd5b50356001600160a01b0316610d81565b6102046004803603602081101561044057600080fd5b5035610e3a565b6101dc6004803603606081101561045d57600080fd5b506001600160a01b03813581169160208101359091169060400135610e5e565b6101dc6004803603602081101561049357600080fd5b50356001600160a01b0316610eef565b61019a610f8f565b6101dc600480360360208110156104c157600080fd5b50356001600160a01b0316610fa9565b610204600480360360408110156104e757600080fd5b506001600160a01b038135169060200135611062565b61019a6110a3565b600061050f6110bd565b506036546001600160a01b031690565b6105276110bd565b6033546040805180820190915260188152775374616b696e673a204f6e6c7920676f7665726e616e636560401b60208201529061010090046001600160a01b031633146105f25760405162461bcd60e51b81526004018080602001828103825283818151815260200191508051906020019080838360005b838110156105b757818101518382015260200161059f565b50505050905090810190601f1680156105e45780820380516001836020036101000a031916815260200191505b509250505060405180910390fd5b50603680546001600160a01b0319166001600160a01b0392909216919091179055565b600061061f6110bd565b6001600160a01b0382166000908152603860205260409020548015610685576001600160a01b03831660009081526038602052604090208054600019830190811061066657fe5b60009182526020909120015467ffffffffffffffff16915061068b9050565b60009150505b919050565b6106986110bd565b6106a0611148565b603654604080516060810190915260328082526001600160a01b0390921633149161212f6020830139906107155760405162461bcd60e51b81526020600482018181528351602484015283519092839260449091019190850190808383600083156105b757818101518382015260200161059f565b50610721828383611191565b5050565b61072d6110bd565b610735611148565b603654604080516060810190915260328082526001600160a01b0390921633149161212f6020830139906107aa5760405162461bcd60e51b81526020600482018181528351602484015283519092839260449091019190850190808383600083156105b757818101518382015260200161059f565b5061072182838361129f565b6107be6110bd565b6107c661138f565b6035546040805160608101909152602b8082526001600160a01b0390921633149161201260208301399061083b5760405162461bcd60e51b81526020600482018181528351602484015283519092839260449091019190850190808383600083156105b757818101518382015260200161059f565b5061084681836113d6565b806001600160a01b03167f45a371af55b0726877a30f464edc14db5879ab096590bacce682cf6c182235968361087b84610a2d565b6040805192835260208301919091528051918290030190a25050565b60006108a16110bd565b6001600160a01b0382166000908152603860205260409020600101548015610685576001600160a01b03831660009081526038602052604090206001018054600019830190811061066657fe5b600054610100900460ff168061090757506109076114c1565b80610915575060005460ff16155b6109505760405162461bcd60e51b815260040180806020018281038252602e815260200180611f87602e913960400191505060405180910390fd5b600054610100900460ff1615801561097b576000805460ff1961ff0019909116610100171660011790555b610984836114c7565b60405180606001604052806028815260200161207b60289139906109e95760405162461bcd60e51b81526020600482018181528351602484015283519092839260449091019190850190808383600083156105b757818101518382015260200161059f565b50603780546001600160a01b0319166001600160a01b038516179055610a0e82611503565b610a16610b3a565b8015610a28576000805461ff00191690555b505050565b6000610a376110bd565b6001600160a01b0382166000908152603860205260409020610a58906115d0565b92915050565b610a666110bd565b610a6e61138f565b6035546040805160608101909152602b8082526001600160a01b03909216331491612012602083013990610ae35760405162461bcd60e51b81526020600482018181528351602484015283519092839260449091019190850190808383600083156105b757818101518382015260200161059f565b50610a28838383611191565b6000610af96110bd565b6000610b0483610a2d565b1192915050565b6000610b156110bd565b50600190565b6000610b256110bd565b5060335461010090046001600160a01b031690565b600054610100900460ff1680610b535750610b536114c1565b80610b61575060005460ff16155b610b9c5760405162461bcd60e51b815260040180806020018281038252602e815260200180611f87602e913960400191505060405180910390fd5b600054610100900460ff16158015610bc7576000805460ff1961ff0019909116610100171660011790555b6033805460ff191660011790558015610be6576000805461ff00191690555b50565b6000610bf36110bd565b610bfd60396115d0565b905090565b6000610c0c6110bd565b506034546001600160a01b031690565b610c246110bd565b610c2c611612565b6034546001600160a01b03163314610c755760405162461bcd60e51b8152600401808060200182810382526029815260200180611f5e6029913960400191505060405180910390fd5b610c80813384611191565b60408051635172f39f60e11b8152600481018490526001600160a01b03831660248201529051309163a2e5e73e91604480830192600092919082900301818387803b158015610cce57600080fd5b505af1158015610ce2573d6000803e3d6000fd5b505050505050565b610cf26110bd565b610cfa611612565b6034546001600160a01b0316331480610d1257503330145b610d4d5760405162461bcd60e51b81526004018080602001828103825260388152602001806120f76038913960400191505060405180910390fd5b610721610d5943611659565b6001600160a01b0383166000908152603860205260409020600101908463ffffffff6116e616565b610d896110bd565b6033546040805180820190915260188152775374616b696e673a204f6e6c7920676f7665726e616e636560401b60208201529061010090046001600160a01b03163314610e175760405162461bcd60e51b81526020600482018181528351602484015283519092839260449091019190850190808383600083156105b757818101518382015260200161059f565b50603480546001600160a01b0319166001600160a01b0392909216919091179055565b6000610e446110bd565b610a58610e5083611659565b60399063ffffffff61177c16565b610e666110bd565b610e6e61138f565b6035546040805160608101909152602b8082526001600160a01b03909216331491612012602083013990610ee35760405162461bcd60e51b81526020600482018181528351602484015283519092839260449091019190850190808383600083156105b757818101518382015260200161059f565b50610a2883838361129f565b610ef76110bd565b6033546040805180820190915260188152775374616b696e673a204f6e6c7920676f7665726e616e636560401b60208201529061010090046001600160a01b03163314610f855760405162461bcd60e51b81526020600482018181528351602484015283519092839260449091019190850190808383600083156105b757818101518382015260200161059f565b50610be681611503565b6000610f996110bd565b506035546001600160a01b031690565b610fb16110bd565b6033546040805180820190915260188152775374616b696e673a204f6e6c7920676f7665726e616e636560401b60208201529061010090046001600160a01b0316331461103f5760405162461bcd60e51b81526020600482018181528351602484015283519092839260449091019190850190808383600083156105b757818101518382015260200161059f565b50603580546001600160a01b0319166001600160a01b0392909216919091179055565b600061106c6110bd565b61109c61107883611659565b6001600160a01b03851660009081526038602052604090209063ffffffff61177c16565b9392505050565b60006110ad6110bd565b506037546001600160a01b031690565b6033546040805180820190915260208082527f496e697469616c697a61626c6556323a204e6f7420696e697469616c697a6564908201529060ff161515600114610be65760405162461bcd60e51b81526020600482018181528351602484015283519092839260449091019190850190808383600083156105b757818101518382015260200161059f565b6036546001600160a01b031661118f5760405162461bcd60e51b8152600401808060200182810382526031815260200180611f2d6031913960400191505060405180910390fd5b565b600081116040518060400160405280602081526020017f5374616b696e673a205a65726f20616d6f756e74206e6f7420616c6c6f776564815250906112175760405162461bcd60e51b81526020600482018181528351602484015283519092839260449091019190850190808383600083156105b757818101518382015260200161059f565b5061122483826001611788565b61122f816001611854565b60375461124d906001600160a01b031683308463ffffffff6118b316565b826001600160a01b03167f1449c6dd7851abc30abf37f57715f492010519147cc2652fbc38202c18a6ee908261128286610a2d565b6040805192835260208301919091528051918290030190a2505050565b600081116040518060400160405280602081526020017f5374616b696e673a205a65726f20616d6f756e74206e6f7420616c6c6f776564815250906113255760405162461bcd60e51b81526020600482018181528351602484015283519092839260449091019190850190808383600083156105b757818101518382015260200161059f565b5061133283826000611788565b61133d816000611854565b60375461135a906001600160a01b0316838363ffffffff61190d16565b826001600160a01b03167f7fc4727e062e336010f2c282598ef5f14facb3de68cf8195c2f23e1454b2b74e8261128286610a2d565b6035546001600160a01b031661118f5760405162461bcd60e51b815260040180806020018281038252602a8152602001806120a3602a913960400191505060405180910390fd5b600081116040518060400160405280602081526020017f5374616b696e673a205a65726f20616d6f756e74206e6f7420616c6c6f7765648152509061145c5760405162461bcd60e51b81526020600482018181528351602484015283519092839260449091019190850190808383600083156105b757818101518382015260200161059f565b5061146982826000611788565b611474816000611854565b60375460408051630852cd8d60e31b81526004810184905290516001600160a01b03909216916342966c689160248082019260009290919082900301818387803b158015610cce57600080fd5b303b1590565b6000813f7fc5d2460186f7233c927e7db2dcc703c0e500b653ca82273b7bfad8045d85a4708181148015906114fb57508115155b949350505050565b806001600160a01b0316630ea773076040518163ffffffff1660e01b815260040160206040518083038186803b15801561153c57600080fd5b505afa158015611550573d6000803e3d6000fd5b505050506040513d602081101561156657600080fd5b505115156001146115a85760405162461bcd60e51b815260040180806020018281038252603e81526020018061203d603e913960400191505060405180910390fd5b603380546001600160a01b0390921661010002610100600160a81b0319909216919091179055565b80546000908015610685578260000160018203815481106115ed57fe5b600091825260209091200154600160401b90046001600160c01b0316915061068b9050565b6034546001600160a01b031661118f5760405162461bcd60e51b8152600401808060200182810382526028815260200180611fb56028913960400191505060405180910390fd5b60408051808201909152601581527455494e5436345f4e554d4245525f544f4f5f42494760581b602082015260009067ffffffffffffffff8311156116df5760405162461bcd60e51b81526020600482018181528351602484015283519092839260449091019190850190808383600083156105b757818101518382015260200161059f565b5090919050565b60408051808201909152601881527f434845434b504f494e545f56414c55455f544f4f5f424947000000000000000060208201526001600160c01b038211156117705760405162461bcd60e51b81526020600482018181528351602484015283519092839260449091019190850190808383600083156105b757818101518382015260200161059f565b50610a2883838361195f565b600061109c8383611aec565b6001600160a01b03831660009081526038602052604081206117a9906115d0565b9050600082156117ca576117c3828563ffffffff611c7e16565b905061181c565b838210156118095760405162461bcd60e51b8152600401808060200182810382526035815260200180611fdd6035913960400191505060405180910390fd5b611819828563ffffffff611cd816565b90505b61184d61182843611659565b6001600160a01b0387166000908152603860205260409020908363ffffffff6116e616565b5050505050565b600061185e610be9565b90506000821561187f57611878828563ffffffff611c7e16565b9050611892565b61188f828563ffffffff611cd816565b90505b6118ad61189e43611659565b6039908363ffffffff6116e616565b50505050565b604080516001600160a01b0385811660248301528416604482015260648082018490528251808303909101815260849091019091526020810180516001600160e01b03166323b872dd60e01b1790526118ad908590611d1a565b604080516001600160a01b038416602482015260448082018490528251808303909101815260649091019091526020810180516001600160e01b031663a9059cbb60e01b179052610a28908490611d1a565b825480158061199f5750835467ffffffffffffffff8416908590600019810190811061198757fe5b60009182526020909120015467ffffffffffffffff16105b15611a10576040805180820190915267ffffffffffffffff80851682526001600160c01b0380851660208085019182528854600181018a5560008a8152919091209451940180549151909216600160401b0293831667ffffffffffffffff19909116179091169190911790556118ad565b6000846000016001830381548110611a2457fe5b6000918252602091829020018054604080518082019091528381527f434845434b504f494e545f43414e4e4f545f4144445f504153545f56414c55459381019390935290925067ffffffffffffffff868116911614611ac45760405162461bcd60e51b81526020600482018181528351602484015283519092839260449091019190850190808383600083156105b757818101518382015260200161059f565b5080546001600160c01b038416600160401b0267ffffffffffffffff90911617905550505050565b815460009080611b00576000915050610a58565b8354600019820190859082908110611b1457fe5b60009182526020909120015467ffffffffffffffff90811690851610611b6957846000018181548110611b4357fe5b600091825260209091200154600160401b90046001600160c01b03169250610a58915050565b84600001600081548110611b7957fe5b60009182526020909120015467ffffffffffffffff9081169085161015611ba557600092505050610a58565b6000815b81811115611c4857865460028383016001010490600090899083908110611bcc57fe5b6000918252602090912001805490915067ffffffffffffffff908116908916811015611bfa57829450611c40565b8067ffffffffffffffff168967ffffffffffffffff161015611c2157600183039350611c40565b5054600160401b90046001600160c01b03169550610a58945050505050565b505050611ba9565b866000018281548110611c5757fe5b600091825260209091200154600160401b90046001600160c01b0316979650505050505050565b60008282018381101561109c576040805162461bcd60e51b815260206004820152601b60248201527f536166654d6174683a206164646974696f6e206f766572666c6f770000000000604482015290519081900360640190fd5b600061109c83836040518060400160405280601e81526020017f536166654d6174683a207375627472616374696f6e206f766572666c6f770000815250611ed2565b611d2c826001600160a01b03166114c7565b611d7d576040805162461bcd60e51b815260206004820152601f60248201527f5361666545524332303a2063616c6c20746f206e6f6e2d636f6e747261637400604482015290519081900360640190fd5b60006060836001600160a01b0316836040518082805190602001908083835b60208310611dbb5780518252601f199092019160209182019101611d9c565b6001836020036101000a0380198251168184511680821785525050505050509050019150506000604051808303816000865af19150503d8060008114611e1d576040519150601f19603f3d011682016040523d82523d6000602084013e611e22565b606091505b509150915081611e79576040805162461bcd60e51b815260206004820181905260248201527f5361666545524332303a206c6f772d6c6576656c2063616c6c206661696c6564604482015290519081900360640190fd5b8051156118ad57808060200190516020811015611e9557600080fd5b50516118ad5760405162461bcd60e51b815260040180806020018281038252602a8152602001806120cd602a913960400191505060405180910390fd5b60008184841115611f245760405162461bcd60e51b81526020600482018181528351602484015283519092839260449091019190850190808383600083156105b757818101518382015260200161059f565b50505090039056fe5374616b696e673a207365727669636550726f7669646572466163746f727941646472657373206973206e6f74207365745374616b696e673a204f6e6c792063616c6c61626c652066726f6d20436c61696d734d616e61676572436f6e747261637420696e7374616e63652068617320616c7265616479206265656e20696e697469616c697a65645374616b696e673a20636c61696d734d616e6167657241646472657373206973206e6f74207365745374616b696e673a2043616e6e6f742064656372656173652067726561746572207468616e2063757272656e742062616c616e63655374616b696e673a204f6e6c792063616c6c61626c652066726f6d2044656c65676174654d616e616765725374616b696e673a205f676f7665726e616e636541646472657373206973206e6f7420612076616c696420676f7665726e616e636520636f6e74726163745374616b696e673a205374616b696e6720746f6b656e206973206e6f74206120636f6e74726163745374616b696e673a2064656c65676174654d616e6167657241646472657373206973206e6f74207365745361666545524332303a204552433230206f7065726174696f6e20646964206e6f7420737563636565645374616b696e673a204f6e6c792063616c6c61626c652066726f6d20436c61696d734d616e61676572206f72205374616b696e672e736f6c5374616b696e673a204f6e6c792063616c6c61626c652066726f6d205365727669636550726f7669646572466163746f7279a265627a7a723158206bd072cfc2fdb28e7622c54ef61326179cffc4c059600054f0fe3a7a99dc2e6664736f6c63430005110032",
  "source": "pragma solidity ^0.5.0;\n\nimport \"@openzeppelin/contracts-ethereum-package/contracts/math/SafeMath.sol\";\nimport \"@openzeppelin/contracts-ethereum-package/contracts/token/ERC20/SafeERC20.sol\";\nimport \"@openzeppelin/contracts-ethereum-package/contracts/token/ERC20/ERC20.sol\";\nimport \"@openzeppelin/contracts-ethereum-package/contracts/token/ERC20/ERC20Burnable.sol\";\nimport \"@openzeppelin/contracts-ethereum-package/contracts/utils/Address.sol\";\nimport \"@aragon/court/contracts/lib/Checkpointing.sol\";\nimport \"@aragon/court/contracts/lib/os/Uint256Helpers.sol\";\nimport \"./InitializableV2.sol\";\nimport \"./Governance.sol\";\n\n\ncontract Staking is InitializableV2 {\n    using SafeMath for uint256;\n    using Uint256Helpers for uint256;\n    using Checkpointing for Checkpointing.History;\n    using SafeERC20 for ERC20;\n\n    string private constant ERROR_TOKEN_NOT_CONTRACT = \"Staking: Staking token is not a contract\";\n    string private constant ERROR_AMOUNT_ZERO = \"Staking: Zero amount not allowed\";\n    string private constant ERROR_ONLY_GOVERNANCE = \"Staking: Only governance\";\n    string private constant ERROR_ONLY_DELEGATE_MANAGER = (\n      \"Staking: Only callable from DelegateManager\"\n    );\n    string private constant ERROR_ONLY_SERVICE_PROVIDER_FACTORY = (\n      \"Staking: Only callable from ServiceProviderFactory\"\n    );\n\n    address private governanceAddress;\n    address private claimsManagerAddress;\n    address private delegateManagerAddress;\n    address private serviceProviderFactoryAddress;\n\n    /// @dev stores the history of staking and claims for a given address\n    struct Account {\n        Checkpointing.History stakedHistory;\n        Checkpointing.History claimHistory;\n    }\n\n    /// @dev ERC-20 token that will be used to stake with\n    ERC20 internal stakingToken;\n\n    /// @dev maps addresses to staking and claims history\n    mapping (address => Account) internal accounts;\n\n    /// @dev total staked tokens at a given block\n    Checkpointing.History internal totalStakedHistory;\n\n    event Staked(address indexed user, uint256 amount, uint256 total);\n    event Unstaked(address indexed user, uint256 amount, uint256 total);\n    event Slashed(address indexed user, uint256 amount, uint256 total);\n\n    /**\n     * @notice Function to initialize the contract\n     * @dev claimsManagerAddress must be initialized separately after ClaimsManager contract is deployed\n     * @dev delegateManagerAddress must be initialized separately after DelegateManager contract is deployed\n     * @dev serviceProviderFactoryAddress must be initialized separately after ServiceProviderFactory contract is deployed\n     * @param _tokenAddress - address of ERC20 token that will be staked\n     * @param _governanceAddress - address for Governance proxy contract\n     */\n    function initialize(\n        address _tokenAddress,\n        address _governanceAddress\n    ) public initializer\n    {\n        require(Address.isContract(_tokenAddress), ERROR_TOKEN_NOT_CONTRACT);\n        stakingToken = ERC20(_tokenAddress);\n        _updateGovernanceAddress(_governanceAddress);\n        InitializableV2.initialize();\n    }\n\n    /**\n     * @notice Set the Governance address\n     * @dev Only callable by Governance address\n     * @param _governanceAddress - address for new Governance contract\n     */\n    function setGovernanceAddress(address _governanceAddress) external {\n        _requireIsInitialized();\n\n        require(msg.sender == governanceAddress, ERROR_ONLY_GOVERNANCE);\n        _updateGovernanceAddress(_governanceAddress);\n    }\n\n    /**\n     * @notice Set the ClaimsManaager address\n     * @dev Only callable by Governance address\n     * @param _claimsManager - address for new ClaimsManaager contract\n     */\n    function setClaimsManagerAddress(address _claimsManager) external {\n        _requireIsInitialized();\n\n        require(msg.sender == governanceAddress, ERROR_ONLY_GOVERNANCE);\n        claimsManagerAddress = _claimsManager;\n    }\n\n    /**\n     * @notice Set the ServiceProviderFactory address\n     * @dev Only callable by Governance address\n     * @param _spFactory - address for new ServiceProviderFactory contract\n     */\n    function setServiceProviderFactoryAddress(address _spFactory) external {\n        _requireIsInitialized();\n\n        require(msg.sender == governanceAddress, ERROR_ONLY_GOVERNANCE);\n        serviceProviderFactoryAddress = _spFactory;\n    }\n\n    /**\n     * @notice Set the DelegateManager address\n     * @dev Only callable by Governance address\n     * @param _delegateManager - address for new DelegateManager contract\n     */\n    function setDelegateManagerAddress(address _delegateManager) external {\n        _requireIsInitialized();\n\n        require(msg.sender == governanceAddress, ERROR_ONLY_GOVERNANCE);\n        delegateManagerAddress = _delegateManager;\n    }\n\n    /* External functions */\n\n    /**\n     * @notice Funds `_amount` of tokens from ClaimsManager to target account\n     * @param _amount - amount of rewards to  add to stake\n     * @param _stakerAccount - address of staker\n     */\n    function stakeRewards(uint256 _amount, address _stakerAccount) external {\n        _requireIsInitialized();\n        _requireClaimsManagerAddressIsSet();\n\n        require(\n            msg.sender == claimsManagerAddress,\n            \"Staking: Only callable from ClaimsManager\"\n        );\n        _stakeFor(_stakerAccount, msg.sender, _amount);\n\n        this.updateClaimHistory(_amount, _stakerAccount);\n    }\n\n    /**\n     * @notice Update claim history by adding an event to the claim history\n     * @param _amount - amount to add to claim history\n     * @param _stakerAccount - address of staker\n     */\n    function updateClaimHistory(uint256 _amount, address _stakerAccount) external {\n        _requireIsInitialized();\n        _requireClaimsManagerAddressIsSet();\n\n        require(\n            msg.sender == claimsManagerAddress || msg.sender == address(this),\n            \"Staking: Only callable from ClaimsManager or Staking.sol\"\n        );\n\n        // Update claim history even if no value claimed\n        accounts[_stakerAccount].claimHistory.add(block.number.toUint64(), _amount);\n    }\n\n    /**\n     * @notice Slashes `_amount` tokens from _slashAddress\n     * @dev Callable from DelegateManager\n     * @param _amount - Number of tokens slashed\n     * @param _slashAddress - Address being slashed\n     */\n    function slash(\n        uint256 _amount,\n        address _slashAddress\n    ) external\n    {\n        _requireIsInitialized();\n        _requireDelegateManagerAddressIsSet();\n\n        require(\n            msg.sender == delegateManagerAddress,\n            ERROR_ONLY_DELEGATE_MANAGER\n        );\n\n        // Burn slashed tokens from account\n        _burnFor(_slashAddress, _amount);\n\n        emit Slashed(\n            _slashAddress,\n            _amount,\n            totalStakedFor(_slashAddress)\n        );\n    }\n\n    /**\n     * @notice Stakes `_amount` tokens, transferring them from _accountAddress, and assigns them to `_accountAddress`\n     * @param _accountAddress - The final staker of the tokens\n     * @param _amount - Number of tokens staked\n     */\n    function stakeFor(\n        address _accountAddress,\n        uint256 _amount\n    ) external\n    {\n        _requireIsInitialized();\n        _requireServiceProviderFactoryAddressIsSet();\n\n        require(\n            msg.sender == serviceProviderFactoryAddress,\n            ERROR_ONLY_SERVICE_PROVIDER_FACTORY\n        );\n        _stakeFor(\n            _accountAddress,\n            _accountAddress,\n            _amount\n        );\n    }\n\n    /**\n     * @notice Unstakes `_amount` tokens, returning them to the desired account.\n     * @param _accountAddress - Account unstaked for, and token recipient\n     * @param _amount - Number of tokens staked\n     */\n    function unstakeFor(\n        address _accountAddress,\n        uint256 _amount\n    ) external\n    {\n        _requireIsInitialized();\n        _requireServiceProviderFactoryAddressIsSet();\n\n        require(\n            msg.sender == serviceProviderFactoryAddress,\n            ERROR_ONLY_SERVICE_PROVIDER_FACTORY\n        );\n        _unstakeFor(\n            _accountAddress,\n            _accountAddress,\n            _amount\n        );\n    }\n\n    /**\n     * @notice Stakes `_amount` tokens, transferring them from `_delegatorAddress` to `_accountAddress`,\n               only callable by DelegateManager\n     * @param _accountAddress - The final staker of the tokens\n     * @param _delegatorAddress - Address from which to transfer tokens\n     * @param _amount - Number of tokens staked\n     */\n    function delegateStakeFor(\n        address _accountAddress,\n        address _delegatorAddress,\n        uint256 _amount\n    ) external {\n        _requireIsInitialized();\n        _requireDelegateManagerAddressIsSet();\n\n        require(\n            msg.sender == delegateManagerAddress,\n            ERROR_ONLY_DELEGATE_MANAGER\n        );\n        _stakeFor(\n            _accountAddress,\n            _delegatorAddress,\n            _amount);\n    }\n\n    /**\n     * @notice Unstakes '_amount` tokens, transferring them from `_accountAddress` to `_delegatorAddress`,\n               only callable by DelegateManager\n     * @param _accountAddress - The staker of the tokens\n     * @param _delegatorAddress - Address from which to transfer tokens\n     * @param _amount - Number of tokens unstaked\n     */\n    function undelegateStakeFor(\n        address _accountAddress,\n        address _delegatorAddress,\n        uint256 _amount\n    ) external {\n        _requireIsInitialized();\n        _requireDelegateManagerAddressIsSet();\n\n        require(\n            msg.sender == delegateManagerAddress,\n            ERROR_ONLY_DELEGATE_MANAGER\n        );\n        _unstakeFor(\n            _accountAddress,\n            _delegatorAddress,\n            _amount);\n    }\n\n    /**\n     * @notice Get the token used by the contract for staking and locking\n     * @return The token used by the contract for staking and locking\n     */\n    function token() external view returns (address) {\n        _requireIsInitialized();\n\n        return address(stakingToken);\n    }\n\n    /**\n     * @notice Check whether it supports history of stakes\n     * @return Always true\n     */\n    function supportsHistory() external view returns (bool) {\n        _requireIsInitialized();\n\n        return true;\n    }\n\n    /**\n     * @notice Get last time `_accountAddress` modified its staked balance\n     * @param _accountAddress - Account requesting for\n     * @return Last block number when account's balance was modified\n     */\n    function lastStakedFor(address _accountAddress) external view returns (uint256) {\n        _requireIsInitialized();\n\n        uint256 length = accounts[_accountAddress].stakedHistory.history.length;\n        if (length > 0) {\n            return uint256(accounts[_accountAddress].stakedHistory.history[length - 1].time);\n        }\n        return 0;\n    }\n\n    /**\n     * @notice Get last time `_accountAddress` claimed a staking reward\n     * @param _accountAddress - Account requesting for\n     * @return Last block number when claim requested\n     */\n    function lastClaimedFor(address _accountAddress) external view returns (uint256) {\n        _requireIsInitialized();\n\n        uint256 length = accounts[_accountAddress].claimHistory.history.length;\n        if (length > 0) {\n            return uint256(accounts[_accountAddress].claimHistory.history[length - 1].time);\n        }\n        return 0;\n    }\n\n    /**\n     * @notice Get the total amount of tokens staked by `_accountAddress` at block number `_blockNumber`\n     * @param _accountAddress - Account requesting for\n     * @param _blockNumber - Block number at which we are requesting\n     * @return The amount of tokens staked by the account at the given block number\n     */\n    function totalStakedForAt(\n        address _accountAddress,\n        uint256 _blockNumber\n    ) external view returns (uint256) {\n        _requireIsInitialized();\n\n        return accounts[_accountAddress].stakedHistory.get(_blockNumber.toUint64());\n    }\n\n    /**\n     * @notice Get the total amount of tokens staked by all users at block number `_blockNumber`\n     * @param _blockNumber - Block number at which we are requesting\n     * @return The amount of tokens staked at the given block number\n     */\n    function totalStakedAt(uint256 _blockNumber) external view returns (uint256) {\n        _requireIsInitialized();\n\n        return totalStakedHistory.get(_blockNumber.toUint64());\n    }\n\n    /// @notice Get the Governance address\n    function getGovernanceAddress() external view returns (address) {\n        _requireIsInitialized();\n\n        return governanceAddress;\n    }\n\n    /// @notice Get the ClaimsManager address\n    function getClaimsManagerAddress() external view returns (address) {\n        _requireIsInitialized();\n\n        return claimsManagerAddress;\n    }\n\n    /// @notice Get the ServiceProviderFactory address\n    function getServiceProviderFactoryAddress() external view returns (address) {\n        _requireIsInitialized();\n\n        return serviceProviderFactoryAddress;\n    }\n\n    /// @notice Get the DelegateManager address\n    function getDelegateManagerAddress() external view returns (address) {\n        _requireIsInitialized();\n\n        return delegateManagerAddress;\n    }\n\n    /**\n     * @notice Helper function wrapped around totalStakedFor. Checks whether _accountAddress\n            is currently a valid staker with a non-zero stake\n     * @param _accountAddress - Account requesting for\n     * @return Boolean indicating whether account is a staker\n     */\n    function isStaker(address _accountAddress) external view returns (bool) {\n        _requireIsInitialized();\n\n        return totalStakedFor(_accountAddress) > 0;\n    }\n\n    /* Public functions */\n\n    /**\n     * @notice Get the amount of tokens staked by `_accountAddress`\n     * @param _accountAddress - The owner of the tokens\n     * @return The amount of tokens staked by the given account\n     */\n    function totalStakedFor(address _accountAddress) public view returns (uint256) {\n        _requireIsInitialized();\n\n        // we assume it's not possible to stake in the future\n        return accounts[_accountAddress].stakedHistory.getLast();\n    }\n\n    /**\n     * @notice Get the total amount of tokens staked by all users\n     * @return The total amount of tokens staked by all users\n     */\n    function totalStaked() public view returns (uint256) {\n        _requireIsInitialized();\n\n        // we assume it's not possible to stake in the future\n        return totalStakedHistory.getLast();\n    }\n\n    // ========================================= Internal Functions =========================================\n\n    /**\n     * @notice Adds stake from a transfer account to the stake account\n     * @param _stakeAccount - Account that funds will be staked for\n     * @param _transferAccount - Account that funds will be transferred from\n     * @param _amount - amount to stake\n     */\n    function _stakeFor(\n        address _stakeAccount,\n        address _transferAccount,\n        uint256 _amount\n    ) internal\n    {\n        // staking 0 tokens is invalid\n        require(_amount > 0, ERROR_AMOUNT_ZERO);\n\n        // Checkpoint updated staking balance\n        _modifyStakeBalance(_stakeAccount, _amount, true);\n\n        // checkpoint total supply\n        _modifyTotalStaked(_amount, true);\n\n        // pull tokens into Staking contract\n        stakingToken.safeTransferFrom(_transferAccount, address(this), _amount);\n\n        emit Staked(\n            _stakeAccount,\n            _amount,\n            totalStakedFor(_stakeAccount));\n    }\n\n    /**\n     * @notice Unstakes tokens from a stake account to a transfer account\n     * @param _stakeAccount - Account that staked funds will be transferred from\n     * @param _transferAccount - Account that funds will be transferred to\n     * @param _amount - amount to unstake\n     */\n    function _unstakeFor(\n        address _stakeAccount,\n        address _transferAccount,\n        uint256 _amount\n    ) internal\n    {\n        require(_amount > 0, ERROR_AMOUNT_ZERO);\n\n        // checkpoint updated staking balance\n        _modifyStakeBalance(_stakeAccount, _amount, false);\n\n        // checkpoint total supply\n        _modifyTotalStaked(_amount, false);\n\n        // transfer tokens\n        stakingToken.safeTransfer(_transferAccount, _amount);\n\n        emit Unstaked(\n            _stakeAccount,\n            _amount,\n            totalStakedFor(_stakeAccount)\n        );\n    }\n\n    /**\n     * @notice Burn tokens for a given staker\n     * @dev Called when slash occurs\n     * @param _stakeAccount - Account for which funds will be burned\n     * @param _amount - amount to burn\n     */\n    function _burnFor(address _stakeAccount, uint256 _amount) internal {\n        // burning zero tokens is not allowed\n        require(_amount > 0, ERROR_AMOUNT_ZERO);\n\n        // checkpoint updated staking balance\n        _modifyStakeBalance(_stakeAccount, _amount, false);\n\n        // checkpoint total supply\n        _modifyTotalStaked(_amount, false);\n\n        // burn\n        ERC20Burnable(address(stakingToken)).burn(_amount);\n\n        /** No event emitted since token.burn() call already emits a Transfer event */\n    }\n\n    /**\n     * @notice Increase or decrease the staked balance for an account\n     * @param _accountAddress - Account to modify\n     * @param _by - amount to modify\n     * @param _increase - true if increase in stake, false if decrease\n     */\n    function _modifyStakeBalance(address _accountAddress, uint256 _by, bool _increase) internal {\n        uint256 currentInternalStake = accounts[_accountAddress].stakedHistory.getLast();\n\n        uint256 newStake;\n        if (_increase) {\n            newStake = currentInternalStake.add(_by);\n        } else {\n            require(\n                currentInternalStake >= _by,\n                \"Staking: Cannot decrease greater than current balance\");\n            newStake = currentInternalStake.sub(_by);\n        }\n\n        // add new value to account history\n        accounts[_accountAddress].stakedHistory.add(block.number.toUint64(), newStake);\n    }\n\n    /**\n     * @notice Increase or decrease the staked balance across all accounts\n     * @param _by - amount to modify\n     * @param _increase - true if increase in stake, false if decrease\n     */\n    function _modifyTotalStaked(uint256 _by, bool _increase) internal {\n        uint256 currentStake = totalStaked();\n\n        uint256 newStake;\n        if (_increase) {\n            newStake = currentStake.add(_by);\n        } else {\n            newStake = currentStake.sub(_by);\n        }\n\n        // add new value to total history\n        totalStakedHistory.add(block.number.toUint64(), newStake);\n    }\n\n    /**\n     * @notice Set the governance address after confirming contract identity\n     * @param _governanceAddress - Incoming governance address\n     */\n    function _updateGovernanceAddress(address _governanceAddress) internal {\n        require(\n            Governance(_governanceAddress).isGovernanceAddress() == true,\n            \"Staking: _governanceAddress is not a valid governance contract\"\n        );\n        governanceAddress = _governanceAddress;\n    }\n\n    // ========================================= Private Functions =========================================\n\n    function _requireClaimsManagerAddressIsSet() private view {\n        require(claimsManagerAddress != address(0x00), \"Staking: claimsManagerAddress is not set\");\n    }\n\n    function _requireDelegateManagerAddressIsSet() private view {\n        require(\n            delegateManagerAddress != address(0x00),\n            \"Staking: delegateManagerAddress is not set\"\n        );\n    }\n\n    function _requireServiceProviderFactoryAddressIsSet() private view {\n        require(\n            serviceProviderFactoryAddress != address(0x00),\n            \"Staking: serviceProviderFactoryAddress is not set\"\n        );\n    }\n\n}\n",
  "sourcePath": "/usr/src/app/contracts/Staking.sol",
  "compiler": {
    "name": "solc",
    "version": "0.5.17+commit.d19bba13.Emscripten.clang"
  },
  "schemaVersion": "3.4.4",
  "updatedAt": "2023-03-02T06:41:29.331Z",
  "devdoc": {
    "methods": {
      "delegateStakeFor(address,address,uint256)": {
        "params": {
          "_accountAddress": "- The final staker of the tokens",
          "_amount": "- Number of tokens staked",
          "_delegatorAddress": "- Address from which to transfer tokens"
        }
      },
      "initialize(address,address)": {
        "details": "claimsManagerAddress must be initialized separately after ClaimsManager contract is deployeddelegateManagerAddress must be initialized separately after DelegateManager contract is deployedserviceProviderFactoryAddress must be initialized separately after ServiceProviderFactory contract is deployed",
        "params": {
          "_governanceAddress": "- address for Governance proxy contract",
          "_tokenAddress": "- address of ERC20 token that will be staked"
        }
      },
      "isStaker(address)": {
        "params": {
          "_accountAddress": "- Account requesting for"
        },
        "return": "Boolean indicating whether account is a staker"
      },
      "lastClaimedFor(address)": {
        "params": {
          "_accountAddress": "- Account requesting for"
        },
        "return": "Last block number when claim requested"
      },
      "lastStakedFor(address)": {
        "params": {
          "_accountAddress": "- Account requesting for"
        },
        "return": "Last block number when account's balance was modified"
      },
      "setClaimsManagerAddress(address)": {
        "details": "Only callable by Governance address",
        "params": {
          "_claimsManager": "- address for new ClaimsManaager contract"
        }
      },
      "setDelegateManagerAddress(address)": {
        "details": "Only callable by Governance address",
        "params": {
          "_delegateManager": "- address for new DelegateManager contract"
        }
      },
      "setGovernanceAddress(address)": {
        "details": "Only callable by Governance address",
        "params": {
          "_governanceAddress": "- address for new Governance contract"
        }
      },
      "setServiceProviderFactoryAddress(address)": {
        "details": "Only callable by Governance address",
        "params": {
          "_spFactory": "- address for new ServiceProviderFactory contract"
        }
      },
      "slash(uint256,address)": {
        "details": "Callable from DelegateManager",
        "params": {
          "_amount": "- Number of tokens slashed",
          "_slashAddress": "- Address being slashed"
        }
      },
      "stakeFor(address,uint256)": {
        "params": {
          "_accountAddress": "- The final staker of the tokens",
          "_amount": "- Number of tokens staked"
        }
      },
      "stakeRewards(uint256,address)": {
        "params": {
          "_amount": "- amount of rewards to  add to stake",
          "_stakerAccount": "- address of staker"
        }
      },
      "supportsHistory()": {
        "return": "Always true"
      },
      "token()": {
        "return": "The token used by the contract for staking and locking"
      },
      "totalStaked()": {
        "return": "The total amount of tokens staked by all users"
      },
      "totalStakedAt(uint256)": {
        "params": {
          "_blockNumber": "- Block number at which we are requesting"
        },
        "return": "The amount of tokens staked at the given block number"
      },
      "totalStakedFor(address)": {
        "params": {
          "_accountAddress": "- The owner of the tokens"
        },
        "return": "The amount of tokens staked by the given account"
      },
      "totalStakedForAt(address,uint256)": {
        "params": {
          "_accountAddress": "- Account requesting for",
          "_blockNumber": "- Block number at which we are requesting"
        },
        "return": "The amount of tokens staked by the account at the given block number"
      },
      "undelegateStakeFor(address,address,uint256)": {
        "params": {
          "_accountAddress": "- The staker of the tokens",
          "_amount": "- Number of tokens unstaked",
          "_delegatorAddress": "- Address from which to transfer tokens"
        }
      },
      "unstakeFor(address,uint256)": {
        "params": {
          "_accountAddress": "- Account unstaked for, and token recipient",
          "_amount": "- Number of tokens staked"
        }
      },
      "updateClaimHistory(uint256,address)": {
        "params": {
          "_amount": "- amount to add to claim history",
          "_stakerAccount": "- address of staker"
        }
      }
    }
  },
  "userdoc": {
    "methods": {
      "delegateStakeFor(address,address,uint256)": {
        "notice": "Stakes `_amount` tokens, transferring them from `_delegatorAddress` to `_accountAddress`, only callable by DelegateManager"
      },
      "getClaimsManagerAddress()": {
        "notice": "Get the ClaimsManager address"
      },
      "getDelegateManagerAddress()": {
        "notice": "Get the DelegateManager address"
      },
      "getGovernanceAddress()": {
        "notice": "Get the Governance address"
      },
      "getServiceProviderFactoryAddress()": {
        "notice": "Get the ServiceProviderFactory address"
      },
      "initialize()": {
        "notice": "wrapper function around parent contract Initializable's `initializable` modifier     initializable modifier ensures this function can only be called once by each deployed child contract     sets isInitialized flag to true to which is used by _requireIsInitialized()"
      },
      "initialize(address,address)": {
        "notice": "Function to initialize the contract"
      },
      "isStaker(address)": {
        "notice": "Helper function wrapped around totalStakedFor. Checks whether _accountAddress is currently a valid staker with a non-zero stake"
      },
      "lastClaimedFor(address)": {
        "notice": "Get last time `_accountAddress` claimed a staking reward"
      },
      "lastStakedFor(address)": {
        "notice": "Get last time `_accountAddress` modified its staked balance"
      },
      "setClaimsManagerAddress(address)": {
        "notice": "Set the ClaimsManaager address"
      },
      "setDelegateManagerAddress(address)": {
        "notice": "Set the DelegateManager address"
      },
      "setGovernanceAddress(address)": {
        "notice": "Set the Governance address"
      },
      "setServiceProviderFactoryAddress(address)": {
        "notice": "Set the ServiceProviderFactory address"
      },
      "slash(uint256,address)": {
        "notice": "Slashes `_amount` tokens from _slashAddress"
      },
      "stakeFor(address,uint256)": {
        "notice": "Stakes `_amount` tokens, transferring them from _accountAddress, and assigns them to `_accountAddress`"
      },
      "stakeRewards(uint256,address)": {
        "notice": "Funds `_amount` of tokens from ClaimsManager to target account"
      },
      "supportsHistory()": {
        "notice": "Check whether it supports history of stakes"
      },
      "token()": {
        "notice": "Get the token used by the contract for staking and locking"
      },
      "totalStaked()": {
        "notice": "Get the total amount of tokens staked by all users"
      },
      "totalStakedAt(uint256)": {
        "notice": "Get the total amount of tokens staked by all users at block number `_blockNumber`"
      },
      "totalStakedFor(address)": {
        "notice": "Get the amount of tokens staked by `_accountAddress`"
      },
      "totalStakedForAt(address,uint256)": {
        "notice": "Get the total amount of tokens staked by `_accountAddress` at block number `_blockNumber`"
      },
      "undelegateStakeFor(address,address,uint256)": {
        "notice": "Unstakes '_amount` tokens, transferring them from `_accountAddress` to `_delegatorAddress`, only callable by DelegateManager"
      },
      "unstakeFor(address,uint256)": {
        "notice": "Unstakes `_amount` tokens, returning them to the desired account."
      },
      "updateClaimHistory(uint256,address)": {
        "notice": "Update claim history by adding an event to the claim history"
      }
    }
  }
}