{
  "contractName": "TestContract",
  "abi": [
    {
      "constant": true,
      "inputs": [],
      "name": "x",
      "outputs": [
        {
          "internalType": "uint256",
          "name": "",
          "type": "uint256"
        }
      ],
      "payable": false,
      "stateMutability": "view",
      "type": "function"
    },
    {
      "constant": false,
      "inputs": [],
      "name": "initialize",
      "outputs": [],
      "payable": false,
      "stateMutability": "nonpayable",
      "type": "function"
    },
    {
      "constant": false,
      "inputs": [
        {
          "internalType": "uint256",
          "name": "_x",
          "type": "uint256"
        }
      ],
      "name": "setX",
      "outputs": [],
      "payable": false,
      "stateMutability": "nonpayable",
      "type": "function"
    }
  ],
  "bytecode": "0x6080604052600160345534801561001557600080fd5b50610323806100256000396000f3fe608060405234801561001057600080fd5b50600436106100415760003560e01c80630c55699c146100465780634018d9aa146100605780638129fc1c1461007f575b600080fd5b61004e610087565b60408051918252519081900360200190f35b61007d6004803603602081101561007657600080fd5b503561008d565b005b61007d61009a565b60345481565b610095610144565b603455565b600054610100900460ff16806100b357506100b361020c565b806100c1575060005460ff16155b6100fc5760405162461bcd60e51b815260040180806020018281038252602e8152602001806102c1602e913960400191505060405180910390fd5b600054610100900460ff16158015610127576000805460ff1961ff0019909116610100171660011790555b61012f610212565b8015610141576000805461ff00191690555b50565b6033546040805180820190915260208082527f496e697469616c697a61626c6556323a204e6f7420696e697469616c697a6564908201529060ff1615156001146101415760405162461bcd60e51b81526004018080602001828103825283818151815260200191508051906020019080838360005b838110156101d15781810151838201526020016101b9565b50505050905090810190601f1680156101fe5780820380516001836020036101000a031916815260200191505b509250505060405180910390fd5b303b1590565b600054610100900460ff168061022b575061022b61020c565b80610239575060005460ff16155b6102745760405162461bcd60e51b815260040180806020018281038252602e8152602001806102c1602e913960400191505060405180910390fd5b600054610100900460ff1615801561029f576000805460ff1961ff0019909116610100171660011790555b6033805460ff191660011790558015610141576000805461ff00191690555056fe436f6e747261637420696e7374616e63652068617320616c7265616479206265656e20696e697469616c697a6564a265627a7a723158203c886b3ddb8fdb366b6171a096a9fef8a352080a8b541fac01e8ca05246e436464736f6c63430005110032",
  "source": "pragma solidity ^0.5.0;\n\nimport \"../InitializableV2.sol\";\n\n\n/** Simple test w/o storage */\ncontract TestContract is InitializableV2 {\n\n    uint256 public x = 1;\n\n    function initialize() public initializer {\n        InitializableV2.initialize();\n    }\n\n    function setX(uint256 _x) external {\n        _requireIsInitialized();\n\n        x = _x;\n    }\n}\n",
  "sourcePath": "/usr/src/app/contracts/test/TestContract.sol",
  "compiler": {
    "name": "solc",
    "version": "0.5.17+commit.d19bba13.Emscripten.clang"
  },
  "schemaVersion": "3.4.4",
  "updatedAt": "2023-03-02T06:41:29.448Z",
  "devdoc": {
    "methods": {}
  },
  "userdoc": {
    "methods": {},
    "notice": "Simple test w/o storage "
  }
}