{
  "contractName": "TrustedNotifierManager",
  "abi": [
    {
      "constant": false,
      "inputs": [
        {
          "internalType": "address",
          "name": "_governanceAddress",
          "type": "address"
        },
        {
          "internalType": "address",
          "name": "_initialNotifierWallet",
          "type": "address"
        },
        {
          "internalType": "string",
          "name": "_initialNotiferEndpoint",
          "type": "string"
        },
        {
          "internalType": "string",
          "name": "_initialNotiferEmail",
          "type": "string"
        }
      ],
      "name": "initialize",
      "outputs": [],
      "payable": false,
      "stateMutability": "nonpayable",
      "type": "function"
    },
    {
      "constant": false,
      "inputs": [],
      "name": "initialize",
      "outputs": [],
      "payable": false,
      "stateMutability": "nonpayable",
      "type": "function"
    },
    {
      "constant": false,
      "inputs": [
        {
          "internalType": "address",
          "name": "_wallet",
          "type": "address"
        },
        {
          "internalType": "string",
          "name": "_endpoint",
          "type": "string"
        },
        {
          "internalType": "string",
          "name": "_email",
          "type": "string"
        }
      ],
      "name": "registerNotifier",
      "outputs": [
        {
          "internalType": "uint256",
          "name": "",
          "type": "uint256"
        }
      ],
      "payable": false,
      "stateMutability": "nonpayable",
      "type": "function"
    },
    {
      "constant": false,
      "inputs": [
        {
          "internalType": "address",
          "name": "_wallet",
          "type": "address"
        }
      ],
      "name": "deregisterNotifier",
      "outputs": [
        {
          "internalType": "uint256",
          "name": "",
          "type": "uint256"
        }
      ],
      "payable": false,
      "stateMutability": "nonpayable",
      "type": "function"
    },
    {
      "constant": true,
      "inputs": [],
      "name": "getLatestNotifierID",
      "outputs": [
        {
          "internalType": "uint256",
          "name": "",
          "type": "uint256"
        }
      ],
      "payable": false,
      "stateMutability": "view",
      "type": "function"
    },
    {
      "constant": true,
      "inputs": [
        {
          "internalType": "uint256",
          "name": "_ID",
          "type": "uint256"
        }
      ],
      "name": "getNotifierForID",
      "outputs": [
        {
          "internalType": "address",
          "name": "wallet",
          "type": "address"
        },
        {
          "internalType": "string",
          "name": "endpoint",
          "type": "string"
        },
        {
          "internalType": "string",
          "name": "email",
          "type": "string"
        }
      ],
      "payable": false,
      "stateMutability": "view",
      "type": "function"
    },
    {
      "constant": true,
      "inputs": [
        {
          "internalType": "address",
          "name": "_wallet",
          "type": "address"
        }
      ],
      "name": "getNotifierForWallet",
      "outputs": [
        {
          "internalType": "uint256",
          "name": "ID",
          "type": "uint256"
        },
        {
          "internalType": "string",
          "name": "endpoint",
          "type": "string"
        },
        {
          "internalType": "string",
          "name": "email",
          "type": "string"
        }
      ],
      "payable": false,
      "stateMutability": "view",
      "type": "function"
    },
    {
      "constant": true,
      "inputs": [
        {
          "internalType": "string",
          "name": "_endpoint",
          "type": "string"
        }
      ],
      "name": "getNotifierForEndpoint",
      "outputs": [
        {
          "internalType": "uint256",
          "name": "ID",
          "type": "uint256"
        },
        {
          "internalType": "address",
          "name": "wallet",
          "type": "address"
        },
        {
          "internalType": "string",
          "name": "email",
          "type": "string"
        }
      ],
      "payable": false,
      "stateMutability": "view",
      "type": "function"
    },
    {
      "constant": true,
      "inputs": [
        {
          "internalType": "string",
          "name": "_email",
          "type": "string"
        }
      ],
      "name": "getNotifierForEmail",
      "outputs": [
        {
          "internalType": "uint256",
          "name": "ID",
          "type": "uint256"
        },
        {
          "internalType": "address",
          "name": "wallet",
          "type": "address"
        },
        {
          "internalType": "string",
          "name": "endpoint",
          "type": "string"
        }
      ],
      "payable": false,
      "stateMutability": "view",
      "type": "function"
    },
    {
      "constant": true,
      "inputs": [],
      "name": "getGovernanceAddress",
      "outputs": [
        {
          "internalType": "address",
          "name": "",
          "type": "address"
        }
      ],
      "payable": false,
      "stateMutability": "view",
      "type": "function"
    },
    {
      "constant": false,
      "inputs": [
        {
          "internalType": "address",
          "name": "_governanceAddress",
          "type": "address"
        }
      ],
      "name": "setGovernanceAddress",
      "outputs": [],
      "payable": false,
      "stateMutability": "nonpayable",
      "type": "function"
    }
  ],
  "bytecode": "0x608060405234801561001057600080fd5b50611a7e806100206000396000f3fe608060405234801561001057600080fd5b50600436106100a95760003560e01c80637fee1d5b116100715780637fee1d5b1461035c5780638129fc1c146103ca578063b18c15f7146103d2578063c1c6b9d5146104dd578063cfc1625414610552578063e81514dc14610578576100a9565b80631d430684146100ae5780632016a0d2146100e6578063232646451461022a578063732524941461033057806376f4884b14610354575b600080fd5b6100d4600480360360208110156100c457600080fd5b50356001600160a01b0316610646565b60408051918252519081900360200190f35b610228600480360360808110156100fc57600080fd5b6001600160a01b038235811692602081013590911691810190606081016040820135600160201b81111561012f57600080fd5b82018360208201111561014157600080fd5b803590602001918460018302840111600160201b8311171561016257600080fd5b91908080601f0160208091040260200160405190810160405280939291908181526020018383808284376000920191909152509295949360208101935035915050600160201b8111156101b457600080fd5b8201836020820111156101c657600080fd5b803590602001918460018302840111600160201b831117156101e757600080fd5b91908080601f0160208091040260200160405190810160405280939291908181526020018383808284376000920191909152509295506108b1945050505050565b005b6102986004803603602081101561024057600080fd5b810190602081018135600160201b81111561025a57600080fd5b82018360208201111561026c57600080fd5b803590602001918460018302840111600160201b8311171561028d57600080fd5b509092509050610a6a565b60405180848152602001836001600160a01b03166001600160a01b0316815260200180602001828103825283818151815260200191508051906020019080838360005b838110156102f35781810151838201526020016102db565b50505050905090810190601f1680156103205780820380516001836020036101000a031916815260200191505b5094505050505060405180910390f35b610338610c18565b604080516001600160a01b039092168252519081900360200190f35b6100d4610c38565b6102986004803603602081101561037257600080fd5b810190602081018135600160201b81111561038c57600080fd5b82018360208201111561039e57600080fd5b803590602001918460018302840111600160201b831117156103bf57600080fd5b509092509050610c3e565b610228610dec565b6103f8600480360360208110156103e857600080fd5b50356001600160a01b0316610e9b565b604051808481526020018060200180602001838103835285818151815260200191508051906020019080838360005b8381101561043f578181015183820152602001610427565b50505050905090810190601f16801561046c5780820380516001836020036101000a031916815260200191505b50838103825284518152845160209182019186019080838360005b8381101561049f578181015183820152602001610487565b50505050905090810190601f1680156104cc5780820380516001836020036101000a031916815260200191505b509550505050505060405180910390f35b6104fa600480360360208110156104f357600080fd5b503561102f565b60405180846001600160a01b03166001600160a01b031681526020018060200180602001838103835285818151815260200191508051906020019080838360008381101561043f578181015183820152602001610427565b6102286004803603602081101561056857600080fd5b50356001600160a01b03166111ab565b6100d46004803603606081101561058e57600080fd5b6001600160a01b038235169190810190604081016020820135600160201b8111156105b857600080fd5b8201836020820111156105ca57600080fd5b803590602001918460018302840111600160201b831117156105eb57600080fd5b919390929091602081019035600160201b81111561060857600080fd5b82018360208201111561061a57600080fd5b803590602001918460018302840111600160201b8311171561063b57600080fd5b50909250905061120a565b6000610650611557565b60335461010090046001600160a01b03163314806106765750336001600160a01b038316145b6106b15760405162461bcd60e51b815260040180806020018281038252604881526020018061185a6048913960600191505060405180910390fd5b6001600160a01b0382166000908152603660205260409020546106d2611753565b600082815260356020908152604091829020825160608101845281546001600160a01b03168152600180830180548651600261010094831615949094026000190190911692909204601f810186900486028301860190965285825291949293858101939192919083018282801561078a5780601f1061075f5761010080835404028352916020019161078a565b820191906000526020600020905b81548152906001019060200180831161076d57829003601f168201915b5050509183525050600282810180546040805160206001841615610100026000190190931694909404601f8101839004830285018301909152808452938101939083018282801561081c5780601f106107f15761010080835404028352916020019161081c565b820191906000526020600020905b8154815290600101906020018083116107ff57829003601f168201915b50505091909252505050600083815260356020526040812080546001600160a01b0319168155919250610852600183018261177d565b61086060028301600061177d565b50506001600160a01b03841660009081526036602090815260408083208390558382015180519083012083526037825280832083905592830151805190820120825260389052908120559050919050565b600054610100900460ff16806108ca57506108ca61161f565b806108d8575060005460ff16155b6109135760405162461bcd60e51b815260040180806020018281038252602e8152602001806118df602e913960400191505060405180910390fd5b600054610100900460ff1615801561093e576000805460ff1961ff0019909116610100171660011790555b61094785611625565b60016034819055604080516060810182526001600160a01b038781168252602080830188815293830187905260008590526035815282517f8e3caac72b6c5bb0462da38c8c8c3b5fbc00a646bd75367c23c11d594c4e36c980546001600160a01b0319169190931617825592518051929391926109e7927f8e3caac72b6c5bb0462da38c8c8c3b5fbc00a646bd75367c23c11d594c4e36ca9201906117c1565b5060408201518051610a039160028401916020909101906117c1565b5050506001600160a01b0385166000908152603660209081526040808320849055865187830120835260378252808320849055855186830120835260389091529020819055610a50610dec565b508015610a63576000805461ff00191690555b5050505050565b6000806060600060376000878760405180838380828437808301925050509250505060405180910390208152602001908152602001600020549050610aad611753565b600082815260356020908152604091829020825160608101845281546001600160a01b03168152600180830180548651600261010094831615949094026000190190911692909204601f8101869004860283018601909652858252919492938581019391929190830182828015610b655780601f10610b3a57610100808354040283529160200191610b65565b820191906000526020600020905b815481529060010190602001808311610b4857829003601f168201915b5050509183525050600282810180546040805160206001841615610100026000190190931694909404601f81018390048302850183019091528084529381019390830182828015610bf75780601f10610bcc57610100808354040283529160200191610bf7565b820191906000526020600020905b815481529060010190602001808311610bda57829003601f168201915b50505091909252505081516040909201519399919850929650945050505050565b6000610c22611557565b5060335461010090046001600160a01b03165b90565b60345490565b6000806060600060386000878760405180838380828437808301925050509250505060405180910390208152602001908152602001600020549050610c81611753565b600082815260356020908152604091829020825160608101845281546001600160a01b03168152600180830180548651600261010094831615949094026000190190911692909204601f8101869004860283018601909652858252919492938581019391929190830182828015610d395780601f10610d0e57610100808354040283529160200191610d39565b820191906000526020600020905b815481529060010190602001808311610d1c57829003601f168201915b5050509183525050600282810180546040805160206001841615610100026000190190931694909404601f81018390048302850183019091528084529381019390830182828015610dcb5780601f10610da057610100808354040283529160200191610dcb565b820191906000526020600020905b815481529060010190602001808311610dae57829003601f168201915b50505091909252505081516020909201519399919850929650945050505050565b600054610100900460ff1680610e055750610e0561161f565b80610e13575060005460ff16155b610e4e5760405162461bcd60e51b815260040180806020018281038252602e8152602001806118df602e913960400191505060405180910390fd5b600054610100900460ff16158015610e79576000805460ff1961ff0019909116610100171660011790555b6033805460ff191660011790558015610e98576000805461ff00191690555b50565b6001600160a01b0381166000908152603660205260408120546060908190610ec1611753565b600082815260356020908152604091829020825160608101845281546001600160a01b03168152600180830180548651600261010094831615949094026000190190911692909204601f8101869004860283018601909652858252919492938581019391929190830182828015610f795780601f10610f4e57610100808354040283529160200191610f79565b820191906000526020600020905b815481529060010190602001808311610f5c57829003601f168201915b5050509183525050600282810180546040805160206001841615610100026000190190931694909404601f8101839004830285018301909152808452938101939083018282801561100b5780601f10610fe05761010080835404028352916020019161100b565b820191906000526020600020905b815481529060010190602001808311610fee57829003601f168201915b50505091909252505050602081015160409091015192979096509194509092505050565b600060608061103c611753565b600085815260356020908152604091829020825160608101845281546001600160a01b03168152600180830180548651600261010094831615949094026000190190911692909204601f81018690048602830186019096528582529194929385810193919291908301828280156110f45780601f106110c9576101008083540402835291602001916110f4565b820191906000526020600020905b8154815290600101906020018083116110d757829003601f168201915b5050509183525050600282810180546040805160206001841615610100026000190190931694909404601f810183900483028501830190915280845293810193908301828280156111865780601f1061115b57610100808354040283529160200191611186565b820191906000526020600020905b81548152906001019060200180831161116957829003601f168201915b5050509190925250508151602083015160409093015190989297509550909350505050565b6111b3611557565b60335461010090046001600160a01b031633146112015760405162461bcd60e51b815260040180806020018281038252603c81526020018061190d603c913960400191505060405180910390fd5b610e9881611625565b6000611214611557565b60335461010090046001600160a01b031633146112625760405162461bcd60e51b815260040180806020018281038252603d8152602001806118a2603d913960400191505060405180910390fd5b6001600160a01b0386161580159061129057506001600160a01b038616600090815260366020526040902054155b6112cb5760405162461bcd60e51b815260040180806020018281038252603b815260200180611a0f603b913960400191505060405180910390fd5b83158015906113075750603760008686604051808383808284376040805191909301819003902086525060208501959095525050500160002054155b6113425760405162461bcd60e51b815260040180806020018281038252603e815260200180611949603e913960400191505060405180910390fd5b811580159061137e5750603860008484604051808383808284376040805191909301819003902086525060208501959095525050500160002054155b6113b95760405162461bcd60e51b815260040180806020018281038252603b815260200180611987603b913960400191505060405180910390fd5b6034546000906113d090600163ffffffff6116f216565b9050806034819055506040518060600160405280886001600160a01b0316815260200187878080601f016020809104026020016040519081016040528093929190818152602001838380828437600092019190915250505090825250604080516020601f8801819004810282018101909252868152918101919087908790819084018382808284376000920182905250939094525050838152603560209081526040909120835181546001600160a01b0319166001600160a01b039091161781558382015180519193506114ab9260018501929101906117c1565b50604082015180516114c79160028401916020909101906117c1565b5050506001600160a01b038716600090815260366020526040808220839055518291603791899089908083838082843780830192505050925050506040518091039020815260200190815260200160002081905550806038600086866040518083838082843760408051919093018190039020865250602085019590955250505001600020559695505050505050565b6033546040805180820190915260208082527f496e697469616c697a61626c6556323a204e6f7420696e697469616c697a6564908201529060ff161515600114610e985760405162461bcd60e51b81526004018080602001828103825283818151815260200191508051906020019080838360005b838110156115e45781810151838201526020016115cc565b50505050905090810190601f1680156116115780820380516001836020036101000a031916815260200191505b509250505060405180910390fd5b303b1590565b806001600160a01b0316630ea773076040518163ffffffff1660e01b815260040160206040518083038186803b15801561165e57600080fd5b505afa158015611672573d6000803e3d6000fd5b505050506040513d602081101561168857600080fd5b505115156001146116ca5760405162461bcd60e51b815260040180806020018281038252604d8152602001806119c2604d913960600191505060405180910390fd5b603380546001600160a01b0390921661010002610100600160a81b0319909216919091179055565b60008282018381101561174c576040805162461bcd60e51b815260206004820152601b60248201527f536166654d6174683a206164646974696f6e206f766572666c6f770000000000604482015290519081900360640190fd5b9392505050565b604051806060016040528060006001600160a01b0316815260200160608152602001606081525090565b50805460018160011615610100020316600290046000825580601f106117a35750610e98565b601f016020900490600052602060002090810190610e98919061183f565b828054600181600116156101000203166002900490600052602060002090601f016020900481019282601f1061180257805160ff191683800117855561182f565b8280016001018555821561182f579182015b8281111561182f578251825591602001919060010190611814565b5061183b92915061183f565b5090565b610c3591905b8082111561183b576000815560010161184556fe547275737465644e6f7469666965724d616e616765723a204f6e6c792063616c6c61626c6520627920476f7665726e616e636520636f6e7472616374206f72205f77616c6c65742e547275737465644e6f7469666965724d616e616765723a204f6e6c792063616c6c61626c6520627920476f7665726e616e636520636f6e74726163742e436f6e747261637420696e7374616e63652068617320616c7265616479206265656e20696e697469616c697a6564547275737465644e6f7469666965724d616e616765723a204f6e6c792063616c6c61626c6520627920476f7665726e616e636520636f6e7472616374547275737465644e6f7469666965724d616e616765723a20456e64706f696e74206d75737420626520756e6971756520616e64206e6f6e2d656d7074792e547275737465644e6f7469666965724d616e616765723a20456d61696c206d75737420626520756e6971756520616e64206e6f6e2d656d7074792e547275737465644e6f7469666965724d616e616765723a205f676f7665726e616e636541646472657373206973206e6f7420612076616c696420676f7665726e616e636520636f6e7472616374547275737465644e6f7469666965724d616e616765723a2057616c6c6574206d75737420626520756e6971756520616e64206e6f6e2d7a65726f2ea265627a7a72315820e3268f73041674ad19404e0fc905e702cafab26574599fb51f55aedd978e07a264736f6c63430005110032",
  "source": "pragma solidity ^0.5.0;\n\nimport \"@openzeppelin/contracts-ethereum-package/contracts/math/SafeMath.sol\";\nimport \"./Governance.sol\";\nimport \"./InitializableV2.sol\";\n\n\ncontract TrustedNotifierManager is InitializableV2 {\n    using SafeMath for uint256;\n\n    address private governanceAddress;\n\n    /// @notice All fields - wallet, endpoint, email - are unique\n    struct TrustedNotifier {\n        address wallet;\n        string endpoint;\n        string email;\n    }\n\n    /// @notice auto-incrementing integer; first valid ID = 1\n    uint256 private latestID;\n\n    mapping(uint256 => TrustedNotifier) private IDToTrustedNotifierMap;\n\n    /// @notice wallet is unique - i.e. each wallet maps to at most one ID\n    mapping(address => uint256) private walletToIDMap;\n\n    /// @notice endpoint is unique - i.e. each endpoint maps to at most one ID\n    mapping(bytes32 => uint256) private endpointToIDMap;\n\n    /// @notice email is unique - i.e. each email maps to at most one ID\n    mapping(bytes32 => uint256) private emailToIDMap;\n\n    /**\n     * Function to initialize contract, can only be called once\n     * @notice Must be provided all required fields for initial Trusted Notifier\n     * @notice Registers initial Trusted Notifier with ID = 1\n     */\n    function initialize (\n        address _governanceAddress,\n        address _initialNotifierWallet,\n        string memory _initialNotiferEndpoint,\n        string memory _initialNotiferEmail\n    ) public initializer {\n        _updateGovernanceAddress(_governanceAddress);\n\n        uint256 ID = 1;\n        latestID = ID;\n\n        IDToTrustedNotifierMap[ID] = TrustedNotifier({\n            wallet: _initialNotifierWallet,\n            endpoint: _initialNotiferEndpoint,\n            email: _initialNotiferEmail\n        });\n\n        walletToIDMap[_initialNotifierWallet] = ID;\n        endpointToIDMap[keccak256(bytes(_initialNotiferEndpoint))] = ID;\n        emailToIDMap[keccak256(bytes(_initialNotiferEmail))] = ID;\n\n        InitializableV2.initialize();\n    }\n\n    /**\n     * Register Trusted Notifier with specified fields (_wallet, _endpoint, _email)\n     * @notice Only callable by Governance contract\n     * @notice All fields must be unique and non-falsey\n     * @notice New Trusted Notifier is assigned an auto-incremented integer ID\n     * @return Newly assigned integer ID\n     */\n    function registerNotifier(\n        address _wallet, string calldata _endpoint, string calldata _email\n    ) external returns (uint256) {\n        _requireIsInitialized();\n\n        require(\n            msg.sender == governanceAddress,\n            \"TrustedNotifierManager: Only callable by Governance contract.\"\n        );\n\n        // Ensure wallet is not zero address and isn't already registered\n        require(\n            _wallet != address(0x00) && walletToIDMap[_wallet] == 0,\n            \"TrustedNotifierManager: Wallet must be unique and non-zero.\"\n        );\n\n        // Ensure endpoint is not empty and isn't already registered\n        require(\n            bytes(_endpoint).length != 0 && endpointToIDMap[keccak256(bytes(_endpoint))] == 0,\n            \"TrustedNotifierManager: Endpoint must be unique and non-empty.\"\n        );\n\n        // Ensure email is not empty and isn't already registered\n        require(\n            bytes(_email).length != 0 && emailToIDMap[keccak256(bytes(_email))] == 0,\n            \"TrustedNotifierManager: Email must be unique and non-empty.\"\n        );\n\n        uint256 ID = latestID.add(1);\n        latestID = ID;\n\n        IDToTrustedNotifierMap[ID] = TrustedNotifier({\n            wallet: _wallet,\n            endpoint: _endpoint,\n            email: _email\n        });\n\n        walletToIDMap[_wallet] = ID;\n        endpointToIDMap[keccak256(bytes(_endpoint))] = ID;\n        emailToIDMap[keccak256(bytes(_email))] = ID;\n\n        return ID;\n    }\n\n    /**\n     * Deregister Trusted Notifier associated with _wallet\n     * @notice Only callable by Governance contract or _wallet\n     * @return ID of deregistered Trusted Notifier\n     */\n    function deregisterNotifier(address _wallet) external returns (uint256) {\n        _requireIsInitialized();\n\n        require(\n            msg.sender == governanceAddress || msg.sender == _wallet,\n            \"TrustedNotifierManager: Only callable by Governance contract or _wallet.\"\n        );\n\n        uint256 ID = walletToIDMap[_wallet];\n        TrustedNotifier memory notifier = IDToTrustedNotifierMap[ID];\n\n        delete IDToTrustedNotifierMap[ID];\n        delete walletToIDMap[_wallet];\n        delete endpointToIDMap[keccak256(bytes(notifier.endpoint))];\n        delete emailToIDMap[keccak256(bytes(notifier.email))];\n\n        return ID;\n    }\n\n    function getLatestNotifierID() external view returns (uint256) {\n        return latestID;\n    }\n\n    /// @notice Returns all TrustedNotifier info associated with _ID\n    function getNotifierForID(uint256 _ID) external view\n    returns (address wallet, string memory endpoint, string memory email) {\n        TrustedNotifier memory notifier = IDToTrustedNotifierMap[_ID];\n        return (notifier.wallet, notifier.endpoint, notifier.email);\n    }\n\n    /// @notice Returns all TrustedNotifier info associated with _wallet\n    function getNotifierForWallet(address _wallet) external view\n    returns (uint256 ID, string memory endpoint, string memory email) {\n        uint256 notifierID = walletToIDMap[_wallet];\n        TrustedNotifier memory notifier = IDToTrustedNotifierMap[notifierID];\n        return (notifierID, notifier.endpoint, notifier.email);\n    }\n\n    /// @notice Returns all TrustedNotifier info associated with _endpoint\n    function getNotifierForEndpoint(string calldata _endpoint) external view\n    returns (uint256 ID, address wallet, string memory email) {\n        uint256 notifierID = endpointToIDMap[keccak256(bytes(_endpoint))];\n        TrustedNotifier memory notifier = IDToTrustedNotifierMap[notifierID];\n        return (notifierID, notifier.wallet, notifier.email);\n    }\n\n    /// @notice Returns all TrustedNotifier info associated with _email\n    function getNotifierForEmail(string calldata _email) external view\n    returns (uint256 ID, address wallet, string memory endpoint) {\n        uint256 notifierID = emailToIDMap[keccak256(bytes(_email))];\n        TrustedNotifier memory notifier = IDToTrustedNotifierMap[notifierID];\n        return (notifierID, notifier.wallet, notifier.endpoint);\n    }\n\n    /// @notice Get the Governance address\n    function getGovernanceAddress() external view returns (address) {\n        _requireIsInitialized();\n\n        return governanceAddress;\n    }\n\n    /**\n     * @notice Set the Governance address\n     * @notice Only callable by Governance address\n     * @param _governanceAddress - address for new Governance contract\n     */\n    function setGovernanceAddress(address _governanceAddress) external {\n        _requireIsInitialized();\n\n        require(\n            msg.sender == governanceAddress,\n            \"TrustedNotifierManager: Only callable by Governance contract\"\n        );\n        _updateGovernanceAddress(_governanceAddress);\n    }\n\n    // ========================================= Internal Functions =========================================\n\n    /**\n     * @notice Set the governance address after confirming contract identity\n     * @param _governanceAddress - Incoming governance address\n     */\n    function _updateGovernanceAddress(address _governanceAddress) internal {\n        require(\n            Governance(_governanceAddress).isGovernanceAddress() == true,\n            \"TrustedNotifierManager: _governanceAddress is not a valid governance contract\"\n        );\n        governanceAddress = _governanceAddress;\n    }\n}",
  "sourcePath": "/usr/src/app/contracts/TrustedNotifierManager.sol",
  "compiler": {
    "name": "solc",
    "version": "0.5.17+commit.d19bba13.Emscripten.clang"
  },
  "schemaVersion": "3.4.4",
  "updatedAt": "2023-03-02T06:41:29.348Z",
  "devdoc": {
    "methods": {
      "deregisterNotifier(address)": {
        "return": "ID of deregistered Trusted Notifier"
      },
      "registerNotifier(address,string,string)": {
        "return": "Newly assigned integer ID"
      },
      "setGovernanceAddress(address)": {
        "params": {
          "_governanceAddress": "- address for new Governance contract"
        }
      }
    }
  },
  "userdoc": {
    "methods": {
      "deregisterNotifier(address)": {
        "notice": "Deregister Trusted Notifier associated with _walletOnly callable by Governance contract or _wallet"
      },
      "getGovernanceAddress()": {
        "notice": "Get the Governance address"
      },
      "getNotifierForEmail(string)": {
        "notice": "Returns all TrustedNotifier info associated with _email"
      },
      "getNotifierForEndpoint(string)": {
        "notice": "Returns all TrustedNotifier info associated with _endpoint"
      },
      "getNotifierForID(uint256)": {
        "notice": "Returns all TrustedNotifier info associated with _ID"
      },
      "getNotifierForWallet(address)": {
        "notice": "Returns all TrustedNotifier info associated with _wallet"
      },
      "initialize()": {
        "notice": "wrapper function around parent contract Initializable's `initializable` modifier     initializable modifier ensures this function can only be called once by each deployed child contract     sets isInitialized flag to true to which is used by _requireIsInitialized()"
      },
      "initialize(address,address,string,string)": {
        "notice": "Function to initialize contract, can only be called onceMust be provided all required fields for initial Trusted NotifierRegisters initial Trusted Notifier with ID = 1"
      },
      "registerNotifier(address,string,string)": {
        "notice": "Register Trusted Notifier with specified fields (_wallet, _endpoint, _email)Only callable by Governance contractAll fields must be unique and non-falseyNew Trusted Notifier is assigned an auto-incremented integer ID"
      },
      "setGovernanceAddress(address)": {
        "notice": "Set the Governance addressOnly callable by Governance address"
      }
    }
  }
}