{
  "contractName": "WormholeClient",
  "abi": [
    {
      "constant": true,
      "inputs": [],
      "name": "DOMAIN_SEPARATOR",
      "outputs": [
        {
          "internalType": "bytes32",
          "name": "",
          "type": "bytes32"
        }
      ],
      "payable": false,
      "stateMutability": "view",
      "type": "function"
    },
    {
      "constant": true,
      "inputs": [],
      "name": "TRANSFER_TOKENS_TYPEHASH",
      "outputs": [
        {
          "internalType": "bytes32",
          "name": "",
          "type": "bytes32"
        }
      ],
      "payable": false,
      "stateMutability": "view",
      "type": "function"
    },
    {
      "constant": true,
      "inputs": [
        {
          "internalType": "address",
          "name": "",
          "type": "address"
        }
      ],
      "name": "nonces",
      "outputs": [
        {
          "internalType": "uint32",
          "name": "",
          "type": "uint32"
        }
      ],
      "payable": false,
      "stateMutability": "view",
      "type": "function"
    },
    {
      "constant": true,
      "inputs": [],
      "name": "token",
      "outputs": [
        {
          "internalType": "address",
          "name": "",
          "type": "address"
        }
      ],
      "payable": false,
      "stateMutability": "view",
      "type": "function"
    },
    {
      "constant": false,
      "inputs": [
        {
          "internalType": "address",
          "name": "_tokenAddress",
          "type": "address"
        },
        {
          "internalType": "address",
          "name": "_wormholeAddress",
          "type": "address"
        }
      ],
      "name": "initialize",
      "outputs": [],
      "payable": false,
      "stateMutability": "nonpayable",
      "type": "function"
    },
    {
      "constant": false,
      "inputs": [],
      "name": "initialize",
      "outputs": [],
      "payable": false,
      "stateMutability": "nonpayable",
      "type": "function"
    },
    {
      "constant": false,
      "inputs": [
        {
          "internalType": "address",
          "name": "from",
          "type": "address"
        },
        {
          "internalType": "uint256",
          "name": "amount",
          "type": "uint256"
        },
        {
          "internalType": "uint16",
          "name": "recipientChain",
          "type": "uint16"
        },
        {
          "internalType": "bytes32",
          "name": "recipient",
          "type": "bytes32"
        },
        {
          "internalType": "uint256",
          "name": "arbiterFee",
          "type": "uint256"
        },
        {
          "internalType": "uint256",
          "name": "deadline",
          "type": "uint256"
        },
        {
          "internalType": "uint8",
          "name": "v",
          "type": "uint8"
        },
        {
          "internalType": "bytes32",
          "name": "r",
          "type": "bytes32"
        },
        {
          "internalType": "bytes32",
          "name": "s",
          "type": "bytes32"
        }
      ],
      "name": "transferTokens",
      "outputs": [],
      "payable": false,
      "stateMutability": "nonpayable",
      "type": "function"
    }
  ],
  "bytecode": "0x608060405234801561001057600080fd5b50610d25806100206000396000f3fe608060405234801561001057600080fd5b506004361061007d5760003560e01c80637ecebe001161005b5780637ecebe00146100d457806380a1ae24146101135780638129fc1c14610172578063fc0c546a1461017a5761007d565b80633644e51514610082578063485cc9551461009c57806349414fce146100cc575b600080fd5b61008a61019e565b60408051918252519081900360200190f35b6100ca600480360360408110156100b257600080fd5b506001600160a01b03813581169160200135166101a4565b005b61008a610473565b6100fa600480360360208110156100ea57600080fd5b50356001600160a01b0316610497565b6040805163ffffffff9092168252519081900360200190f35b6100ca600480360361012081101561012a57600080fd5b506001600160a01b038135169060208101359061ffff6040820135169060608101359060808101359060a08101359060ff60c0820135169060e08101359061010001356104af565b6100ca6107f9565b6101826108a8565b604080516001600160a01b039092168252519081900360200190f35b60345481565b600054610100900460ff16806101bd57506101bd6108c2565b806101cb575060005460ff16155b6102065760405162461bcd60e51b815260040180806020018281038252602e815260200180610c99602e913960400191505060405180910390fd5b600054610100900460ff16158015610231576000805460ff1961ff0019909116610100171660011790555b61023a836108c8565b604051806060016040528060308152602001610bf360309139906102dc5760405162461bcd60e51b81526004018080602001828103825283818151815260200191508051906020019080838360005b838110156102a1578181015183820152602001610289565b50505050905090810190601f1680156102ce5780820380516001836020036101000a031916815260200191505b509250505060405180910390fd5b506102e6826108c8565b6040518060600160405280602a8152602001610ba8602a91399061034b5760405162461bcd60e51b81526020600482018181528351602484015283519092839260449091019190850190808383600083156102a1578181015183820152602001610289565b50603680546001600160a01b038086166001600160a01b03199283161790925560378054928516929091169190911790556103846107f9565b6040514690806052610c4782396040805191829003605201822082820182526014835273105d591a5d5cd5dbdc9b5a1bdb1950db1a595b9d60621b6020938401528151808301835260018152603160f81b908401528151808401919091527f31355af6ce4b685fa69a7b645865c03139c343524682a312ef436f44fea682d3818301527fc89efdaa54c0f20c7adf612882df0950f5a951637e0307cdcb4c672f298b8bc6606082015260808101949094523060a0808601919091528151808603909101815260c09094019052825192019190912060345550801561046e576000805461ff00191690555b505050565b7fb5c18197d4070033d8a764555784c9c515ef8c35627dac4a9520d96403df3b3581565b60356020526000908152604090205463ffffffff1681565b6001600160a01b0389166000908152603560205260409020805463ffffffff198116600163ffffffff92831690810190921617909155428510156105245760405162461bcd60e51b8152600401808060200182810382526024815260200180610c236024913960400191505060405180910390fd5b603454604080517fb5c18197d4070033d8a764555784c9c515ef8c35627dac4a9520d96403df3b356020808301919091526001600160a01b038e1682840152606082018d905261ffff8c16608083015260a082018b905260c082018a905263ffffffff851660e08301526101008083018a9052835180840390910181526101208301845280519082012061190160f01b610140840152610142830194909452610162808301949094528251808303909401845261018282018084528451948201949094206000948590526101a2830180855281905260ff89166101c28401526101e28301889052610202830187905292519293926001926102228082019392601f1981019281900390910190855afa158015610644573d6000803e3d6000fd5b5050604051601f1901519150506001600160a01b0381161580159061067a57508b6001600160a01b0316816001600160a01b0316145b6106b55760405162461bcd60e51b8152600401808060200182810382526021815260200180610bd26021913960400191505060405180910390fd5b6036546106d3906001600160a01b03168d308e63ffffffff61090416565b6036546037546040805163095ea7b360e01b81526001600160a01b039283166004820152602481018f90529051919092169163095ea7b39160448083019260209291908290030181600087803b15801561072c57600080fd5b505af1158015610740573d6000803e3d6000fd5b505050506040513d602081101561075657600080fd5b50506037546036546040805162f5287b60e41b81526001600160a01b039283166004820152602481018f905261ffff8e166044820152606481018d9052608481018c905263ffffffff871660a482015290519190921691630f5287b09160c480830192600092919082900301818387803b1580156107d357600080fd5b505af11580156107e7573d6000803e3d6000fd5b50505050505050505050505050505050565b600054610100900460ff168061081257506108126108c2565b80610820575060005460ff16155b61085b5760405162461bcd60e51b815260040180806020018281038252602e815260200180610c99602e913960400191505060405180910390fd5b600054610100900460ff16158015610886576000805460ff1961ff0019909116610100171660011790555b6033805460ff1916600117905580156108a5576000805461ff00191690555b50565b60006108b2610964565b506036546001600160a01b031690565b303b1590565b6000813f7fc5d2460186f7233c927e7db2dcc703c0e500b653ca82273b7bfad8045d85a4708181148015906108fc57508115155b949350505050565b604080516001600160a01b0385811660248301528416604482015260648082018490528251808303909101815260849091019091526020810180516001600160e01b03166323b872dd60e01b17905261095e9085906109ef565b50505050565b6033546040805180820190915260208082527f496e697469616c697a61626c6556323a204e6f7420696e697469616c697a6564908201529060ff1615156001146108a55760405162461bcd60e51b81526020600482018181528351602484015283519092839260449091019190850190808383600083156102a1578181015183820152602001610289565b610a01826001600160a01b03166108c8565b610a52576040805162461bcd60e51b815260206004820152601f60248201527f5361666545524332303a2063616c6c20746f206e6f6e2d636f6e747261637400604482015290519081900360640190fd5b60006060836001600160a01b0316836040518082805190602001908083835b60208310610a905780518252601f199092019160209182019101610a71565b6001836020036101000a0380198251168184511680821785525050505050509050019150506000604051808303816000865af19150503d8060008114610af2576040519150601f19603f3d011682016040523d82523d6000602084013e610af7565b606091505b509150915081610b4e576040805162461bcd60e51b815260206004820181905260248201527f5361666545524332303a206c6f772d6c6576656c2063616c6c206661696c6564604482015290519081900360640190fd5b80511561095e57808060200190516020811015610b6a57600080fd5b505161095e5760405162461bcd60e51b815260040180806020018281038252602a815260200180610cc7602a913960400191505060405180910390fdfe576f726d686f6c65436c69656e743a20576f726d686f6c65206973206e6f74206120636f6e7472616374576f726d686f6c65436c69656e743a20496e76616c6964207369676e6174757265576f726d686f6c65436c69656e743a205472616e7366657220746f6b656e206973206e6f74206120636f6e7472616374576f726d686f6c65436c69656e743a20446561646c696e65206861732065787069726564454950373132446f6d61696e28737472696e67206e616d652c737472696e672076657273696f6e2c75696e7432353620636861696e49642c6164647265737320766572696679696e67436f6e747261637429436f6e747261637420696e7374616e63652068617320616c7265616479206265656e20696e697469616c697a65645361666545524332303a204552433230206f7065726174696f6e20646964206e6f742073756363656564a265627a7a723158205efccd964a62a92d4425590da5df5ad08afeb3216f4fc2c44df0f04148504c5f64736f6c63430005110032",
  "source": "pragma solidity ^0.5.0;\n\nimport \"@openzeppelin/contracts-ethereum-package/contracts/math/SafeMath.sol\";\nimport \"@openzeppelin/contracts-ethereum-package/contracts/token/ERC20/SafeERC20.sol\";\nimport \"@openzeppelin/contracts-ethereum-package/contracts/token/ERC20/ERC20.sol\";\nimport \"@openzeppelin/contracts-ethereum-package/contracts/utils/Address.sol\";\nimport \"./InitializableV2.sol\";\nimport \"./IWormhole.sol\";\n\n\ncontract WormholeClient is InitializableV2 {\n    using SafeERC20 for ERC20;\n\n    string private constant ERROR_TOKEN_NOT_CONTRACT = (\n        \"WormholeClient: Transfer token is not a contract\"\n    );\n\n    string private constant ERROR_WORMHOLE_NOT_CONTRACT = (\n        \"WormholeClient: Wormhole is not a contract\"\n    );\n\n    // for ERC20 approve transactions in compliance with EIP 2612:\n    // https://github.com/ethereum/EIPs/blob/master/EIPS/eip-2612.md\n    // code below, in constructor, and in permit function adapted from the audited reference Uniswap implementation:\n    // https://github.com/Uniswap/uniswap-v2-core/blob/master/contracts/UniswapV2ERC20.sol\n    bytes32 public DOMAIN_SEPARATOR;\n    // keccak256(\"TransferTokens(address from,uint256 amount,uint16 recipientChain,bytes32 recipient,uint256 artbiterFee,uint32 nonce,uint256 deadline)\");\n\n    bytes32 public constant TRANSFER_TOKENS_TYPEHASH = (\n        0xb5c18197d4070033d8a764555784c9c515ef8c35627dac4a9520d96403df3b35\n    );\n\n    mapping(address => uint32) public nonces;\n\n    /// @dev ERC-20 token that will be transfered\n    ERC20 internal transferToken;\n    Wormhole internal wormhole;\n\n    /**\n     * @notice Get the token used by the contract for transfer\n     * @return The token used by the contract for transfer\n     */\n    function token() external view returns (address) {\n        _requireIsInitialized();\n        return address(transferToken);\n    }\n\n    /**\n     * @notice Function to initialize the contract\n     * @param _tokenAddress - address of ERC20 token that will be transfered\n     * @param _wormholeAddress - address for Wormhole proxy contract\n     */\n    function initialize(address _tokenAddress, address _wormholeAddress)\n        public\n        initializer\n    {\n        require(Address.isContract(_tokenAddress), ERROR_TOKEN_NOT_CONTRACT);\n        require(\n            Address.isContract(_wormholeAddress),\n            ERROR_WORMHOLE_NOT_CONTRACT\n        );\n        transferToken = ERC20(_tokenAddress);\n        wormhole = Wormhole(_wormholeAddress);\n        InitializableV2.initialize();\n\n        // EIP712-compatible signature data\n        uint chainId;\n        // solium-disable security/no-inline-assembly\n        assembly {\n            chainId := chainid\n        }\n        DOMAIN_SEPARATOR = keccak256(\n            abi.encode(\n                keccak256(\"EIP712Domain(string name,string version,uint256 chainId,address verifyingContract)\"),\n                keccak256(bytes(\"AudiusWormholeClient\")),\n                keccak256(bytes(\"1\")),\n                chainId,\n                address(this)\n            )\n        );\n    }\n\n    /**\n     * @notice transfer `_amount` of tokens from sender to target account\n     * @param from - account to transfer from\n     * @param amount - amount of token to transfer\n     * @param recipientChain -  id of the chain to transfer to\n     * @param recipient - foreign chain address of recipient\n     * @param arbiterFee - the amount to pay the arbiter\n     */\n    function transferTokens(\n        address from,\n        uint256 amount,\n        uint16 recipientChain,\n        bytes32 recipient,\n        uint256 arbiterFee,\n        uint deadline,\n        uint8 v,\n        bytes32 r,\n        bytes32 s\n    ) public {\n        uint32 nonce = nonces[from]++;\n\n        // solium-disable security/no-block-members\n        require(deadline >= block.timestamp, \"WormholeClient: Deadline has expired\");\n        bytes32 digest = keccak256(\n            abi.encodePacked(\n                \"\\x19\\x01\",\n                DOMAIN_SEPARATOR,\n                keccak256(\n                    abi.encode(\n                        TRANSFER_TOKENS_TYPEHASH,\n                        from,\n                        amount,\n                        recipientChain,\n                        recipient,\n\t\t\t            arbiterFee,\n                        nonce,\n                        deadline\n                    )\n                )\n            )\n        );\n\n        address recoveredAddress = ecrecover(digest, v, r, s);\n        require(\n            recoveredAddress != address(0) && recoveredAddress == from,\n            \"WormholeClient: Invalid signature\"\n        );\n\n        transferToken.safeTransferFrom(from, address(this), amount);\n        transferToken.approve(address(wormhole), amount);\n\n        wormhole.transferTokens(\n            address(transferToken),\n            amount,\n            recipientChain,\n            recipient,\n\t        arbiterFee,\n            nonce\n        );\n    }\n}\n",
  "sourcePath": "/usr/src/app/contracts/WormholeClient.sol",
  "compiler": {
    "name": "solc",
    "version": "0.5.17+commit.d19bba13.Emscripten.clang"
  },
  "schemaVersion": "3.4.4",
  "updatedAt": "2023-03-02T06:41:29.358Z",
  "devdoc": {
    "methods": {
      "initialize(address,address)": {
        "params": {
          "_tokenAddress": "- address of ERC20 token that will be transfered",
          "_wormholeAddress": "- address for Wormhole proxy contract"
        }
      },
      "token()": {
        "return": "The token used by the contract for transfer"
      },
      "transferTokens(address,uint256,uint16,bytes32,uint256,uint256,uint8,bytes32,bytes32)": {
        "params": {
          "amount": "- amount of token to transfer",
          "arbiterFee": "- the amount to pay the arbiter",
          "from": "- account to transfer from",
          "recipient": "- foreign chain address of recipient",
          "recipientChain": "-  id of the chain to transfer to"
        }
      }
    }
  },
  "userdoc": {
    "methods": {
      "initialize()": {
        "notice": "wrapper function around parent contract Initializable's `initializable` modifier     initializable modifier ensures this function can only be called once by each deployed child contract     sets isInitialized flag to true to which is used by _requireIsInitialized()"
      },
      "initialize(address,address)": {
        "notice": "Function to initialize the contract"
      },
      "token()": {
        "notice": "Get the token used by the contract for transfer"
      },
      "transferTokens(address,uint256,uint16,bytes32,uint256,uint256,uint8,bytes32,bytes32)": {
        "notice": "transfer `_amount` of tokens from sender to target account"
      }
    }
  }
}