{
  "contractName": "AudiusClaimDistributor",
  "abi": [
    {
      "inputs": [
        {
          "internalType": "address",
          "name": "_token",
          "type": "address"
        },
        {
          "internalType": "bytes32",
          "name": "_merkleRoot",
          "type": "bytes32"
        }
      ],
      "stateMutability": "nonpayable",
      "type": "constructor"
    },
    {
      "anonymous": false,
      "inputs": [
        {
          "indexed": false,
          "internalType": "uint256",
          "name": "index",
          "type": "uint256"
        },
        {
          "indexed": false,
          "internalType": "address",
          "name": "account",
          "type": "address"
        },
        {
          "indexed": false,
          "internalType": "uint256",
          "name": "amount",
          "type": "uint256"
        }
      ],
      "name": "Claimed",
      "type": "event"
    },
    {
      "inputs": [],
      "name": "merkleRoot",
      "outputs": [
        {
          "internalType": "bytes32",
          "name": "",
          "type": "bytes32"
        }
      ],
      "stateMutability": "view",
      "type": "function",
      "constant": true
    },
    {
      "inputs": [],
      "name": "token",
      "outputs": [
        {
          "internalType": "address",
          "name": "",
          "type": "address"
        }
      ],
      "stateMutability": "view",
      "type": "function",
      "constant": true
    },
    {
      "inputs": [
        {
          "internalType": "uint256",
          "name": "index",
          "type": "uint256"
        }
      ],
      "name": "isClaimed",
      "outputs": [
        {
          "internalType": "bool",
          "name": "",
          "type": "bool"
        }
      ],
      "stateMutability": "view",
      "type": "function",
      "constant": true
    },
    {
      "inputs": [
        {
          "internalType": "uint256",
          "name": "index",
          "type": "uint256"
        },
        {
          "internalType": "address",
          "name": "account",
          "type": "address"
        },
        {
          "internalType": "uint256",
          "name": "amount",
          "type": "uint256"
        },
        {
          "internalType": "bytes32[]",
          "name": "merkleProof",
          "type": "bytes32[]"
        }
      ],
      "name": "claim",
      "outputs": [],
      "stateMutability": "nonpayable",
      "type": "function"
    }
  ],
  "bytecode": "0x608060405234801561001057600080fd5b506040516105953803806105958339818101604052604081101561003357600080fd5b508051602090910151600080546001600160a01b0319166001600160a01b0390931692909217825560015561052790819061006e90396000f3fe608060405234801561001057600080fd5b506004361061004c5760003560e01c80632e7ba6ef146100515780632eb4a7ab146100df5780639e34070f146100f9578063fc0c546a1461012a575b600080fd5b6100dd6004803603608081101561006757600080fd5b8135916001600160a01b03602082013516916040820135919081019060808101606082013564010000000081111561009e57600080fd5b8201836020820111156100b057600080fd5b803590602001918460208302840111640100000000831117156100d257600080fd5b50909250905061014e565b005b6100e761036b565b60408051918252519081900360200190f35b6101166004803603602081101561010f57600080fd5b5035610371565b604080519115158252519081900360200190f35b610132610397565b604080516001600160a01b039092168252519081900360200190f35b61015785610371565b156101935760405162461bcd60e51b815260040180806020018281038252602d8152602001806104c5602d913960400191505060405180910390fd5b6040805160208082018890526bffffffffffffffffffffffff19606088901b1682840152605480830187905283518084039091018152607483018085528151918301919091206094928602808501840190955285825293610217939192879287928392909101908490808284376000920191909152505060015491508490506103a6565b6102525760405162461bcd60e51b81526004018080602001828103825260268152602001806104776026913960400191505060405180910390fd5b61025b8661044f565b600080546040805163a9059cbb60e01b81526001600160a01b038981166004830152602482018990529151919092169263a9059cbb92604480820193602093909283900390910190829087803b1580156102b457600080fd5b505af11580156102c8573d6000803e3d6000fd5b505050506040513d60208110156102de57600080fd5b505161031b5760405162461bcd60e51b815260040180806020018281038252602881526020018061049d6028913960400191505060405180910390fd5b604080518781526001600160a01b038716602082015280820186905290517f4ec90e965519d92681267467f775ada5bd214aa92c0dc93d90a5e880ce9ed0269181900360600190a1505050505050565b60015481565b6101008104600090815260026020526040902054600160ff9092169190911b9081161490565b6000546001600160a01b031681565b600081815b85518110156104445760008682815181106103c257fe5b60200260200101519050808311610409578281604051602001808381526020018281526020019250505060405160208183030381529060405280519060200120925061043b565b808360405160200180838152602001828152602001925050506040516020818303038152906040528051906020012092505b506001016103ab565b509092149392505050565b610100810460009081526002602052604090208054600160ff9093169290921b909117905556fe417564697573436c61696d4469737472696275746f723a20496e76616c69642070726f6f662e417564697573436c61696d4469737472696275746f723a205472616e73666572206661696c65642e417564697573436c61696d4469737472696275746f723a2044726f7020616c726561647920636c61696d65642ea264697066735822122018014325095f80effd049103159db0073881384608f356cc08c3de087713e46964736f6c634300060a0033",
  "immutableReferences": {},
  "source": "// SPDX-License-Identifier: UNLICENSED\npragma solidity >=0.6.0;\n\nimport \"@openzeppelin/contracts/token/ERC20/IERC20.sol\";\nimport \"@openzeppelin/contracts/cryptography/MerkleProof.sol\";\n\n/**\n * Replicated from (No changes made): https://github.com/Uniswap/merkle-distributor/blob/master/contracts/MerkleDistributor.sol\n */\ncontract AudiusClaimDistributor {\n    address public token;\n    bytes32 public merkleRoot;\n\n    // This is a packed array of booleans.\n    mapping(uint256 => uint256) private claimedBitMap;\n\n    // This event is triggered whenever a call to #claim succeeds.\n    event Claimed(uint256 index, address account, uint256 amount);\n\n    constructor(address _token, bytes32 _merkleRoot) public {\n        token = _token;\n        merkleRoot = _merkleRoot;\n    }\n\n    function isClaimed(uint256 index) public view returns (bool) {\n        uint256 claimedWordIndex = index / 256;\n        uint256 claimedBitIndex = index % 256;\n        uint256 claimedWord = claimedBitMap[claimedWordIndex];\n        uint256 mask = (1 << claimedBitIndex);\n        return claimedWord & mask == mask;\n    }\n\n    function _setClaimed(uint256 index) private {\n        uint256 claimedWordIndex = index / 256;\n        uint256 claimedBitIndex = index % 256;\n        claimedBitMap[claimedWordIndex] = claimedBitMap[claimedWordIndex] | (1 << claimedBitIndex);\n    }\n\n    /**\n     * No caller permissioning needed since token is transfered to account argument,\n     *    and there is no incentive to call function for another account.\n     * Can only submit claim for full claimable amount, otherwise proof verification will fail.\n     */\n    function claim(uint256 index, address account, uint256 amount, bytes32[] calldata merkleProof) external {\n        require(!isClaimed(index), 'AudiusClaimDistributor: Drop already claimed.');\n\n        // Verify the merkle proof.\n        bytes32 node = keccak256(abi.encodePacked(index, account, amount));\n        require(MerkleProof.verify(merkleProof, merkleRoot, node), 'AudiusClaimDistributor: Invalid proof.');\n\n        // Mark it claimed and send the token.\n        _setClaimed(index);\n        require(IERC20(token).transfer(account, amount), 'AudiusClaimDistributor: Transfer failed.');\n\n        emit Claimed(index, account, amount);\n    }\n}\n",
  "sourcePath": "/Users/joey/workspace/claim-distribution/contracts/AudiusClaimDistributor.sol",
  "compiler": {
    "name": "solc",
    "version": "0.6.10+commit.00c0fcaf.Emscripten.clang"
  },
  "schemaVersion": "3.1.0",
  "updatedAt": "2020-10-15T18:11:25.487Z",
  "networkType": "ethereum",
  "devdoc": {
    "methods": {}
  },
  "userdoc": {
    "methods": {
      "claim(uint256,address,uint256,bytes32[])": {
        "notice": "No caller permissioning needed since token is transfered to account argument,    and there is no incentive to call function for another account. Can only submit claim for full claimable amount, otherwise proof verification will fail."
      }
    },
    "notice": "Replicated from (No changes made): https://github.com/Uniswap/merkle-distributor/blob/master/contracts/MerkleDistributor.sol"
  }
}